{
	"contracts/SimpleCrowdSale.sol": {
		"SimpleCrowdSale": {
			"abi": [
				{
					"inputs": [
						{
							"internalType": "uint256",
							"name": "_startTime",
							"type": "uint256"
						},
						{
							"internalType": "uint256",
							"name": "_endTime",
							"type": "uint256"
						},
						{
							"internalType": "uint256",
							"name": "_weiTokenPrice",
							"type": "uint256"
						},
						{
							"internalType": "uint256",
							"name": "_etherInvestmentObjective",
							"type": "uint256"
						}
					],
					"stateMutability": "nonpayable",
					"type": "constructor"
				},
				{
					"anonymous": false,
					"inputs": [
						{
							"indexed": true,
							"internalType": "address",
							"name": "investor",
							"type": "address"
						},
						{
							"indexed": false,
							"internalType": "uint256",
							"name": "value",
							"type": "uint256"
						}
					],
					"name": "LogInvestment",
					"type": "event"
				},
				{
					"anonymous": false,
					"inputs": [
						{
							"indexed": true,
							"internalType": "address",
							"name": "investor",
							"type": "address"
						},
						{
							"indexed": false,
							"internalType": "uint256",
							"name": "numTokens",
							"type": "uint256"
						}
					],
					"name": "LogTokenAssignment",
					"type": "event"
				},
				{
					"anonymous": false,
					"inputs": [
						{
							"indexed": false,
							"internalType": "address",
							"name": "investor",
							"type": "address"
						},
						{
							"indexed": false,
							"internalType": "uint256",
							"name": "value",
							"type": "uint256"
						}
					],
					"name": "Refund",
					"type": "event"
				},
				{
					"inputs": [],
					"name": "crowdsaleToken",
					"outputs": [
						{
							"internalType": "contract ReleasableSimpleCoin",
							"name": "",
							"type": "address"
						}
					],
					"stateMutability": "view",
					"type": "function"
				},
				{
					"inputs": [],
					"name": "endTime",
					"outputs": [
						{
							"internalType": "uint256",
							"name": "",
							"type": "uint256"
						}
					],
					"stateMutability": "view",
					"type": "function"
				},
				{
					"inputs": [],
					"name": "finalize",
					"outputs": [],
					"stateMutability": "nonpayable",
					"type": "function"
				},
				{
					"inputs": [
						{
							"internalType": "address",
							"name": "",
							"type": "address"
						}
					],
					"name": "inventmentAmountOf",
					"outputs": [
						{
							"internalType": "uint256",
							"name": "",
							"type": "uint256"
						}
					],
					"stateMutability": "view",
					"type": "function"
				},
				{
					"inputs": [],
					"name": "invest",
					"outputs": [],
					"stateMutability": "payable",
					"type": "function"
				},
				{
					"inputs": [],
					"name": "investmentReceived",
					"outputs": [
						{
							"internalType": "uint256",
							"name": "",
							"type": "uint256"
						}
					],
					"stateMutability": "view",
					"type": "function"
				},
				{
					"inputs": [],
					"name": "investmentRefunded",
					"outputs": [
						{
							"internalType": "uint256",
							"name": "",
							"type": "uint256"
						}
					],
					"stateMutability": "view",
					"type": "function"
				},
				{
					"inputs": [],
					"name": "isFinalized",
					"outputs": [
						{
							"internalType": "bool",
							"name": "",
							"type": "bool"
						}
					],
					"stateMutability": "view",
					"type": "function"
				},
				{
					"inputs": [],
					"name": "isRefundingAllowed",
					"outputs": [
						{
							"internalType": "bool",
							"name": "",
							"type": "bool"
						}
					],
					"stateMutability": "view",
					"type": "function"
				},
				{
					"inputs": [],
					"name": "owner",
					"outputs": [
						{
							"internalType": "address",
							"name": "",
							"type": "address"
						}
					],
					"stateMutability": "view",
					"type": "function"
				},
				{
					"inputs": [],
					"name": "refund",
					"outputs": [],
					"stateMutability": "nonpayable",
					"type": "function"
				},
				{
					"inputs": [],
					"name": "startTime",
					"outputs": [
						{
							"internalType": "uint256",
							"name": "",
							"type": "uint256"
						}
					],
					"stateMutability": "view",
					"type": "function"
				},
				{
					"inputs": [],
					"name": "weiInvestmentObjective",
					"outputs": [
						{
							"internalType": "uint256",
							"name": "",
							"type": "uint256"
						}
					],
					"stateMutability": "view",
					"type": "function"
				},
				{
					"inputs": [],
					"name": "weiTokenPrice",
					"outputs": [
						{
							"internalType": "uint256",
							"name": "",
							"type": "uint256"
						}
					],
					"stateMutability": "view",
					"type": "function"
				}
			],
			"devdoc": {
				"kind": "dev",
				"methods": {},
				"version": 1
			},
			"evm": {
				"assembly": "    /* \"contracts/SimpleCrowdSale.sol\":118:4600  contract SimpleCrowdSale is Ownable {... */\n  mstore(0x40, 0x80)\n    /* \"contracts/SimpleCrowdSale.sol\":1062:1685  constructor(uint256 _startTime, uint256 _endTime, uint256 _weiTokenPrice, uint256 _etherInvestmentObjective) {... */\n  callvalue\n  dup1\n  iszero\n  tag_1\n  jumpi\n  revert(0x00, 0x00)\ntag_1:\n  pop\n  mload(0x40)\n  sub(codesize, bytecodeSize)\n  dup1\n  bytecodeSize\n  dup4\n  codecopy\n  dup2\n  dup2\n  add\n  0x40\n  mstore\n  dup2\n  add\n  swap1\n  tag_2\n  swap2\n  swap1\n  tag_3\n  jump\t// in\ntag_2:\n    /* \"contracts/Ownable.sol\":139:149  msg.sender */\n  caller\n    /* \"contracts/Ownable.sol\":131:136  owner */\n  0x00\n  0x00\n    /* \"contracts/Ownable.sol\":131:149  owner = msg.sender */\n  0x0100\n  exp\n  dup2\n  sload\n  dup2\n  0xffffffffffffffffffffffffffffffffffffffff\n  mul\n  not\n  and\n  swap1\n  dup4\n  0xffffffffffffffffffffffffffffffffffffffff\n  and\n  mul\n  or\n  swap1\n  sstore\n  pop\n    /* \"contracts/SimpleCrowdSale.sol\":1203:1218  block.timestamp */\n  timestamp\n    /* \"contracts/SimpleCrowdSale.sol\":1189:1199  _startTime */\n  dup5\n    /* \"contracts/SimpleCrowdSale.sol\":1189:1218  _startTime >= block.timestamp */\n  lt\n  iszero\n    /* \"contracts/SimpleCrowdSale.sol\":1181:1219  require(_startTime >= block.timestamp) */\n  tag_8\n  jumpi\n  revert(0x00, 0x00)\ntag_8:\n    /* \"contracts/SimpleCrowdSale.sol\":1249:1259  _startTime */\n  dup4\n    /* \"contracts/SimpleCrowdSale.sol\":1237:1245  _endTime */\n  dup4\n    /* \"contracts/SimpleCrowdSale.sol\":1237:1259  _endTime >= _startTime */\n  lt\n  iszero\n    /* \"contracts/SimpleCrowdSale.sol\":1229:1260  require(_endTime >= _startTime) */\n  tag_9\n  jumpi\n  revert(0x00, 0x00)\ntag_9:\n    /* \"contracts/SimpleCrowdSale.sol\":1296:1297  0 */\n  0x00\n    /* \"contracts/SimpleCrowdSale.sol\":1278:1292  _weiTokenPrice */\n  dup3\n    /* \"contracts/SimpleCrowdSale.sol\":1278:1297  _weiTokenPrice != 0 */\n  sub\n    /* \"contracts/SimpleCrowdSale.sol\":1270:1298  require(_weiTokenPrice != 0) */\n  tag_10\n  jumpi\n  revert(0x00, 0x00)\ntag_10:\n    /* \"contracts/SimpleCrowdSale.sol\":1345:1346  0 */\n  0x00\n    /* \"contracts/SimpleCrowdSale.sol\":1316:1341  _etherInvestmentObjective */\n  dup2\n    /* \"contracts/SimpleCrowdSale.sol\":1316:1346  _etherInvestmentObjective != 0 */\n  sub\n    /* \"contracts/SimpleCrowdSale.sol\":1308:1347  require(_etherInvestmentObjective != 0) */\n  tag_11\n  jumpi\n  revert(0x00, 0x00)\ntag_11:\n    /* \"contracts/SimpleCrowdSale.sol\":1370:1380  _startTime */\n  dup4\n    /* \"contracts/SimpleCrowdSale.sol\":1358:1367  startTime */\n  0x01\n    /* \"contracts/SimpleCrowdSale.sol\":1358:1380  startTime = _startTime */\n  dup2\n  swap1\n  sstore\n  pop\n    /* \"contracts/SimpleCrowdSale.sol\":1400:1408  _endTime */\n  dup3\n    /* \"contracts/SimpleCrowdSale.sol\":1390:1397  endTime */\n  0x02\n    /* \"contracts/SimpleCrowdSale.sol\":1390:1408  endTime = _endTime */\n  dup2\n  swap1\n  sstore\n  pop\n    /* \"contracts/SimpleCrowdSale.sol\":1434:1448  _weiTokenPrice */\n  dup2\n    /* \"contracts/SimpleCrowdSale.sol\":1418:1431  weiTokenPrice */\n  0x03\n    /* \"contracts/SimpleCrowdSale.sol\":1418:1448  weiTokenPrice = _weiTokenPrice */\n  dup2\n  swap1\n  sstore\n  pop\n    /* \"contracts/SimpleCrowdSale.sol\":1511:1530  1000000000000000000 */\n  0x0de0b6b3a7640000\n    /* \"contracts/SimpleCrowdSale.sol\":1483:1508  _etherInvestmentObjective */\n  dup2\n    /* \"contracts/SimpleCrowdSale.sol\":1483:1530  _etherInvestmentObjective * 1000000000000000000 */\n  tag_12\n  swap2\n  swap1\n  tag_13\n  jump\t// in\ntag_12:\n    /* \"contracts/SimpleCrowdSale.sol\":1458:1480  weiInvestmentObjective */\n  0x04\n    /* \"contracts/SimpleCrowdSale.sol\":1458:1530  weiInvestmentObjective = _etherInvestmentObjective * 1000000000000000000 */\n  dup2\n  swap1\n  sstore\n  pop\n    /* \"contracts/SimpleCrowdSale.sol\":1583:1584  0 */\n  0x00\n    /* \"contracts/SimpleCrowdSale.sol\":1558:1585  new ReleasableSimpleCoin(0) */\n  mload(0x40)\n  tag_14\n  swap1\n  tag_15\n  jump\t// in\ntag_14:\n  tag_16\n  swap2\n  swap1\n  tag_17\n  jump\t// in\ntag_16:\n  mload(0x40)\n  dup1\n  swap2\n  sub\n  swap1\n  0x00\n  create\n  dup1\n  iszero\n  dup1\n  iszero\n  tag_18\n  jumpi\n  returndatacopy(0x00, 0x00, returndatasize)\n  revert(0x00, returndatasize)\ntag_18:\n  pop\n    /* \"contracts/SimpleCrowdSale.sol\":1541:1555  crowdsaleToken */\n  0x08\n  0x02\n    /* \"contracts/SimpleCrowdSale.sol\":1541:1585  crowdsaleToken = new ReleasableSimpleCoin(0) */\n  0x0100\n  exp\n  dup2\n  sload\n  dup2\n  0xffffffffffffffffffffffffffffffffffffffff\n  mul\n  not\n  and\n  swap1\n  dup4\n  0xffffffffffffffffffffffffffffffffffffffff\n  and\n  mul\n  or\n  swap1\n  sstore\n  pop\n    /* \"contracts/SimpleCrowdSale.sol\":1609:1614  false */\n  0x00\n    /* \"contracts/SimpleCrowdSale.sol\":1595:1606  isFinalized */\n  0x08\n  0x00\n    /* \"contracts/SimpleCrowdSale.sol\":1595:1614  isFinalized = false */\n  0x0100\n  exp\n  dup2\n  sload\n  dup2\n  0xff\n  mul\n  not\n  and\n  swap1\n  dup4\n  iszero\n  iszero\n  mul\n  or\n  swap1\n  sstore\n  pop\n    /* \"contracts/SimpleCrowdSale.sol\":1645:1650  false */\n  0x00\n    /* \"contracts/SimpleCrowdSale.sol\":1624:1642  isRefundingAllowed */\n  0x08\n  0x01\n    /* \"contracts/SimpleCrowdSale.sol\":1624:1650  isRefundingAllowed = false */\n  0x0100\n  exp\n  dup2\n  sload\n  dup2\n  0xff\n  mul\n  not\n  and\n  swap1\n  dup4\n  iszero\n  iszero\n  mul\n  or\n  swap1\n  sstore\n  pop\n    /* \"contracts/SimpleCrowdSale.sol\":1668:1678  msg.sender */\n  caller\n    /* \"contracts/SimpleCrowdSale.sol\":1660:1665  owner */\n  0x00\n  0x00\n    /* \"contracts/SimpleCrowdSale.sol\":1660:1678  owner = msg.sender */\n  0x0100\n  exp\n  dup2\n  sload\n  dup2\n  0xffffffffffffffffffffffffffffffffffffffff\n  mul\n  not\n  and\n  swap1\n  dup4\n  0xffffffffffffffffffffffffffffffffffffffff\n  and\n  mul\n  or\n  swap1\n  sstore\n  pop\n    /* \"contracts/SimpleCrowdSale.sol\":1062:1685  constructor(uint256 _startTime, uint256 _endTime, uint256 _weiTokenPrice, uint256 _etherInvestmentObjective) {... */\n  pop\n  pop\n  pop\n  pop\n    /* \"contracts/SimpleCrowdSale.sol\":118:4600  contract SimpleCrowdSale is Ownable {... */\n  jump(tag_19)\ntag_15:\n  dataSize(sub_1)\n  dup1\n  dataOffset(sub_1)\n  dup4\n  codecopy\n  add\n  swap1\n  jump\t// out\n    /* \"#utility.yul\":88:205   */\ntag_21:\n    /* \"#utility.yul\":197:198   */\n  0x00\n    /* \"#utility.yul\":194:195   */\n  0x00\n    /* \"#utility.yul\":187:199   */\n  revert\n    /* \"#utility.yul\":334:411   */\ntag_23:\n    /* \"#utility.yul\":371:378   */\n  0x00\n    /* \"#utility.yul\":400:405   */\n  dup2\n    /* \"#utility.yul\":389:405   */\n  swap1\n  pop\n    /* \"#utility.yul\":334:411   */\n  swap2\n  swap1\n  pop\n  jump\t// out\n    /* \"#utility.yul\":417:539   */\ntag_24:\n    /* \"#utility.yul\":490:514   */\n  tag_37\n    /* \"#utility.yul\":508:513   */\n  dup2\n    /* \"#utility.yul\":490:514   */\n  tag_23\n  jump\t// in\ntag_37:\n    /* \"#utility.yul\":483:488   */\n  dup2\n    /* \"#utility.yul\":480:515   */\n  eq\n    /* \"#utility.yul\":470:533   */\n  tag_38\n  jumpi\n    /* \"#utility.yul\":529:530   */\n  0x00\n    /* \"#utility.yul\":526:527   */\n  0x00\n    /* \"#utility.yul\":519:531   */\n  revert\n    /* \"#utility.yul\":470:533   */\ntag_38:\n    /* \"#utility.yul\":417:539   */\n  pop\n  jump\t// out\n    /* \"#utility.yul\":545:688   */\ntag_25:\n    /* \"#utility.yul\":602:607   */\n  0x00\n    /* \"#utility.yul\":633:639   */\n  dup2\n    /* \"#utility.yul\":627:640   */\n  mload\n    /* \"#utility.yul\":618:640   */\n  swap1\n  pop\n    /* \"#utility.yul\":649:682   */\n  tag_40\n    /* \"#utility.yul\":676:681   */\n  dup2\n    /* \"#utility.yul\":649:682   */\n  tag_24\n  jump\t// in\ntag_40:\n    /* \"#utility.yul\":545:688   */\n  swap3\n  swap2\n  pop\n  pop\n  jump\t// out\n    /* \"#utility.yul\":694:1514   */\ntag_3:\n    /* \"#utility.yul\":791:797   */\n  0x00\n    /* \"#utility.yul\":799:805   */\n  0x00\n    /* \"#utility.yul\":807:813   */\n  0x00\n    /* \"#utility.yul\":815:821   */\n  0x00\n    /* \"#utility.yul\":864:867   */\n  0x80\n    /* \"#utility.yul\":852:861   */\n  dup6\n    /* \"#utility.yul\":843:850   */\n  dup8\n    /* \"#utility.yul\":839:862   */\n  sub\n    /* \"#utility.yul\":835:868   */\n  slt\n    /* \"#utility.yul\":832:952   */\n  iszero\n  tag_42\n  jumpi\n    /* \"#utility.yul\":871:950   */\n  tag_43\n  tag_21\n  jump\t// in\ntag_43:\n    /* \"#utility.yul\":832:952   */\ntag_42:\n    /* \"#utility.yul\":991:992   */\n  0x00\n    /* \"#utility.yul\":1016:1080   */\n  tag_44\n    /* \"#utility.yul\":1072:1079   */\n  dup8\n    /* \"#utility.yul\":1063:1069   */\n  dup3\n    /* \"#utility.yul\":1052:1061   */\n  dup9\n    /* \"#utility.yul\":1048:1070   */\n  add\n    /* \"#utility.yul\":1016:1080   */\n  tag_25\n  jump\t// in\ntag_44:\n    /* \"#utility.yul\":1006:1080   */\n  swap5\n  pop\n    /* \"#utility.yul\":962:1090   */\n  pop\n    /* \"#utility.yul\":1129:1131   */\n  0x20\n    /* \"#utility.yul\":1155:1219   */\n  tag_45\n    /* \"#utility.yul\":1211:1218   */\n  dup8\n    /* \"#utility.yul\":1202:1208   */\n  dup3\n    /* \"#utility.yul\":1191:1200   */\n  dup9\n    /* \"#utility.yul\":1187:1209   */\n  add\n    /* \"#utility.yul\":1155:1219   */\n  tag_25\n  jump\t// in\ntag_45:\n    /* \"#utility.yul\":1145:1219   */\n  swap4\n  pop\n    /* \"#utility.yul\":1100:1229   */\n  pop\n    /* \"#utility.yul\":1268:1270   */\n  0x40\n    /* \"#utility.yul\":1294:1358   */\n  tag_46\n    /* \"#utility.yul\":1350:1357   */\n  dup8\n    /* \"#utility.yul\":1341:1347   */\n  dup3\n    /* \"#utility.yul\":1330:1339   */\n  dup9\n    /* \"#utility.yul\":1326:1348   */\n  add\n    /* \"#utility.yul\":1294:1358   */\n  tag_25\n  jump\t// in\ntag_46:\n    /* \"#utility.yul\":1284:1358   */\n  swap3\n  pop\n    /* \"#utility.yul\":1239:1368   */\n  pop\n    /* \"#utility.yul\":1407:1409   */\n  0x60\n    /* \"#utility.yul\":1433:1497   */\n  tag_47\n    /* \"#utility.yul\":1489:1496   */\n  dup8\n    /* \"#utility.yul\":1480:1486   */\n  dup3\n    /* \"#utility.yul\":1469:1478   */\n  dup9\n    /* \"#utility.yul\":1465:1487   */\n  add\n    /* \"#utility.yul\":1433:1497   */\n  tag_25\n  jump\t// in\ntag_47:\n    /* \"#utility.yul\":1423:1497   */\n  swap2\n  pop\n    /* \"#utility.yul\":1378:1507   */\n  pop\n    /* \"#utility.yul\":694:1514   */\n  swap3\n  swap6\n  swap2\n  swap5\n  pop\n  swap3\n  pop\n  jump\t// out\n    /* \"#utility.yul\":1520:1700   */\ntag_26:\n    /* \"#utility.yul\":1568:1645   */\n  0x4e487b7100000000000000000000000000000000000000000000000000000000\n    /* \"#utility.yul\":1565:1566   */\n  0x00\n    /* \"#utility.yul\":1558:1646   */\n  mstore\n    /* \"#utility.yul\":1665:1669   */\n  0x11\n    /* \"#utility.yul\":1662:1663   */\n  0x04\n    /* \"#utility.yul\":1655:1670   */\n  mstore\n    /* \"#utility.yul\":1689:1693   */\n  0x24\n    /* \"#utility.yul\":1686:1687   */\n  0x00\n    /* \"#utility.yul\":1679:1694   */\n  revert\n    /* \"#utility.yul\":1706:2116   */\ntag_13:\n    /* \"#utility.yul\":1746:1753   */\n  0x00\n    /* \"#utility.yul\":1769:1789   */\n  tag_50\n    /* \"#utility.yul\":1787:1788   */\n  dup3\n    /* \"#utility.yul\":1769:1789   */\n  tag_23\n  jump\t// in\ntag_50:\n    /* \"#utility.yul\":1764:1789   */\n  swap2\n  pop\n    /* \"#utility.yul\":1803:1823   */\n  tag_51\n    /* \"#utility.yul\":1821:1822   */\n  dup4\n    /* \"#utility.yul\":1803:1823   */\n  tag_23\n  jump\t// in\ntag_51:\n    /* \"#utility.yul\":1798:1823   */\n  swap3\n  pop\n    /* \"#utility.yul\":1858:1859   */\n  dup3\n    /* \"#utility.yul\":1855:1856   */\n  dup3\n    /* \"#utility.yul\":1851:1860   */\n  mul\n    /* \"#utility.yul\":1880:1910   */\n  tag_52\n    /* \"#utility.yul\":1898:1909   */\n  dup2\n    /* \"#utility.yul\":1880:1910   */\n  tag_23\n  jump\t// in\ntag_52:\n    /* \"#utility.yul\":1869:1910   */\n  swap2\n  pop\n    /* \"#utility.yul\":2059:2060   */\n  dup3\n    /* \"#utility.yul\":2050:2057   */\n  dup3\n    /* \"#utility.yul\":2046:2061   */\n  div\n    /* \"#utility.yul\":2043:2044   */\n  dup5\n    /* \"#utility.yul\":2040:2062   */\n  eq\n    /* \"#utility.yul\":2020:2021   */\n  dup4\n    /* \"#utility.yul\":2013:2022   */\n  iszero\n    /* \"#utility.yul\":1993:2076   */\n  or\n    /* \"#utility.yul\":1970:2109   */\n  tag_53\n  jumpi\n    /* \"#utility.yul\":2089:2107   */\n  tag_54\n  tag_26\n  jump\t// in\ntag_54:\n    /* \"#utility.yul\":1970:2109   */\ntag_53:\n    /* \"#utility.yul\":1754:2116   */\n  pop\n    /* \"#utility.yul\":1706:2116   */\n  swap3\n  swap2\n  pop\n  pop\n  jump\t// out\n    /* \"#utility.yul\":2122:2207   */\ntag_27:\n    /* \"#utility.yul\":2167:2174   */\n  0x00\n    /* \"#utility.yul\":2196:2201   */\n  dup2\n    /* \"#utility.yul\":2185:2201   */\n  swap1\n  pop\n    /* \"#utility.yul\":2122:2207   */\n  swap2\n  swap1\n  pop\n  jump\t// out\n    /* \"#utility.yul\":2213:2273   */\ntag_28:\n    /* \"#utility.yul\":2241:2244   */\n  0x00\n    /* \"#utility.yul\":2262:2267   */\n  dup2\n    /* \"#utility.yul\":2255:2267   */\n  swap1\n  pop\n    /* \"#utility.yul\":2213:2273   */\n  swap2\n  swap1\n  pop\n  jump\t// out\n    /* \"#utility.yul\":2279:2437   */\ntag_29:\n    /* \"#utility.yul\":2337:2346   */\n  0x00\n    /* \"#utility.yul\":2370:2431   */\n  tag_58\n    /* \"#utility.yul\":2388:2430   */\n  tag_59\n    /* \"#utility.yul\":2397:2429   */\n  tag_60\n    /* \"#utility.yul\":2423:2428   */\n  dup5\n    /* \"#utility.yul\":2397:2429   */\n  tag_27\n  jump\t// in\ntag_60:\n    /* \"#utility.yul\":2388:2430   */\n  tag_28\n  jump\t// in\ntag_59:\n    /* \"#utility.yul\":2370:2431   */\n  tag_23\n  jump\t// in\ntag_58:\n    /* \"#utility.yul\":2357:2431   */\n  swap1\n  pop\n    /* \"#utility.yul\":2279:2437   */\n  swap2\n  swap1\n  pop\n  jump\t// out\n    /* \"#utility.yul\":2443:2590   */\ntag_30:\n    /* \"#utility.yul\":2538:2583   */\n  tag_62\n    /* \"#utility.yul\":2577:2582   */\n  dup2\n    /* \"#utility.yul\":2538:2583   */\n  tag_29\n  jump\t// in\ntag_62:\n    /* \"#utility.yul\":2533:2536   */\n  dup3\n    /* \"#utility.yul\":2526:2584   */\n  mstore\n    /* \"#utility.yul\":2443:2590   */\n  pop\n  pop\n  jump\t// out\n    /* \"#utility.yul\":2596:2834   */\ntag_17:\n    /* \"#utility.yul\":2697:2701   */\n  0x00\n    /* \"#utility.yul\":2735:2737   */\n  0x20\n    /* \"#utility.yul\":2724:2733   */\n  dup3\n    /* \"#utility.yul\":2720:2738   */\n  add\n    /* \"#utility.yul\":2712:2738   */\n  swap1\n  pop\n    /* \"#utility.yul\":2748:2827   */\n  tag_64\n    /* \"#utility.yul\":2824:2825   */\n  0x00\n    /* \"#utility.yul\":2813:2822   */\n  dup4\n    /* \"#utility.yul\":2809:2826   */\n  add\n    /* \"#utility.yul\":2800:2806   */\n  dup5\n    /* \"#utility.yul\":2748:2827   */\n  tag_30\n  jump\t// in\ntag_64:\n    /* \"#utility.yul\":2596:2834   */\n  swap3\n  swap2\n  pop\n  pop\n  jump\t// out\n    /* \"contracts/SimpleCrowdSale.sol\":118:4600  contract SimpleCrowdSale is Ownable {... */\ntag_19:\n  dataSize(sub_0)\n  dup1\n  dataOffset(sub_0)\n  0x00\n  codecopy\n  0x00\n  return\nstop\n\nsub_0: assembly {\n        /* \"contracts/SimpleCrowdSale.sol\":118:4600  contract SimpleCrowdSale is Ownable {... */\n      mstore(0x40, 0x80)\n      jumpi(tag_1, lt(calldatasize, 0x04))\n      shr(0xe0, calldataload(0x00))\n      dup1\n      0x8da5cb5b\n      gt\n      tag_16\n      jumpi\n      dup1\n      0xe8b5e51f\n      gt\n      tag_17\n      jumpi\n      dup1\n      0xe8b5e51f\n      eq\n      tag_12\n      jumpi\n      dup1\n      0xee56cf41\n      eq\n      tag_13\n      jumpi\n      dup1\n      0xeff1a844\n      eq\n      tag_14\n      jumpi\n      dup1\n      0xfa65dfac\n      eq\n      tag_15\n      jumpi\n      jump(tag_1)\n    tag_17:\n      dup1\n      0x8da5cb5b\n      eq\n      tag_9\n      jumpi\n      dup1\n      0xbab34f43\n      eq\n      tag_10\n      jumpi\n      dup1\n      0xcb6f16d4\n      eq\n      tag_11\n      jumpi\n      jump(tag_1)\n    tag_16:\n      dup1\n      0x4bb278f3\n      gt\n      tag_18\n      jumpi\n      dup1\n      0x4bb278f3\n      eq\n      tag_5\n      jumpi\n      dup1\n      0x590e1ae3\n      eq\n      tag_6\n      jumpi\n      dup1\n      0x78e97925\n      eq\n      tag_7\n      jumpi\n      dup1\n      0x8d4e4083\n      eq\n      tag_8\n      jumpi\n      jump(tag_1)\n    tag_18:\n      dup1\n      0x1c0a5c10\n      eq\n      tag_2\n      jumpi\n      dup1\n      0x3197cbb6\n      eq\n      tag_3\n      jumpi\n      dup1\n      0x38ef9380\n      eq\n      tag_4\n      jumpi\n    tag_1:\n      revert(0x00, 0x00)\n        /* \"contracts/SimpleCrowdSale.sol\":633:666  uint256 public investmentReceived */\n    tag_2:\n      callvalue\n      dup1\n      iszero\n      tag_19\n      jumpi\n      revert(0x00, 0x00)\n    tag_19:\n      pop\n      tag_20\n      tag_21\n      jump\t// in\n    tag_20:\n      mload(0x40)\n      tag_22\n      swap2\n      swap1\n      tag_23\n      jump\t// in\n    tag_22:\n      mload(0x40)\n      dup1\n      swap2\n      sub\n      swap1\n      return\n        /* \"contracts/SimpleCrowdSale.sol\":252:274  uint256 public endTime */\n    tag_3:\n      callvalue\n      dup1\n      iszero\n      tag_24\n      jumpi\n      revert(0x00, 0x00)\n    tag_24:\n      pop\n      tag_25\n      tag_26\n      jump\t// in\n    tag_25:\n      mload(0x40)\n      tag_27\n      swap2\n      swap1\n      tag_23\n      jump\t// in\n    tag_27:\n      mload(0x40)\n      dup1\n      swap2\n      sub\n      swap1\n      return\n        /* \"contracts/SimpleCrowdSale.sol\":713:746  uint256 public investmentRefunded */\n    tag_4:\n      callvalue\n      dup1\n      iszero\n      tag_28\n      jumpi\n      revert(0x00, 0x00)\n    tag_28:\n      pop\n      tag_29\n      tag_30\n      jump\t// in\n    tag_29:\n      mload(0x40)\n      tag_31\n      swap2\n      swap1\n      tag_23\n      jump\t// in\n    tag_31:\n      mload(0x40)\n      dup1\n      swap2\n      sub\n      swap1\n      return\n        /* \"contracts/SimpleCrowdSale.sol\":3504:4024  function finalize() onlyOwner public {... */\n    tag_5:\n      callvalue\n      dup1\n      iszero\n      tag_32\n      jumpi\n      revert(0x00, 0x00)\n    tag_32:\n      pop\n      tag_33\n      tag_34\n      jump\t// in\n    tag_33:\n      stop\n        /* \"contracts/SimpleCrowdSale.sol\":4082:4594  function refund() public {... */\n    tag_6:\n      callvalue\n      dup1\n      iszero\n      tag_35\n      jumpi\n      revert(0x00, 0x00)\n    tag_35:\n      pop\n      tag_36\n      tag_37\n      jump\t// in\n    tag_36:\n      stop\n        /* \"contracts/SimpleCrowdSale.sol\":160:184  uint256 public startTime */\n    tag_7:\n      callvalue\n      dup1\n      iszero\n      tag_38\n      jumpi\n      revert(0x00, 0x00)\n    tag_38:\n      pop\n      tag_39\n      tag_40\n      jump\t// in\n    tag_39:\n      mload(0x40)\n      tag_41\n      swap2\n      swap1\n      tag_23\n      jump\t// in\n    tag_41:\n      mload(0x40)\n      dup1\n      swap2\n      sub\n      swap1\n      return\n        /* \"contracts/SimpleCrowdSale.sol\":797:820  bool public isFinalized */\n    tag_8:\n      callvalue\n      dup1\n      iszero\n      tag_42\n      jumpi\n      revert(0x00, 0x00)\n    tag_42:\n      pop\n      tag_43\n      tag_44\n      jump\t// in\n    tag_43:\n      mload(0x40)\n      tag_45\n      swap2\n      swap1\n      tag_46\n      jump\t// in\n    tag_45:\n      mload(0x40)\n      dup1\n      swap2\n      sub\n      swap1\n      return\n        /* \"contracts/Ownable.sol\":80:100  address public owner */\n    tag_9:\n      callvalue\n      dup1\n      iszero\n      tag_47\n      jumpi\n      revert(0x00, 0x00)\n    tag_47:\n      pop\n      tag_48\n      tag_49\n      jump\t// in\n    tag_48:\n      mload(0x40)\n      tag_50\n      swap2\n      swap1\n      tag_51\n      jump\t// in\n    tag_50:\n      mload(0x40)\n      dup1\n      swap2\n      sub\n      swap1\n      return\n        /* \"contracts/SimpleCrowdSale.sol\":409:446  uint256 public weiInvestmentObjective */\n    tag_10:\n      callvalue\n      dup1\n      iszero\n      tag_52\n      jumpi\n      revert(0x00, 0x00)\n    tag_52:\n      pop\n      tag_53\n      tag_54\n      jump\t// in\n    tag_53:\n      mload(0x40)\n      tag_55\n      swap2\n      swap1\n      tag_23\n      jump\t// in\n    tag_55:\n      mload(0x40)\n      dup1\n      swap2\n      sub\n      swap1\n      return\n        /* \"contracts/SimpleCrowdSale.sol\":885:915  bool public isRefundingAllowed */\n    tag_11:\n      callvalue\n      dup1\n      iszero\n      tag_56\n      jumpi\n      revert(0x00, 0x00)\n    tag_56:\n      pop\n      tag_57\n      tag_58\n      jump\t// in\n    tag_57:\n      mload(0x40)\n      tag_59\n      swap2\n      swap1\n      tag_46\n      jump\t// in\n    tag_59:\n      mload(0x40)\n      dup1\n      swap2\n      sub\n      swap1\n      return\n        /* \"contracts/SimpleCrowdSale.sol\":1833:2311  function invest(/* address _beneficiary */ ) public payable {... */\n    tag_12:\n      tag_60\n      tag_61\n      jump\t// in\n    tag_60:\n      stop\n        /* \"contracts/SimpleCrowdSale.sol\":342:370  uint256 public weiTokenPrice */\n    tag_13:\n      callvalue\n      dup1\n      iszero\n      tag_62\n      jumpi\n      revert(0x00, 0x00)\n    tag_62:\n      pop\n      tag_63\n      tag_64\n      jump\t// in\n    tag_63:\n      mload(0x40)\n      tag_65\n      swap2\n      swap1\n      tag_23\n      jump\t// in\n    tag_65:\n      mload(0x40)\n      dup1\n      swap2\n      sub\n      swap1\n      return\n        /* \"contracts/SimpleCrowdSale.sol\":531:585  mapping (address => uint256) public inventmentAmountOf */\n    tag_14:\n      callvalue\n      dup1\n      iszero\n      tag_66\n      jumpi\n      revert(0x00, 0x00)\n    tag_66:\n      pop\n      tag_67\n      0x04\n      dup1\n      calldatasize\n      sub\n      dup2\n      add\n      swap1\n      tag_68\n      swap2\n      swap1\n      tag_69\n      jump\t// in\n    tag_68:\n      tag_70\n      jump\t// in\n    tag_67:\n      mload(0x40)\n      tag_71\n      swap2\n      swap1\n      tag_23\n      jump\t// in\n    tag_71:\n      mload(0x40)\n      dup1\n      swap2\n      sub\n      swap1\n      return\n        /* \"contracts/SimpleCrowdSale.sol\":976:1018  ReleasableSimpleCoin public crowdsaleToken */\n    tag_15:\n      callvalue\n      dup1\n      iszero\n      tag_72\n      jumpi\n      revert(0x00, 0x00)\n    tag_72:\n      pop\n      tag_73\n      tag_74\n      jump\t// in\n    tag_73:\n      mload(0x40)\n      tag_75\n      swap2\n      swap1\n      tag_76\n      jump\t// in\n    tag_75:\n      mload(0x40)\n      dup1\n      swap2\n      sub\n      swap1\n      return\n        /* \"contracts/SimpleCrowdSale.sol\":633:666  uint256 public investmentReceived */\n    tag_21:\n      sload(0x06)\n      dup2\n      jump\t// out\n        /* \"contracts/SimpleCrowdSale.sol\":252:274  uint256 public endTime */\n    tag_26:\n      sload(0x02)\n      dup2\n      jump\t// out\n        /* \"contracts/SimpleCrowdSale.sol\":713:746  uint256 public investmentRefunded */\n    tag_30:\n      sload(0x07)\n      dup2\n      jump\t// out\n        /* \"contracts/SimpleCrowdSale.sol\":3504:4024  function finalize() onlyOwner public {... */\n    tag_34:\n        /* \"contracts/Ownable.sol\":215:220  owner */\n      0x00\n      0x00\n      swap1\n      sload\n      swap1\n      0x0100\n      exp\n      swap1\n      div\n      0xffffffffffffffffffffffffffffffffffffffff\n      and\n        /* \"contracts/Ownable.sol\":201:220  msg.sender == owner */\n      0xffffffffffffffffffffffffffffffffffffffff\n      and\n        /* \"contracts/Ownable.sol\":201:211  msg.sender */\n      caller\n        /* \"contracts/Ownable.sol\":201:220  msg.sender == owner */\n      0xffffffffffffffffffffffffffffffffffffffff\n      and\n      eq\n        /* \"contracts/Ownable.sol\":193:221  require(msg.sender == owner) */\n      tag_78\n      jumpi\n      revert(0x00, 0x00)\n    tag_78:\n        /* \"contracts/SimpleCrowdSale.sol\":3554:3565  isFinalized */\n      0x08\n      0x00\n      swap1\n      sload\n      swap1\n      0x0100\n      exp\n      swap1\n      div\n      0xff\n      and\n        /* \"contracts/SimpleCrowdSale.sol\":3551:3575  if(isFinalized) revert() */\n      iszero\n      tag_80\n      jumpi\n        /* \"contracts/SimpleCrowdSale.sol\":3567:3575  revert() */\n      revert(0x00, 0x00)\n        /* \"contracts/SimpleCrowdSale.sol\":3551:3575  if(isFinalized) revert() */\n    tag_80:\n        /* \"contracts/SimpleCrowdSale.sol\":3651:3675  bool isCrowdsaleComplete */\n      0x00\n        /* \"contracts/SimpleCrowdSale.sol\":3678:3682  true */\n      0x01\n        /* \"contracts/SimpleCrowdSale.sol\":3651:3682  bool isCrowdsaleComplete = true */\n      swap1\n      pop\n        /* \"contracts/SimpleCrowdSale.sol\":3692:3719  bool investmentObjectiveMet */\n      0x00\n        /* \"contracts/SimpleCrowdSale.sol\":3744:3766  weiInvestmentObjective */\n      sload(0x04)\n        /* \"contracts/SimpleCrowdSale.sol\":3722:3740  investmentReceived */\n      sload(0x06)\n        /* \"contracts/SimpleCrowdSale.sol\":3722:3766  investmentReceived >= weiInvestmentObjective */\n      lt\n      iszero\n        /* \"contracts/SimpleCrowdSale.sol\":3692:3766  bool investmentObjectiveMet = investmentReceived >= weiInvestmentObjective */\n      swap1\n      pop\n        /* \"contracts/SimpleCrowdSale.sol\":3780:3799  isCrowdsaleComplete */\n      dup2\n        /* \"contracts/SimpleCrowdSale.sol\":3777:4018  if(isCrowdsaleComplete) {... */\n      iszero\n      tag_81\n      jumpi\n        /* \"contracts/SimpleCrowdSale.sol\":3818:3840  investmentObjectiveMet */\n      dup1\n        /* \"contracts/SimpleCrowdSale.sol\":3815:3963  if(investmentObjectiveMet) {... */\n      iszero\n      tag_82\n      jumpi\n        /* \"contracts/SimpleCrowdSale.sol\":3860:3874  crowdsaleToken */\n      0x08\n      0x02\n      swap1\n      sload\n      swap1\n      0x0100\n      exp\n      swap1\n      div\n      0xffffffffffffffffffffffffffffffffffffffff\n      and\n        /* \"contracts/SimpleCrowdSale.sol\":3860:3882  crowdsaleToken.release */\n      0xffffffffffffffffffffffffffffffffffffffff\n      and\n      0x86d1a69f\n        /* \"contracts/SimpleCrowdSale.sol\":3860:3884  crowdsaleToken.release() */\n      mload(0x40)\n      dup2\n      0xffffffff\n      and\n      0xe0\n      shl\n      dup2\n      mstore\n      0x04\n      add\n      0x00\n      mload(0x40)\n      dup1\n      dup4\n      sub\n      dup2\n      0x00\n      dup8\n      dup1\n      extcodesize\n      iszero\n      dup1\n      iszero\n      tag_83\n      jumpi\n      revert(0x00, 0x00)\n    tag_83:\n      pop\n      gas\n      call\n      iszero\n      dup1\n      iszero\n      tag_85\n      jumpi\n      returndatacopy(0x00, 0x00, returndatasize)\n      revert(0x00, returndatasize)\n    tag_85:\n      pop\n      pop\n      pop\n      pop\n        /* \"contracts/SimpleCrowdSale.sol\":3815:3963  if(investmentObjectiveMet) {... */\n      jump(tag_86)\n    tag_82:\n        /* \"contracts/SimpleCrowdSale.sol\":3944:3948  true */\n      0x01\n        /* \"contracts/SimpleCrowdSale.sol\":3923:3941  isRefundingAllowed */\n      0x08\n      0x01\n        /* \"contracts/SimpleCrowdSale.sol\":3923:3948  isRefundingAllowed = true */\n      0x0100\n      exp\n      dup2\n      sload\n      dup2\n      0xff\n      mul\n      not\n      and\n      swap1\n      dup4\n      iszero\n      iszero\n      mul\n      or\n      swap1\n      sstore\n      pop\n        /* \"contracts/SimpleCrowdSale.sol\":3815:3963  if(investmentObjectiveMet) {... */\n    tag_86:\n        /* \"contracts/SimpleCrowdSale.sol\":4003:4007  true */\n      0x01\n        /* \"contracts/SimpleCrowdSale.sol\":3989:4000  isFinalized */\n      0x08\n      0x00\n        /* \"contracts/SimpleCrowdSale.sol\":3989:4007  isFinalized = true */\n      0x0100\n      exp\n      dup2\n      sload\n      dup2\n      0xff\n      mul\n      not\n      and\n      swap1\n      dup4\n      iszero\n      iszero\n      mul\n      or\n      swap1\n      sstore\n      pop\n        /* \"contracts/SimpleCrowdSale.sol\":3777:4018  if(isCrowdsaleComplete) {... */\n    tag_81:\n        /* \"contracts/SimpleCrowdSale.sol\":3541:4024  {... */\n      pop\n      pop\n        /* \"contracts/SimpleCrowdSale.sol\":3504:4024  function finalize() onlyOwner public {... */\n      jump\t// out\n        /* \"contracts/SimpleCrowdSale.sol\":4082:4594  function refund() public {... */\n    tag_37:\n        /* \"contracts/SimpleCrowdSale.sol\":4121:4139  isRefundingAllowed */\n      0x08\n      0x01\n      swap1\n      sload\n      swap1\n      0x0100\n      exp\n      swap1\n      div\n      0xff\n      and\n        /* \"contracts/SimpleCrowdSale.sol\":4117:4149  if(!isRefundingAllowed) revert() */\n      tag_88\n      jumpi\n        /* \"contracts/SimpleCrowdSale.sol\":4141:4149  revert() */\n      revert(0x00, 0x00)\n        /* \"contracts/SimpleCrowdSale.sol\":4117:4149  if(!isRefundingAllowed) revert() */\n    tag_88:\n        /* \"contracts/SimpleCrowdSale.sol\":4160:4184  address payable investor */\n      0x00\n        /* \"contracts/SimpleCrowdSale.sol\":4195:4205  msg.sender */\n      caller\n        /* \"contracts/SimpleCrowdSale.sol\":4160:4206  address payable investor = payable(msg.sender) */\n      swap1\n      pop\n        /* \"contracts/SimpleCrowdSale.sol\":4216:4234  uint256 investment */\n      0x00\n        /* \"contracts/SimpleCrowdSale.sol\":4237:4255  inventmentAmountOf */\n      0x05\n        /* \"contracts/SimpleCrowdSale.sol\":4237:4265  inventmentAmountOf[investor] */\n      0x00\n        /* \"contracts/SimpleCrowdSale.sol\":4256:4264  investor */\n      dup4\n        /* \"contracts/SimpleCrowdSale.sol\":4237:4265  inventmentAmountOf[investor] */\n      0xffffffffffffffffffffffffffffffffffffffff\n      and\n      0xffffffffffffffffffffffffffffffffffffffff\n      and\n      dup2\n      mstore\n      0x20\n      add\n      swap1\n      dup2\n      mstore\n      0x20\n      add\n      0x00\n      keccak256\n      sload\n        /* \"contracts/SimpleCrowdSale.sol\":4216:4265  uint256 investment = inventmentAmountOf[investor] */\n      swap1\n      pop\n        /* \"contracts/SimpleCrowdSale.sol\":4322:4323  0 */\n      0x00\n        /* \"contracts/SimpleCrowdSale.sol\":4308:4318  investment */\n      dup2\n        /* \"contracts/SimpleCrowdSale.sol\":4308:4323  investment == 0 */\n      sub\n        /* \"contracts/SimpleCrowdSale.sol\":4305:4333  if(investment == 0) revert() */\n      tag_89\n      jumpi\n        /* \"contracts/SimpleCrowdSale.sol\":4325:4333  revert() */\n      revert(0x00, 0x00)\n        /* \"contracts/SimpleCrowdSale.sol\":4305:4333  if(investment == 0) revert() */\n    tag_89:\n        /* \"contracts/SimpleCrowdSale.sol\":4374:4375  0 */\n      0x00\n        /* \"contracts/SimpleCrowdSale.sol\":4343:4361  inventmentAmountOf */\n      0x05\n        /* \"contracts/SimpleCrowdSale.sol\":4343:4371  inventmentAmountOf[investor] */\n      0x00\n        /* \"contracts/SimpleCrowdSale.sol\":4362:4370  investor */\n      dup5\n        /* \"contracts/SimpleCrowdSale.sol\":4343:4371  inventmentAmountOf[investor] */\n      0xffffffffffffffffffffffffffffffffffffffff\n      and\n      0xffffffffffffffffffffffffffffffffffffffff\n      and\n      dup2\n      mstore\n      0x20\n      add\n      swap1\n      dup2\n      mstore\n      0x20\n      add\n      0x00\n      keccak256\n        /* \"contracts/SimpleCrowdSale.sol\":4343:4375  inventmentAmountOf[investor] = 0 */\n      dup2\n      swap1\n      sstore\n      pop\n        /* \"contracts/SimpleCrowdSale.sol\":4441:4451  investment */\n      dup1\n        /* \"contracts/SimpleCrowdSale.sol\":4419:4437  investmentRefunded */\n      0x07\n      0x00\n        /* \"contracts/SimpleCrowdSale.sol\":4419:4451  investmentRefunded += investment */\n      dup3\n      dup3\n      sload\n      tag_90\n      swap2\n      swap1\n      tag_91\n      jump\t// in\n    tag_90:\n      swap3\n      pop\n      pop\n      dup2\n      swap1\n      sstore\n      pop\n        /* \"contracts/SimpleCrowdSale.sol\":4502:4532  Refund(msg.sender, investment) */\n      0xbb28353e4598c3b9199101a66e0989549b659a59a54d2c27fbb183f1932c8e6d\n        /* \"contracts/SimpleCrowdSale.sol\":4509:4519  msg.sender */\n      caller\n        /* \"contracts/SimpleCrowdSale.sol\":4521:4531  investment */\n      dup3\n        /* \"contracts/SimpleCrowdSale.sol\":4502:4532  Refund(msg.sender, investment) */\n      mload(0x40)\n      tag_92\n      swap3\n      swap2\n      swap1\n      tag_93\n      jump\t// in\n    tag_92:\n      mload(0x40)\n      dup1\n      swap2\n      sub\n      swap1\n      log1\n        /* \"contracts/SimpleCrowdSale.sol\":4547:4555  investor */\n      dup2\n        /* \"contracts/SimpleCrowdSale.sol\":4547:4560  investor.send */\n      0xffffffffffffffffffffffffffffffffffffffff\n      and\n        /* \"contracts/SimpleCrowdSale.sol\":4547:4572  investor.send(investment) */\n      0x08fc\n        /* \"contracts/SimpleCrowdSale.sol\":4561:4571  investment */\n      dup3\n        /* \"contracts/SimpleCrowdSale.sol\":4547:4572  investor.send(investment) */\n      swap1\n      dup2\n      iszero\n      mul\n      swap1\n      mload(0x40)\n      0x00\n      mload(0x40)\n      dup1\n      dup4\n      sub\n      dup2\n      dup6\n      dup9\n      dup9\n      call\n      swap4\n      pop\n      pop\n      pop\n      pop\n        /* \"contracts/SimpleCrowdSale.sol\":4543:4582  if(!investor.send(investment)) revert() */\n      tag_95\n      jumpi\n        /* \"contracts/SimpleCrowdSale.sol\":4574:4582  revert() */\n      revert(0x00, 0x00)\n        /* \"contracts/SimpleCrowdSale.sol\":4543:4582  if(!investor.send(investment)) revert() */\n    tag_95:\n        /* \"contracts/SimpleCrowdSale.sol\":4107:4594  {... */\n      pop\n      pop\n        /* \"contracts/SimpleCrowdSale.sol\":4082:4594  function refund() public {... */\n      jump\t// out\n        /* \"contracts/SimpleCrowdSale.sol\":160:184  uint256 public startTime */\n    tag_40:\n      sload(0x01)\n      dup2\n      jump\t// out\n        /* \"contracts/SimpleCrowdSale.sol\":797:820  bool public isFinalized */\n    tag_44:\n      0x08\n      0x00\n      swap1\n      sload\n      swap1\n      0x0100\n      exp\n      swap1\n      div\n      0xff\n      and\n      dup2\n      jump\t// out\n        /* \"contracts/Ownable.sol\":80:100  address public owner */\n    tag_49:\n      0x00\n      0x00\n      swap1\n      sload\n      swap1\n      0x0100\n      exp\n      swap1\n      div\n      0xffffffffffffffffffffffffffffffffffffffff\n      and\n      dup2\n      jump\t// out\n        /* \"contracts/SimpleCrowdSale.sol\":409:446  uint256 public weiInvestmentObjective */\n    tag_54:\n      sload(0x04)\n      dup2\n      jump\t// out\n        /* \"contracts/SimpleCrowdSale.sol\":885:915  bool public isRefundingAllowed */\n    tag_58:\n      0x08\n      0x01\n      swap1\n      sload\n      swap1\n      0x0100\n      exp\n      swap1\n      div\n      0xff\n      and\n      dup2\n      jump\t// out\n        /* \"contracts/SimpleCrowdSale.sol\":1833:2311  function invest(/* address _beneficiary */ ) public payable {... */\n    tag_61:\n        /* \"contracts/SimpleCrowdSale.sol\":1911:1939  isValidInvestment(msg.value) */\n      tag_97\n        /* \"contracts/SimpleCrowdSale.sol\":1929:1938  msg.value */\n      callvalue\n        /* \"contracts/SimpleCrowdSale.sol\":1911:1928  isValidInvestment */\n      tag_98\n        /* \"contracts/SimpleCrowdSale.sol\":1911:1939  isValidInvestment(msg.value) */\n      jump\t// in\n    tag_97:\n        /* \"contracts/SimpleCrowdSale.sol\":1903:1940  require(isValidInvestment(msg.value)) */\n      tag_99\n      jumpi\n      revert(0x00, 0x00)\n    tag_99:\n        /* \"contracts/SimpleCrowdSale.sol\":1951:1967  address investor */\n      0x00\n        /* \"contracts/SimpleCrowdSale.sol\":1970:1980  msg.sender */\n      caller\n        /* \"contracts/SimpleCrowdSale.sol\":1951:1980  address investor = msg.sender */\n      swap1\n      pop\n        /* \"contracts/SimpleCrowdSale.sol\":1990:2008  uint256 investment */\n      0x00\n        /* \"contracts/SimpleCrowdSale.sol\":2011:2020  msg.value */\n      callvalue\n        /* \"contracts/SimpleCrowdSale.sol\":1990:2020  uint256 investment = msg.value */\n      swap1\n      pop\n        /* \"contracts/SimpleCrowdSale.sol\":2063:2073  investment */\n      dup1\n        /* \"contracts/SimpleCrowdSale.sol\":2031:2049  inventmentAmountOf */\n      0x05\n        /* \"contracts/SimpleCrowdSale.sol\":2031:2059  inventmentAmountOf[investor] */\n      0x00\n        /* \"contracts/SimpleCrowdSale.sol\":2050:2058  investor */\n      dup5\n        /* \"contracts/SimpleCrowdSale.sol\":2031:2059  inventmentAmountOf[investor] */\n      0xffffffffffffffffffffffffffffffffffffffff\n      and\n      0xffffffffffffffffffffffffffffffffffffffff\n      and\n      dup2\n      mstore\n      0x20\n      add\n      swap1\n      dup2\n      mstore\n      0x20\n      add\n      0x00\n      keccak256\n      0x00\n        /* \"contracts/SimpleCrowdSale.sol\":2031:2073  inventmentAmountOf[investor] += investment */\n      dup3\n      dup3\n      sload\n      tag_100\n      swap2\n      swap1\n      tag_91\n      jump\t// in\n    tag_100:\n      swap3\n      pop\n      pop\n      dup2\n      swap1\n      sstore\n      pop\n        /* \"contracts/SimpleCrowdSale.sol\":2105:2115  investment */\n      dup1\n        /* \"contracts/SimpleCrowdSale.sol\":2083:2101  investmentReceived */\n      0x06\n      0x00\n        /* \"contracts/SimpleCrowdSale.sol\":2083:2115  investmentReceived += investment */\n      dup3\n      dup3\n      sload\n      tag_101\n      swap2\n      swap1\n      tag_91\n      jump\t// in\n    tag_101:\n      swap3\n      pop\n      pop\n      dup2\n      swap1\n      sstore\n      pop\n        /* \"contracts/SimpleCrowdSale.sol\":2220:2254  assignTokens(investor, investment) */\n      tag_102\n        /* \"contracts/SimpleCrowdSale.sol\":2233:2241  investor */\n      dup3\n        /* \"contracts/SimpleCrowdSale.sol\":2243:2253  investment */\n      dup3\n        /* \"contracts/SimpleCrowdSale.sol\":2220:2232  assignTokens */\n      tag_103\n        /* \"contracts/SimpleCrowdSale.sol\":2220:2254  assignTokens(investor, investment) */\n      jump\t// in\n    tag_102:\n        /* \"contracts/SimpleCrowdSale.sol\":2283:2291  investor */\n      dup2\n        /* \"contracts/SimpleCrowdSale.sol\":2269:2304  LogInvestment(investor, investment) */\n      0xffffffffffffffffffffffffffffffffffffffff\n      and\n      0xc74590e3281392e897f5c0f45530951cfe0db0e86c76d65af861e80b925871a4\n        /* \"contracts/SimpleCrowdSale.sol\":2293:2303  investment */\n      dup3\n        /* \"contracts/SimpleCrowdSale.sol\":2269:2304  LogInvestment(investor, investment) */\n      mload(0x40)\n      tag_104\n      swap2\n      swap1\n      tag_23\n      jump\t// in\n    tag_104:\n      mload(0x40)\n      dup1\n      swap2\n      sub\n      swap1\n      log2\n        /* \"contracts/SimpleCrowdSale.sol\":1893:2311  {... */\n      pop\n      pop\n        /* \"contracts/SimpleCrowdSale.sol\":1833:2311  function invest(/* address _beneficiary */ ) public payable {... */\n      jump\t// out\n        /* \"contracts/SimpleCrowdSale.sol\":342:370  uint256 public weiTokenPrice */\n    tag_64:\n      sload(0x03)\n      dup2\n      jump\t// out\n        /* \"contracts/SimpleCrowdSale.sol\":531:585  mapping (address => uint256) public inventmentAmountOf */\n    tag_70:\n      mstore(0x20, 0x05)\n      dup1\n      0x00\n      mstore\n      keccak256(0x00, 0x40)\n      0x00\n      swap2\n      pop\n      swap1\n      pop\n      sload\n      dup2\n      jump\t// out\n        /* \"contracts/SimpleCrowdSale.sol\":976:1018  ReleasableSimpleCoin public crowdsaleToken */\n    tag_74:\n      0x08\n      0x02\n      swap1\n      sload\n      swap1\n      0x0100\n      exp\n      swap1\n      div\n      0xffffffffffffffffffffffffffffffffffffffff\n      and\n      dup2\n      jump\t// out\n        /* \"contracts/SimpleCrowdSale.sol\":2317:2653  function isValidInvestment(uint256 _investment) internal view returns (bool) {... */\n    tag_98:\n        /* \"contracts/SimpleCrowdSale.sol\":2388:2392  bool */\n      0x00\n        /* \"contracts/SimpleCrowdSale.sol\":2404:2426  bool nonZeroInvestment */\n      0x00\n        /* \"contracts/SimpleCrowdSale.sol\":2444:2445  0 */\n      0x00\n        /* \"contracts/SimpleCrowdSale.sol\":2429:2440  _investment */\n      dup4\n        /* \"contracts/SimpleCrowdSale.sol\":2429:2445  _investment != 0 */\n      eq\n      iszero\n        /* \"contracts/SimpleCrowdSale.sol\":2404:2445  bool nonZeroInvestment = _investment != 0 */\n      swap1\n      pop\n        /* \"contracts/SimpleCrowdSale.sol\":2553:2579  bool withinCrowdsalePeroid */\n      0x00\n        /* \"contracts/SimpleCrowdSale.sol\":2582:2586  true */\n      0x01\n        /* \"contracts/SimpleCrowdSale.sol\":2553:2586  bool withinCrowdsalePeroid = true */\n      swap1\n      pop\n        /* \"contracts/SimpleCrowdSale.sol\":2604:2621  nonZeroInvestment */\n      dup2\n        /* \"contracts/SimpleCrowdSale.sol\":2604:2646  nonZeroInvestment && withinCrowdsalePeroid */\n      dup1\n      iszero\n      tag_106\n      jumpi\n      pop\n        /* \"contracts/SimpleCrowdSale.sol\":2625:2646  withinCrowdsalePeroid */\n      dup1\n        /* \"contracts/SimpleCrowdSale.sol\":2604:2646  nonZeroInvestment && withinCrowdsalePeroid */\n    tag_106:\n        /* \"contracts/SimpleCrowdSale.sol\":2597:2646  return nonZeroInvestment && withinCrowdsalePeroid */\n      swap3\n      pop\n      pop\n      pop\n        /* \"contracts/SimpleCrowdSale.sol\":2317:2653  function isValidInvestment(uint256 _investment) internal view returns (bool) {... */\n      swap2\n      swap1\n      pop\n      jump\t// out\n        /* \"contracts/SimpleCrowdSale.sol\":2659:3200  function assignTokens(address _beneficiary, uint256 _investment) internal {... */\n    tag_103:\n        /* \"contracts/SimpleCrowdSale.sol\":2743:2766  uint256 _numberOfTokens */\n      0x00\n        /* \"contracts/SimpleCrowdSale.sol\":2769:2805  calculateNumberOfTokens(_investment) */\n      tag_108\n        /* \"contracts/SimpleCrowdSale.sol\":2793:2804  _investment */\n      dup3\n        /* \"contracts/SimpleCrowdSale.sol\":2769:2792  calculateNumberOfTokens */\n      tag_109\n        /* \"contracts/SimpleCrowdSale.sol\":2769:2805  calculateNumberOfTokens(_investment) */\n      jump\t// in\n    tag_108:\n        /* \"contracts/SimpleCrowdSale.sol\":2743:2805  uint256 _numberOfTokens = calculateNumberOfTokens(_investment) */\n      swap1\n      pop\n        /* \"contracts/SimpleCrowdSale.sol\":3143:3157  crowdsaleToken */\n      0x08\n      0x02\n      swap1\n      sload\n      swap1\n      0x0100\n      exp\n      swap1\n      div\n      0xffffffffffffffffffffffffffffffffffffffff\n      and\n        /* \"contracts/SimpleCrowdSale.sol\":3143:3162  crowdsaleToken.mint */\n      0xffffffffffffffffffffffffffffffffffffffff\n      and\n      0x40c10f19\n        /* \"contracts/SimpleCrowdSale.sol\":3163:3175  _beneficiary */\n      dup5\n        /* \"contracts/SimpleCrowdSale.sol\":3177:3192  _numberOfTokens */\n      dup4\n        /* \"contracts/SimpleCrowdSale.sol\":3143:3193  crowdsaleToken.mint(_beneficiary, _numberOfTokens) */\n      mload(0x40)\n      dup4\n      0xffffffff\n      and\n      0xe0\n      shl\n      dup2\n      mstore\n      0x04\n      add\n      tag_110\n      swap3\n      swap2\n      swap1\n      tag_93\n      jump\t// in\n    tag_110:\n      0x00\n      mload(0x40)\n      dup1\n      dup4\n      sub\n      dup2\n      0x00\n      dup8\n      dup1\n      extcodesize\n      iszero\n      dup1\n      iszero\n      tag_111\n      jumpi\n      revert(0x00, 0x00)\n    tag_111:\n      pop\n      gas\n      call\n      iszero\n      dup1\n      iszero\n      tag_113\n      jumpi\n      returndatacopy(0x00, 0x00, returndatasize)\n      revert(0x00, returndatasize)\n    tag_113:\n      pop\n      pop\n      pop\n      pop\n        /* \"contracts/SimpleCrowdSale.sol\":2733:3200  {... */\n      pop\n        /* \"contracts/SimpleCrowdSale.sol\":2659:3200  function assignTokens(address _beneficiary, uint256 _investment) internal {... */\n      pop\n      pop\n      jump\t// out\n        /* \"contracts/SimpleCrowdSale.sol\":3350:3498  function calculateNumberOfTokens(uint256 _investment) virtual internal returns (uint256) {... */\n    tag_109:\n        /* \"contracts/SimpleCrowdSale.sol\":3430:3437  uint256 */\n      0x00\n        /* \"contracts/SimpleCrowdSale.sol\":3470:3483  weiTokenPrice */\n      sload(0x03)\n        /* \"contracts/SimpleCrowdSale.sol\":3456:3467  _investment */\n      dup3\n        /* \"contracts/SimpleCrowdSale.sol\":3456:3483  _investment / weiTokenPrice */\n      tag_115\n      swap2\n      swap1\n      tag_116\n      jump\t// in\n    tag_115:\n        /* \"contracts/SimpleCrowdSale.sol\":3449:3483  return _investment / weiTokenPrice */\n      swap1\n      pop\n        /* \"contracts/SimpleCrowdSale.sol\":3350:3498  function calculateNumberOfTokens(uint256 _investment) virtual internal returns (uint256) {... */\n      swap2\n      swap1\n      pop\n      jump\t// out\n        /* \"#utility.yul\":7:84   */\n    tag_117:\n        /* \"#utility.yul\":44:51   */\n      0x00\n        /* \"#utility.yul\":73:78   */\n      dup2\n        /* \"#utility.yul\":62:78   */\n      swap1\n      pop\n        /* \"#utility.yul\":7:84   */\n      swap2\n      swap1\n      pop\n      jump\t// out\n        /* \"#utility.yul\":90:208   */\n    tag_118:\n        /* \"#utility.yul\":177:201   */\n      tag_139\n        /* \"#utility.yul\":195:200   */\n      dup2\n        /* \"#utility.yul\":177:201   */\n      tag_117\n      jump\t// in\n    tag_139:\n        /* \"#utility.yul\":172:175   */\n      dup3\n        /* \"#utility.yul\":165:202   */\n      mstore\n        /* \"#utility.yul\":90:208   */\n      pop\n      pop\n      jump\t// out\n        /* \"#utility.yul\":214:436   */\n    tag_23:\n        /* \"#utility.yul\":307:311   */\n      0x00\n        /* \"#utility.yul\":345:347   */\n      0x20\n        /* \"#utility.yul\":334:343   */\n      dup3\n        /* \"#utility.yul\":330:348   */\n      add\n        /* \"#utility.yul\":322:348   */\n      swap1\n      pop\n        /* \"#utility.yul\":358:429   */\n      tag_141\n        /* \"#utility.yul\":426:427   */\n      0x00\n        /* \"#utility.yul\":415:424   */\n      dup4\n        /* \"#utility.yul\":411:428   */\n      add\n        /* \"#utility.yul\":402:408   */\n      dup5\n        /* \"#utility.yul\":358:429   */\n      tag_118\n      jump\t// in\n    tag_141:\n        /* \"#utility.yul\":214:436   */\n      swap3\n      swap2\n      pop\n      pop\n      jump\t// out\n        /* \"#utility.yul\":442:532   */\n    tag_119:\n        /* \"#utility.yul\":476:483   */\n      0x00\n        /* \"#utility.yul\":519:524   */\n      dup2\n        /* \"#utility.yul\":512:525   */\n      iszero\n        /* \"#utility.yul\":505:526   */\n      iszero\n        /* \"#utility.yul\":494:526   */\n      swap1\n      pop\n        /* \"#utility.yul\":442:532   */\n      swap2\n      swap1\n      pop\n      jump\t// out\n        /* \"#utility.yul\":538:647   */\n    tag_120:\n        /* \"#utility.yul\":619:640   */\n      tag_144\n        /* \"#utility.yul\":634:639   */\n      dup2\n        /* \"#utility.yul\":619:640   */\n      tag_119\n      jump\t// in\n    tag_144:\n        /* \"#utility.yul\":614:617   */\n      dup3\n        /* \"#utility.yul\":607:641   */\n      mstore\n        /* \"#utility.yul\":538:647   */\n      pop\n      pop\n      jump\t// out\n        /* \"#utility.yul\":653:863   */\n    tag_46:\n        /* \"#utility.yul\":740:744   */\n      0x00\n        /* \"#utility.yul\":778:780   */\n      0x20\n        /* \"#utility.yul\":767:776   */\n      dup3\n        /* \"#utility.yul\":763:781   */\n      add\n        /* \"#utility.yul\":755:781   */\n      swap1\n      pop\n        /* \"#utility.yul\":791:856   */\n      tag_146\n        /* \"#utility.yul\":853:854   */\n      0x00\n        /* \"#utility.yul\":842:851   */\n      dup4\n        /* \"#utility.yul\":838:855   */\n      add\n        /* \"#utility.yul\":829:835   */\n      dup5\n        /* \"#utility.yul\":791:856   */\n      tag_120\n      jump\t// in\n    tag_146:\n        /* \"#utility.yul\":653:863   */\n      swap3\n      swap2\n      pop\n      pop\n      jump\t// out\n        /* \"#utility.yul\":869:995   */\n    tag_121:\n        /* \"#utility.yul\":906:913   */\n      0x00\n        /* \"#utility.yul\":946:988   */\n      0xffffffffffffffffffffffffffffffffffffffff\n        /* \"#utility.yul\":939:944   */\n      dup3\n        /* \"#utility.yul\":935:989   */\n      and\n        /* \"#utility.yul\":924:989   */\n      swap1\n      pop\n        /* \"#utility.yul\":869:995   */\n      swap2\n      swap1\n      pop\n      jump\t// out\n        /* \"#utility.yul\":1001:1097   */\n    tag_122:\n        /* \"#utility.yul\":1038:1045   */\n      0x00\n        /* \"#utility.yul\":1067:1091   */\n      tag_149\n        /* \"#utility.yul\":1085:1090   */\n      dup3\n        /* \"#utility.yul\":1067:1091   */\n      tag_121\n      jump\t// in\n    tag_149:\n        /* \"#utility.yul\":1056:1091   */\n      swap1\n      pop\n        /* \"#utility.yul\":1001:1097   */\n      swap2\n      swap1\n      pop\n      jump\t// out\n        /* \"#utility.yul\":1103:1221   */\n    tag_123:\n        /* \"#utility.yul\":1190:1214   */\n      tag_151\n        /* \"#utility.yul\":1208:1213   */\n      dup2\n        /* \"#utility.yul\":1190:1214   */\n      tag_122\n      jump\t// in\n    tag_151:\n        /* \"#utility.yul\":1185:1188   */\n      dup3\n        /* \"#utility.yul\":1178:1215   */\n      mstore\n        /* \"#utility.yul\":1103:1221   */\n      pop\n      pop\n      jump\t// out\n        /* \"#utility.yul\":1227:1449   */\n    tag_51:\n        /* \"#utility.yul\":1320:1324   */\n      0x00\n        /* \"#utility.yul\":1358:1360   */\n      0x20\n        /* \"#utility.yul\":1347:1356   */\n      dup3\n        /* \"#utility.yul\":1343:1361   */\n      add\n        /* \"#utility.yul\":1335:1361   */\n      swap1\n      pop\n        /* \"#utility.yul\":1371:1442   */\n      tag_153\n        /* \"#utility.yul\":1439:1440   */\n      0x00\n        /* \"#utility.yul\":1428:1437   */\n      dup4\n        /* \"#utility.yul\":1424:1441   */\n      add\n        /* \"#utility.yul\":1415:1421   */\n      dup5\n        /* \"#utility.yul\":1371:1442   */\n      tag_123\n      jump\t// in\n    tag_153:\n        /* \"#utility.yul\":1227:1449   */\n      swap3\n      swap2\n      pop\n      pop\n      jump\t// out\n        /* \"#utility.yul\":1536:1653   */\n    tag_125:\n        /* \"#utility.yul\":1645:1646   */\n      0x00\n        /* \"#utility.yul\":1642:1643   */\n      0x00\n        /* \"#utility.yul\":1635:1647   */\n      revert\n        /* \"#utility.yul\":1782:1904   */\n    tag_127:\n        /* \"#utility.yul\":1855:1879   */\n      tag_158\n        /* \"#utility.yul\":1873:1878   */\n      dup2\n        /* \"#utility.yul\":1855:1879   */\n      tag_122\n      jump\t// in\n    tag_158:\n        /* \"#utility.yul\":1848:1853   */\n      dup2\n        /* \"#utility.yul\":1845:1880   */\n      eq\n        /* \"#utility.yul\":1835:1898   */\n      tag_159\n      jumpi\n        /* \"#utility.yul\":1894:1895   */\n      0x00\n        /* \"#utility.yul\":1891:1892   */\n      0x00\n        /* \"#utility.yul\":1884:1896   */\n      revert\n        /* \"#utility.yul\":1835:1898   */\n    tag_159:\n        /* \"#utility.yul\":1782:1904   */\n      pop\n      jump\t// out\n        /* \"#utility.yul\":1910:2049   */\n    tag_128:\n        /* \"#utility.yul\":1956:1961   */\n      0x00\n        /* \"#utility.yul\":1994:2000   */\n      dup2\n        /* \"#utility.yul\":1981:2001   */\n      calldataload\n        /* \"#utility.yul\":1972:2001   */\n      swap1\n      pop\n        /* \"#utility.yul\":2010:2043   */\n      tag_161\n        /* \"#utility.yul\":2037:2042   */\n      dup2\n        /* \"#utility.yul\":2010:2043   */\n      tag_127\n      jump\t// in\n    tag_161:\n        /* \"#utility.yul\":1910:2049   */\n      swap3\n      swap2\n      pop\n      pop\n      jump\t// out\n        /* \"#utility.yul\":2055:2384   */\n    tag_69:\n        /* \"#utility.yul\":2114:2120   */\n      0x00\n        /* \"#utility.yul\":2163:2165   */\n      0x20\n        /* \"#utility.yul\":2151:2160   */\n      dup3\n        /* \"#utility.yul\":2142:2149   */\n      dup5\n        /* \"#utility.yul\":2138:2161   */\n      sub\n        /* \"#utility.yul\":2134:2166   */\n      slt\n        /* \"#utility.yul\":2131:2250   */\n      iszero\n      tag_163\n      jumpi\n        /* \"#utility.yul\":2169:2248   */\n      tag_164\n      tag_125\n      jump\t// in\n    tag_164:\n        /* \"#utility.yul\":2131:2250   */\n    tag_163:\n        /* \"#utility.yul\":2289:2290   */\n      0x00\n        /* \"#utility.yul\":2314:2367   */\n      tag_165\n        /* \"#utility.yul\":2359:2366   */\n      dup5\n        /* \"#utility.yul\":2350:2356   */\n      dup3\n        /* \"#utility.yul\":2339:2348   */\n      dup6\n        /* \"#utility.yul\":2335:2357   */\n      add\n        /* \"#utility.yul\":2314:2367   */\n      tag_128\n      jump\t// in\n    tag_165:\n        /* \"#utility.yul\":2304:2367   */\n      swap2\n      pop\n        /* \"#utility.yul\":2260:2377   */\n      pop\n        /* \"#utility.yul\":2055:2384   */\n      swap3\n      swap2\n      pop\n      pop\n      jump\t// out\n        /* \"#utility.yul\":2390:2450   */\n    tag_129:\n        /* \"#utility.yul\":2418:2421   */\n      0x00\n        /* \"#utility.yul\":2439:2444   */\n      dup2\n        /* \"#utility.yul\":2432:2444   */\n      swap1\n      pop\n        /* \"#utility.yul\":2390:2450   */\n      swap2\n      swap1\n      pop\n      jump\t// out\n        /* \"#utility.yul\":2456:2598   */\n    tag_130:\n        /* \"#utility.yul\":2506:2515   */\n      0x00\n        /* \"#utility.yul\":2539:2592   */\n      tag_168\n        /* \"#utility.yul\":2557:2591   */\n      tag_169\n        /* \"#utility.yul\":2566:2590   */\n      tag_170\n        /* \"#utility.yul\":2584:2589   */\n      dup5\n        /* \"#utility.yul\":2566:2590   */\n      tag_121\n      jump\t// in\n    tag_170:\n        /* \"#utility.yul\":2557:2591   */\n      tag_129\n      jump\t// in\n    tag_169:\n        /* \"#utility.yul\":2539:2592   */\n      tag_121\n      jump\t// in\n    tag_168:\n        /* \"#utility.yul\":2526:2592   */\n      swap1\n      pop\n        /* \"#utility.yul\":2456:2598   */\n      swap2\n      swap1\n      pop\n      jump\t// out\n        /* \"#utility.yul\":2604:2730   */\n    tag_131:\n        /* \"#utility.yul\":2654:2663   */\n      0x00\n        /* \"#utility.yul\":2687:2724   */\n      tag_172\n        /* \"#utility.yul\":2718:2723   */\n      dup3\n        /* \"#utility.yul\":2687:2724   */\n      tag_130\n      jump\t// in\n    tag_172:\n        /* \"#utility.yul\":2674:2724   */\n      swap1\n      pop\n        /* \"#utility.yul\":2604:2730   */\n      swap2\n      swap1\n      pop\n      jump\t// out\n        /* \"#utility.yul\":2736:2890   */\n    tag_132:\n        /* \"#utility.yul\":2814:2823   */\n      0x00\n        /* \"#utility.yul\":2847:2884   */\n      tag_174\n        /* \"#utility.yul\":2878:2883   */\n      dup3\n        /* \"#utility.yul\":2847:2884   */\n      tag_131\n      jump\t// in\n    tag_174:\n        /* \"#utility.yul\":2834:2884   */\n      swap1\n      pop\n        /* \"#utility.yul\":2736:2890   */\n      swap2\n      swap1\n      pop\n      jump\t// out\n        /* \"#utility.yul\":2896:3083   */\n    tag_133:\n        /* \"#utility.yul\":3011:3076   */\n      tag_176\n        /* \"#utility.yul\":3070:3075   */\n      dup2\n        /* \"#utility.yul\":3011:3076   */\n      tag_132\n      jump\t// in\n    tag_176:\n        /* \"#utility.yul\":3006:3009   */\n      dup3\n        /* \"#utility.yul\":2999:3077   */\n      mstore\n        /* \"#utility.yul\":2896:3083   */\n      pop\n      pop\n      jump\t// out\n        /* \"#utility.yul\":3089:3367   */\n    tag_76:\n        /* \"#utility.yul\":3210:3214   */\n      0x00\n        /* \"#utility.yul\":3248:3250   */\n      0x20\n        /* \"#utility.yul\":3237:3246   */\n      dup3\n        /* \"#utility.yul\":3233:3251   */\n      add\n        /* \"#utility.yul\":3225:3251   */\n      swap1\n      pop\n        /* \"#utility.yul\":3261:3360   */\n      tag_178\n        /* \"#utility.yul\":3357:3358   */\n      0x00\n        /* \"#utility.yul\":3346:3355   */\n      dup4\n        /* \"#utility.yul\":3342:3359   */\n      add\n        /* \"#utility.yul\":3333:3339   */\n      dup5\n        /* \"#utility.yul\":3261:3360   */\n      tag_133\n      jump\t// in\n    tag_178:\n        /* \"#utility.yul\":3089:3367   */\n      swap3\n      swap2\n      pop\n      pop\n      jump\t// out\n        /* \"#utility.yul\":3373:3553   */\n    tag_134:\n        /* \"#utility.yul\":3421:3498   */\n      0x4e487b7100000000000000000000000000000000000000000000000000000000\n        /* \"#utility.yul\":3418:3419   */\n      0x00\n        /* \"#utility.yul\":3411:3499   */\n      mstore\n        /* \"#utility.yul\":3518:3522   */\n      0x11\n        /* \"#utility.yul\":3515:3516   */\n      0x04\n        /* \"#utility.yul\":3508:3523   */\n      mstore\n        /* \"#utility.yul\":3542:3546   */\n      0x24\n        /* \"#utility.yul\":3539:3540   */\n      0x00\n        /* \"#utility.yul\":3532:3547   */\n      revert\n        /* \"#utility.yul\":3559:3750   */\n    tag_91:\n        /* \"#utility.yul\":3599:3602   */\n      0x00\n        /* \"#utility.yul\":3618:3638   */\n      tag_181\n        /* \"#utility.yul\":3636:3637   */\n      dup3\n        /* \"#utility.yul\":3618:3638   */\n      tag_117\n      jump\t// in\n    tag_181:\n        /* \"#utility.yul\":3613:3638   */\n      swap2\n      pop\n        /* \"#utility.yul\":3652:3672   */\n      tag_182\n        /* \"#utility.yul\":3670:3671   */\n      dup4\n        /* \"#utility.yul\":3652:3672   */\n      tag_117\n      jump\t// in\n    tag_182:\n        /* \"#utility.yul\":3647:3672   */\n      swap3\n      pop\n        /* \"#utility.yul\":3695:3696   */\n      dup3\n        /* \"#utility.yul\":3692:3693   */\n      dup3\n        /* \"#utility.yul\":3688:3697   */\n      add\n        /* \"#utility.yul\":3681:3697   */\n      swap1\n      pop\n        /* \"#utility.yul\":3716:3719   */\n      dup1\n        /* \"#utility.yul\":3713:3714   */\n      dup3\n        /* \"#utility.yul\":3710:3720   */\n      gt\n        /* \"#utility.yul\":3707:3743   */\n      iszero\n      tag_183\n      jumpi\n        /* \"#utility.yul\":3723:3741   */\n      tag_184\n      tag_134\n      jump\t// in\n    tag_184:\n        /* \"#utility.yul\":3707:3743   */\n    tag_183:\n        /* \"#utility.yul\":3559:3750   */\n      swap3\n      swap2\n      pop\n      pop\n      jump\t// out\n        /* \"#utility.yul\":3756:4088   */\n    tag_93:\n        /* \"#utility.yul\":3877:3881   */\n      0x00\n        /* \"#utility.yul\":3915:3917   */\n      0x40\n        /* \"#utility.yul\":3904:3913   */\n      dup3\n        /* \"#utility.yul\":3900:3918   */\n      add\n        /* \"#utility.yul\":3892:3918   */\n      swap1\n      pop\n        /* \"#utility.yul\":3928:3999   */\n      tag_186\n        /* \"#utility.yul\":3996:3997   */\n      0x00\n        /* \"#utility.yul\":3985:3994   */\n      dup4\n        /* \"#utility.yul\":3981:3998   */\n      add\n        /* \"#utility.yul\":3972:3978   */\n      dup6\n        /* \"#utility.yul\":3928:3999   */\n      tag_123\n      jump\t// in\n    tag_186:\n        /* \"#utility.yul\":4009:4081   */\n      tag_187\n        /* \"#utility.yul\":4077:4079   */\n      0x20\n        /* \"#utility.yul\":4066:4075   */\n      dup4\n        /* \"#utility.yul\":4062:4080   */\n      add\n        /* \"#utility.yul\":4053:4059   */\n      dup5\n        /* \"#utility.yul\":4009:4081   */\n      tag_118\n      jump\t// in\n    tag_187:\n        /* \"#utility.yul\":3756:4088   */\n      swap4\n      swap3\n      pop\n      pop\n      pop\n      jump\t// out\n        /* \"#utility.yul\":4094:4274   */\n    tag_135:\n        /* \"#utility.yul\":4142:4219   */\n      0x4e487b7100000000000000000000000000000000000000000000000000000000\n        /* \"#utility.yul\":4139:4140   */\n      0x00\n        /* \"#utility.yul\":4132:4220   */\n      mstore\n        /* \"#utility.yul\":4239:4243   */\n      0x12\n        /* \"#utility.yul\":4236:4237   */\n      0x04\n        /* \"#utility.yul\":4229:4244   */\n      mstore\n        /* \"#utility.yul\":4263:4267   */\n      0x24\n        /* \"#utility.yul\":4260:4261   */\n      0x00\n        /* \"#utility.yul\":4253:4268   */\n      revert\n        /* \"#utility.yul\":4280:4465   */\n    tag_116:\n        /* \"#utility.yul\":4320:4321   */\n      0x00\n        /* \"#utility.yul\":4337:4357   */\n      tag_190\n        /* \"#utility.yul\":4355:4356   */\n      dup3\n        /* \"#utility.yul\":4337:4357   */\n      tag_117\n      jump\t// in\n    tag_190:\n        /* \"#utility.yul\":4332:4357   */\n      swap2\n      pop\n        /* \"#utility.yul\":4371:4391   */\n      tag_191\n        /* \"#utility.yul\":4389:4390   */\n      dup4\n        /* \"#utility.yul\":4371:4391   */\n      tag_117\n      jump\t// in\n    tag_191:\n        /* \"#utility.yul\":4366:4391   */\n      swap3\n      pop\n        /* \"#utility.yul\":4410:4411   */\n      dup3\n        /* \"#utility.yul\":4400:4435   */\n      tag_192\n      jumpi\n        /* \"#utility.yul\":4415:4433   */\n      tag_193\n      tag_135\n      jump\t// in\n    tag_193:\n        /* \"#utility.yul\":4400:4435   */\n    tag_192:\n        /* \"#utility.yul\":4457:4458   */\n      dup3\n        /* \"#utility.yul\":4454:4455   */\n      dup3\n        /* \"#utility.yul\":4450:4459   */\n      div\n        /* \"#utility.yul\":4445:4459   */\n      swap1\n      pop\n        /* \"#utility.yul\":4280:4465   */\n      swap3\n      swap2\n      pop\n      pop\n      jump\t// out\n\n    auxdata: 0xa2646970667358221220536c4130d2365d20b2809c5d7940f1b162038dbc965b700a99e84309a74bcc9864736f6c634300081e0033\n}\n\nsub_1: assembly {\n        /* \"contracts/ReleasableSimpleCoin.sol\":84:731  contract ReleasableSimpleCoin is SimpleCoin {... */\n      mstore(0x40, 0x80)\n        /* \"contracts/ReleasableSimpleCoin.sol\":157:162  false */\n      0x00\n        /* \"contracts/ReleasableSimpleCoin.sol\":134:162  bool public released = false */\n      0x04\n      exp(0x0100, 0x00)\n      dup2\n      sload\n      dup2\n      0xff\n      mul\n      not\n      and\n      swap1\n      dup4\n      iszero\n      iszero\n      mul\n      or\n      swap1\n      sstore\n      pop\n        /* \"contracts/ReleasableSimpleCoin.sol\":271:336  constructor(uint256 _initialSupply) SimpleCoin(_initialSupply) {} */\n      callvalue\n      dup1\n      iszero\n      tag_1\n      jumpi\n      revert(0x00, 0x00)\n    tag_1:\n      pop\n      mload(0x40)\n      sub(codesize, bytecodeSize)\n      dup1\n      bytecodeSize\n      dup4\n      codecopy\n      dup2\n      dup2\n      add\n      0x40\n      mstore\n      dup2\n      add\n      swap1\n      tag_2\n      swap2\n      swap1\n      tag_3\n      jump\t// in\n    tag_2:\n        /* \"contracts/ReleasableSimpleCoin.sol\":318:332  _initialSupply */\n      dup1\n        /* \"contracts/Ownable.sol\":139:149  msg.sender */\n      caller\n        /* \"contracts/Ownable.sol\":131:136  owner */\n      0x00\n      0x00\n        /* \"contracts/Ownable.sol\":131:149  owner = msg.sender */\n      0x0100\n      exp\n      dup2\n      sload\n      dup2\n      0xffffffffffffffffffffffffffffffffffffffff\n      mul\n      not\n      and\n      swap1\n      dup4\n      0xffffffffffffffffffffffffffffffffffffffff\n      and\n      mul\n      or\n      swap1\n      sstore\n      pop\n        /* \"contracts/SimpleCoin.sol\":558:568  msg.sender */\n      caller\n        /* \"contracts/SimpleCoin.sol\":550:555  owner */\n      0x00\n      0x00\n        /* \"contracts/SimpleCoin.sol\":550:568  owner = msg.sender */\n      0x0100\n      exp\n      dup2\n      sload\n      dup2\n      0xffffffffffffffffffffffffffffffffffffffff\n      mul\n      not\n      and\n      swap1\n      dup4\n      0xffffffffffffffffffffffffffffffffffffffff\n      and\n      mul\n      or\n      swap1\n      sstore\n      pop\n        /* \"contracts/SimpleCoin.sol\":578:605  mint(owner, _initialSupply) */\n      tag_9\n        /* \"contracts/SimpleCoin.sol\":583:588  owner */\n      0x00\n      0x00\n      swap1\n      sload\n      swap1\n      0x0100\n      exp\n      swap1\n      div\n      0xffffffffffffffffffffffffffffffffffffffff\n      and\n        /* \"contracts/SimpleCoin.sol\":590:604  _initialSupply */\n      dup3\n        /* \"contracts/SimpleCoin.sol\":578:582  mint */\n      shl(0x20, tag_10)\n        /* \"contracts/SimpleCoin.sol\":578:605  mint(owner, _initialSupply) */\n      0x20\n      shr\n      jump\t// in\n    tag_9:\n        /* \"contracts/SimpleCoin.sol\":428:612  constructor(uint256 _initialSupply) {... */\n      pop\n        /* \"contracts/ReleasableSimpleCoin.sol\":271:336  constructor(uint256 _initialSupply) SimpleCoin(_initialSupply) {} */\n      pop\n        /* \"contracts/ReleasableSimpleCoin.sol\":84:731  contract ReleasableSimpleCoin is SimpleCoin {... */\n      jump(tag_12)\n        /* \"contracts/SimpleCoin.sol\":2417:2613  function mint(address _recipient, uint256 _mintedAmount) onlyOwner public {        ... */\n    tag_10:\n        /* \"contracts/Ownable.sol\":215:220  owner */\n      0x00\n      0x00\n      swap1\n      sload\n      swap1\n      0x0100\n      exp\n      swap1\n      div\n      0xffffffffffffffffffffffffffffffffffffffff\n      and\n        /* \"contracts/Ownable.sol\":201:220  msg.sender == owner */\n      0xffffffffffffffffffffffffffffffffffffffff\n      and\n        /* \"contracts/Ownable.sol\":201:211  msg.sender */\n      caller\n        /* \"contracts/Ownable.sol\":201:220  msg.sender == owner */\n      0xffffffffffffffffffffffffffffffffffffffff\n      and\n      eq\n        /* \"contracts/Ownable.sol\":193:221  require(msg.sender == owner) */\n      tag_14\n      jumpi\n      revert(0x00, 0x00)\n    tag_14:\n        /* \"contracts/SimpleCoin.sol\":2536:2549  _mintedAmount */\n      dup1\n        /* \"contracts/SimpleCoin.sol\":2509:2520  coinBalance */\n      0x01\n        /* \"contracts/SimpleCoin.sol\":2509:2532  coinBalance[_recipient] */\n      0x00\n        /* \"contracts/SimpleCoin.sol\":2521:2531  _recipient */\n      dup5\n        /* \"contracts/SimpleCoin.sol\":2509:2532  coinBalance[_recipient] */\n      0xffffffffffffffffffffffffffffffffffffffff\n      and\n      0xffffffffffffffffffffffffffffffffffffffff\n      and\n      dup2\n      mstore\n      0x20\n      add\n      swap1\n      dup2\n      mstore\n      0x20\n      add\n      0x00\n      keccak256\n      0x00\n        /* \"contracts/SimpleCoin.sol\":2509:2549  coinBalance[_recipient] += _mintedAmount */\n      dup3\n      dup3\n      sload\n      tag_16\n      swap2\n      swap1\n      tag_17\n      jump\t// in\n    tag_16:\n      swap3\n      pop\n      pop\n      dup2\n      swap1\n      sstore\n      pop\n        /* \"contracts/SimpleCoin.sol\":2580:2590  _recipient */\n      dup2\n        /* \"contracts/SimpleCoin.sol\":2564:2606  Transfer(owner, _recipient, _mintedAmount) */\n      0xffffffffffffffffffffffffffffffffffffffff\n      and\n        /* \"contracts/SimpleCoin.sol\":2573:2578  owner */\n      0x00\n      0x00\n      swap1\n      sload\n      swap1\n      0x0100\n      exp\n      swap1\n      div\n      0xffffffffffffffffffffffffffffffffffffffff\n      and\n        /* \"contracts/SimpleCoin.sol\":2564:2606  Transfer(owner, _recipient, _mintedAmount) */\n      0xffffffffffffffffffffffffffffffffffffffff\n      and\n      0xddf252ad1be2c89b69c2b068fc378daa952ba7f163c4a11628f55a4df523b3ef\n        /* \"contracts/SimpleCoin.sol\":2592:2605  _mintedAmount */\n      dup4\n        /* \"contracts/SimpleCoin.sol\":2564:2606  Transfer(owner, _recipient, _mintedAmount) */\n      mload(0x40)\n      tag_18\n      swap2\n      swap1\n      tag_19\n      jump\t// in\n    tag_18:\n      mload(0x40)\n      dup1\n      swap2\n      sub\n      swap1\n      log3\n        /* \"contracts/SimpleCoin.sol\":2417:2613  function mint(address _recipient, uint256 _mintedAmount) onlyOwner public {        ... */\n      pop\n      pop\n      jump\t// out\n        /* \"#utility.yul\":88:205   */\n    tag_21:\n        /* \"#utility.yul\":197:198   */\n      0x00\n        /* \"#utility.yul\":194:195   */\n      0x00\n        /* \"#utility.yul\":187:199   */\n      revert\n        /* \"#utility.yul\":334:411   */\n    tag_23:\n        /* \"#utility.yul\":371:378   */\n      0x00\n        /* \"#utility.yul\":400:405   */\n      dup2\n        /* \"#utility.yul\":389:405   */\n      swap1\n      pop\n        /* \"#utility.yul\":334:411   */\n      swap2\n      swap1\n      pop\n      jump\t// out\n        /* \"#utility.yul\":417:539   */\n    tag_24:\n        /* \"#utility.yul\":490:514   */\n      tag_34\n        /* \"#utility.yul\":508:513   */\n      dup2\n        /* \"#utility.yul\":490:514   */\n      tag_23\n      jump\t// in\n    tag_34:\n        /* \"#utility.yul\":483:488   */\n      dup2\n        /* \"#utility.yul\":480:515   */\n      eq\n        /* \"#utility.yul\":470:533   */\n      tag_35\n      jumpi\n        /* \"#utility.yul\":529:530   */\n      0x00\n        /* \"#utility.yul\":526:527   */\n      0x00\n        /* \"#utility.yul\":519:531   */\n      revert\n        /* \"#utility.yul\":470:533   */\n    tag_35:\n        /* \"#utility.yul\":417:539   */\n      pop\n      jump\t// out\n        /* \"#utility.yul\":545:688   */\n    tag_25:\n        /* \"#utility.yul\":602:607   */\n      0x00\n        /* \"#utility.yul\":633:639   */\n      dup2\n        /* \"#utility.yul\":627:640   */\n      mload\n        /* \"#utility.yul\":618:640   */\n      swap1\n      pop\n        /* \"#utility.yul\":649:682   */\n      tag_37\n        /* \"#utility.yul\":676:681   */\n      dup2\n        /* \"#utility.yul\":649:682   */\n      tag_24\n      jump\t// in\n    tag_37:\n        /* \"#utility.yul\":545:688   */\n      swap3\n      swap2\n      pop\n      pop\n      jump\t// out\n        /* \"#utility.yul\":694:1045   */\n    tag_3:\n        /* \"#utility.yul\":764:770   */\n      0x00\n        /* \"#utility.yul\":813:815   */\n      0x20\n        /* \"#utility.yul\":801:810   */\n      dup3\n        /* \"#utility.yul\":792:799   */\n      dup5\n        /* \"#utility.yul\":788:811   */\n      sub\n        /* \"#utility.yul\":784:816   */\n      slt\n        /* \"#utility.yul\":781:900   */\n      iszero\n      tag_39\n      jumpi\n        /* \"#utility.yul\":819:898   */\n      tag_40\n      tag_21\n      jump\t// in\n    tag_40:\n        /* \"#utility.yul\":781:900   */\n    tag_39:\n        /* \"#utility.yul\":939:940   */\n      0x00\n        /* \"#utility.yul\":964:1028   */\n      tag_41\n        /* \"#utility.yul\":1020:1027   */\n      dup5\n        /* \"#utility.yul\":1011:1017   */\n      dup3\n        /* \"#utility.yul\":1000:1009   */\n      dup6\n        /* \"#utility.yul\":996:1018   */\n      add\n        /* \"#utility.yul\":964:1028   */\n      tag_25\n      jump\t// in\n    tag_41:\n        /* \"#utility.yul\":954:1028   */\n      swap2\n      pop\n        /* \"#utility.yul\":910:1038   */\n      pop\n        /* \"#utility.yul\":694:1045   */\n      swap3\n      swap2\n      pop\n      pop\n      jump\t// out\n        /* \"#utility.yul\":1051:1231   */\n    tag_26:\n        /* \"#utility.yul\":1099:1176   */\n      0x4e487b7100000000000000000000000000000000000000000000000000000000\n        /* \"#utility.yul\":1096:1097   */\n      0x00\n        /* \"#utility.yul\":1089:1177   */\n      mstore\n        /* \"#utility.yul\":1196:1200   */\n      0x11\n        /* \"#utility.yul\":1193:1194   */\n      0x04\n        /* \"#utility.yul\":1186:1201   */\n      mstore\n        /* \"#utility.yul\":1220:1224   */\n      0x24\n        /* \"#utility.yul\":1217:1218   */\n      0x00\n        /* \"#utility.yul\":1210:1225   */\n      revert\n        /* \"#utility.yul\":1237:1428   */\n    tag_17:\n        /* \"#utility.yul\":1277:1280   */\n      0x00\n        /* \"#utility.yul\":1296:1316   */\n      tag_44\n        /* \"#utility.yul\":1314:1315   */\n      dup3\n        /* \"#utility.yul\":1296:1316   */\n      tag_23\n      jump\t// in\n    tag_44:\n        /* \"#utility.yul\":1291:1316   */\n      swap2\n      pop\n        /* \"#utility.yul\":1330:1350   */\n      tag_45\n        /* \"#utility.yul\":1348:1349   */\n      dup4\n        /* \"#utility.yul\":1330:1350   */\n      tag_23\n      jump\t// in\n    tag_45:\n        /* \"#utility.yul\":1325:1350   */\n      swap3\n      pop\n        /* \"#utility.yul\":1373:1374   */\n      dup3\n        /* \"#utility.yul\":1370:1371   */\n      dup3\n        /* \"#utility.yul\":1366:1375   */\n      add\n        /* \"#utility.yul\":1359:1375   */\n      swap1\n      pop\n        /* \"#utility.yul\":1394:1397   */\n      dup1\n        /* \"#utility.yul\":1391:1392   */\n      dup3\n        /* \"#utility.yul\":1388:1398   */\n      gt\n        /* \"#utility.yul\":1385:1421   */\n      iszero\n      tag_46\n      jumpi\n        /* \"#utility.yul\":1401:1419   */\n      tag_47\n      tag_26\n      jump\t// in\n    tag_47:\n        /* \"#utility.yul\":1385:1421   */\n    tag_46:\n        /* \"#utility.yul\":1237:1428   */\n      swap3\n      swap2\n      pop\n      pop\n      jump\t// out\n        /* \"#utility.yul\":1434:1552   */\n    tag_27:\n        /* \"#utility.yul\":1521:1545   */\n      tag_49\n        /* \"#utility.yul\":1539:1544   */\n      dup2\n        /* \"#utility.yul\":1521:1545   */\n      tag_23\n      jump\t// in\n    tag_49:\n        /* \"#utility.yul\":1516:1519   */\n      dup3\n        /* \"#utility.yul\":1509:1546   */\n      mstore\n        /* \"#utility.yul\":1434:1552   */\n      pop\n      pop\n      jump\t// out\n        /* \"#utility.yul\":1558:1780   */\n    tag_19:\n        /* \"#utility.yul\":1651:1655   */\n      0x00\n        /* \"#utility.yul\":1689:1691   */\n      0x20\n        /* \"#utility.yul\":1678:1687   */\n      dup3\n        /* \"#utility.yul\":1674:1692   */\n      add\n        /* \"#utility.yul\":1666:1692   */\n      swap1\n      pop\n        /* \"#utility.yul\":1702:1773   */\n      tag_51\n        /* \"#utility.yul\":1770:1771   */\n      0x00\n        /* \"#utility.yul\":1759:1768   */\n      dup4\n        /* \"#utility.yul\":1755:1772   */\n      add\n        /* \"#utility.yul\":1746:1752   */\n      dup5\n        /* \"#utility.yul\":1702:1773   */\n      tag_27\n      jump\t// in\n    tag_51:\n        /* \"#utility.yul\":1558:1780   */\n      swap3\n      swap2\n      pop\n      pop\n      jump\t// out\n        /* \"contracts/ReleasableSimpleCoin.sol\":84:731  contract ReleasableSimpleCoin is SimpleCoin {... */\n    tag_12:\n      dataSize(sub_0)\n      dup1\n      dataOffset(sub_0)\n      0x00\n      codecopy\n      0x00\n      return\n    stop\n\n    sub_0: assembly {\n            /* \"contracts/ReleasableSimpleCoin.sol\":84:731  contract ReleasableSimpleCoin is SimpleCoin {... */\n          mstore(0x40, 0x80)\n          callvalue\n          dup1\n          iszero\n          tag_1\n          jumpi\n          revert(0x00, 0x00)\n        tag_1:\n          pop\n          jumpi(tag_2, lt(calldatasize, 0x04))\n          shr(0xe0, calldataload(0x00))\n          dup1\n          0xa9059cbb\n          gt\n          tag_14\n          jumpi\n          dup1\n          0xa9059cbb\n          eq\n          tag_8\n          jumpi\n          dup1\n          0xb414d4b6\n          eq\n          tag_9\n          jumpi\n          dup1\n          0xc1dbd9b2\n          eq\n          tag_10\n          jumpi\n          dup1\n          0xdd62ed3e\n          eq\n          tag_11\n          jumpi\n          dup1\n          0xe724529c\n          eq\n          tag_12\n          jumpi\n          dup1\n          0xfabde80c\n          eq\n          tag_13\n          jumpi\n          jump(tag_2)\n        tag_14:\n          dup1\n          0x23b872dd\n          eq\n          tag_3\n          jumpi\n          dup1\n          0x40c10f19\n          eq\n          tag_4\n          jumpi\n          dup1\n          0x86d1a69f\n          eq\n          tag_5\n          jumpi\n          dup1\n          0x8da5cb5b\n          eq\n          tag_6\n          jumpi\n          dup1\n          0x96132521\n          eq\n          tag_7\n          jumpi\n        tag_2:\n          revert(0x00, 0x00)\n            /* \"contracts/ReleasableSimpleCoin.sol\":549:729  function transferFrom(address _from, address _to, uint256 _amount) override isReleased public returns (bool success) {... */\n        tag_3:\n          tag_15\n          0x04\n          dup1\n          calldatasize\n          sub\n          dup2\n          add\n          swap1\n          tag_16\n          swap2\n          swap1\n          tag_17\n          jump\t// in\n        tag_16:\n          tag_18\n          jump\t// in\n        tag_15:\n          mload(0x40)\n          tag_19\n          swap2\n          swap1\n          tag_20\n          jump\t// in\n        tag_19:\n          mload(0x40)\n          dup1\n          swap2\n          sub\n          swap1\n          return\n            /* \"contracts/SimpleCoin.sol\":2417:2613  function mint(address _recipient, uint256 _mintedAmount) onlyOwner public {        ... */\n        tag_4:\n          tag_21\n          0x04\n          dup1\n          calldatasize\n          sub\n          dup2\n          add\n          swap1\n          tag_22\n          swap2\n          swap1\n          tag_23\n          jump\t// in\n        tag_22:\n          tag_24\n          jump\t// in\n        tag_21:\n          stop\n            /* \"contracts/ReleasableSimpleCoin.sol\":342:410  function release() onlyOwner public {... */\n        tag_5:\n          tag_25\n          tag_26\n          jump\t// in\n        tag_25:\n          stop\n            /* \"contracts/Ownable.sol\":80:100  address public owner */\n        tag_6:\n          tag_27\n          tag_28\n          jump\t// in\n        tag_27:\n          mload(0x40)\n          tag_29\n          swap2\n          swap1\n          tag_30\n          jump\t// in\n        tag_29:\n          mload(0x40)\n          dup1\n          swap2\n          sub\n          swap1\n          return\n            /* \"contracts/ReleasableSimpleCoin.sol\":134:162  bool public released = false */\n        tag_7:\n          tag_31\n          tag_32\n          jump\t// in\n        tag_31:\n          mload(0x40)\n          tag_33\n          swap2\n          swap1\n          tag_20\n          jump\t// in\n        tag_33:\n          mload(0x40)\n          dup1\n          swap2\n          sub\n          swap1\n          return\n            /* \"contracts/ReleasableSimpleCoin.sol\":416:543  function transfer(address _to, uint256 _amount) override isReleased public {... */\n        tag_8:\n          tag_34\n          0x04\n          dup1\n          calldatasize\n          sub\n          dup2\n          add\n          swap1\n          tag_35\n          swap2\n          swap1\n          tag_23\n          jump\t// in\n        tag_35:\n          tag_36\n          jump\t// in\n        tag_34:\n          stop\n            /* \"contracts/SimpleCoin.sol\":243:289  mapping (address => bool) public frozenAccount */\n        tag_9:\n          tag_37\n          0x04\n          dup1\n          calldatasize\n          sub\n          dup2\n          add\n          swap1\n          tag_38\n          swap2\n          swap1\n          tag_39\n          jump\t// in\n        tag_38:\n          tag_40\n          jump\t// in\n        tag_37:\n          mload(0x40)\n          tag_41\n          swap2\n          swap1\n          tag_20\n          jump\t// in\n        tag_41:\n          mload(0x40)\n          dup1\n          swap2\n          sub\n          swap1\n          return\n            /* \"contracts/SimpleCoin.sol\":942:1364  function authorize(address _authorizedAccount, uint256 _allowance) public returns (bool success) {... */\n        tag_10:\n          tag_42\n          0x04\n          dup1\n          calldatasize\n          sub\n          dup2\n          add\n          swap1\n          tag_43\n          swap2\n          swap1\n          tag_23\n          jump\t// in\n        tag_43:\n          tag_44\n          jump\t// in\n        tag_42:\n          mload(0x40)\n          tag_45\n          swap2\n          swap1\n          tag_20\n          jump\t// in\n        tag_45:\n          mload(0x40)\n          dup1\n          swap2\n          sub\n          swap1\n          return\n            /* \"contracts/SimpleCoin.sol\":171:237  mapping (address => mapping (address => uint256)) public allowance */\n        tag_11:\n          tag_46\n          0x04\n          dup1\n          calldatasize\n          sub\n          dup2\n          add\n          swap1\n          tag_47\n          swap2\n          swap1\n          tag_48\n          jump\t// in\n        tag_47:\n          tag_49\n          jump\t// in\n        tag_46:\n          mload(0x40)\n          tag_50\n          swap2\n          swap1\n          tag_51\n          jump\t// in\n        tag_50:\n          mload(0x40)\n          dup1\n          swap2\n          sub\n          swap1\n          return\n            /* \"contracts/SimpleCoin.sol\":2619:2787  function freezeAccount(address target, bool freeze) onlyOwner public {        ... */\n        tag_12:\n          tag_52\n          0x04\n          dup1\n          calldatasize\n          sub\n          dup2\n          add\n          swap1\n          tag_53\n          swap2\n          swap1\n          tag_54\n          jump\t// in\n        tag_53:\n          tag_55\n          jump\t// in\n        tag_52:\n          stop\n            /* \"contracts/SimpleCoin.sol\":118:165  mapping (address => uint256) public coinBalance */\n        tag_13:\n          tag_56\n          0x04\n          dup1\n          calldatasize\n          sub\n          dup2\n          add\n          swap1\n          tag_57\n          swap2\n          swap1\n          tag_39\n          jump\t// in\n        tag_57:\n          tag_58\n          jump\t// in\n        tag_56:\n          mload(0x40)\n          tag_59\n          swap2\n          swap1\n          tag_51\n          jump\t// in\n        tag_59:\n          mload(0x40)\n          dup1\n          swap2\n          sub\n          swap1\n          return\n            /* \"contracts/ReleasableSimpleCoin.sol\":549:729  function transferFrom(address _from, address _to, uint256 _amount) override isReleased public returns (bool success) {... */\n        tag_18:\n            /* \"contracts/ReleasableSimpleCoin.sol\":652:664  bool success */\n          0x00\n            /* \"contracts/ReleasableSimpleCoin.sol\":205:213  released */\n          0x04\n          0x00\n          swap1\n          sload\n          swap1\n          0x0100\n          exp\n          swap1\n          div\n          0xff\n          and\n            /* \"contracts/ReleasableSimpleCoin.sol\":201:248  if(!released) {... */\n          tag_61\n          jumpi\n            /* \"contracts/ReleasableSimpleCoin.sol\":229:237  revert() */\n          revert(0x00, 0x00)\n            /* \"contracts/ReleasableSimpleCoin.sol\":201:248  if(!released) {... */\n        tag_61:\n            /* \"contracts/ReleasableSimpleCoin.sol\":683:722  super.transferFrom(_from, _to, _amount) */\n          tag_63\n            /* \"contracts/ReleasableSimpleCoin.sol\":702:707  _from */\n          dup5\n            /* \"contracts/ReleasableSimpleCoin.sol\":709:712  _to */\n          dup5\n            /* \"contracts/ReleasableSimpleCoin.sol\":714:721  _amount */\n          dup5\n            /* \"contracts/ReleasableSimpleCoin.sol\":683:701  super.transferFrom */\n          tag_64\n            /* \"contracts/ReleasableSimpleCoin.sol\":683:722  super.transferFrom(_from, _to, _amount) */\n          jump\t// in\n        tag_63:\n            /* \"contracts/ReleasableSimpleCoin.sol\":676:722  return super.transferFrom(_from, _to, _amount) */\n          swap1\n          pop\n            /* \"contracts/ReleasableSimpleCoin.sol\":549:729  function transferFrom(address _from, address _to, uint256 _amount) override isReleased public returns (bool success) {... */\n          swap4\n          swap3\n          pop\n          pop\n          pop\n          jump\t// out\n            /* \"contracts/SimpleCoin.sol\":2417:2613  function mint(address _recipient, uint256 _mintedAmount) onlyOwner public {        ... */\n        tag_24:\n            /* \"contracts/Ownable.sol\":215:220  owner */\n          0x00\n          0x00\n          swap1\n          sload\n          swap1\n          0x0100\n          exp\n          swap1\n          div\n          0xffffffffffffffffffffffffffffffffffffffff\n          and\n            /* \"contracts/Ownable.sol\":201:220  msg.sender == owner */\n          0xffffffffffffffffffffffffffffffffffffffff\n          and\n            /* \"contracts/Ownable.sol\":201:211  msg.sender */\n          caller\n            /* \"contracts/Ownable.sol\":201:220  msg.sender == owner */\n          0xffffffffffffffffffffffffffffffffffffffff\n          and\n          eq\n            /* \"contracts/Ownable.sol\":193:221  require(msg.sender == owner) */\n          tag_66\n          jumpi\n          revert(0x00, 0x00)\n        tag_66:\n            /* \"contracts/SimpleCoin.sol\":2536:2549  _mintedAmount */\n          dup1\n            /* \"contracts/SimpleCoin.sol\":2509:2520  coinBalance */\n          0x01\n            /* \"contracts/SimpleCoin.sol\":2509:2532  coinBalance[_recipient] */\n          0x00\n            /* \"contracts/SimpleCoin.sol\":2521:2531  _recipient */\n          dup5\n            /* \"contracts/SimpleCoin.sol\":2509:2532  coinBalance[_recipient] */\n          0xffffffffffffffffffffffffffffffffffffffff\n          and\n          0xffffffffffffffffffffffffffffffffffffffff\n          and\n          dup2\n          mstore\n          0x20\n          add\n          swap1\n          dup2\n          mstore\n          0x20\n          add\n          0x00\n          keccak256\n          0x00\n            /* \"contracts/SimpleCoin.sol\":2509:2549  coinBalance[_recipient] += _mintedAmount */\n          dup3\n          dup3\n          sload\n          tag_68\n          swap2\n          swap1\n          tag_69\n          jump\t// in\n        tag_68:\n          swap3\n          pop\n          pop\n          dup2\n          swap1\n          sstore\n          pop\n            /* \"contracts/SimpleCoin.sol\":2580:2590  _recipient */\n          dup2\n            /* \"contracts/SimpleCoin.sol\":2564:2606  Transfer(owner, _recipient, _mintedAmount) */\n          0xffffffffffffffffffffffffffffffffffffffff\n          and\n            /* \"contracts/SimpleCoin.sol\":2573:2578  owner */\n          0x00\n          0x00\n          swap1\n          sload\n          swap1\n          0x0100\n          exp\n          swap1\n          div\n          0xffffffffffffffffffffffffffffffffffffffff\n          and\n            /* \"contracts/SimpleCoin.sol\":2564:2606  Transfer(owner, _recipient, _mintedAmount) */\n          0xffffffffffffffffffffffffffffffffffffffff\n          and\n          0xddf252ad1be2c89b69c2b068fc378daa952ba7f163c4a11628f55a4df523b3ef\n            /* \"contracts/SimpleCoin.sol\":2592:2605  _mintedAmount */\n          dup4\n            /* \"contracts/SimpleCoin.sol\":2564:2606  Transfer(owner, _recipient, _mintedAmount) */\n          mload(0x40)\n          tag_70\n          swap2\n          swap1\n          tag_51\n          jump\t// in\n        tag_70:\n          mload(0x40)\n          dup1\n          swap2\n          sub\n          swap1\n          log3\n            /* \"contracts/SimpleCoin.sol\":2417:2613  function mint(address _recipient, uint256 _mintedAmount) onlyOwner public {        ... */\n          pop\n          pop\n          jump\t// out\n            /* \"contracts/ReleasableSimpleCoin.sol\":342:410  function release() onlyOwner public {... */\n        tag_26:\n            /* \"contracts/Ownable.sol\":215:220  owner */\n          0x00\n          0x00\n          swap1\n          sload\n          swap1\n          0x0100\n          exp\n          swap1\n          div\n          0xffffffffffffffffffffffffffffffffffffffff\n          and\n            /* \"contracts/Ownable.sol\":201:220  msg.sender == owner */\n          0xffffffffffffffffffffffffffffffffffffffff\n          and\n            /* \"contracts/Ownable.sol\":201:211  msg.sender */\n          caller\n            /* \"contracts/Ownable.sol\":201:220  msg.sender == owner */\n          0xffffffffffffffffffffffffffffffffffffffff\n          and\n          eq\n            /* \"contracts/Ownable.sol\":193:221  require(msg.sender == owner) */\n          tag_72\n          jumpi\n          revert(0x00, 0x00)\n        tag_72:\n            /* \"contracts/ReleasableSimpleCoin.sol\":399:403  true */\n          0x01\n            /* \"contracts/ReleasableSimpleCoin.sol\":388:396  released */\n          0x04\n          0x00\n            /* \"contracts/ReleasableSimpleCoin.sol\":388:403  released = true */\n          0x0100\n          exp\n          dup2\n          sload\n          dup2\n          0xff\n          mul\n          not\n          and\n          swap1\n          dup4\n          iszero\n          iszero\n          mul\n          or\n          swap1\n          sstore\n          pop\n            /* \"contracts/ReleasableSimpleCoin.sol\":342:410  function release() onlyOwner public {... */\n          jump\t// out\n            /* \"contracts/Ownable.sol\":80:100  address public owner */\n        tag_28:\n          0x00\n          0x00\n          swap1\n          sload\n          swap1\n          0x0100\n          exp\n          swap1\n          div\n          0xffffffffffffffffffffffffffffffffffffffff\n          and\n          dup2\n          jump\t// out\n            /* \"contracts/ReleasableSimpleCoin.sol\":134:162  bool public released = false */\n        tag_32:\n          0x04\n          0x00\n          swap1\n          sload\n          swap1\n          0x0100\n          exp\n          swap1\n          div\n          0xff\n          and\n          dup2\n          jump\t// out\n            /* \"contracts/ReleasableSimpleCoin.sol\":416:543  function transfer(address _to, uint256 _amount) override isReleased public {... */\n        tag_36:\n            /* \"contracts/ReleasableSimpleCoin.sol\":205:213  released */\n          0x04\n          0x00\n          swap1\n          sload\n          swap1\n          0x0100\n          exp\n          swap1\n          div\n          0xff\n          and\n            /* \"contracts/ReleasableSimpleCoin.sol\":201:248  if(!released) {... */\n          tag_75\n          jumpi\n            /* \"contracts/ReleasableSimpleCoin.sol\":229:237  revert() */\n          revert(0x00, 0x00)\n            /* \"contracts/ReleasableSimpleCoin.sol\":201:248  if(!released) {... */\n        tag_75:\n            /* \"contracts/ReleasableSimpleCoin.sol\":508:536  super.transfer(_to, _amount) */\n          tag_77\n            /* \"contracts/ReleasableSimpleCoin.sol\":523:526  _to */\n          dup3\n            /* \"contracts/ReleasableSimpleCoin.sol\":528:535  _amount */\n          dup3\n            /* \"contracts/ReleasableSimpleCoin.sol\":508:522  super.transfer */\n          tag_78\n            /* \"contracts/ReleasableSimpleCoin.sol\":508:536  super.transfer(_to, _amount) */\n          jump\t// in\n        tag_77:\n            /* \"contracts/ReleasableSimpleCoin.sol\":416:543  function transfer(address _to, uint256 _amount) override isReleased public {... */\n          pop\n          pop\n          jump\t// out\n            /* \"contracts/SimpleCoin.sol\":243:289  mapping (address => bool) public frozenAccount */\n        tag_40:\n          mstore(0x20, 0x03)\n          dup1\n          0x00\n          mstore\n          keccak256(0x00, 0x40)\n          0x00\n          swap2\n          pop\n          sload\n          swap1\n          0x0100\n          exp\n          swap1\n          div\n          0xff\n          and\n          dup2\n          jump\t// out\n            /* \"contracts/SimpleCoin.sol\":942:1364  function authorize(address _authorizedAccount, uint256 _allowance) public returns (bool success) {... */\n        tag_44:\n            /* \"contracts/SimpleCoin.sol\":1025:1037  bool success */\n          0x00\n            /* \"contracts/SimpleCoin.sol\":1326:1336  _allowance */\n          dup2\n            /* \"contracts/SimpleCoin.sol\":1282:1291  allowance */\n          0x02\n            /* \"contracts/SimpleCoin.sol\":1282:1303  allowance[msg.sender] */\n          0x00\n            /* \"contracts/SimpleCoin.sol\":1292:1302  msg.sender */\n          caller\n            /* \"contracts/SimpleCoin.sol\":1282:1303  allowance[msg.sender] */\n          0xffffffffffffffffffffffffffffffffffffffff\n          and\n          0xffffffffffffffffffffffffffffffffffffffff\n          and\n          dup2\n          mstore\n          0x20\n          add\n          swap1\n          dup2\n          mstore\n          0x20\n          add\n          0x00\n          keccak256\n            /* \"contracts/SimpleCoin.sol\":1282:1323  allowance[msg.sender][_authorizedAccount] */\n          0x00\n            /* \"contracts/SimpleCoin.sol\":1304:1322  _authorizedAccount */\n          dup6\n            /* \"contracts/SimpleCoin.sol\":1282:1323  allowance[msg.sender][_authorizedAccount] */\n          0xffffffffffffffffffffffffffffffffffffffff\n          and\n          0xffffffffffffffffffffffffffffffffffffffff\n          and\n          dup2\n          mstore\n          0x20\n          add\n          swap1\n          dup2\n          mstore\n          0x20\n          add\n          0x00\n          keccak256\n            /* \"contracts/SimpleCoin.sol\":1282:1336  allowance[msg.sender][_authorizedAccount] = _allowance */\n          dup2\n          swap1\n          sstore\n          pop\n            /* \"contracts/SimpleCoin.sol\":1353:1357  true */\n          0x01\n            /* \"contracts/SimpleCoin.sol\":1346:1357  return true */\n          swap1\n          pop\n            /* \"contracts/SimpleCoin.sol\":942:1364  function authorize(address _authorizedAccount, uint256 _allowance) public returns (bool success) {... */\n          swap3\n          swap2\n          pop\n          pop\n          jump\t// out\n            /* \"contracts/SimpleCoin.sol\":171:237  mapping (address => mapping (address => uint256)) public allowance */\n        tag_49:\n          mstore(0x20, 0x02)\n          dup2\n          0x00\n          mstore\n          mstore(0x20, keccak256(0x00, 0x40))\n          dup1\n          0x00\n          mstore\n          keccak256(0x00, 0x40)\n          0x00\n          swap2\n          pop\n          swap2\n          pop\n          pop\n          sload\n          dup2\n          jump\t// out\n            /* \"contracts/SimpleCoin.sol\":2619:2787  function freezeAccount(address target, bool freeze) onlyOwner public {        ... */\n        tag_55:\n            /* \"contracts/Ownable.sol\":215:220  owner */\n          0x00\n          0x00\n          swap1\n          sload\n          swap1\n          0x0100\n          exp\n          swap1\n          div\n          0xffffffffffffffffffffffffffffffffffffffff\n          and\n            /* \"contracts/Ownable.sol\":201:220  msg.sender == owner */\n          0xffffffffffffffffffffffffffffffffffffffff\n          and\n            /* \"contracts/Ownable.sol\":201:211  msg.sender */\n          caller\n            /* \"contracts/Ownable.sol\":201:220  msg.sender == owner */\n          0xffffffffffffffffffffffffffffffffffffffff\n          and\n          eq\n            /* \"contracts/Ownable.sol\":193:221  require(msg.sender == owner) */\n          tag_81\n          jumpi\n          revert(0x00, 0x00)\n        tag_81:\n            /* \"contracts/SimpleCoin.sol\":2730:2736  freeze */\n          dup1\n            /* \"contracts/SimpleCoin.sol\":2706:2719  frozenAccount */\n          0x03\n            /* \"contracts/SimpleCoin.sol\":2706:2727  frozenAccount[target] */\n          0x00\n            /* \"contracts/SimpleCoin.sol\":2720:2726  target */\n          dup5\n            /* \"contracts/SimpleCoin.sol\":2706:2727  frozenAccount[target] */\n          0xffffffffffffffffffffffffffffffffffffffff\n          and\n          0xffffffffffffffffffffffffffffffffffffffff\n          and\n          dup2\n          mstore\n          0x20\n          add\n          swap1\n          dup2\n          mstore\n          0x20\n          add\n          0x00\n          keccak256\n          0x00\n            /* \"contracts/SimpleCoin.sol\":2706:2736  frozenAccount[target] = freeze */\n          0x0100\n          exp\n          dup2\n          sload\n          dup2\n          0xff\n          mul\n          not\n          and\n          swap1\n          dup4\n          iszero\n          iszero\n          mul\n          or\n          swap1\n          sstore\n          pop\n            /* \"contracts/SimpleCoin.sol\":2751:2780  FrozenAccount(target, freeze) */\n          0x67a17b8db8ff8fa7cff69c2328bf8a35f9be2c88abeea30be900fc28eece28ed\n            /* \"contracts/SimpleCoin.sol\":2765:2771  target */\n          dup3\n            /* \"contracts/SimpleCoin.sol\":2773:2779  freeze */\n          dup3\n            /* \"contracts/SimpleCoin.sol\":2751:2780  FrozenAccount(target, freeze) */\n          mload(0x40)\n          tag_83\n          swap3\n          swap2\n          swap1\n          tag_84\n          jump\t// in\n        tag_83:\n          mload(0x40)\n          dup1\n          swap2\n          sub\n          swap1\n          log1\n            /* \"contracts/SimpleCoin.sol\":2619:2787  function freezeAccount(address target, bool freeze) onlyOwner public {        ... */\n          pop\n          pop\n          jump\t// out\n            /* \"contracts/SimpleCoin.sol\":118:165  mapping (address => uint256) public coinBalance */\n        tag_58:\n          mstore(0x20, 0x01)\n          dup1\n          0x00\n          mstore\n          keccak256(0x00, 0x40)\n          0x00\n          swap2\n          pop\n          swap1\n          pop\n          sload\n          dup2\n          jump\t// out\n            /* \"contracts/SimpleCoin.sol\":1497:2411  function transferFrom(address _from, address _to, uint256 _amount) virtual public returns (bool success) {... */\n        tag_64:\n            /* \"contracts/SimpleCoin.sol\":1588:1600  bool success */\n          0x00\n            /* \"contracts/SimpleCoin.sol\":1635:1636  0 */\n          0x00\n            /* \"contracts/SimpleCoin.sol\":1620:1637  _to != address(0) */\n          0xffffffffffffffffffffffffffffffffffffffff\n          and\n            /* \"contracts/SimpleCoin.sol\":1620:1623  _to */\n          dup4\n            /* \"contracts/SimpleCoin.sol\":1620:1637  _to != address(0) */\n          0xffffffffffffffffffffffffffffffffffffffff\n          and\n          sub\n            /* \"contracts/SimpleCoin.sol\":1612:1638  require(_to != address(0)) */\n          tag_86\n          jumpi\n          revert(0x00, 0x00)\n        tag_86:\n            /* \"contracts/SimpleCoin.sol\":1782:1789  _amount */\n          dup2\n            /* \"contracts/SimpleCoin.sol\":1761:1772  coinBalance */\n          0x01\n            /* \"contracts/SimpleCoin.sol\":1761:1779  coinBalance[_from] */\n          0x00\n            /* \"contracts/SimpleCoin.sol\":1773:1778  _from */\n          dup7\n            /* \"contracts/SimpleCoin.sol\":1761:1779  coinBalance[_from] */\n          0xffffffffffffffffffffffffffffffffffffffff\n          and\n          0xffffffffffffffffffffffffffffffffffffffff\n          and\n          dup2\n          mstore\n          0x20\n          add\n          swap1\n          dup2\n          mstore\n          0x20\n          add\n          0x00\n          keccak256\n          sload\n            /* \"contracts/SimpleCoin.sol\":1761:1789  coinBalance[_from] > _amount */\n          gt\n            /* \"contracts/SimpleCoin.sol\":1753:1790  require(coinBalance[_from] > _amount) */\n          tag_87\n          jumpi\n          revert(0x00, 0x00)\n        tag_87:\n            /* \"contracts/SimpleCoin.sol\":1893:1904  coinBalance */\n          0x01\n            /* \"contracts/SimpleCoin.sol\":1893:1909  coinBalance[_to] */\n          0x00\n            /* \"contracts/SimpleCoin.sol\":1905:1908  _to */\n          dup5\n            /* \"contracts/SimpleCoin.sol\":1893:1909  coinBalance[_to] */\n          0xffffffffffffffffffffffffffffffffffffffff\n          and\n          0xffffffffffffffffffffffffffffffffffffffff\n          and\n          dup2\n          mstore\n          0x20\n          add\n          swap1\n          dup2\n          mstore\n          0x20\n          add\n          0x00\n          keccak256\n          sload\n            /* \"contracts/SimpleCoin.sol\":1882:1889  _amount */\n          dup3\n            /* \"contracts/SimpleCoin.sol\":1863:1874  coinBalance */\n          0x01\n            /* \"contracts/SimpleCoin.sol\":1863:1879  coinBalance[_to] */\n          0x00\n            /* \"contracts/SimpleCoin.sol\":1875:1878  _to */\n          dup7\n            /* \"contracts/SimpleCoin.sol\":1863:1879  coinBalance[_to] */\n          0xffffffffffffffffffffffffffffffffffffffff\n          and\n          0xffffffffffffffffffffffffffffffffffffffff\n          and\n          dup2\n          mstore\n          0x20\n          add\n          swap1\n          dup2\n          mstore\n          0x20\n          add\n          0x00\n          keccak256\n          sload\n            /* \"contracts/SimpleCoin.sol\":1863:1889  coinBalance[_to] + _amount */\n          tag_88\n          swap2\n          swap1\n          tag_69\n          jump\t// in\n        tag_88:\n            /* \"contracts/SimpleCoin.sol\":1863:1909  coinBalance[_to] + _amount >= coinBalance[_to] */\n          lt\n          iszero\n            /* \"contracts/SimpleCoin.sol\":1855:1910  require(coinBalance[_to] + _amount >= coinBalance[_to]) */\n          tag_89\n          jumpi\n          revert(0x00, 0x00)\n        tag_89:\n            /* \"contracts/SimpleCoin.sol\":2037:2046  allowance */\n          0x02\n            /* \"contracts/SimpleCoin.sol\":2037:2053  allowance[_from] */\n          0x00\n            /* \"contracts/SimpleCoin.sol\":2047:2052  _from */\n          dup6\n            /* \"contracts/SimpleCoin.sol\":2037:2053  allowance[_from] */\n          0xffffffffffffffffffffffffffffffffffffffff\n          and\n          0xffffffffffffffffffffffffffffffffffffffff\n          and\n          dup2\n          mstore\n          0x20\n          add\n          swap1\n          dup2\n          mstore\n          0x20\n          add\n          0x00\n          keccak256\n            /* \"contracts/SimpleCoin.sol\":2037:2065  allowance[_from][msg.sender] */\n          0x00\n            /* \"contracts/SimpleCoin.sol\":2054:2064  msg.sender */\n          caller\n            /* \"contracts/SimpleCoin.sol\":2037:2065  allowance[_from][msg.sender] */\n          0xffffffffffffffffffffffffffffffffffffffff\n          and\n          0xffffffffffffffffffffffffffffffffffffffff\n          and\n          dup2\n          mstore\n          0x20\n          add\n          swap1\n          dup2\n          mstore\n          0x20\n          add\n          0x00\n          keccak256\n          sload\n            /* \"contracts/SimpleCoin.sol\":2026:2033  _amount */\n          dup3\n            /* \"contracts/SimpleCoin.sol\":2026:2065  _amount <= allowance[_from][msg.sender] */\n          gt\n          iszero\n            /* \"contracts/SimpleCoin.sol\":2018:2066  require(_amount <= allowance[_from][msg.sender]) */\n          tag_90\n          jumpi\n          revert(0x00, 0x00)\n        tag_90:\n            /* \"contracts/SimpleCoin.sol\":2244:2251  _amount */\n          dup2\n            /* \"contracts/SimpleCoin.sol\":2222:2233  coinBalance */\n          0x01\n            /* \"contracts/SimpleCoin.sol\":2222:2240  coinBalance[_from] */\n          0x00\n            /* \"contracts/SimpleCoin.sol\":2234:2239  _from */\n          dup7\n            /* \"contracts/SimpleCoin.sol\":2222:2240  coinBalance[_from] */\n          0xffffffffffffffffffffffffffffffffffffffff\n          and\n          0xffffffffffffffffffffffffffffffffffffffff\n          and\n          dup2\n          mstore\n          0x20\n          add\n          swap1\n          dup2\n          mstore\n          0x20\n          add\n          0x00\n          keccak256\n          0x00\n            /* \"contracts/SimpleCoin.sol\":2222:2251  coinBalance[_from] -= _amount */\n          dup3\n          dup3\n          sload\n          tag_91\n          swap2\n          swap1\n          tag_92\n          jump\t// in\n        tag_91:\n          swap3\n          pop\n          pop\n          dup2\n          swap1\n          sstore\n          pop\n            /* \"contracts/SimpleCoin.sol\":2281:2288  _amount */\n          dup2\n            /* \"contracts/SimpleCoin.sol\":2261:2272  coinBalance */\n          0x01\n            /* \"contracts/SimpleCoin.sol\":2261:2277  coinBalance[_to] */\n          0x00\n            /* \"contracts/SimpleCoin.sol\":2273:2276  _to */\n          dup6\n            /* \"contracts/SimpleCoin.sol\":2261:2277  coinBalance[_to] */\n          0xffffffffffffffffffffffffffffffffffffffff\n          and\n          0xffffffffffffffffffffffffffffffffffffffff\n          and\n          dup2\n          mstore\n          0x20\n          add\n          swap1\n          dup2\n          mstore\n          0x20\n          add\n          0x00\n          keccak256\n          0x00\n            /* \"contracts/SimpleCoin.sol\":2261:2288  coinBalance[_to] += _amount */\n          dup3\n          dup3\n          sload\n          tag_93\n          swap2\n          swap1\n          tag_69\n          jump\t// in\n        tag_93:\n          swap3\n          pop\n          pop\n          dup2\n          swap1\n          sstore\n          pop\n            /* \"contracts/SimpleCoin.sol\":2330:2337  _amount */\n          dup2\n            /* \"contracts/SimpleCoin.sol\":2298:2307  allowance */\n          0x02\n            /* \"contracts/SimpleCoin.sol\":2298:2314  allowance[_from] */\n          0x00\n            /* \"contracts/SimpleCoin.sol\":2308:2313  _from */\n          dup7\n            /* \"contracts/SimpleCoin.sol\":2298:2314  allowance[_from] */\n          0xffffffffffffffffffffffffffffffffffffffff\n          and\n          0xffffffffffffffffffffffffffffffffffffffff\n          and\n          dup2\n          mstore\n          0x20\n          add\n          swap1\n          dup2\n          mstore\n          0x20\n          add\n          0x00\n          keccak256\n            /* \"contracts/SimpleCoin.sol\":2298:2326  allowance[_from][msg.sender] */\n          0x00\n            /* \"contracts/SimpleCoin.sol\":2315:2325  msg.sender */\n          caller\n            /* \"contracts/SimpleCoin.sol\":2298:2326  allowance[_from][msg.sender] */\n          0xffffffffffffffffffffffffffffffffffffffff\n          and\n          0xffffffffffffffffffffffffffffffffffffffff\n          and\n          dup2\n          mstore\n          0x20\n          add\n          swap1\n          dup2\n          mstore\n          0x20\n          add\n          0x00\n          keccak256\n          0x00\n            /* \"contracts/SimpleCoin.sol\":2298:2337  allowance[_from][msg.sender] -= _amount */\n          dup3\n          dup3\n          sload\n          tag_94\n          swap2\n          swap1\n          tag_92\n          jump\t// in\n        tag_94:\n          swap3\n          pop\n          pop\n          dup2\n          swap1\n          sstore\n          pop\n            /* \"contracts/SimpleCoin.sol\":2369:2372  _to */\n          dup3\n            /* \"contracts/SimpleCoin.sol\":2353:2382  Transfer(_from, _to, _amount) */\n          0xffffffffffffffffffffffffffffffffffffffff\n          and\n            /* \"contracts/SimpleCoin.sol\":2362:2367  _from */\n          dup5\n            /* \"contracts/SimpleCoin.sol\":2353:2382  Transfer(_from, _to, _amount) */\n          0xffffffffffffffffffffffffffffffffffffffff\n          and\n          0xddf252ad1be2c89b69c2b068fc378daa952ba7f163c4a11628f55a4df523b3ef\n            /* \"contracts/SimpleCoin.sol\":2374:2381  _amount */\n          dup5\n            /* \"contracts/SimpleCoin.sol\":2353:2382  Transfer(_from, _to, _amount) */\n          mload(0x40)\n          tag_95\n          swap2\n          swap1\n          tag_51\n          jump\t// in\n        tag_95:\n          mload(0x40)\n          dup1\n          swap2\n          sub\n          swap1\n          log3\n            /* \"contracts/SimpleCoin.sol\":2400:2404  true */\n          0x01\n            /* \"contracts/SimpleCoin.sol\":2393:2404  return true */\n          swap1\n          pop\n            /* \"contracts/SimpleCoin.sol\":1497:2411  function transferFrom(address _from, address _to, uint256 _amount) virtual public returns (bool success) {... */\n          swap4\n          swap3\n          pop\n          pop\n          pop\n          jump\t// out\n            /* \"contracts/SimpleCoin.sol\":618:936  function transfer(address _to, uint256 _amount) virtual public {... */\n        tag_78:\n            /* \"contracts/SimpleCoin.sol\":726:733  _amount */\n          dup1\n            /* \"contracts/SimpleCoin.sol\":699:710  coinBalance */\n          0x01\n            /* \"contracts/SimpleCoin.sol\":699:722  coinBalance[msg.sender] */\n          0x00\n            /* \"contracts/SimpleCoin.sol\":711:721  msg.sender */\n          caller\n            /* \"contracts/SimpleCoin.sol\":699:722  coinBalance[msg.sender] */\n          0xffffffffffffffffffffffffffffffffffffffff\n          and\n          0xffffffffffffffffffffffffffffffffffffffff\n          and\n          dup2\n          mstore\n          0x20\n          add\n          swap1\n          dup2\n          mstore\n          0x20\n          add\n          0x00\n          keccak256\n          sload\n            /* \"contracts/SimpleCoin.sol\":699:733  coinBalance[msg.sender] >= _amount */\n          lt\n          iszero\n            /* \"contracts/SimpleCoin.sol\":691:734  require(coinBalance[msg.sender] >= _amount) */\n          tag_97\n          jumpi\n          revert(0x00, 0x00)\n        tag_97:\n            /* \"contracts/SimpleCoin.sol\":782:793  coinBalance */\n          0x01\n            /* \"contracts/SimpleCoin.sol\":782:798  coinBalance[_to] */\n          0x00\n            /* \"contracts/SimpleCoin.sol\":794:797  _to */\n          dup4\n            /* \"contracts/SimpleCoin.sol\":782:798  coinBalance[_to] */\n          0xffffffffffffffffffffffffffffffffffffffff\n          and\n          0xffffffffffffffffffffffffffffffffffffffff\n          and\n          dup2\n          mstore\n          0x20\n          add\n          swap1\n          dup2\n          mstore\n          0x20\n          add\n          0x00\n          keccak256\n          sload\n            /* \"contracts/SimpleCoin.sol\":771:778  _amount */\n          dup2\n            /* \"contracts/SimpleCoin.sol\":752:763  coinBalance */\n          0x01\n            /* \"contracts/SimpleCoin.sol\":752:768  coinBalance[_to] */\n          0x00\n            /* \"contracts/SimpleCoin.sol\":764:767  _to */\n          dup6\n            /* \"contracts/SimpleCoin.sol\":752:768  coinBalance[_to] */\n          0xffffffffffffffffffffffffffffffffffffffff\n          and\n          0xffffffffffffffffffffffffffffffffffffffff\n          and\n          dup2\n          mstore\n          0x20\n          add\n          swap1\n          dup2\n          mstore\n          0x20\n          add\n          0x00\n          keccak256\n          sload\n            /* \"contracts/SimpleCoin.sol\":752:778  coinBalance[_to] + _amount */\n          tag_98\n          swap2\n          swap1\n          tag_69\n          jump\t// in\n        tag_98:\n            /* \"contracts/SimpleCoin.sol\":752:798  coinBalance[_to] + _amount >= coinBalance[_to] */\n          lt\n          iszero\n            /* \"contracts/SimpleCoin.sol\":744:799  require(coinBalance[_to] + _amount >= coinBalance[_to]) */\n          tag_99\n          jumpi\n          revert(0x00, 0x00)\n        tag_99:\n            /* \"contracts/SimpleCoin.sol\":836:843  _amount */\n          dup1\n            /* \"contracts/SimpleCoin.sol\":809:820  coinBalance */\n          0x01\n            /* \"contracts/SimpleCoin.sol\":809:832  coinBalance[msg.sender] */\n          0x00\n            /* \"contracts/SimpleCoin.sol\":821:831  msg.sender */\n          caller\n            /* \"contracts/SimpleCoin.sol\":809:832  coinBalance[msg.sender] */\n          0xffffffffffffffffffffffffffffffffffffffff\n          and\n          0xffffffffffffffffffffffffffffffffffffffff\n          and\n          dup2\n          mstore\n          0x20\n          add\n          swap1\n          dup2\n          mstore\n          0x20\n          add\n          0x00\n          keccak256\n          0x00\n            /* \"contracts/SimpleCoin.sol\":809:843  coinBalance[msg.sender] -= _amount */\n          dup3\n          dup3\n          sload\n          tag_100\n          swap2\n          swap1\n          tag_92\n          jump\t// in\n        tag_100:\n          swap3\n          pop\n          pop\n          dup2\n          swap1\n          sstore\n          pop\n            /* \"contracts/SimpleCoin.sol\":873:880  _amount */\n          dup1\n            /* \"contracts/SimpleCoin.sol\":853:864  coinBalance */\n          0x01\n            /* \"contracts/SimpleCoin.sol\":853:869  coinBalance[_to] */\n          0x00\n            /* \"contracts/SimpleCoin.sol\":865:868  _to */\n          dup5\n            /* \"contracts/SimpleCoin.sol\":853:869  coinBalance[_to] */\n          0xffffffffffffffffffffffffffffffffffffffff\n          and\n          0xffffffffffffffffffffffffffffffffffffffff\n          and\n          dup2\n          mstore\n          0x20\n          add\n          swap1\n          dup2\n          mstore\n          0x20\n          add\n          0x00\n          keccak256\n          0x00\n            /* \"contracts/SimpleCoin.sol\":853:880  coinBalance[_to] += _amount */\n          dup3\n          dup3\n          sload\n          tag_101\n          swap2\n          swap1\n          tag_69\n          jump\t// in\n        tag_101:\n          swap3\n          pop\n          pop\n          dup2\n          swap1\n          sstore\n          pop\n            /* \"contracts/SimpleCoin.sol\":916:919  _to */\n          dup2\n            /* \"contracts/SimpleCoin.sol\":895:929  Transfer(msg.sender, _to, _amount) */\n          0xffffffffffffffffffffffffffffffffffffffff\n          and\n            /* \"contracts/SimpleCoin.sol\":904:914  msg.sender */\n          caller\n            /* \"contracts/SimpleCoin.sol\":895:929  Transfer(msg.sender, _to, _amount) */\n          0xffffffffffffffffffffffffffffffffffffffff\n          and\n          0xddf252ad1be2c89b69c2b068fc378daa952ba7f163c4a11628f55a4df523b3ef\n            /* \"contracts/SimpleCoin.sol\":921:928  _amount */\n          dup4\n            /* \"contracts/SimpleCoin.sol\":895:929  Transfer(msg.sender, _to, _amount) */\n          mload(0x40)\n          tag_102\n          swap2\n          swap1\n          tag_51\n          jump\t// in\n        tag_102:\n          mload(0x40)\n          dup1\n          swap2\n          sub\n          swap1\n          log3\n            /* \"contracts/SimpleCoin.sol\":618:936  function transfer(address _to, uint256 _amount) virtual public {... */\n          pop\n          pop\n          jump\t// out\n            /* \"#utility.yul\":88:205   */\n        tag_104:\n            /* \"#utility.yul\":197:198   */\n          0x00\n            /* \"#utility.yul\":194:195   */\n          0x00\n            /* \"#utility.yul\":187:199   */\n          revert\n            /* \"#utility.yul\":334:460   */\n        tag_106:\n            /* \"#utility.yul\":371:378   */\n          0x00\n            /* \"#utility.yul\":411:453   */\n          0xffffffffffffffffffffffffffffffffffffffff\n            /* \"#utility.yul\":404:409   */\n          dup3\n            /* \"#utility.yul\":400:454   */\n          and\n            /* \"#utility.yul\":389:454   */\n          swap1\n          pop\n            /* \"#utility.yul\":334:460   */\n          swap2\n          swap1\n          pop\n          jump\t// out\n            /* \"#utility.yul\":466:562   */\n        tag_107:\n            /* \"#utility.yul\":503:510   */\n          0x00\n            /* \"#utility.yul\":532:556   */\n          tag_126\n            /* \"#utility.yul\":550:555   */\n          dup3\n            /* \"#utility.yul\":532:556   */\n          tag_106\n          jump\t// in\n        tag_126:\n            /* \"#utility.yul\":521:556   */\n          swap1\n          pop\n            /* \"#utility.yul\":466:562   */\n          swap2\n          swap1\n          pop\n          jump\t// out\n            /* \"#utility.yul\":568:690   */\n        tag_108:\n            /* \"#utility.yul\":641:665   */\n          tag_128\n            /* \"#utility.yul\":659:664   */\n          dup2\n            /* \"#utility.yul\":641:665   */\n          tag_107\n          jump\t// in\n        tag_128:\n            /* \"#utility.yul\":634:639   */\n          dup2\n            /* \"#utility.yul\":631:666   */\n          eq\n            /* \"#utility.yul\":621:684   */\n          tag_129\n          jumpi\n            /* \"#utility.yul\":680:681   */\n          0x00\n            /* \"#utility.yul\":677:678   */\n          0x00\n            /* \"#utility.yul\":670:682   */\n          revert\n            /* \"#utility.yul\":621:684   */\n        tag_129:\n            /* \"#utility.yul\":568:690   */\n          pop\n          jump\t// out\n            /* \"#utility.yul\":696:835   */\n        tag_109:\n            /* \"#utility.yul\":742:747   */\n          0x00\n            /* \"#utility.yul\":780:786   */\n          dup2\n            /* \"#utility.yul\":767:787   */\n          calldataload\n            /* \"#utility.yul\":758:787   */\n          swap1\n          pop\n            /* \"#utility.yul\":796:829   */\n          tag_131\n            /* \"#utility.yul\":823:828   */\n          dup2\n            /* \"#utility.yul\":796:829   */\n          tag_108\n          jump\t// in\n        tag_131:\n            /* \"#utility.yul\":696:835   */\n          swap3\n          swap2\n          pop\n          pop\n          jump\t// out\n            /* \"#utility.yul\":841:918   */\n        tag_110:\n            /* \"#utility.yul\":878:885   */\n          0x00\n            /* \"#utility.yul\":907:912   */\n          dup2\n            /* \"#utility.yul\":896:912   */\n          swap1\n          pop\n            /* \"#utility.yul\":841:918   */\n          swap2\n          swap1\n          pop\n          jump\t// out\n            /* \"#utility.yul\":924:1046   */\n        tag_111:\n            /* \"#utility.yul\":997:1021   */\n          tag_134\n            /* \"#utility.yul\":1015:1020   */\n          dup2\n            /* \"#utility.yul\":997:1021   */\n          tag_110\n          jump\t// in\n        tag_134:\n            /* \"#utility.yul\":990:995   */\n          dup2\n            /* \"#utility.yul\":987:1022   */\n          eq\n            /* \"#utility.yul\":977:1040   */\n          tag_135\n          jumpi\n            /* \"#utility.yul\":1036:1037   */\n          0x00\n            /* \"#utility.yul\":1033:1034   */\n          0x00\n            /* \"#utility.yul\":1026:1038   */\n          revert\n            /* \"#utility.yul\":977:1040   */\n        tag_135:\n            /* \"#utility.yul\":924:1046   */\n          pop\n          jump\t// out\n            /* \"#utility.yul\":1052:1191   */\n        tag_112:\n            /* \"#utility.yul\":1098:1103   */\n          0x00\n            /* \"#utility.yul\":1136:1142   */\n          dup2\n            /* \"#utility.yul\":1123:1143   */\n          calldataload\n            /* \"#utility.yul\":1114:1143   */\n          swap1\n          pop\n            /* \"#utility.yul\":1152:1185   */\n          tag_137\n            /* \"#utility.yul\":1179:1184   */\n          dup2\n            /* \"#utility.yul\":1152:1185   */\n          tag_111\n          jump\t// in\n        tag_137:\n            /* \"#utility.yul\":1052:1191   */\n          swap3\n          swap2\n          pop\n          pop\n          jump\t// out\n            /* \"#utility.yul\":1197:1816   */\n        tag_17:\n            /* \"#utility.yul\":1274:1280   */\n          0x00\n            /* \"#utility.yul\":1282:1288   */\n          0x00\n            /* \"#utility.yul\":1290:1296   */\n          0x00\n            /* \"#utility.yul\":1339:1341   */\n          0x60\n            /* \"#utility.yul\":1327:1336   */\n          dup5\n            /* \"#utility.yul\":1318:1325   */\n          dup7\n            /* \"#utility.yul\":1314:1337   */\n          sub\n            /* \"#utility.yul\":1310:1342   */\n          slt\n            /* \"#utility.yul\":1307:1426   */\n          iszero\n          tag_139\n          jumpi\n            /* \"#utility.yul\":1345:1424   */\n          tag_140\n          tag_104\n          jump\t// in\n        tag_140:\n            /* \"#utility.yul\":1307:1426   */\n        tag_139:\n            /* \"#utility.yul\":1465:1466   */\n          0x00\n            /* \"#utility.yul\":1490:1543   */\n          tag_141\n            /* \"#utility.yul\":1535:1542   */\n          dup7\n            /* \"#utility.yul\":1526:1532   */\n          dup3\n            /* \"#utility.yul\":1515:1524   */\n          dup8\n            /* \"#utility.yul\":1511:1533   */\n          add\n            /* \"#utility.yul\":1490:1543   */\n          tag_109\n          jump\t// in\n        tag_141:\n            /* \"#utility.yul\":1480:1543   */\n          swap4\n          pop\n            /* \"#utility.yul\":1436:1553   */\n          pop\n            /* \"#utility.yul\":1592:1594   */\n          0x20\n            /* \"#utility.yul\":1618:1671   */\n          tag_142\n            /* \"#utility.yul\":1663:1670   */\n          dup7\n            /* \"#utility.yul\":1654:1660   */\n          dup3\n            /* \"#utility.yul\":1643:1652   */\n          dup8\n            /* \"#utility.yul\":1639:1661   */\n          add\n            /* \"#utility.yul\":1618:1671   */\n          tag_109\n          jump\t// in\n        tag_142:\n            /* \"#utility.yul\":1608:1671   */\n          swap3\n          pop\n            /* \"#utility.yul\":1563:1681   */\n          pop\n            /* \"#utility.yul\":1720:1722   */\n          0x40\n            /* \"#utility.yul\":1746:1799   */\n          tag_143\n            /* \"#utility.yul\":1791:1798   */\n          dup7\n            /* \"#utility.yul\":1782:1788   */\n          dup3\n            /* \"#utility.yul\":1771:1780   */\n          dup8\n            /* \"#utility.yul\":1767:1789   */\n          add\n            /* \"#utility.yul\":1746:1799   */\n          tag_112\n          jump\t// in\n        tag_143:\n            /* \"#utility.yul\":1736:1799   */\n          swap2\n          pop\n            /* \"#utility.yul\":1691:1809   */\n          pop\n            /* \"#utility.yul\":1197:1816   */\n          swap3\n          pop\n          swap3\n          pop\n          swap3\n          jump\t// out\n            /* \"#utility.yul\":1822:1912   */\n        tag_113:\n            /* \"#utility.yul\":1856:1863   */\n          0x00\n            /* \"#utility.yul\":1899:1904   */\n          dup2\n            /* \"#utility.yul\":1892:1905   */\n          iszero\n            /* \"#utility.yul\":1885:1906   */\n          iszero\n            /* \"#utility.yul\":1874:1906   */\n          swap1\n          pop\n            /* \"#utility.yul\":1822:1912   */\n          swap2\n          swap1\n          pop\n          jump\t// out\n            /* \"#utility.yul\":1918:2027   */\n        tag_114:\n            /* \"#utility.yul\":1999:2020   */\n          tag_146\n            /* \"#utility.yul\":2014:2019   */\n          dup2\n            /* \"#utility.yul\":1999:2020   */\n          tag_113\n          jump\t// in\n        tag_146:\n            /* \"#utility.yul\":1994:1997   */\n          dup3\n            /* \"#utility.yul\":1987:2021   */\n          mstore\n            /* \"#utility.yul\":1918:2027   */\n          pop\n          pop\n          jump\t// out\n            /* \"#utility.yul\":2033:2243   */\n        tag_20:\n            /* \"#utility.yul\":2120:2124   */\n          0x00\n            /* \"#utility.yul\":2158:2160   */\n          0x20\n            /* \"#utility.yul\":2147:2156   */\n          dup3\n            /* \"#utility.yul\":2143:2161   */\n          add\n            /* \"#utility.yul\":2135:2161   */\n          swap1\n          pop\n            /* \"#utility.yul\":2171:2236   */\n          tag_148\n            /* \"#utility.yul\":2233:2234   */\n          0x00\n            /* \"#utility.yul\":2222:2231   */\n          dup4\n            /* \"#utility.yul\":2218:2235   */\n          add\n            /* \"#utility.yul\":2209:2215   */\n          dup5\n            /* \"#utility.yul\":2171:2236   */\n          tag_114\n          jump\t// in\n        tag_148:\n            /* \"#utility.yul\":2033:2243   */\n          swap3\n          swap2\n          pop\n          pop\n          jump\t// out\n            /* \"#utility.yul\":2249:2723   */\n        tag_23:\n            /* \"#utility.yul\":2317:2323   */\n          0x00\n            /* \"#utility.yul\":2325:2331   */\n          0x00\n            /* \"#utility.yul\":2374:2376   */\n          0x40\n            /* \"#utility.yul\":2362:2371   */\n          dup4\n            /* \"#utility.yul\":2353:2360   */\n          dup6\n            /* \"#utility.yul\":2349:2372   */\n          sub\n            /* \"#utility.yul\":2345:2377   */\n          slt\n            /* \"#utility.yul\":2342:2461   */\n          iszero\n          tag_150\n          jumpi\n            /* \"#utility.yul\":2380:2459   */\n          tag_151\n          tag_104\n          jump\t// in\n        tag_151:\n            /* \"#utility.yul\":2342:2461   */\n        tag_150:\n            /* \"#utility.yul\":2500:2501   */\n          0x00\n            /* \"#utility.yul\":2525:2578   */\n          tag_152\n            /* \"#utility.yul\":2570:2577   */\n          dup6\n            /* \"#utility.yul\":2561:2567   */\n          dup3\n            /* \"#utility.yul\":2550:2559   */\n          dup7\n            /* \"#utility.yul\":2546:2568   */\n          add\n            /* \"#utility.yul\":2525:2578   */\n          tag_109\n          jump\t// in\n        tag_152:\n            /* \"#utility.yul\":2515:2578   */\n          swap3\n          pop\n            /* \"#utility.yul\":2471:2588   */\n          pop\n            /* \"#utility.yul\":2627:2629   */\n          0x20\n            /* \"#utility.yul\":2653:2706   */\n          tag_153\n            /* \"#utility.yul\":2698:2705   */\n          dup6\n            /* \"#utility.yul\":2689:2695   */\n          dup3\n            /* \"#utility.yul\":2678:2687   */\n          dup7\n            /* \"#utility.yul\":2674:2696   */\n          add\n            /* \"#utility.yul\":2653:2706   */\n          tag_112\n          jump\t// in\n        tag_153:\n            /* \"#utility.yul\":2643:2706   */\n          swap2\n          pop\n            /* \"#utility.yul\":2598:2716   */\n          pop\n            /* \"#utility.yul\":2249:2723   */\n          swap3\n          pop\n          swap3\n          swap1\n          pop\n          jump\t// out\n            /* \"#utility.yul\":2729:2847   */\n        tag_115:\n            /* \"#utility.yul\":2816:2840   */\n          tag_155\n            /* \"#utility.yul\":2834:2839   */\n          dup2\n            /* \"#utility.yul\":2816:2840   */\n          tag_107\n          jump\t// in\n        tag_155:\n            /* \"#utility.yul\":2811:2814   */\n          dup3\n            /* \"#utility.yul\":2804:2841   */\n          mstore\n            /* \"#utility.yul\":2729:2847   */\n          pop\n          pop\n          jump\t// out\n            /* \"#utility.yul\":2853:3075   */\n        tag_30:\n            /* \"#utility.yul\":2946:2950   */\n          0x00\n            /* \"#utility.yul\":2984:2986   */\n          0x20\n            /* \"#utility.yul\":2973:2982   */\n          dup3\n            /* \"#utility.yul\":2969:2987   */\n          add\n            /* \"#utility.yul\":2961:2987   */\n          swap1\n          pop\n            /* \"#utility.yul\":2997:3068   */\n          tag_157\n            /* \"#utility.yul\":3065:3066   */\n          0x00\n            /* \"#utility.yul\":3054:3063   */\n          dup4\n            /* \"#utility.yul\":3050:3067   */\n          add\n            /* \"#utility.yul\":3041:3047   */\n          dup5\n            /* \"#utility.yul\":2997:3068   */\n          tag_115\n          jump\t// in\n        tag_157:\n            /* \"#utility.yul\":2853:3075   */\n          swap3\n          swap2\n          pop\n          pop\n          jump\t// out\n            /* \"#utility.yul\":3081:3410   */\n        tag_39:\n            /* \"#utility.yul\":3140:3146   */\n          0x00\n            /* \"#utility.yul\":3189:3191   */\n          0x20\n            /* \"#utility.yul\":3177:3186   */\n          dup3\n            /* \"#utility.yul\":3168:3175   */\n          dup5\n            /* \"#utility.yul\":3164:3187   */\n          sub\n            /* \"#utility.yul\":3160:3192   */\n          slt\n            /* \"#utility.yul\":3157:3276   */\n          iszero\n          tag_159\n          jumpi\n            /* \"#utility.yul\":3195:3274   */\n          tag_160\n          tag_104\n          jump\t// in\n        tag_160:\n            /* \"#utility.yul\":3157:3276   */\n        tag_159:\n            /* \"#utility.yul\":3315:3316   */\n          0x00\n            /* \"#utility.yul\":3340:3393   */\n          tag_161\n            /* \"#utility.yul\":3385:3392   */\n          dup5\n            /* \"#utility.yul\":3376:3382   */\n          dup3\n            /* \"#utility.yul\":3365:3374   */\n          dup6\n            /* \"#utility.yul\":3361:3383   */\n          add\n            /* \"#utility.yul\":3340:3393   */\n          tag_109\n          jump\t// in\n        tag_161:\n            /* \"#utility.yul\":3330:3393   */\n          swap2\n          pop\n            /* \"#utility.yul\":3286:3403   */\n          pop\n            /* \"#utility.yul\":3081:3410   */\n          swap3\n          swap2\n          pop\n          pop\n          jump\t// out\n            /* \"#utility.yul\":3416:3890   */\n        tag_48:\n            /* \"#utility.yul\":3484:3490   */\n          0x00\n            /* \"#utility.yul\":3492:3498   */\n          0x00\n            /* \"#utility.yul\":3541:3543   */\n          0x40\n            /* \"#utility.yul\":3529:3538   */\n          dup4\n            /* \"#utility.yul\":3520:3527   */\n          dup6\n            /* \"#utility.yul\":3516:3539   */\n          sub\n            /* \"#utility.yul\":3512:3544   */\n          slt\n            /* \"#utility.yul\":3509:3628   */\n          iszero\n          tag_163\n          jumpi\n            /* \"#utility.yul\":3547:3626   */\n          tag_164\n          tag_104\n          jump\t// in\n        tag_164:\n            /* \"#utility.yul\":3509:3628   */\n        tag_163:\n            /* \"#utility.yul\":3667:3668   */\n          0x00\n            /* \"#utility.yul\":3692:3745   */\n          tag_165\n            /* \"#utility.yul\":3737:3744   */\n          dup6\n            /* \"#utility.yul\":3728:3734   */\n          dup3\n            /* \"#utility.yul\":3717:3726   */\n          dup7\n            /* \"#utility.yul\":3713:3735   */\n          add\n            /* \"#utility.yul\":3692:3745   */\n          tag_109\n          jump\t// in\n        tag_165:\n            /* \"#utility.yul\":3682:3745   */\n          swap3\n          pop\n            /* \"#utility.yul\":3638:3755   */\n          pop\n            /* \"#utility.yul\":3794:3796   */\n          0x20\n            /* \"#utility.yul\":3820:3873   */\n          tag_166\n            /* \"#utility.yul\":3865:3872   */\n          dup6\n            /* \"#utility.yul\":3856:3862   */\n          dup3\n            /* \"#utility.yul\":3845:3854   */\n          dup7\n            /* \"#utility.yul\":3841:3863   */\n          add\n            /* \"#utility.yul\":3820:3873   */\n          tag_109\n          jump\t// in\n        tag_166:\n            /* \"#utility.yul\":3810:3873   */\n          swap2\n          pop\n            /* \"#utility.yul\":3765:3883   */\n          pop\n            /* \"#utility.yul\":3416:3890   */\n          swap3\n          pop\n          swap3\n          swap1\n          pop\n          jump\t// out\n            /* \"#utility.yul\":3896:4014   */\n        tag_116:\n            /* \"#utility.yul\":3983:4007   */\n          tag_168\n            /* \"#utility.yul\":4001:4006   */\n          dup2\n            /* \"#utility.yul\":3983:4007   */\n          tag_110\n          jump\t// in\n        tag_168:\n            /* \"#utility.yul\":3978:3981   */\n          dup3\n            /* \"#utility.yul\":3971:4008   */\n          mstore\n            /* \"#utility.yul\":3896:4014   */\n          pop\n          pop\n          jump\t// out\n            /* \"#utility.yul\":4020:4242   */\n        tag_51:\n            /* \"#utility.yul\":4113:4117   */\n          0x00\n            /* \"#utility.yul\":4151:4153   */\n          0x20\n            /* \"#utility.yul\":4140:4149   */\n          dup3\n            /* \"#utility.yul\":4136:4154   */\n          add\n            /* \"#utility.yul\":4128:4154   */\n          swap1\n          pop\n            /* \"#utility.yul\":4164:4235   */\n          tag_170\n            /* \"#utility.yul\":4232:4233   */\n          0x00\n            /* \"#utility.yul\":4221:4230   */\n          dup4\n            /* \"#utility.yul\":4217:4234   */\n          add\n            /* \"#utility.yul\":4208:4214   */\n          dup5\n            /* \"#utility.yul\":4164:4235   */\n          tag_116\n          jump\t// in\n        tag_170:\n            /* \"#utility.yul\":4020:4242   */\n          swap3\n          swap2\n          pop\n          pop\n          jump\t// out\n            /* \"#utility.yul\":4248:4364   */\n        tag_117:\n            /* \"#utility.yul\":4318:4339   */\n          tag_172\n            /* \"#utility.yul\":4333:4338   */\n          dup2\n            /* \"#utility.yul\":4318:4339   */\n          tag_113\n          jump\t// in\n        tag_172:\n            /* \"#utility.yul\":4311:4316   */\n          dup2\n            /* \"#utility.yul\":4308:4340   */\n          eq\n            /* \"#utility.yul\":4298:4358   */\n          tag_173\n          jumpi\n            /* \"#utility.yul\":4354:4355   */\n          0x00\n            /* \"#utility.yul\":4351:4352   */\n          0x00\n            /* \"#utility.yul\":4344:4356   */\n          revert\n            /* \"#utility.yul\":4298:4358   */\n        tag_173:\n            /* \"#utility.yul\":4248:4364   */\n          pop\n          jump\t// out\n            /* \"#utility.yul\":4370:4503   */\n        tag_118:\n            /* \"#utility.yul\":4413:4418   */\n          0x00\n            /* \"#utility.yul\":4451:4457   */\n          dup2\n            /* \"#utility.yul\":4438:4458   */\n          calldataload\n            /* \"#utility.yul\":4429:4458   */\n          swap1\n          pop\n            /* \"#utility.yul\":4467:4497   */\n          tag_175\n            /* \"#utility.yul\":4491:4496   */\n          dup2\n            /* \"#utility.yul\":4467:4497   */\n          tag_117\n          jump\t// in\n        tag_175:\n            /* \"#utility.yul\":4370:4503   */\n          swap3\n          swap2\n          pop\n          pop\n          jump\t// out\n            /* \"#utility.yul\":4509:4977   */\n        tag_54:\n            /* \"#utility.yul\":4574:4580   */\n          0x00\n            /* \"#utility.yul\":4582:4588   */\n          0x00\n            /* \"#utility.yul\":4631:4633   */\n          0x40\n            /* \"#utility.yul\":4619:4628   */\n          dup4\n            /* \"#utility.yul\":4610:4617   */\n          dup6\n            /* \"#utility.yul\":4606:4629   */\n          sub\n            /* \"#utility.yul\":4602:4634   */\n          slt\n            /* \"#utility.yul\":4599:4718   */\n          iszero\n          tag_177\n          jumpi\n            /* \"#utility.yul\":4637:4716   */\n          tag_178\n          tag_104\n          jump\t// in\n        tag_178:\n            /* \"#utility.yul\":4599:4718   */\n        tag_177:\n            /* \"#utility.yul\":4757:4758   */\n          0x00\n            /* \"#utility.yul\":4782:4835   */\n          tag_179\n            /* \"#utility.yul\":4827:4834   */\n          dup6\n            /* \"#utility.yul\":4818:4824   */\n          dup3\n            /* \"#utility.yul\":4807:4816   */\n          dup7\n            /* \"#utility.yul\":4803:4825   */\n          add\n            /* \"#utility.yul\":4782:4835   */\n          tag_109\n          jump\t// in\n        tag_179:\n            /* \"#utility.yul\":4772:4835   */\n          swap3\n          pop\n            /* \"#utility.yul\":4728:4845   */\n          pop\n            /* \"#utility.yul\":4884:4886   */\n          0x20\n            /* \"#utility.yul\":4910:4960   */\n          tag_180\n            /* \"#utility.yul\":4952:4959   */\n          dup6\n            /* \"#utility.yul\":4943:4949   */\n          dup3\n            /* \"#utility.yul\":4932:4941   */\n          dup7\n            /* \"#utility.yul\":4928:4950   */\n          add\n            /* \"#utility.yul\":4910:4960   */\n          tag_118\n          jump\t// in\n        tag_180:\n            /* \"#utility.yul\":4900:4960   */\n          swap2\n          pop\n            /* \"#utility.yul\":4855:4970   */\n          pop\n            /* \"#utility.yul\":4509:4977   */\n          swap3\n          pop\n          swap3\n          swap1\n          pop\n          jump\t// out\n            /* \"#utility.yul\":4983:5163   */\n        tag_119:\n            /* \"#utility.yul\":5031:5108   */\n          0x4e487b7100000000000000000000000000000000000000000000000000000000\n            /* \"#utility.yul\":5028:5029   */\n          0x00\n            /* \"#utility.yul\":5021:5109   */\n          mstore\n            /* \"#utility.yul\":5128:5132   */\n          0x11\n            /* \"#utility.yul\":5125:5126   */\n          0x04\n            /* \"#utility.yul\":5118:5133   */\n          mstore\n            /* \"#utility.yul\":5152:5156   */\n          0x24\n            /* \"#utility.yul\":5149:5150   */\n          0x00\n            /* \"#utility.yul\":5142:5157   */\n          revert\n            /* \"#utility.yul\":5169:5360   */\n        tag_69:\n            /* \"#utility.yul\":5209:5212   */\n          0x00\n            /* \"#utility.yul\":5228:5248   */\n          tag_183\n            /* \"#utility.yul\":5246:5247   */\n          dup3\n            /* \"#utility.yul\":5228:5248   */\n          tag_110\n          jump\t// in\n        tag_183:\n            /* \"#utility.yul\":5223:5248   */\n          swap2\n          pop\n            /* \"#utility.yul\":5262:5282   */\n          tag_184\n            /* \"#utility.yul\":5280:5281   */\n          dup4\n            /* \"#utility.yul\":5262:5282   */\n          tag_110\n          jump\t// in\n        tag_184:\n            /* \"#utility.yul\":5257:5282   */\n          swap3\n          pop\n            /* \"#utility.yul\":5305:5306   */\n          dup3\n            /* \"#utility.yul\":5302:5303   */\n          dup3\n            /* \"#utility.yul\":5298:5307   */\n          add\n            /* \"#utility.yul\":5291:5307   */\n          swap1\n          pop\n            /* \"#utility.yul\":5326:5329   */\n          dup1\n            /* \"#utility.yul\":5323:5324   */\n          dup3\n            /* \"#utility.yul\":5320:5330   */\n          gt\n            /* \"#utility.yul\":5317:5353   */\n          iszero\n          tag_185\n          jumpi\n            /* \"#utility.yul\":5333:5351   */\n          tag_186\n          tag_119\n          jump\t// in\n        tag_186:\n            /* \"#utility.yul\":5317:5353   */\n        tag_185:\n            /* \"#utility.yul\":5169:5360   */\n          swap3\n          swap2\n          pop\n          pop\n          jump\t// out\n            /* \"#utility.yul\":5366:5686   */\n        tag_84:\n            /* \"#utility.yul\":5481:5485   */\n          0x00\n            /* \"#utility.yul\":5519:5521   */\n          0x40\n            /* \"#utility.yul\":5508:5517   */\n          dup3\n            /* \"#utility.yul\":5504:5522   */\n          add\n            /* \"#utility.yul\":5496:5522   */\n          swap1\n          pop\n            /* \"#utility.yul\":5532:5603   */\n          tag_188\n            /* \"#utility.yul\":5600:5601   */\n          0x00\n            /* \"#utility.yul\":5589:5598   */\n          dup4\n            /* \"#utility.yul\":5585:5602   */\n          add\n            /* \"#utility.yul\":5576:5582   */\n          dup6\n            /* \"#utility.yul\":5532:5603   */\n          tag_115\n          jump\t// in\n        tag_188:\n            /* \"#utility.yul\":5613:5679   */\n          tag_189\n            /* \"#utility.yul\":5675:5677   */\n          0x20\n            /* \"#utility.yul\":5664:5673   */\n          dup4\n            /* \"#utility.yul\":5660:5678   */\n          add\n            /* \"#utility.yul\":5651:5657   */\n          dup5\n            /* \"#utility.yul\":5613:5679   */\n          tag_114\n          jump\t// in\n        tag_189:\n            /* \"#utility.yul\":5366:5686   */\n          swap4\n          swap3\n          pop\n          pop\n          pop\n          jump\t// out\n            /* \"#utility.yul\":5692:5886   */\n        tag_92:\n            /* \"#utility.yul\":5732:5736   */\n          0x00\n            /* \"#utility.yul\":5752:5772   */\n          tag_191\n            /* \"#utility.yul\":5770:5771   */\n          dup3\n            /* \"#utility.yul\":5752:5772   */\n          tag_110\n          jump\t// in\n        tag_191:\n            /* \"#utility.yul\":5747:5772   */\n          swap2\n          pop\n            /* \"#utility.yul\":5786:5806   */\n          tag_192\n            /* \"#utility.yul\":5804:5805   */\n          dup4\n            /* \"#utility.yul\":5786:5806   */\n          tag_110\n          jump\t// in\n        tag_192:\n            /* \"#utility.yul\":5781:5806   */\n          swap3\n          pop\n            /* \"#utility.yul\":5830:5831   */\n          dup3\n            /* \"#utility.yul\":5827:5828   */\n          dup3\n            /* \"#utility.yul\":5823:5832   */\n          sub\n            /* \"#utility.yul\":5815:5832   */\n          swap1\n          pop\n            /* \"#utility.yul\":5854:5855   */\n          dup2\n            /* \"#utility.yul\":5848:5852   */\n          dup2\n            /* \"#utility.yul\":5845:5856   */\n          gt\n            /* \"#utility.yul\":5842:5879   */\n          iszero\n          tag_193\n          jumpi\n            /* \"#utility.yul\":5859:5877   */\n          tag_194\n          tag_119\n          jump\t// in\n        tag_194:\n            /* \"#utility.yul\":5842:5879   */\n        tag_193:\n            /* \"#utility.yul\":5692:5886   */\n          swap3\n          swap2\n          pop\n          pop\n          jump\t// out\n\n        auxdata: 0xa26469706673582212200e757897bd76fa0bc454b58d2f808c128917d72d3c1cef8efcd1dd4906ba94ff64736f6c634300081e0033\n    }\n}\n",
				"bytecode": {
					"linkReferences": {},
					"object": "608060405234801561000f575f5ffd5b50604051611f7f380380611f7f833981810160405281019061003191906101fd565b335f5f6101000a81548173ffffffffffffffffffffffffffffffffffffffff021916908373ffffffffffffffffffffffffffffffffffffffff1602179055504284101561007c575f5ffd5b83831015610088575f5ffd5b5f8203610093575f5ffd5b5f810361009e575f5ffd5b836001819055508260028190555081600381905550670de0b6b3a7640000816100c7919061028e565b6004819055505f6040516100da906101b9565b6100e49190610311565b604051809103905ff0801580156100fd573d5f5f3e3d5ffd5b50600860026101000a81548173ffffffffffffffffffffffffffffffffffffffff021916908373ffffffffffffffffffffffffffffffffffffffff1602179055505f60085f6101000a81548160ff0219169083151502179055505f600860016101000a81548160ff021916908315150217905550335f5f6101000a81548173ffffffffffffffffffffffffffffffffffffffff021916908373ffffffffffffffffffffffffffffffffffffffff1602179055505050505061032a565b6111d380610dac83390190565b5f5ffd5b5f819050919050565b6101dc816101ca565b81146101e6575f5ffd5b50565b5f815190506101f7816101d3565b92915050565b5f5f5f5f60808587031215610215576102146101c6565b5b5f610222878288016101e9565b9450506020610233878288016101e9565b9350506040610244878288016101e9565b9250506060610255878288016101e9565b91505092959194509250565b7f4e487b71000000000000000000000000000000000000000000000000000000005f52601160045260245ffd5b5f610298826101ca565b91506102a3836101ca565b92508282026102b1816101ca565b915082820484148315176102c8576102c7610261565b5b5092915050565b5f819050919050565b5f819050919050565b5f6102fb6102f66102f1846102cf565b6102d8565b6101ca565b9050919050565b61030b816102e1565b82525050565b5f6020820190506103245f830184610302565b92915050565b610a75806103375f395ff3fe6080604052600436106100dc575f3560e01c80638da5cb5b1161007e578063e8b5e51f11610058578063e8b5e51f1461025c578063ee56cf4114610266578063eff1a84414610290578063fa65dfac146102cc576100dc565b80638da5cb5b146101de578063bab34f4314610208578063cb6f16d414610232576100dc565b80634bb278f3116100ba5780634bb278f31461015e578063590e1ae31461017457806378e979251461018a5780638d4e4083146101b4576100dc565b80631c0a5c10146100e05780633197cbb61461010a57806338ef938014610134575b5f5ffd5b3480156100eb575f5ffd5b506100f46102f6565b60405161010191906107ea565b60405180910390f35b348015610115575f5ffd5b5061011e6102fc565b60405161012b91906107ea565b60405180910390f35b34801561013f575f5ffd5b50610148610302565b60405161015591906107ea565b60405180910390f35b348015610169575f5ffd5b50610172610308565b005b34801561017f575f5ffd5b50610188610450565b005b348015610195575f5ffd5b5061019e61058b565b6040516101ab91906107ea565b60405180910390f35b3480156101bf575f5ffd5b506101c8610591565b6040516101d5919061081d565b60405180910390f35b3480156101e9575f5ffd5b506101f26105a3565b6040516101ff9190610875565b60405180910390f35b348015610213575f5ffd5b5061021c6105c7565b60405161022991906107ea565b60405180910390f35b34801561023d575f5ffd5b506102466105cd565b604051610253919061081d565b60405180910390f35b6102646105e0565b005b348015610271575f5ffd5b5061027a6106c0565b60405161028791906107ea565b60405180910390f35b34801561029b575f5ffd5b506102b660048036038101906102b191906108bc565b6106c6565b6040516102c391906107ea565b60405180910390f35b3480156102d7575f5ffd5b506102e06106db565b6040516102ed9190610942565b60405180910390f35b60065481565b60025481565b60075481565b5f5f9054906101000a900473ffffffffffffffffffffffffffffffffffffffff1673ffffffffffffffffffffffffffffffffffffffff163373ffffffffffffffffffffffffffffffffffffffff161461035f575f5ffd5b60085f9054906101000a900460ff1615610377575f5ffd5b5f600190505f60045460065410159050811561044c57801561041557600860029054906101000a900473ffffffffffffffffffffffffffffffffffffffff1673ffffffffffffffffffffffffffffffffffffffff166386d1a69f6040518163ffffffff1660e01b81526004015f604051808303815f87803b1580156103fa575f5ffd5b505af115801561040c573d5f5f3e3d5ffd5b50505050610431565b6001600860016101000a81548160ff0219169083151502179055505b600160085f6101000a81548160ff0219169083151502179055505b5050565b600860019054906101000a900460ff16610468575f5ffd5b5f3390505f60055f8373ffffffffffffffffffffffffffffffffffffffff1673ffffffffffffffffffffffffffffffffffffffff1681526020019081526020015f205490505f81036104b8575f5ffd5b5f60055f8473ffffffffffffffffffffffffffffffffffffffff1673ffffffffffffffffffffffffffffffffffffffff1681526020019081526020015f20819055508060075f82825461050b9190610988565b925050819055507fbb28353e4598c3b9199101a66e0989549b659a59a54d2c27fbb183f1932c8e6d33826040516105439291906109bb565b60405180910390a18173ffffffffffffffffffffffffffffffffffffffff166108fc8290811502906040515f60405180830381858888f19350505050610587575f5ffd5b5050565b60015481565b60085f9054906101000a900460ff1681565b5f5f9054906101000a900473ffffffffffffffffffffffffffffffffffffffff1681565b60045481565b600860019054906101000a900460ff1681565b6105e934610701565b6105f1575f5ffd5b5f3390505f3490508060055f8473ffffffffffffffffffffffffffffffffffffffff1673ffffffffffffffffffffffffffffffffffffffff1681526020019081526020015f205f8282546106459190610988565b925050819055508060065f82825461065d9190610988565b9250508190555061066e8282610721565b8173ffffffffffffffffffffffffffffffffffffffff167fc74590e3281392e897f5c0f45530951cfe0db0e86c76d65af861e80b925871a4826040516106b491906107ea565b60405180910390a25050565b60035481565b6005602052805f5260405f205f915090505481565b600860029054906101000a900473ffffffffffffffffffffffffffffffffffffffff1681565b5f5f5f83141590505f600190508180156107185750805b92505050919050565b5f61072b826107bc565b9050600860029054906101000a900473ffffffffffffffffffffffffffffffffffffffff1673ffffffffffffffffffffffffffffffffffffffff166340c10f1984836040518363ffffffff1660e01b815260040161078a9291906109bb565b5f604051808303815f87803b1580156107a1575f5ffd5b505af11580156107b3573d5f5f3e3d5ffd5b50505050505050565b5f600354826107cb9190610a0f565b9050919050565b5f819050919050565b6107e4816107d2565b82525050565b5f6020820190506107fd5f8301846107db565b92915050565b5f8115159050919050565b61081781610803565b82525050565b5f6020820190506108305f83018461080e565b92915050565b5f73ffffffffffffffffffffffffffffffffffffffff82169050919050565b5f61085f82610836565b9050919050565b61086f81610855565b82525050565b5f6020820190506108885f830184610866565b92915050565b5f5ffd5b61089b81610855565b81146108a5575f5ffd5b50565b5f813590506108b681610892565b92915050565b5f602082840312156108d1576108d061088e565b5b5f6108de848285016108a8565b91505092915050565b5f819050919050565b5f61090a61090561090084610836565b6108e7565b610836565b9050919050565b5f61091b826108f0565b9050919050565b5f61092c82610911565b9050919050565b61093c81610922565b82525050565b5f6020820190506109555f830184610933565b92915050565b7f4e487b71000000000000000000000000000000000000000000000000000000005f52601160045260245ffd5b5f610992826107d2565b915061099d836107d2565b92508282019050808211156109b5576109b461095b565b5b92915050565b5f6040820190506109ce5f830185610866565b6109db60208301846107db565b9392505050565b7f4e487b71000000000000000000000000000000000000000000000000000000005f52601260045260245ffd5b5f610a19826107d2565b9150610a24836107d2565b925082610a3457610a336109e2565b5b82820490509291505056fea2646970667358221220536c4130d2365d20b2809c5d7940f1b162038dbc965b700a99e84309a74bcc9864736f6c634300081e003360806040525f60045f6101000a81548160ff021916908315150217905550348015610028575f5ffd5b506040516111d33803806111d3833981810160405281019061004a919061026a565b80335f5f6101000a81548173ffffffffffffffffffffffffffffffffffffffff021916908373ffffffffffffffffffffffffffffffffffffffff160217905550335f5f6101000a81548173ffffffffffffffffffffffffffffffffffffffff021916908373ffffffffffffffffffffffffffffffffffffffff1602179055506100f95f5f9054906101000a900473ffffffffffffffffffffffffffffffffffffffff168261010060201b60201c565b505061031d565b5f5f9054906101000a900473ffffffffffffffffffffffffffffffffffffffff1673ffffffffffffffffffffffffffffffffffffffff163373ffffffffffffffffffffffffffffffffffffffff1614610157575f5ffd5b8060015f8473ffffffffffffffffffffffffffffffffffffffff1673ffffffffffffffffffffffffffffffffffffffff1681526020019081526020015f205f8282546101a391906102c2565b925050819055508173ffffffffffffffffffffffffffffffffffffffff165f5f9054906101000a900473ffffffffffffffffffffffffffffffffffffffff1673ffffffffffffffffffffffffffffffffffffffff167fddf252ad1be2c89b69c2b068fc378daa952ba7f163c4a11628f55a4df523b3ef836040516102279190610304565b60405180910390a35050565b5f5ffd5b5f819050919050565b61024981610237565b8114610253575f5ffd5b50565b5f8151905061026481610240565b92915050565b5f6020828403121561027f5761027e610233565b5b5f61028c84828501610256565b91505092915050565b7f4e487b71000000000000000000000000000000000000000000000000000000005f52601160045260245ffd5b5f6102cc82610237565b91506102d783610237565b92508282019050808211156102ef576102ee610295565b5b92915050565b6102fe81610237565b82525050565b5f6020820190506103175f8301846102f5565b92915050565b610ea98061032a5f395ff3fe608060405234801561000f575f5ffd5b50600436106100a7575f3560e01c8063a9059cbb1161006f578063a9059cbb1461013d578063b414d4b614610159578063c1dbd9b214610189578063dd62ed3e146101b9578063e724529c146101e9578063fabde80c14610205576100a7565b806323b872dd146100ab57806340c10f19146100db57806386d1a69f146100f75780638da5cb5b14610101578063961325211461011f575b5f5ffd5b6100c560048036038101906100c09190610bd7565b610235565b6040516100d29190610c41565b60405180910390f35b6100f560048036038101906100f09190610c5a565b610261565b005b6100ff610394565b005b610109610407565b6040516101169190610ca7565b60405180910390f35b61012761042b565b6040516101349190610c41565b60405180910390f35b61015760048036038101906101529190610c5a565b61043d565b005b610173600480360381019061016e9190610cc0565b610462565b6040516101809190610c41565b60405180910390f35b6101a3600480360381019061019e9190610c5a565b61047f565b6040516101b09190610c41565b60405180910390f35b6101d360048036038101906101ce9190610ceb565b610507565b6040516101e09190610d38565b60405180910390f35b61020360048036038101906101fe9190610d7b565b610527565b005b61021f600480360381019061021a9190610cc0565b61060f565b60405161022c9190610d38565b60405180910390f35b5f60045f9054906101000a900460ff1661024d575f5ffd5b610258848484610624565b90509392505050565b5f5f9054906101000a900473ffffffffffffffffffffffffffffffffffffffff1673ffffffffffffffffffffffffffffffffffffffff163373ffffffffffffffffffffffffffffffffffffffff16146102b8575f5ffd5b8060015f8473ffffffffffffffffffffffffffffffffffffffff1673ffffffffffffffffffffffffffffffffffffffff1681526020019081526020015f205f8282546103049190610de6565b925050819055508173ffffffffffffffffffffffffffffffffffffffff165f5f9054906101000a900473ffffffffffffffffffffffffffffffffffffffff1673ffffffffffffffffffffffffffffffffffffffff167fddf252ad1be2c89b69c2b068fc378daa952ba7f163c4a11628f55a4df523b3ef836040516103889190610d38565b60405180910390a35050565b5f5f9054906101000a900473ffffffffffffffffffffffffffffffffffffffff1673ffffffffffffffffffffffffffffffffffffffff163373ffffffffffffffffffffffffffffffffffffffff16146103eb575f5ffd5b600160045f6101000a81548160ff021916908315150217905550565b5f5f9054906101000a900473ffffffffffffffffffffffffffffffffffffffff1681565b60045f9054906101000a900460ff1681565b60045f9054906101000a900460ff16610454575f5ffd5b61045e828261095d565b5050565b6003602052805f5260405f205f915054906101000a900460ff1681565b5f8160025f3373ffffffffffffffffffffffffffffffffffffffff1673ffffffffffffffffffffffffffffffffffffffff1681526020019081526020015f205f8573ffffffffffffffffffffffffffffffffffffffff1673ffffffffffffffffffffffffffffffffffffffff1681526020019081526020015f20819055506001905092915050565b6002602052815f5260405f20602052805f5260405f205f91509150505481565b5f5f9054906101000a900473ffffffffffffffffffffffffffffffffffffffff1673ffffffffffffffffffffffffffffffffffffffff163373ffffffffffffffffffffffffffffffffffffffff161461057e575f5ffd5b8060035f8473ffffffffffffffffffffffffffffffffffffffff1673ffffffffffffffffffffffffffffffffffffffff1681526020019081526020015f205f6101000a81548160ff0219169083151502179055507f67a17b8db8ff8fa7cff69c2328bf8a35f9be2c88abeea30be900fc28eece28ed8282604051610603929190610e19565b60405180910390a15050565b6001602052805f5260405f205f915090505481565b5f5f73ffffffffffffffffffffffffffffffffffffffff168373ffffffffffffffffffffffffffffffffffffffff160361065c575f5ffd5b8160015f8673ffffffffffffffffffffffffffffffffffffffff1673ffffffffffffffffffffffffffffffffffffffff1681526020019081526020015f2054116106a4575f5ffd5b60015f8473ffffffffffffffffffffffffffffffffffffffff1673ffffffffffffffffffffffffffffffffffffffff1681526020019081526020015f20548260015f8673ffffffffffffffffffffffffffffffffffffffff1673ffffffffffffffffffffffffffffffffffffffff1681526020019081526020015f205461072b9190610de6565b1015610735575f5ffd5b60025f8573ffffffffffffffffffffffffffffffffffffffff1673ffffffffffffffffffffffffffffffffffffffff1681526020019081526020015f205f3373ffffffffffffffffffffffffffffffffffffffff1673ffffffffffffffffffffffffffffffffffffffff1681526020019081526020015f20548211156107b9575f5ffd5b8160015f8673ffffffffffffffffffffffffffffffffffffffff1673ffffffffffffffffffffffffffffffffffffffff1681526020019081526020015f205f8282546108059190610e40565b925050819055508160015f8573ffffffffffffffffffffffffffffffffffffffff1673ffffffffffffffffffffffffffffffffffffffff1681526020019081526020015f205f8282546108589190610de6565b925050819055508160025f8673ffffffffffffffffffffffffffffffffffffffff1673ffffffffffffffffffffffffffffffffffffffff1681526020019081526020015f205f3373ffffffffffffffffffffffffffffffffffffffff1673ffffffffffffffffffffffffffffffffffffffff1681526020019081526020015f205f8282546108e69190610e40565b925050819055508273ffffffffffffffffffffffffffffffffffffffff168473ffffffffffffffffffffffffffffffffffffffff167fddf252ad1be2c89b69c2b068fc378daa952ba7f163c4a11628f55a4df523b3ef8460405161094a9190610d38565b60405180910390a3600190509392505050565b8060015f3373ffffffffffffffffffffffffffffffffffffffff1673ffffffffffffffffffffffffffffffffffffffff1681526020019081526020015f205410156109a6575f5ffd5b60015f8373ffffffffffffffffffffffffffffffffffffffff1673ffffffffffffffffffffffffffffffffffffffff1681526020019081526020015f20548160015f8573ffffffffffffffffffffffffffffffffffffffff1673ffffffffffffffffffffffffffffffffffffffff1681526020019081526020015f2054610a2d9190610de6565b1015610a37575f5ffd5b8060015f3373ffffffffffffffffffffffffffffffffffffffff1673ffffffffffffffffffffffffffffffffffffffff1681526020019081526020015f205f828254610a839190610e40565b925050819055508060015f8473ffffffffffffffffffffffffffffffffffffffff1673ffffffffffffffffffffffffffffffffffffffff1681526020019081526020015f205f828254610ad69190610de6565b925050819055508173ffffffffffffffffffffffffffffffffffffffff163373ffffffffffffffffffffffffffffffffffffffff167fddf252ad1be2c89b69c2b068fc378daa952ba7f163c4a11628f55a4df523b3ef83604051610b3a9190610d38565b60405180910390a35050565b5f5ffd5b5f73ffffffffffffffffffffffffffffffffffffffff82169050919050565b5f610b7382610b4a565b9050919050565b610b8381610b69565b8114610b8d575f5ffd5b50565b5f81359050610b9e81610b7a565b92915050565b5f819050919050565b610bb681610ba4565b8114610bc0575f5ffd5b50565b5f81359050610bd181610bad565b92915050565b5f5f5f60608486031215610bee57610bed610b46565b5b5f610bfb86828701610b90565b9350506020610c0c86828701610b90565b9250506040610c1d86828701610bc3565b9150509250925092565b5f8115159050919050565b610c3b81610c27565b82525050565b5f602082019050610c545f830184610c32565b92915050565b5f5f60408385031215610c7057610c6f610b46565b5b5f610c7d85828601610b90565b9250506020610c8e85828601610bc3565b9150509250929050565b610ca181610b69565b82525050565b5f602082019050610cba5f830184610c98565b92915050565b5f60208284031215610cd557610cd4610b46565b5b5f610ce284828501610b90565b91505092915050565b5f5f60408385031215610d0157610d00610b46565b5b5f610d0e85828601610b90565b9250506020610d1f85828601610b90565b9150509250929050565b610d3281610ba4565b82525050565b5f602082019050610d4b5f830184610d29565b92915050565b610d5a81610c27565b8114610d64575f5ffd5b50565b5f81359050610d7581610d51565b92915050565b5f5f60408385031215610d9157610d90610b46565b5b5f610d9e85828601610b90565b9250506020610daf85828601610d67565b9150509250929050565b7f4e487b71000000000000000000000000000000000000000000000000000000005f52601160045260245ffd5b5f610df082610ba4565b9150610dfb83610ba4565b9250828201905080821115610e1357610e12610db9565b5b92915050565b5f604082019050610e2c5f830185610c98565b610e396020830184610c32565b9392505050565b5f610e4a82610ba4565b9150610e5583610ba4565b9250828203905081811115610e6d57610e6c610db9565b5b9291505056fea26469706673582212200e757897bd76fa0bc454b58d2f808c128917d72d3c1cef8efcd1dd4906ba94ff64736f6c634300081e0033",
					"opcodes": "PUSH1 0x80 PUSH1 0x40 MSTORE CALLVALUE DUP1 ISZERO PUSH2 0xF JUMPI PUSH0 PUSH0 REVERT JUMPDEST POP PUSH1 0x40 MLOAD PUSH2 0x1F7F CODESIZE SUB DUP1 PUSH2 0x1F7F DUP4 CODECOPY DUP2 DUP2 ADD PUSH1 0x40 MSTORE DUP2 ADD SWAP1 PUSH2 0x31 SWAP2 SWAP1 PUSH2 0x1FD JUMP JUMPDEST CALLER PUSH0 PUSH0 PUSH2 0x100 EXP DUP2 SLOAD DUP2 PUSH20 0xFFFFFFFFFFFFFFFFFFFFFFFFFFFFFFFFFFFFFFFF MUL NOT AND SWAP1 DUP4 PUSH20 0xFFFFFFFFFFFFFFFFFFFFFFFFFFFFFFFFFFFFFFFF AND MUL OR SWAP1 SSTORE POP TIMESTAMP DUP5 LT ISZERO PUSH2 0x7C JUMPI PUSH0 PUSH0 REVERT JUMPDEST DUP4 DUP4 LT ISZERO PUSH2 0x88 JUMPI PUSH0 PUSH0 REVERT JUMPDEST PUSH0 DUP3 SUB PUSH2 0x93 JUMPI PUSH0 PUSH0 REVERT JUMPDEST PUSH0 DUP2 SUB PUSH2 0x9E JUMPI PUSH0 PUSH0 REVERT JUMPDEST DUP4 PUSH1 0x1 DUP2 SWAP1 SSTORE POP DUP3 PUSH1 0x2 DUP2 SWAP1 SSTORE POP DUP2 PUSH1 0x3 DUP2 SWAP1 SSTORE POP PUSH8 0xDE0B6B3A7640000 DUP2 PUSH2 0xC7 SWAP2 SWAP1 PUSH2 0x28E JUMP JUMPDEST PUSH1 0x4 DUP2 SWAP1 SSTORE POP PUSH0 PUSH1 0x40 MLOAD PUSH2 0xDA SWAP1 PUSH2 0x1B9 JUMP JUMPDEST PUSH2 0xE4 SWAP2 SWAP1 PUSH2 0x311 JUMP JUMPDEST PUSH1 0x40 MLOAD DUP1 SWAP2 SUB SWAP1 PUSH0 CREATE DUP1 ISZERO DUP1 ISZERO PUSH2 0xFD JUMPI RETURNDATASIZE PUSH0 PUSH0 RETURNDATACOPY RETURNDATASIZE PUSH0 REVERT JUMPDEST POP PUSH1 0x8 PUSH1 0x2 PUSH2 0x100 EXP DUP2 SLOAD DUP2 PUSH20 0xFFFFFFFFFFFFFFFFFFFFFFFFFFFFFFFFFFFFFFFF MUL NOT AND SWAP1 DUP4 PUSH20 0xFFFFFFFFFFFFFFFFFFFFFFFFFFFFFFFFFFFFFFFF AND MUL OR SWAP1 SSTORE POP PUSH0 PUSH1 0x8 PUSH0 PUSH2 0x100 EXP DUP2 SLOAD DUP2 PUSH1 0xFF MUL NOT AND SWAP1 DUP4 ISZERO ISZERO MUL OR SWAP1 SSTORE POP PUSH0 PUSH1 0x8 PUSH1 0x1 PUSH2 0x100 EXP DUP2 SLOAD DUP2 PUSH1 0xFF MUL NOT AND SWAP1 DUP4 ISZERO ISZERO MUL OR SWAP1 SSTORE POP CALLER PUSH0 PUSH0 PUSH2 0x100 EXP DUP2 SLOAD DUP2 PUSH20 0xFFFFFFFFFFFFFFFFFFFFFFFFFFFFFFFFFFFFFFFF MUL NOT AND SWAP1 DUP4 PUSH20 0xFFFFFFFFFFFFFFFFFFFFFFFFFFFFFFFFFFFFFFFF AND MUL OR SWAP1 SSTORE POP POP POP POP POP PUSH2 0x32A JUMP JUMPDEST PUSH2 0x11D3 DUP1 PUSH2 0xDAC DUP4 CODECOPY ADD SWAP1 JUMP JUMPDEST PUSH0 PUSH0 REVERT JUMPDEST PUSH0 DUP2 SWAP1 POP SWAP2 SWAP1 POP JUMP JUMPDEST PUSH2 0x1DC DUP2 PUSH2 0x1CA JUMP JUMPDEST DUP2 EQ PUSH2 0x1E6 JUMPI PUSH0 PUSH0 REVERT JUMPDEST POP JUMP JUMPDEST PUSH0 DUP2 MLOAD SWAP1 POP PUSH2 0x1F7 DUP2 PUSH2 0x1D3 JUMP JUMPDEST SWAP3 SWAP2 POP POP JUMP JUMPDEST PUSH0 PUSH0 PUSH0 PUSH0 PUSH1 0x80 DUP6 DUP8 SUB SLT ISZERO PUSH2 0x215 JUMPI PUSH2 0x214 PUSH2 0x1C6 JUMP JUMPDEST JUMPDEST PUSH0 PUSH2 0x222 DUP8 DUP3 DUP9 ADD PUSH2 0x1E9 JUMP JUMPDEST SWAP5 POP POP PUSH1 0x20 PUSH2 0x233 DUP8 DUP3 DUP9 ADD PUSH2 0x1E9 JUMP JUMPDEST SWAP4 POP POP PUSH1 0x40 PUSH2 0x244 DUP8 DUP3 DUP9 ADD PUSH2 0x1E9 JUMP JUMPDEST SWAP3 POP POP PUSH1 0x60 PUSH2 0x255 DUP8 DUP3 DUP9 ADD PUSH2 0x1E9 JUMP JUMPDEST SWAP2 POP POP SWAP3 SWAP6 SWAP2 SWAP5 POP SWAP3 POP JUMP JUMPDEST PUSH32 0x4E487B7100000000000000000000000000000000000000000000000000000000 PUSH0 MSTORE PUSH1 0x11 PUSH1 0x4 MSTORE PUSH1 0x24 PUSH0 REVERT JUMPDEST PUSH0 PUSH2 0x298 DUP3 PUSH2 0x1CA JUMP JUMPDEST SWAP2 POP PUSH2 0x2A3 DUP4 PUSH2 0x1CA JUMP JUMPDEST SWAP3 POP DUP3 DUP3 MUL PUSH2 0x2B1 DUP2 PUSH2 0x1CA JUMP JUMPDEST SWAP2 POP DUP3 DUP3 DIV DUP5 EQ DUP4 ISZERO OR PUSH2 0x2C8 JUMPI PUSH2 0x2C7 PUSH2 0x261 JUMP JUMPDEST JUMPDEST POP SWAP3 SWAP2 POP POP JUMP JUMPDEST PUSH0 DUP2 SWAP1 POP SWAP2 SWAP1 POP JUMP JUMPDEST PUSH0 DUP2 SWAP1 POP SWAP2 SWAP1 POP JUMP JUMPDEST PUSH0 PUSH2 0x2FB PUSH2 0x2F6 PUSH2 0x2F1 DUP5 PUSH2 0x2CF JUMP JUMPDEST PUSH2 0x2D8 JUMP JUMPDEST PUSH2 0x1CA JUMP JUMPDEST SWAP1 POP SWAP2 SWAP1 POP JUMP JUMPDEST PUSH2 0x30B DUP2 PUSH2 0x2E1 JUMP JUMPDEST DUP3 MSTORE POP POP JUMP JUMPDEST PUSH0 PUSH1 0x20 DUP3 ADD SWAP1 POP PUSH2 0x324 PUSH0 DUP4 ADD DUP5 PUSH2 0x302 JUMP JUMPDEST SWAP3 SWAP2 POP POP JUMP JUMPDEST PUSH2 0xA75 DUP1 PUSH2 0x337 PUSH0 CODECOPY PUSH0 RETURN INVALID PUSH1 0x80 PUSH1 0x40 MSTORE PUSH1 0x4 CALLDATASIZE LT PUSH2 0xDC JUMPI PUSH0 CALLDATALOAD PUSH1 0xE0 SHR DUP1 PUSH4 0x8DA5CB5B GT PUSH2 0x7E JUMPI DUP1 PUSH4 0xE8B5E51F GT PUSH2 0x58 JUMPI DUP1 PUSH4 0xE8B5E51F EQ PUSH2 0x25C JUMPI DUP1 PUSH4 0xEE56CF41 EQ PUSH2 0x266 JUMPI DUP1 PUSH4 0xEFF1A844 EQ PUSH2 0x290 JUMPI DUP1 PUSH4 0xFA65DFAC EQ PUSH2 0x2CC JUMPI PUSH2 0xDC JUMP JUMPDEST DUP1 PUSH4 0x8DA5CB5B EQ PUSH2 0x1DE JUMPI DUP1 PUSH4 0xBAB34F43 EQ PUSH2 0x208 JUMPI DUP1 PUSH4 0xCB6F16D4 EQ PUSH2 0x232 JUMPI PUSH2 0xDC JUMP JUMPDEST DUP1 PUSH4 0x4BB278F3 GT PUSH2 0xBA JUMPI DUP1 PUSH4 0x4BB278F3 EQ PUSH2 0x15E JUMPI DUP1 PUSH4 0x590E1AE3 EQ PUSH2 0x174 JUMPI DUP1 PUSH4 0x78E97925 EQ PUSH2 0x18A JUMPI DUP1 PUSH4 0x8D4E4083 EQ PUSH2 0x1B4 JUMPI PUSH2 0xDC JUMP JUMPDEST DUP1 PUSH4 0x1C0A5C10 EQ PUSH2 0xE0 JUMPI DUP1 PUSH4 0x3197CBB6 EQ PUSH2 0x10A JUMPI DUP1 PUSH4 0x38EF9380 EQ PUSH2 0x134 JUMPI JUMPDEST PUSH0 PUSH0 REVERT JUMPDEST CALLVALUE DUP1 ISZERO PUSH2 0xEB JUMPI PUSH0 PUSH0 REVERT JUMPDEST POP PUSH2 0xF4 PUSH2 0x2F6 JUMP JUMPDEST PUSH1 0x40 MLOAD PUSH2 0x101 SWAP2 SWAP1 PUSH2 0x7EA JUMP JUMPDEST PUSH1 0x40 MLOAD DUP1 SWAP2 SUB SWAP1 RETURN JUMPDEST CALLVALUE DUP1 ISZERO PUSH2 0x115 JUMPI PUSH0 PUSH0 REVERT JUMPDEST POP PUSH2 0x11E PUSH2 0x2FC JUMP JUMPDEST PUSH1 0x40 MLOAD PUSH2 0x12B SWAP2 SWAP1 PUSH2 0x7EA JUMP JUMPDEST PUSH1 0x40 MLOAD DUP1 SWAP2 SUB SWAP1 RETURN JUMPDEST CALLVALUE DUP1 ISZERO PUSH2 0x13F JUMPI PUSH0 PUSH0 REVERT JUMPDEST POP PUSH2 0x148 PUSH2 0x302 JUMP JUMPDEST PUSH1 0x40 MLOAD PUSH2 0x155 SWAP2 SWAP1 PUSH2 0x7EA JUMP JUMPDEST PUSH1 0x40 MLOAD DUP1 SWAP2 SUB SWAP1 RETURN JUMPDEST CALLVALUE DUP1 ISZERO PUSH2 0x169 JUMPI PUSH0 PUSH0 REVERT JUMPDEST POP PUSH2 0x172 PUSH2 0x308 JUMP JUMPDEST STOP JUMPDEST CALLVALUE DUP1 ISZERO PUSH2 0x17F JUMPI PUSH0 PUSH0 REVERT JUMPDEST POP PUSH2 0x188 PUSH2 0x450 JUMP JUMPDEST STOP JUMPDEST CALLVALUE DUP1 ISZERO PUSH2 0x195 JUMPI PUSH0 PUSH0 REVERT JUMPDEST POP PUSH2 0x19E PUSH2 0x58B JUMP JUMPDEST PUSH1 0x40 MLOAD PUSH2 0x1AB SWAP2 SWAP1 PUSH2 0x7EA JUMP JUMPDEST PUSH1 0x40 MLOAD DUP1 SWAP2 SUB SWAP1 RETURN JUMPDEST CALLVALUE DUP1 ISZERO PUSH2 0x1BF JUMPI PUSH0 PUSH0 REVERT JUMPDEST POP PUSH2 0x1C8 PUSH2 0x591 JUMP JUMPDEST PUSH1 0x40 MLOAD PUSH2 0x1D5 SWAP2 SWAP1 PUSH2 0x81D JUMP JUMPDEST PUSH1 0x40 MLOAD DUP1 SWAP2 SUB SWAP1 RETURN JUMPDEST CALLVALUE DUP1 ISZERO PUSH2 0x1E9 JUMPI PUSH0 PUSH0 REVERT JUMPDEST POP PUSH2 0x1F2 PUSH2 0x5A3 JUMP JUMPDEST PUSH1 0x40 MLOAD PUSH2 0x1FF SWAP2 SWAP1 PUSH2 0x875 JUMP JUMPDEST PUSH1 0x40 MLOAD DUP1 SWAP2 SUB SWAP1 RETURN JUMPDEST CALLVALUE DUP1 ISZERO PUSH2 0x213 JUMPI PUSH0 PUSH0 REVERT JUMPDEST POP PUSH2 0x21C PUSH2 0x5C7 JUMP JUMPDEST PUSH1 0x40 MLOAD PUSH2 0x229 SWAP2 SWAP1 PUSH2 0x7EA JUMP JUMPDEST PUSH1 0x40 MLOAD DUP1 SWAP2 SUB SWAP1 RETURN JUMPDEST CALLVALUE DUP1 ISZERO PUSH2 0x23D JUMPI PUSH0 PUSH0 REVERT JUMPDEST POP PUSH2 0x246 PUSH2 0x5CD JUMP JUMPDEST PUSH1 0x40 MLOAD PUSH2 0x253 SWAP2 SWAP1 PUSH2 0x81D JUMP JUMPDEST PUSH1 0x40 MLOAD DUP1 SWAP2 SUB SWAP1 RETURN JUMPDEST PUSH2 0x264 PUSH2 0x5E0 JUMP JUMPDEST STOP JUMPDEST CALLVALUE DUP1 ISZERO PUSH2 0x271 JUMPI PUSH0 PUSH0 REVERT JUMPDEST POP PUSH2 0x27A PUSH2 0x6C0 JUMP JUMPDEST PUSH1 0x40 MLOAD PUSH2 0x287 SWAP2 SWAP1 PUSH2 0x7EA JUMP JUMPDEST PUSH1 0x40 MLOAD DUP1 SWAP2 SUB SWAP1 RETURN JUMPDEST CALLVALUE DUP1 ISZERO PUSH2 0x29B JUMPI PUSH0 PUSH0 REVERT JUMPDEST POP PUSH2 0x2B6 PUSH1 0x4 DUP1 CALLDATASIZE SUB DUP2 ADD SWAP1 PUSH2 0x2B1 SWAP2 SWAP1 PUSH2 0x8BC JUMP JUMPDEST PUSH2 0x6C6 JUMP JUMPDEST PUSH1 0x40 MLOAD PUSH2 0x2C3 SWAP2 SWAP1 PUSH2 0x7EA JUMP JUMPDEST PUSH1 0x40 MLOAD DUP1 SWAP2 SUB SWAP1 RETURN JUMPDEST CALLVALUE DUP1 ISZERO PUSH2 0x2D7 JUMPI PUSH0 PUSH0 REVERT JUMPDEST POP PUSH2 0x2E0 PUSH2 0x6DB JUMP JUMPDEST PUSH1 0x40 MLOAD PUSH2 0x2ED SWAP2 SWAP1 PUSH2 0x942 JUMP JUMPDEST PUSH1 0x40 MLOAD DUP1 SWAP2 SUB SWAP1 RETURN JUMPDEST PUSH1 0x6 SLOAD DUP2 JUMP JUMPDEST PUSH1 0x2 SLOAD DUP2 JUMP JUMPDEST PUSH1 0x7 SLOAD DUP2 JUMP JUMPDEST PUSH0 PUSH0 SWAP1 SLOAD SWAP1 PUSH2 0x100 EXP SWAP1 DIV PUSH20 0xFFFFFFFFFFFFFFFFFFFFFFFFFFFFFFFFFFFFFFFF AND PUSH20 0xFFFFFFFFFFFFFFFFFFFFFFFFFFFFFFFFFFFFFFFF AND CALLER PUSH20 0xFFFFFFFFFFFFFFFFFFFFFFFFFFFFFFFFFFFFFFFF AND EQ PUSH2 0x35F JUMPI PUSH0 PUSH0 REVERT JUMPDEST PUSH1 0x8 PUSH0 SWAP1 SLOAD SWAP1 PUSH2 0x100 EXP SWAP1 DIV PUSH1 0xFF AND ISZERO PUSH2 0x377 JUMPI PUSH0 PUSH0 REVERT JUMPDEST PUSH0 PUSH1 0x1 SWAP1 POP PUSH0 PUSH1 0x4 SLOAD PUSH1 0x6 SLOAD LT ISZERO SWAP1 POP DUP2 ISZERO PUSH2 0x44C JUMPI DUP1 ISZERO PUSH2 0x415 JUMPI PUSH1 0x8 PUSH1 0x2 SWAP1 SLOAD SWAP1 PUSH2 0x100 EXP SWAP1 DIV PUSH20 0xFFFFFFFFFFFFFFFFFFFFFFFFFFFFFFFFFFFFFFFF AND PUSH20 0xFFFFFFFFFFFFFFFFFFFFFFFFFFFFFFFFFFFFFFFF AND PUSH4 0x86D1A69F PUSH1 0x40 MLOAD DUP2 PUSH4 0xFFFFFFFF AND PUSH1 0xE0 SHL DUP2 MSTORE PUSH1 0x4 ADD PUSH0 PUSH1 0x40 MLOAD DUP1 DUP4 SUB DUP2 PUSH0 DUP8 DUP1 EXTCODESIZE ISZERO DUP1 ISZERO PUSH2 0x3FA JUMPI PUSH0 PUSH0 REVERT JUMPDEST POP GAS CALL ISZERO DUP1 ISZERO PUSH2 0x40C JUMPI RETURNDATASIZE PUSH0 PUSH0 RETURNDATACOPY RETURNDATASIZE PUSH0 REVERT JUMPDEST POP POP POP POP PUSH2 0x431 JUMP JUMPDEST PUSH1 0x1 PUSH1 0x8 PUSH1 0x1 PUSH2 0x100 EXP DUP2 SLOAD DUP2 PUSH1 0xFF MUL NOT AND SWAP1 DUP4 ISZERO ISZERO MUL OR SWAP1 SSTORE POP JUMPDEST PUSH1 0x1 PUSH1 0x8 PUSH0 PUSH2 0x100 EXP DUP2 SLOAD DUP2 PUSH1 0xFF MUL NOT AND SWAP1 DUP4 ISZERO ISZERO MUL OR SWAP1 SSTORE POP JUMPDEST POP POP JUMP JUMPDEST PUSH1 0x8 PUSH1 0x1 SWAP1 SLOAD SWAP1 PUSH2 0x100 EXP SWAP1 DIV PUSH1 0xFF AND PUSH2 0x468 JUMPI PUSH0 PUSH0 REVERT JUMPDEST PUSH0 CALLER SWAP1 POP PUSH0 PUSH1 0x5 PUSH0 DUP4 PUSH20 0xFFFFFFFFFFFFFFFFFFFFFFFFFFFFFFFFFFFFFFFF AND PUSH20 0xFFFFFFFFFFFFFFFFFFFFFFFFFFFFFFFFFFFFFFFF AND DUP2 MSTORE PUSH1 0x20 ADD SWAP1 DUP2 MSTORE PUSH1 0x20 ADD PUSH0 KECCAK256 SLOAD SWAP1 POP PUSH0 DUP2 SUB PUSH2 0x4B8 JUMPI PUSH0 PUSH0 REVERT JUMPDEST PUSH0 PUSH1 0x5 PUSH0 DUP5 PUSH20 0xFFFFFFFFFFFFFFFFFFFFFFFFFFFFFFFFFFFFFFFF AND PUSH20 0xFFFFFFFFFFFFFFFFFFFFFFFFFFFFFFFFFFFFFFFF AND DUP2 MSTORE PUSH1 0x20 ADD SWAP1 DUP2 MSTORE PUSH1 0x20 ADD PUSH0 KECCAK256 DUP2 SWAP1 SSTORE POP DUP1 PUSH1 0x7 PUSH0 DUP3 DUP3 SLOAD PUSH2 0x50B SWAP2 SWAP1 PUSH2 0x988 JUMP JUMPDEST SWAP3 POP POP DUP2 SWAP1 SSTORE POP PUSH32 0xBB28353E4598C3B9199101A66E0989549B659A59A54D2C27FBB183F1932C8E6D CALLER DUP3 PUSH1 0x40 MLOAD PUSH2 0x543 SWAP3 SWAP2 SWAP1 PUSH2 0x9BB JUMP JUMPDEST PUSH1 0x40 MLOAD DUP1 SWAP2 SUB SWAP1 LOG1 DUP2 PUSH20 0xFFFFFFFFFFFFFFFFFFFFFFFFFFFFFFFFFFFFFFFF AND PUSH2 0x8FC DUP3 SWAP1 DUP2 ISZERO MUL SWAP1 PUSH1 0x40 MLOAD PUSH0 PUSH1 0x40 MLOAD DUP1 DUP4 SUB DUP2 DUP6 DUP9 DUP9 CALL SWAP4 POP POP POP POP PUSH2 0x587 JUMPI PUSH0 PUSH0 REVERT JUMPDEST POP POP JUMP JUMPDEST PUSH1 0x1 SLOAD DUP2 JUMP JUMPDEST PUSH1 0x8 PUSH0 SWAP1 SLOAD SWAP1 PUSH2 0x100 EXP SWAP1 DIV PUSH1 0xFF AND DUP2 JUMP JUMPDEST PUSH0 PUSH0 SWAP1 SLOAD SWAP1 PUSH2 0x100 EXP SWAP1 DIV PUSH20 0xFFFFFFFFFFFFFFFFFFFFFFFFFFFFFFFFFFFFFFFF AND DUP2 JUMP JUMPDEST PUSH1 0x4 SLOAD DUP2 JUMP JUMPDEST PUSH1 0x8 PUSH1 0x1 SWAP1 SLOAD SWAP1 PUSH2 0x100 EXP SWAP1 DIV PUSH1 0xFF AND DUP2 JUMP JUMPDEST PUSH2 0x5E9 CALLVALUE PUSH2 0x701 JUMP JUMPDEST PUSH2 0x5F1 JUMPI PUSH0 PUSH0 REVERT JUMPDEST PUSH0 CALLER SWAP1 POP PUSH0 CALLVALUE SWAP1 POP DUP1 PUSH1 0x5 PUSH0 DUP5 PUSH20 0xFFFFFFFFFFFFFFFFFFFFFFFFFFFFFFFFFFFFFFFF AND PUSH20 0xFFFFFFFFFFFFFFFFFFFFFFFFFFFFFFFFFFFFFFFF AND DUP2 MSTORE PUSH1 0x20 ADD SWAP1 DUP2 MSTORE PUSH1 0x20 ADD PUSH0 KECCAK256 PUSH0 DUP3 DUP3 SLOAD PUSH2 0x645 SWAP2 SWAP1 PUSH2 0x988 JUMP JUMPDEST SWAP3 POP POP DUP2 SWAP1 SSTORE POP DUP1 PUSH1 0x6 PUSH0 DUP3 DUP3 SLOAD PUSH2 0x65D SWAP2 SWAP1 PUSH2 0x988 JUMP JUMPDEST SWAP3 POP POP DUP2 SWAP1 SSTORE POP PUSH2 0x66E DUP3 DUP3 PUSH2 0x721 JUMP JUMPDEST DUP2 PUSH20 0xFFFFFFFFFFFFFFFFFFFFFFFFFFFFFFFFFFFFFFFF AND PUSH32 0xC74590E3281392E897F5C0F45530951CFE0DB0E86C76D65AF861E80B925871A4 DUP3 PUSH1 0x40 MLOAD PUSH2 0x6B4 SWAP2 SWAP1 PUSH2 0x7EA JUMP JUMPDEST PUSH1 0x40 MLOAD DUP1 SWAP2 SUB SWAP1 LOG2 POP POP JUMP JUMPDEST PUSH1 0x3 SLOAD DUP2 JUMP JUMPDEST PUSH1 0x5 PUSH1 0x20 MSTORE DUP1 PUSH0 MSTORE PUSH1 0x40 PUSH0 KECCAK256 PUSH0 SWAP2 POP SWAP1 POP SLOAD DUP2 JUMP JUMPDEST PUSH1 0x8 PUSH1 0x2 SWAP1 SLOAD SWAP1 PUSH2 0x100 EXP SWAP1 DIV PUSH20 0xFFFFFFFFFFFFFFFFFFFFFFFFFFFFFFFFFFFFFFFF AND DUP2 JUMP JUMPDEST PUSH0 PUSH0 PUSH0 DUP4 EQ ISZERO SWAP1 POP PUSH0 PUSH1 0x1 SWAP1 POP DUP2 DUP1 ISZERO PUSH2 0x718 JUMPI POP DUP1 JUMPDEST SWAP3 POP POP POP SWAP2 SWAP1 POP JUMP JUMPDEST PUSH0 PUSH2 0x72B DUP3 PUSH2 0x7BC JUMP JUMPDEST SWAP1 POP PUSH1 0x8 PUSH1 0x2 SWAP1 SLOAD SWAP1 PUSH2 0x100 EXP SWAP1 DIV PUSH20 0xFFFFFFFFFFFFFFFFFFFFFFFFFFFFFFFFFFFFFFFF AND PUSH20 0xFFFFFFFFFFFFFFFFFFFFFFFFFFFFFFFFFFFFFFFF AND PUSH4 0x40C10F19 DUP5 DUP4 PUSH1 0x40 MLOAD DUP4 PUSH4 0xFFFFFFFF AND PUSH1 0xE0 SHL DUP2 MSTORE PUSH1 0x4 ADD PUSH2 0x78A SWAP3 SWAP2 SWAP1 PUSH2 0x9BB JUMP JUMPDEST PUSH0 PUSH1 0x40 MLOAD DUP1 DUP4 SUB DUP2 PUSH0 DUP8 DUP1 EXTCODESIZE ISZERO DUP1 ISZERO PUSH2 0x7A1 JUMPI PUSH0 PUSH0 REVERT JUMPDEST POP GAS CALL ISZERO DUP1 ISZERO PUSH2 0x7B3 JUMPI RETURNDATASIZE PUSH0 PUSH0 RETURNDATACOPY RETURNDATASIZE PUSH0 REVERT JUMPDEST POP POP POP POP POP POP POP JUMP JUMPDEST PUSH0 PUSH1 0x3 SLOAD DUP3 PUSH2 0x7CB SWAP2 SWAP1 PUSH2 0xA0F JUMP JUMPDEST SWAP1 POP SWAP2 SWAP1 POP JUMP JUMPDEST PUSH0 DUP2 SWAP1 POP SWAP2 SWAP1 POP JUMP JUMPDEST PUSH2 0x7E4 DUP2 PUSH2 0x7D2 JUMP JUMPDEST DUP3 MSTORE POP POP JUMP JUMPDEST PUSH0 PUSH1 0x20 DUP3 ADD SWAP1 POP PUSH2 0x7FD PUSH0 DUP4 ADD DUP5 PUSH2 0x7DB JUMP JUMPDEST SWAP3 SWAP2 POP POP JUMP JUMPDEST PUSH0 DUP2 ISZERO ISZERO SWAP1 POP SWAP2 SWAP1 POP JUMP JUMPDEST PUSH2 0x817 DUP2 PUSH2 0x803 JUMP JUMPDEST DUP3 MSTORE POP POP JUMP JUMPDEST PUSH0 PUSH1 0x20 DUP3 ADD SWAP1 POP PUSH2 0x830 PUSH0 DUP4 ADD DUP5 PUSH2 0x80E JUMP JUMPDEST SWAP3 SWAP2 POP POP JUMP JUMPDEST PUSH0 PUSH20 0xFFFFFFFFFFFFFFFFFFFFFFFFFFFFFFFFFFFFFFFF DUP3 AND SWAP1 POP SWAP2 SWAP1 POP JUMP JUMPDEST PUSH0 PUSH2 0x85F DUP3 PUSH2 0x836 JUMP JUMPDEST SWAP1 POP SWAP2 SWAP1 POP JUMP JUMPDEST PUSH2 0x86F DUP2 PUSH2 0x855 JUMP JUMPDEST DUP3 MSTORE POP POP JUMP JUMPDEST PUSH0 PUSH1 0x20 DUP3 ADD SWAP1 POP PUSH2 0x888 PUSH0 DUP4 ADD DUP5 PUSH2 0x866 JUMP JUMPDEST SWAP3 SWAP2 POP POP JUMP JUMPDEST PUSH0 PUSH0 REVERT JUMPDEST PUSH2 0x89B DUP2 PUSH2 0x855 JUMP JUMPDEST DUP2 EQ PUSH2 0x8A5 JUMPI PUSH0 PUSH0 REVERT JUMPDEST POP JUMP JUMPDEST PUSH0 DUP2 CALLDATALOAD SWAP1 POP PUSH2 0x8B6 DUP2 PUSH2 0x892 JUMP JUMPDEST SWAP3 SWAP2 POP POP JUMP JUMPDEST PUSH0 PUSH1 0x20 DUP3 DUP5 SUB SLT ISZERO PUSH2 0x8D1 JUMPI PUSH2 0x8D0 PUSH2 0x88E JUMP JUMPDEST JUMPDEST PUSH0 PUSH2 0x8DE DUP5 DUP3 DUP6 ADD PUSH2 0x8A8 JUMP JUMPDEST SWAP2 POP POP SWAP3 SWAP2 POP POP JUMP JUMPDEST PUSH0 DUP2 SWAP1 POP SWAP2 SWAP1 POP JUMP JUMPDEST PUSH0 PUSH2 0x90A PUSH2 0x905 PUSH2 0x900 DUP5 PUSH2 0x836 JUMP JUMPDEST PUSH2 0x8E7 JUMP JUMPDEST PUSH2 0x836 JUMP JUMPDEST SWAP1 POP SWAP2 SWAP1 POP JUMP JUMPDEST PUSH0 PUSH2 0x91B DUP3 PUSH2 0x8F0 JUMP JUMPDEST SWAP1 POP SWAP2 SWAP1 POP JUMP JUMPDEST PUSH0 PUSH2 0x92C DUP3 PUSH2 0x911 JUMP JUMPDEST SWAP1 POP SWAP2 SWAP1 POP JUMP JUMPDEST PUSH2 0x93C DUP2 PUSH2 0x922 JUMP JUMPDEST DUP3 MSTORE POP POP JUMP JUMPDEST PUSH0 PUSH1 0x20 DUP3 ADD SWAP1 POP PUSH2 0x955 PUSH0 DUP4 ADD DUP5 PUSH2 0x933 JUMP JUMPDEST SWAP3 SWAP2 POP POP JUMP JUMPDEST PUSH32 0x4E487B7100000000000000000000000000000000000000000000000000000000 PUSH0 MSTORE PUSH1 0x11 PUSH1 0x4 MSTORE PUSH1 0x24 PUSH0 REVERT JUMPDEST PUSH0 PUSH2 0x992 DUP3 PUSH2 0x7D2 JUMP JUMPDEST SWAP2 POP PUSH2 0x99D DUP4 PUSH2 0x7D2 JUMP JUMPDEST SWAP3 POP DUP3 DUP3 ADD SWAP1 POP DUP1 DUP3 GT ISZERO PUSH2 0x9B5 JUMPI PUSH2 0x9B4 PUSH2 0x95B JUMP JUMPDEST JUMPDEST SWAP3 SWAP2 POP POP JUMP JUMPDEST PUSH0 PUSH1 0x40 DUP3 ADD SWAP1 POP PUSH2 0x9CE PUSH0 DUP4 ADD DUP6 PUSH2 0x866 JUMP JUMPDEST PUSH2 0x9DB PUSH1 0x20 DUP4 ADD DUP5 PUSH2 0x7DB JUMP JUMPDEST SWAP4 SWAP3 POP POP POP JUMP JUMPDEST PUSH32 0x4E487B7100000000000000000000000000000000000000000000000000000000 PUSH0 MSTORE PUSH1 0x12 PUSH1 0x4 MSTORE PUSH1 0x24 PUSH0 REVERT JUMPDEST PUSH0 PUSH2 0xA19 DUP3 PUSH2 0x7D2 JUMP JUMPDEST SWAP2 POP PUSH2 0xA24 DUP4 PUSH2 0x7D2 JUMP JUMPDEST SWAP3 POP DUP3 PUSH2 0xA34 JUMPI PUSH2 0xA33 PUSH2 0x9E2 JUMP JUMPDEST JUMPDEST DUP3 DUP3 DIV SWAP1 POP SWAP3 SWAP2 POP POP JUMP INVALID LOG2 PUSH5 0x6970667358 0x22 SLT KECCAK256 MSTORE8 PUSH13 0x4130D2365D20B2809C5D7940F1 0xB1 PUSH3 0x38DBC SWAP7 JUMPDEST PUSH17 0xA99E84309A74BCC9864736F6C63430008 0x1E STOP CALLER PUSH1 0x80 PUSH1 0x40 MSTORE PUSH0 PUSH1 0x4 PUSH0 PUSH2 0x100 EXP DUP2 SLOAD DUP2 PUSH1 0xFF MUL NOT AND SWAP1 DUP4 ISZERO ISZERO MUL OR SWAP1 SSTORE POP CALLVALUE DUP1 ISZERO PUSH2 0x28 JUMPI PUSH0 PUSH0 REVERT JUMPDEST POP PUSH1 0x40 MLOAD PUSH2 0x11D3 CODESIZE SUB DUP1 PUSH2 0x11D3 DUP4 CODECOPY DUP2 DUP2 ADD PUSH1 0x40 MSTORE DUP2 ADD SWAP1 PUSH2 0x4A SWAP2 SWAP1 PUSH2 0x26A JUMP JUMPDEST DUP1 CALLER PUSH0 PUSH0 PUSH2 0x100 EXP DUP2 SLOAD DUP2 PUSH20 0xFFFFFFFFFFFFFFFFFFFFFFFFFFFFFFFFFFFFFFFF MUL NOT AND SWAP1 DUP4 PUSH20 0xFFFFFFFFFFFFFFFFFFFFFFFFFFFFFFFFFFFFFFFF AND MUL OR SWAP1 SSTORE POP CALLER PUSH0 PUSH0 PUSH2 0x100 EXP DUP2 SLOAD DUP2 PUSH20 0xFFFFFFFFFFFFFFFFFFFFFFFFFFFFFFFFFFFFFFFF MUL NOT AND SWAP1 DUP4 PUSH20 0xFFFFFFFFFFFFFFFFFFFFFFFFFFFFFFFFFFFFFFFF AND MUL OR SWAP1 SSTORE POP PUSH2 0xF9 PUSH0 PUSH0 SWAP1 SLOAD SWAP1 PUSH2 0x100 EXP SWAP1 DIV PUSH20 0xFFFFFFFFFFFFFFFFFFFFFFFFFFFFFFFFFFFFFFFF AND DUP3 PUSH2 0x100 PUSH1 0x20 SHL PUSH1 0x20 SHR JUMP JUMPDEST POP POP PUSH2 0x31D JUMP JUMPDEST PUSH0 PUSH0 SWAP1 SLOAD SWAP1 PUSH2 0x100 EXP SWAP1 DIV PUSH20 0xFFFFFFFFFFFFFFFFFFFFFFFFFFFFFFFFFFFFFFFF AND PUSH20 0xFFFFFFFFFFFFFFFFFFFFFFFFFFFFFFFFFFFFFFFF AND CALLER PUSH20 0xFFFFFFFFFFFFFFFFFFFFFFFFFFFFFFFFFFFFFFFF AND EQ PUSH2 0x157 JUMPI PUSH0 PUSH0 REVERT JUMPDEST DUP1 PUSH1 0x1 PUSH0 DUP5 PUSH20 0xFFFFFFFFFFFFFFFFFFFFFFFFFFFFFFFFFFFFFFFF AND PUSH20 0xFFFFFFFFFFFFFFFFFFFFFFFFFFFFFFFFFFFFFFFF AND DUP2 MSTORE PUSH1 0x20 ADD SWAP1 DUP2 MSTORE PUSH1 0x20 ADD PUSH0 KECCAK256 PUSH0 DUP3 DUP3 SLOAD PUSH2 0x1A3 SWAP2 SWAP1 PUSH2 0x2C2 JUMP JUMPDEST SWAP3 POP POP DUP2 SWAP1 SSTORE POP DUP2 PUSH20 0xFFFFFFFFFFFFFFFFFFFFFFFFFFFFFFFFFFFFFFFF AND PUSH0 PUSH0 SWAP1 SLOAD SWAP1 PUSH2 0x100 EXP SWAP1 DIV PUSH20 0xFFFFFFFFFFFFFFFFFFFFFFFFFFFFFFFFFFFFFFFF AND PUSH20 0xFFFFFFFFFFFFFFFFFFFFFFFFFFFFFFFFFFFFFFFF AND PUSH32 0xDDF252AD1BE2C89B69C2B068FC378DAA952BA7F163C4A11628F55A4DF523B3EF DUP4 PUSH1 0x40 MLOAD PUSH2 0x227 SWAP2 SWAP1 PUSH2 0x304 JUMP JUMPDEST PUSH1 0x40 MLOAD DUP1 SWAP2 SUB SWAP1 LOG3 POP POP JUMP JUMPDEST PUSH0 PUSH0 REVERT JUMPDEST PUSH0 DUP2 SWAP1 POP SWAP2 SWAP1 POP JUMP JUMPDEST PUSH2 0x249 DUP2 PUSH2 0x237 JUMP JUMPDEST DUP2 EQ PUSH2 0x253 JUMPI PUSH0 PUSH0 REVERT JUMPDEST POP JUMP JUMPDEST PUSH0 DUP2 MLOAD SWAP1 POP PUSH2 0x264 DUP2 PUSH2 0x240 JUMP JUMPDEST SWAP3 SWAP2 POP POP JUMP JUMPDEST PUSH0 PUSH1 0x20 DUP3 DUP5 SUB SLT ISZERO PUSH2 0x27F JUMPI PUSH2 0x27E PUSH2 0x233 JUMP JUMPDEST JUMPDEST PUSH0 PUSH2 0x28C DUP5 DUP3 DUP6 ADD PUSH2 0x256 JUMP JUMPDEST SWAP2 POP POP SWAP3 SWAP2 POP POP JUMP JUMPDEST PUSH32 0x4E487B7100000000000000000000000000000000000000000000000000000000 PUSH0 MSTORE PUSH1 0x11 PUSH1 0x4 MSTORE PUSH1 0x24 PUSH0 REVERT JUMPDEST PUSH0 PUSH2 0x2CC DUP3 PUSH2 0x237 JUMP JUMPDEST SWAP2 POP PUSH2 0x2D7 DUP4 PUSH2 0x237 JUMP JUMPDEST SWAP3 POP DUP3 DUP3 ADD SWAP1 POP DUP1 DUP3 GT ISZERO PUSH2 0x2EF JUMPI PUSH2 0x2EE PUSH2 0x295 JUMP JUMPDEST JUMPDEST SWAP3 SWAP2 POP POP JUMP JUMPDEST PUSH2 0x2FE DUP2 PUSH2 0x237 JUMP JUMPDEST DUP3 MSTORE POP POP JUMP JUMPDEST PUSH0 PUSH1 0x20 DUP3 ADD SWAP1 POP PUSH2 0x317 PUSH0 DUP4 ADD DUP5 PUSH2 0x2F5 JUMP JUMPDEST SWAP3 SWAP2 POP POP JUMP JUMPDEST PUSH2 0xEA9 DUP1 PUSH2 0x32A PUSH0 CODECOPY PUSH0 RETURN INVALID PUSH1 0x80 PUSH1 0x40 MSTORE CALLVALUE DUP1 ISZERO PUSH2 0xF JUMPI PUSH0 PUSH0 REVERT JUMPDEST POP PUSH1 0x4 CALLDATASIZE LT PUSH2 0xA7 JUMPI PUSH0 CALLDATALOAD PUSH1 0xE0 SHR DUP1 PUSH4 0xA9059CBB GT PUSH2 0x6F JUMPI DUP1 PUSH4 0xA9059CBB EQ PUSH2 0x13D JUMPI DUP1 PUSH4 0xB414D4B6 EQ PUSH2 0x159 JUMPI DUP1 PUSH4 0xC1DBD9B2 EQ PUSH2 0x189 JUMPI DUP1 PUSH4 0xDD62ED3E EQ PUSH2 0x1B9 JUMPI DUP1 PUSH4 0xE724529C EQ PUSH2 0x1E9 JUMPI DUP1 PUSH4 0xFABDE80C EQ PUSH2 0x205 JUMPI PUSH2 0xA7 JUMP JUMPDEST DUP1 PUSH4 0x23B872DD EQ PUSH2 0xAB JUMPI DUP1 PUSH4 0x40C10F19 EQ PUSH2 0xDB JUMPI DUP1 PUSH4 0x86D1A69F EQ PUSH2 0xF7 JUMPI DUP1 PUSH4 0x8DA5CB5B EQ PUSH2 0x101 JUMPI DUP1 PUSH4 0x96132521 EQ PUSH2 0x11F JUMPI JUMPDEST PUSH0 PUSH0 REVERT JUMPDEST PUSH2 0xC5 PUSH1 0x4 DUP1 CALLDATASIZE SUB DUP2 ADD SWAP1 PUSH2 0xC0 SWAP2 SWAP1 PUSH2 0xBD7 JUMP JUMPDEST PUSH2 0x235 JUMP JUMPDEST PUSH1 0x40 MLOAD PUSH2 0xD2 SWAP2 SWAP1 PUSH2 0xC41 JUMP JUMPDEST PUSH1 0x40 MLOAD DUP1 SWAP2 SUB SWAP1 RETURN JUMPDEST PUSH2 0xF5 PUSH1 0x4 DUP1 CALLDATASIZE SUB DUP2 ADD SWAP1 PUSH2 0xF0 SWAP2 SWAP1 PUSH2 0xC5A JUMP JUMPDEST PUSH2 0x261 JUMP JUMPDEST STOP JUMPDEST PUSH2 0xFF PUSH2 0x394 JUMP JUMPDEST STOP JUMPDEST PUSH2 0x109 PUSH2 0x407 JUMP JUMPDEST PUSH1 0x40 MLOAD PUSH2 0x116 SWAP2 SWAP1 PUSH2 0xCA7 JUMP JUMPDEST PUSH1 0x40 MLOAD DUP1 SWAP2 SUB SWAP1 RETURN JUMPDEST PUSH2 0x127 PUSH2 0x42B JUMP JUMPDEST PUSH1 0x40 MLOAD PUSH2 0x134 SWAP2 SWAP1 PUSH2 0xC41 JUMP JUMPDEST PUSH1 0x40 MLOAD DUP1 SWAP2 SUB SWAP1 RETURN JUMPDEST PUSH2 0x157 PUSH1 0x4 DUP1 CALLDATASIZE SUB DUP2 ADD SWAP1 PUSH2 0x152 SWAP2 SWAP1 PUSH2 0xC5A JUMP JUMPDEST PUSH2 0x43D JUMP JUMPDEST STOP JUMPDEST PUSH2 0x173 PUSH1 0x4 DUP1 CALLDATASIZE SUB DUP2 ADD SWAP1 PUSH2 0x16E SWAP2 SWAP1 PUSH2 0xCC0 JUMP JUMPDEST PUSH2 0x462 JUMP JUMPDEST PUSH1 0x40 MLOAD PUSH2 0x180 SWAP2 SWAP1 PUSH2 0xC41 JUMP JUMPDEST PUSH1 0x40 MLOAD DUP1 SWAP2 SUB SWAP1 RETURN JUMPDEST PUSH2 0x1A3 PUSH1 0x4 DUP1 CALLDATASIZE SUB DUP2 ADD SWAP1 PUSH2 0x19E SWAP2 SWAP1 PUSH2 0xC5A JUMP JUMPDEST PUSH2 0x47F JUMP JUMPDEST PUSH1 0x40 MLOAD PUSH2 0x1B0 SWAP2 SWAP1 PUSH2 0xC41 JUMP JUMPDEST PUSH1 0x40 MLOAD DUP1 SWAP2 SUB SWAP1 RETURN JUMPDEST PUSH2 0x1D3 PUSH1 0x4 DUP1 CALLDATASIZE SUB DUP2 ADD SWAP1 PUSH2 0x1CE SWAP2 SWAP1 PUSH2 0xCEB JUMP JUMPDEST PUSH2 0x507 JUMP JUMPDEST PUSH1 0x40 MLOAD PUSH2 0x1E0 SWAP2 SWAP1 PUSH2 0xD38 JUMP JUMPDEST PUSH1 0x40 MLOAD DUP1 SWAP2 SUB SWAP1 RETURN JUMPDEST PUSH2 0x203 PUSH1 0x4 DUP1 CALLDATASIZE SUB DUP2 ADD SWAP1 PUSH2 0x1FE SWAP2 SWAP1 PUSH2 0xD7B JUMP JUMPDEST PUSH2 0x527 JUMP JUMPDEST STOP JUMPDEST PUSH2 0x21F PUSH1 0x4 DUP1 CALLDATASIZE SUB DUP2 ADD SWAP1 PUSH2 0x21A SWAP2 SWAP1 PUSH2 0xCC0 JUMP JUMPDEST PUSH2 0x60F JUMP JUMPDEST PUSH1 0x40 MLOAD PUSH2 0x22C SWAP2 SWAP1 PUSH2 0xD38 JUMP JUMPDEST PUSH1 0x40 MLOAD DUP1 SWAP2 SUB SWAP1 RETURN JUMPDEST PUSH0 PUSH1 0x4 PUSH0 SWAP1 SLOAD SWAP1 PUSH2 0x100 EXP SWAP1 DIV PUSH1 0xFF AND PUSH2 0x24D JUMPI PUSH0 PUSH0 REVERT JUMPDEST PUSH2 0x258 DUP5 DUP5 DUP5 PUSH2 0x624 JUMP JUMPDEST SWAP1 POP SWAP4 SWAP3 POP POP POP JUMP JUMPDEST PUSH0 PUSH0 SWAP1 SLOAD SWAP1 PUSH2 0x100 EXP SWAP1 DIV PUSH20 0xFFFFFFFFFFFFFFFFFFFFFFFFFFFFFFFFFFFFFFFF AND PUSH20 0xFFFFFFFFFFFFFFFFFFFFFFFFFFFFFFFFFFFFFFFF AND CALLER PUSH20 0xFFFFFFFFFFFFFFFFFFFFFFFFFFFFFFFFFFFFFFFF AND EQ PUSH2 0x2B8 JUMPI PUSH0 PUSH0 REVERT JUMPDEST DUP1 PUSH1 0x1 PUSH0 DUP5 PUSH20 0xFFFFFFFFFFFFFFFFFFFFFFFFFFFFFFFFFFFFFFFF AND PUSH20 0xFFFFFFFFFFFFFFFFFFFFFFFFFFFFFFFFFFFFFFFF AND DUP2 MSTORE PUSH1 0x20 ADD SWAP1 DUP2 MSTORE PUSH1 0x20 ADD PUSH0 KECCAK256 PUSH0 DUP3 DUP3 SLOAD PUSH2 0x304 SWAP2 SWAP1 PUSH2 0xDE6 JUMP JUMPDEST SWAP3 POP POP DUP2 SWAP1 SSTORE POP DUP2 PUSH20 0xFFFFFFFFFFFFFFFFFFFFFFFFFFFFFFFFFFFFFFFF AND PUSH0 PUSH0 SWAP1 SLOAD SWAP1 PUSH2 0x100 EXP SWAP1 DIV PUSH20 0xFFFFFFFFFFFFFFFFFFFFFFFFFFFFFFFFFFFFFFFF AND PUSH20 0xFFFFFFFFFFFFFFFFFFFFFFFFFFFFFFFFFFFFFFFF AND PUSH32 0xDDF252AD1BE2C89B69C2B068FC378DAA952BA7F163C4A11628F55A4DF523B3EF DUP4 PUSH1 0x40 MLOAD PUSH2 0x388 SWAP2 SWAP1 PUSH2 0xD38 JUMP JUMPDEST PUSH1 0x40 MLOAD DUP1 SWAP2 SUB SWAP1 LOG3 POP POP JUMP JUMPDEST PUSH0 PUSH0 SWAP1 SLOAD SWAP1 PUSH2 0x100 EXP SWAP1 DIV PUSH20 0xFFFFFFFFFFFFFFFFFFFFFFFFFFFFFFFFFFFFFFFF AND PUSH20 0xFFFFFFFFFFFFFFFFFFFFFFFFFFFFFFFFFFFFFFFF AND CALLER PUSH20 0xFFFFFFFFFFFFFFFFFFFFFFFFFFFFFFFFFFFFFFFF AND EQ PUSH2 0x3EB JUMPI PUSH0 PUSH0 REVERT JUMPDEST PUSH1 0x1 PUSH1 0x4 PUSH0 PUSH2 0x100 EXP DUP2 SLOAD DUP2 PUSH1 0xFF MUL NOT AND SWAP1 DUP4 ISZERO ISZERO MUL OR SWAP1 SSTORE POP JUMP JUMPDEST PUSH0 PUSH0 SWAP1 SLOAD SWAP1 PUSH2 0x100 EXP SWAP1 DIV PUSH20 0xFFFFFFFFFFFFFFFFFFFFFFFFFFFFFFFFFFFFFFFF AND DUP2 JUMP JUMPDEST PUSH1 0x4 PUSH0 SWAP1 SLOAD SWAP1 PUSH2 0x100 EXP SWAP1 DIV PUSH1 0xFF AND DUP2 JUMP JUMPDEST PUSH1 0x4 PUSH0 SWAP1 SLOAD SWAP1 PUSH2 0x100 EXP SWAP1 DIV PUSH1 0xFF AND PUSH2 0x454 JUMPI PUSH0 PUSH0 REVERT JUMPDEST PUSH2 0x45E DUP3 DUP3 PUSH2 0x95D JUMP JUMPDEST POP POP JUMP JUMPDEST PUSH1 0x3 PUSH1 0x20 MSTORE DUP1 PUSH0 MSTORE PUSH1 0x40 PUSH0 KECCAK256 PUSH0 SWAP2 POP SLOAD SWAP1 PUSH2 0x100 EXP SWAP1 DIV PUSH1 0xFF AND DUP2 JUMP JUMPDEST PUSH0 DUP2 PUSH1 0x2 PUSH0 CALLER PUSH20 0xFFFFFFFFFFFFFFFFFFFFFFFFFFFFFFFFFFFFFFFF AND PUSH20 0xFFFFFFFFFFFFFFFFFFFFFFFFFFFFFFFFFFFFFFFF AND DUP2 MSTORE PUSH1 0x20 ADD SWAP1 DUP2 MSTORE PUSH1 0x20 ADD PUSH0 KECCAK256 PUSH0 DUP6 PUSH20 0xFFFFFFFFFFFFFFFFFFFFFFFFFFFFFFFFFFFFFFFF AND PUSH20 0xFFFFFFFFFFFFFFFFFFFFFFFFFFFFFFFFFFFFFFFF AND DUP2 MSTORE PUSH1 0x20 ADD SWAP1 DUP2 MSTORE PUSH1 0x20 ADD PUSH0 KECCAK256 DUP2 SWAP1 SSTORE POP PUSH1 0x1 SWAP1 POP SWAP3 SWAP2 POP POP JUMP JUMPDEST PUSH1 0x2 PUSH1 0x20 MSTORE DUP2 PUSH0 MSTORE PUSH1 0x40 PUSH0 KECCAK256 PUSH1 0x20 MSTORE DUP1 PUSH0 MSTORE PUSH1 0x40 PUSH0 KECCAK256 PUSH0 SWAP2 POP SWAP2 POP POP SLOAD DUP2 JUMP JUMPDEST PUSH0 PUSH0 SWAP1 SLOAD SWAP1 PUSH2 0x100 EXP SWAP1 DIV PUSH20 0xFFFFFFFFFFFFFFFFFFFFFFFFFFFFFFFFFFFFFFFF AND PUSH20 0xFFFFFFFFFFFFFFFFFFFFFFFFFFFFFFFFFFFFFFFF AND CALLER PUSH20 0xFFFFFFFFFFFFFFFFFFFFFFFFFFFFFFFFFFFFFFFF AND EQ PUSH2 0x57E JUMPI PUSH0 PUSH0 REVERT JUMPDEST DUP1 PUSH1 0x3 PUSH0 DUP5 PUSH20 0xFFFFFFFFFFFFFFFFFFFFFFFFFFFFFFFFFFFFFFFF AND PUSH20 0xFFFFFFFFFFFFFFFFFFFFFFFFFFFFFFFFFFFFFFFF AND DUP2 MSTORE PUSH1 0x20 ADD SWAP1 DUP2 MSTORE PUSH1 0x20 ADD PUSH0 KECCAK256 PUSH0 PUSH2 0x100 EXP DUP2 SLOAD DUP2 PUSH1 0xFF MUL NOT AND SWAP1 DUP4 ISZERO ISZERO MUL OR SWAP1 SSTORE POP PUSH32 0x67A17B8DB8FF8FA7CFF69C2328BF8A35F9BE2C88ABEEA30BE900FC28EECE28ED DUP3 DUP3 PUSH1 0x40 MLOAD PUSH2 0x603 SWAP3 SWAP2 SWAP1 PUSH2 0xE19 JUMP JUMPDEST PUSH1 0x40 MLOAD DUP1 SWAP2 SUB SWAP1 LOG1 POP POP JUMP JUMPDEST PUSH1 0x1 PUSH1 0x20 MSTORE DUP1 PUSH0 MSTORE PUSH1 0x40 PUSH0 KECCAK256 PUSH0 SWAP2 POP SWAP1 POP SLOAD DUP2 JUMP JUMPDEST PUSH0 PUSH0 PUSH20 0xFFFFFFFFFFFFFFFFFFFFFFFFFFFFFFFFFFFFFFFF AND DUP4 PUSH20 0xFFFFFFFFFFFFFFFFFFFFFFFFFFFFFFFFFFFFFFFF AND SUB PUSH2 0x65C JUMPI PUSH0 PUSH0 REVERT JUMPDEST DUP2 PUSH1 0x1 PUSH0 DUP7 PUSH20 0xFFFFFFFFFFFFFFFFFFFFFFFFFFFFFFFFFFFFFFFF AND PUSH20 0xFFFFFFFFFFFFFFFFFFFFFFFFFFFFFFFFFFFFFFFF AND DUP2 MSTORE PUSH1 0x20 ADD SWAP1 DUP2 MSTORE PUSH1 0x20 ADD PUSH0 KECCAK256 SLOAD GT PUSH2 0x6A4 JUMPI PUSH0 PUSH0 REVERT JUMPDEST PUSH1 0x1 PUSH0 DUP5 PUSH20 0xFFFFFFFFFFFFFFFFFFFFFFFFFFFFFFFFFFFFFFFF AND PUSH20 0xFFFFFFFFFFFFFFFFFFFFFFFFFFFFFFFFFFFFFFFF AND DUP2 MSTORE PUSH1 0x20 ADD SWAP1 DUP2 MSTORE PUSH1 0x20 ADD PUSH0 KECCAK256 SLOAD DUP3 PUSH1 0x1 PUSH0 DUP7 PUSH20 0xFFFFFFFFFFFFFFFFFFFFFFFFFFFFFFFFFFFFFFFF AND PUSH20 0xFFFFFFFFFFFFFFFFFFFFFFFFFFFFFFFFFFFFFFFF AND DUP2 MSTORE PUSH1 0x20 ADD SWAP1 DUP2 MSTORE PUSH1 0x20 ADD PUSH0 KECCAK256 SLOAD PUSH2 0x72B SWAP2 SWAP1 PUSH2 0xDE6 JUMP JUMPDEST LT ISZERO PUSH2 0x735 JUMPI PUSH0 PUSH0 REVERT JUMPDEST PUSH1 0x2 PUSH0 DUP6 PUSH20 0xFFFFFFFFFFFFFFFFFFFFFFFFFFFFFFFFFFFFFFFF AND PUSH20 0xFFFFFFFFFFFFFFFFFFFFFFFFFFFFFFFFFFFFFFFF AND DUP2 MSTORE PUSH1 0x20 ADD SWAP1 DUP2 MSTORE PUSH1 0x20 ADD PUSH0 KECCAK256 PUSH0 CALLER PUSH20 0xFFFFFFFFFFFFFFFFFFFFFFFFFFFFFFFFFFFFFFFF AND PUSH20 0xFFFFFFFFFFFFFFFFFFFFFFFFFFFFFFFFFFFFFFFF AND DUP2 MSTORE PUSH1 0x20 ADD SWAP1 DUP2 MSTORE PUSH1 0x20 ADD PUSH0 KECCAK256 SLOAD DUP3 GT ISZERO PUSH2 0x7B9 JUMPI PUSH0 PUSH0 REVERT JUMPDEST DUP2 PUSH1 0x1 PUSH0 DUP7 PUSH20 0xFFFFFFFFFFFFFFFFFFFFFFFFFFFFFFFFFFFFFFFF AND PUSH20 0xFFFFFFFFFFFFFFFFFFFFFFFFFFFFFFFFFFFFFFFF AND DUP2 MSTORE PUSH1 0x20 ADD SWAP1 DUP2 MSTORE PUSH1 0x20 ADD PUSH0 KECCAK256 PUSH0 DUP3 DUP3 SLOAD PUSH2 0x805 SWAP2 SWAP1 PUSH2 0xE40 JUMP JUMPDEST SWAP3 POP POP DUP2 SWAP1 SSTORE POP DUP2 PUSH1 0x1 PUSH0 DUP6 PUSH20 0xFFFFFFFFFFFFFFFFFFFFFFFFFFFFFFFFFFFFFFFF AND PUSH20 0xFFFFFFFFFFFFFFFFFFFFFFFFFFFFFFFFFFFFFFFF AND DUP2 MSTORE PUSH1 0x20 ADD SWAP1 DUP2 MSTORE PUSH1 0x20 ADD PUSH0 KECCAK256 PUSH0 DUP3 DUP3 SLOAD PUSH2 0x858 SWAP2 SWAP1 PUSH2 0xDE6 JUMP JUMPDEST SWAP3 POP POP DUP2 SWAP1 SSTORE POP DUP2 PUSH1 0x2 PUSH0 DUP7 PUSH20 0xFFFFFFFFFFFFFFFFFFFFFFFFFFFFFFFFFFFFFFFF AND PUSH20 0xFFFFFFFFFFFFFFFFFFFFFFFFFFFFFFFFFFFFFFFF AND DUP2 MSTORE PUSH1 0x20 ADD SWAP1 DUP2 MSTORE PUSH1 0x20 ADD PUSH0 KECCAK256 PUSH0 CALLER PUSH20 0xFFFFFFFFFFFFFFFFFFFFFFFFFFFFFFFFFFFFFFFF AND PUSH20 0xFFFFFFFFFFFFFFFFFFFFFFFFFFFFFFFFFFFFFFFF AND DUP2 MSTORE PUSH1 0x20 ADD SWAP1 DUP2 MSTORE PUSH1 0x20 ADD PUSH0 KECCAK256 PUSH0 DUP3 DUP3 SLOAD PUSH2 0x8E6 SWAP2 SWAP1 PUSH2 0xE40 JUMP JUMPDEST SWAP3 POP POP DUP2 SWAP1 SSTORE POP DUP3 PUSH20 0xFFFFFFFFFFFFFFFFFFFFFFFFFFFFFFFFFFFFFFFF AND DUP5 PUSH20 0xFFFFFFFFFFFFFFFFFFFFFFFFFFFFFFFFFFFFFFFF AND PUSH32 0xDDF252AD1BE2C89B69C2B068FC378DAA952BA7F163C4A11628F55A4DF523B3EF DUP5 PUSH1 0x40 MLOAD PUSH2 0x94A SWAP2 SWAP1 PUSH2 0xD38 JUMP JUMPDEST PUSH1 0x40 MLOAD DUP1 SWAP2 SUB SWAP1 LOG3 PUSH1 0x1 SWAP1 POP SWAP4 SWAP3 POP POP POP JUMP JUMPDEST DUP1 PUSH1 0x1 PUSH0 CALLER PUSH20 0xFFFFFFFFFFFFFFFFFFFFFFFFFFFFFFFFFFFFFFFF AND PUSH20 0xFFFFFFFFFFFFFFFFFFFFFFFFFFFFFFFFFFFFFFFF AND DUP2 MSTORE PUSH1 0x20 ADD SWAP1 DUP2 MSTORE PUSH1 0x20 ADD PUSH0 KECCAK256 SLOAD LT ISZERO PUSH2 0x9A6 JUMPI PUSH0 PUSH0 REVERT JUMPDEST PUSH1 0x1 PUSH0 DUP4 PUSH20 0xFFFFFFFFFFFFFFFFFFFFFFFFFFFFFFFFFFFFFFFF AND PUSH20 0xFFFFFFFFFFFFFFFFFFFFFFFFFFFFFFFFFFFFFFFF AND DUP2 MSTORE PUSH1 0x20 ADD SWAP1 DUP2 MSTORE PUSH1 0x20 ADD PUSH0 KECCAK256 SLOAD DUP2 PUSH1 0x1 PUSH0 DUP6 PUSH20 0xFFFFFFFFFFFFFFFFFFFFFFFFFFFFFFFFFFFFFFFF AND PUSH20 0xFFFFFFFFFFFFFFFFFFFFFFFFFFFFFFFFFFFFFFFF AND DUP2 MSTORE PUSH1 0x20 ADD SWAP1 DUP2 MSTORE PUSH1 0x20 ADD PUSH0 KECCAK256 SLOAD PUSH2 0xA2D SWAP2 SWAP1 PUSH2 0xDE6 JUMP JUMPDEST LT ISZERO PUSH2 0xA37 JUMPI PUSH0 PUSH0 REVERT JUMPDEST DUP1 PUSH1 0x1 PUSH0 CALLER PUSH20 0xFFFFFFFFFFFFFFFFFFFFFFFFFFFFFFFFFFFFFFFF AND PUSH20 0xFFFFFFFFFFFFFFFFFFFFFFFFFFFFFFFFFFFFFFFF AND DUP2 MSTORE PUSH1 0x20 ADD SWAP1 DUP2 MSTORE PUSH1 0x20 ADD PUSH0 KECCAK256 PUSH0 DUP3 DUP3 SLOAD PUSH2 0xA83 SWAP2 SWAP1 PUSH2 0xE40 JUMP JUMPDEST SWAP3 POP POP DUP2 SWAP1 SSTORE POP DUP1 PUSH1 0x1 PUSH0 DUP5 PUSH20 0xFFFFFFFFFFFFFFFFFFFFFFFFFFFFFFFFFFFFFFFF AND PUSH20 0xFFFFFFFFFFFFFFFFFFFFFFFFFFFFFFFFFFFFFFFF AND DUP2 MSTORE PUSH1 0x20 ADD SWAP1 DUP2 MSTORE PUSH1 0x20 ADD PUSH0 KECCAK256 PUSH0 DUP3 DUP3 SLOAD PUSH2 0xAD6 SWAP2 SWAP1 PUSH2 0xDE6 JUMP JUMPDEST SWAP3 POP POP DUP2 SWAP1 SSTORE POP DUP2 PUSH20 0xFFFFFFFFFFFFFFFFFFFFFFFFFFFFFFFFFFFFFFFF AND CALLER PUSH20 0xFFFFFFFFFFFFFFFFFFFFFFFFFFFFFFFFFFFFFFFF AND PUSH32 0xDDF252AD1BE2C89B69C2B068FC378DAA952BA7F163C4A11628F55A4DF523B3EF DUP4 PUSH1 0x40 MLOAD PUSH2 0xB3A SWAP2 SWAP1 PUSH2 0xD38 JUMP JUMPDEST PUSH1 0x40 MLOAD DUP1 SWAP2 SUB SWAP1 LOG3 POP POP JUMP JUMPDEST PUSH0 PUSH0 REVERT JUMPDEST PUSH0 PUSH20 0xFFFFFFFFFFFFFFFFFFFFFFFFFFFFFFFFFFFFFFFF DUP3 AND SWAP1 POP SWAP2 SWAP1 POP JUMP JUMPDEST PUSH0 PUSH2 0xB73 DUP3 PUSH2 0xB4A JUMP JUMPDEST SWAP1 POP SWAP2 SWAP1 POP JUMP JUMPDEST PUSH2 0xB83 DUP2 PUSH2 0xB69 JUMP JUMPDEST DUP2 EQ PUSH2 0xB8D JUMPI PUSH0 PUSH0 REVERT JUMPDEST POP JUMP JUMPDEST PUSH0 DUP2 CALLDATALOAD SWAP1 POP PUSH2 0xB9E DUP2 PUSH2 0xB7A JUMP JUMPDEST SWAP3 SWAP2 POP POP JUMP JUMPDEST PUSH0 DUP2 SWAP1 POP SWAP2 SWAP1 POP JUMP JUMPDEST PUSH2 0xBB6 DUP2 PUSH2 0xBA4 JUMP JUMPDEST DUP2 EQ PUSH2 0xBC0 JUMPI PUSH0 PUSH0 REVERT JUMPDEST POP JUMP JUMPDEST PUSH0 DUP2 CALLDATALOAD SWAP1 POP PUSH2 0xBD1 DUP2 PUSH2 0xBAD JUMP JUMPDEST SWAP3 SWAP2 POP POP JUMP JUMPDEST PUSH0 PUSH0 PUSH0 PUSH1 0x60 DUP5 DUP7 SUB SLT ISZERO PUSH2 0xBEE JUMPI PUSH2 0xBED PUSH2 0xB46 JUMP JUMPDEST JUMPDEST PUSH0 PUSH2 0xBFB DUP7 DUP3 DUP8 ADD PUSH2 0xB90 JUMP JUMPDEST SWAP4 POP POP PUSH1 0x20 PUSH2 0xC0C DUP7 DUP3 DUP8 ADD PUSH2 0xB90 JUMP JUMPDEST SWAP3 POP POP PUSH1 0x40 PUSH2 0xC1D DUP7 DUP3 DUP8 ADD PUSH2 0xBC3 JUMP JUMPDEST SWAP2 POP POP SWAP3 POP SWAP3 POP SWAP3 JUMP JUMPDEST PUSH0 DUP2 ISZERO ISZERO SWAP1 POP SWAP2 SWAP1 POP JUMP JUMPDEST PUSH2 0xC3B DUP2 PUSH2 0xC27 JUMP JUMPDEST DUP3 MSTORE POP POP JUMP JUMPDEST PUSH0 PUSH1 0x20 DUP3 ADD SWAP1 POP PUSH2 0xC54 PUSH0 DUP4 ADD DUP5 PUSH2 0xC32 JUMP JUMPDEST SWAP3 SWAP2 POP POP JUMP JUMPDEST PUSH0 PUSH0 PUSH1 0x40 DUP4 DUP6 SUB SLT ISZERO PUSH2 0xC70 JUMPI PUSH2 0xC6F PUSH2 0xB46 JUMP JUMPDEST JUMPDEST PUSH0 PUSH2 0xC7D DUP6 DUP3 DUP7 ADD PUSH2 0xB90 JUMP JUMPDEST SWAP3 POP POP PUSH1 0x20 PUSH2 0xC8E DUP6 DUP3 DUP7 ADD PUSH2 0xBC3 JUMP JUMPDEST SWAP2 POP POP SWAP3 POP SWAP3 SWAP1 POP JUMP JUMPDEST PUSH2 0xCA1 DUP2 PUSH2 0xB69 JUMP JUMPDEST DUP3 MSTORE POP POP JUMP JUMPDEST PUSH0 PUSH1 0x20 DUP3 ADD SWAP1 POP PUSH2 0xCBA PUSH0 DUP4 ADD DUP5 PUSH2 0xC98 JUMP JUMPDEST SWAP3 SWAP2 POP POP JUMP JUMPDEST PUSH0 PUSH1 0x20 DUP3 DUP5 SUB SLT ISZERO PUSH2 0xCD5 JUMPI PUSH2 0xCD4 PUSH2 0xB46 JUMP JUMPDEST JUMPDEST PUSH0 PUSH2 0xCE2 DUP5 DUP3 DUP6 ADD PUSH2 0xB90 JUMP JUMPDEST SWAP2 POP POP SWAP3 SWAP2 POP POP JUMP JUMPDEST PUSH0 PUSH0 PUSH1 0x40 DUP4 DUP6 SUB SLT ISZERO PUSH2 0xD01 JUMPI PUSH2 0xD00 PUSH2 0xB46 JUMP JUMPDEST JUMPDEST PUSH0 PUSH2 0xD0E DUP6 DUP3 DUP7 ADD PUSH2 0xB90 JUMP JUMPDEST SWAP3 POP POP PUSH1 0x20 PUSH2 0xD1F DUP6 DUP3 DUP7 ADD PUSH2 0xB90 JUMP JUMPDEST SWAP2 POP POP SWAP3 POP SWAP3 SWAP1 POP JUMP JUMPDEST PUSH2 0xD32 DUP2 PUSH2 0xBA4 JUMP JUMPDEST DUP3 MSTORE POP POP JUMP JUMPDEST PUSH0 PUSH1 0x20 DUP3 ADD SWAP1 POP PUSH2 0xD4B PUSH0 DUP4 ADD DUP5 PUSH2 0xD29 JUMP JUMPDEST SWAP3 SWAP2 POP POP JUMP JUMPDEST PUSH2 0xD5A DUP2 PUSH2 0xC27 JUMP JUMPDEST DUP2 EQ PUSH2 0xD64 JUMPI PUSH0 PUSH0 REVERT JUMPDEST POP JUMP JUMPDEST PUSH0 DUP2 CALLDATALOAD SWAP1 POP PUSH2 0xD75 DUP2 PUSH2 0xD51 JUMP JUMPDEST SWAP3 SWAP2 POP POP JUMP JUMPDEST PUSH0 PUSH0 PUSH1 0x40 DUP4 DUP6 SUB SLT ISZERO PUSH2 0xD91 JUMPI PUSH2 0xD90 PUSH2 0xB46 JUMP JUMPDEST JUMPDEST PUSH0 PUSH2 0xD9E DUP6 DUP3 DUP7 ADD PUSH2 0xB90 JUMP JUMPDEST SWAP3 POP POP PUSH1 0x20 PUSH2 0xDAF DUP6 DUP3 DUP7 ADD PUSH2 0xD67 JUMP JUMPDEST SWAP2 POP POP SWAP3 POP SWAP3 SWAP1 POP JUMP JUMPDEST PUSH32 0x4E487B7100000000000000000000000000000000000000000000000000000000 PUSH0 MSTORE PUSH1 0x11 PUSH1 0x4 MSTORE PUSH1 0x24 PUSH0 REVERT JUMPDEST PUSH0 PUSH2 0xDF0 DUP3 PUSH2 0xBA4 JUMP JUMPDEST SWAP2 POP PUSH2 0xDFB DUP4 PUSH2 0xBA4 JUMP JUMPDEST SWAP3 POP DUP3 DUP3 ADD SWAP1 POP DUP1 DUP3 GT ISZERO PUSH2 0xE13 JUMPI PUSH2 0xE12 PUSH2 0xDB9 JUMP JUMPDEST JUMPDEST SWAP3 SWAP2 POP POP JUMP JUMPDEST PUSH0 PUSH1 0x40 DUP3 ADD SWAP1 POP PUSH2 0xE2C PUSH0 DUP4 ADD DUP6 PUSH2 0xC98 JUMP JUMPDEST PUSH2 0xE39 PUSH1 0x20 DUP4 ADD DUP5 PUSH2 0xC32 JUMP JUMPDEST SWAP4 SWAP3 POP POP POP JUMP JUMPDEST PUSH0 PUSH2 0xE4A DUP3 PUSH2 0xBA4 JUMP JUMPDEST SWAP2 POP PUSH2 0xE55 DUP4 PUSH2 0xBA4 JUMP JUMPDEST SWAP3 POP DUP3 DUP3 SUB SWAP1 POP DUP2 DUP2 GT ISZERO PUSH2 0xE6D JUMPI PUSH2 0xE6C PUSH2 0xDB9 JUMP JUMPDEST JUMPDEST SWAP3 SWAP2 POP POP JUMP INVALID LOG2 PUSH5 0x6970667358 0x22 SLT KECCAK256 0xE PUSH22 0x7897BD76FA0BC454B58D2F808C128917D72D3C1CEF8E 0xFC DATALOADN 0xDD49 MOD 0xBA SWAP5 SELFDESTRUCT PUSH5 0x736F6C6343 STOP ADDMOD 0x1E STOP CALLER "
				},
				"gasEstimates": {
					"creation": {
						"codeDepositCost": "535400",
						"executionCost": "infinite",
						"totalCost": "infinite"
					},
					"external": {
						"crowdsaleToken()": "infinite",
						"endTime()": "2471",
						"finalize()": "infinite",
						"inventmentAmountOf(address)": "2868",
						"invest()": "infinite",
						"investmentReceived()": "2449",
						"investmentRefunded()": "2493",
						"isFinalized()": "2555",
						"isRefundingAllowed()": "2584",
						"owner()": "2530",
						"refund()": "infinite",
						"startTime()": "2492",
						"weiInvestmentObjective()": "2470",
						"weiTokenPrice()": "2469"
					},
					"internal": {
						"assignTokens(address,uint256)": "infinite",
						"calculateNumberOfTokens(uint256)": "infinite",
						"isValidInvestment(uint256)": "84"
					}
				},
				"methodIdentifiers": {
					"crowdsaleToken()": "fa65dfac",
					"endTime()": "3197cbb6",
					"finalize()": "4bb278f3",
					"inventmentAmountOf(address)": "eff1a844",
					"invest()": "e8b5e51f",
					"investmentReceived()": "1c0a5c10",
					"investmentRefunded()": "38ef9380",
					"isFinalized()": "8d4e4083",
					"isRefundingAllowed()": "cb6f16d4",
					"owner()": "8da5cb5b",
					"refund()": "590e1ae3",
					"startTime()": "78e97925",
					"weiInvestmentObjective()": "bab34f43",
					"weiTokenPrice()": "ee56cf41"
				}
			},
			"storageLayout": {
				"storage": [
					{
						"astId": 3,
						"contract": "contracts/SimpleCrowdSale.sol:SimpleCrowdSale",
						"label": "owner",
						"offset": 0,
						"slot": "0",
						"type": "t_address"
					},
					{
						"astId": 354,
						"contract": "contracts/SimpleCrowdSale.sol:SimpleCrowdSale",
						"label": "startTime",
						"offset": 0,
						"slot": "1",
						"type": "t_uint256"
					},
					{
						"astId": 356,
						"contract": "contracts/SimpleCrowdSale.sol:SimpleCrowdSale",
						"label": "endTime",
						"offset": 0,
						"slot": "2",
						"type": "t_uint256"
					},
					{
						"astId": 358,
						"contract": "contracts/SimpleCrowdSale.sol:SimpleCrowdSale",
						"label": "weiTokenPrice",
						"offset": 0,
						"slot": "3",
						"type": "t_uint256"
					},
					{
						"astId": 360,
						"contract": "contracts/SimpleCrowdSale.sol:SimpleCrowdSale",
						"label": "weiInvestmentObjective",
						"offset": 0,
						"slot": "4",
						"type": "t_uint256"
					},
					{
						"astId": 364,
						"contract": "contracts/SimpleCrowdSale.sol:SimpleCrowdSale",
						"label": "inventmentAmountOf",
						"offset": 0,
						"slot": "5",
						"type": "t_mapping(t_address,t_uint256)"
					},
					{
						"astId": 366,
						"contract": "contracts/SimpleCrowdSale.sol:SimpleCrowdSale",
						"label": "investmentReceived",
						"offset": 0,
						"slot": "6",
						"type": "t_uint256"
					},
					{
						"astId": 368,
						"contract": "contracts/SimpleCrowdSale.sol:SimpleCrowdSale",
						"label": "investmentRefunded",
						"offset": 0,
						"slot": "7",
						"type": "t_uint256"
					},
					{
						"astId": 370,
						"contract": "contracts/SimpleCrowdSale.sol:SimpleCrowdSale",
						"label": "isFinalized",
						"offset": 0,
						"slot": "8",
						"type": "t_bool"
					},
					{
						"astId": 372,
						"contract": "contracts/SimpleCrowdSale.sol:SimpleCrowdSale",
						"label": "isRefundingAllowed",
						"offset": 1,
						"slot": "8",
						"type": "t_bool"
					},
					{
						"astId": 375,
						"contract": "contracts/SimpleCrowdSale.sol:SimpleCrowdSale",
						"label": "crowdsaleToken",
						"offset": 2,
						"slot": "8",
						"type": "t_contract(ReleasableSimpleCoin)102"
					}
				],
				"types": {
					"t_address": {
						"encoding": "inplace",
						"label": "address",
						"numberOfBytes": "20"
					},
					"t_bool": {
						"encoding": "inplace",
						"label": "bool",
						"numberOfBytes": "1"
					},
					"t_contract(ReleasableSimpleCoin)102": {
						"encoding": "inplace",
						"label": "contract ReleasableSimpleCoin",
						"numberOfBytes": "20"
					},
					"t_mapping(t_address,t_uint256)": {
						"encoding": "mapping",
						"key": "t_address",
						"label": "mapping(address => uint256)",
						"numberOfBytes": "32",
						"value": "t_uint256"
					},
					"t_uint256": {
						"encoding": "inplace",
						"label": "uint256",
						"numberOfBytes": "32"
					}
				}
			},
			"userdoc": {
				"kind": "user",
				"methods": {},
				"version": 1
			}
		}
	}
}