{
	"data": {
		"bytecode": {
			"linkReferences": {},
			"object": "60806040525f5f60146101000a81548160ff021916908315150217905550604051612a47380380612a47833981810160405281019061003e91906102ad565b8383838383838383335f5f6101000a81548173ffffffffffffffffffffffffffffffffffffffff021916908373ffffffffffffffffffffffffffffffffffffffff16021790555042841015610091575f5ffd5b8383101561009d575f5ffd5b5f82036100a8575f5ffd5b5f81036100b3575f5ffd5b836001819055508260028190555081600381905550670de0b6b3a7640000816100dc919061033e565b6004819055505f6040516100ef9061025c565b6100f991906103c1565b604051809103905ff080158015610112573d5f5f3e3d5ffd5b50600860026101000a81548173ffffffffffffffffffffffffffffffffffffffff021916908373ffffffffffffffffffffffffffffffffffffffff1602179055505f60085f6101000a81548160ff0219169083151502179055505f600860016101000a81548160ff021916908315150217905550335f5f6101000a81548173ffffffffffffffffffffffffffffffffffffffff021916908373ffffffffffffffffffffffffffffffffffffffff1602179055506101d361022360201b60201c565b60095f6101000a81548173ffffffffffffffffffffffffffffffffffffffff021916908373ffffffffffffffffffffffffffffffffffffffff16021790555050505050505050505050505061042c565b5f61271060405161023390610269565b61023d9190610413565b604051809103905ff080158015610256573d5f5f3e3d5ffd5b50905090565b6115d88061120f83390190565b610260806127e783390190565b5f5ffd5b5f819050919050565b61028c8161027a565b8114610296575f5ffd5b50565b5f815190506102a781610283565b92915050565b5f5f5f5f608085870312156102c5576102c4610276565b5b5f6102d287828801610299565b94505060206102e387828801610299565b93505060406102f487828801610299565b925050606061030587828801610299565b91505092959194509250565b7f4e487b71000000000000000000000000000000000000000000000000000000005f52601160045260245ffd5b5f6103488261027a565b91506103538361027a565b92508282026103618161027a565b9150828204841483151761037857610377610311565b5b5092915050565b5f819050919050565b5f819050919050565b5f6103ab6103a66103a18461037f565b610388565b61027a565b9050919050565b6103bb81610391565b82525050565b5f6020820190506103d45f8301846103b2565b92915050565b5f819050919050565b5f6103fd6103f86103f3846103da565b610388565b61027a565b9050919050565b61040d816103e3565b82525050565b5f6020820190506104265f830184610404565b92915050565b610dd6806104395f395ff3fe608060405260043610610108575f3560e01c80638d4e408311610094578063e8b5e51f11610063578063e8b5e51f146102de578063ee56cf41146102e8578063eff1a84414610312578063f5074f411461034e578063fa65dfac1461037657610108565b80638d4e4083146102365780638da5cb5b14610260578063bab34f431461028a578063cb6f16d4146102b457610108565b80634bb278f3116100db5780634bb278f3146101a0578063590e1ae3146101b65780635c975abb146101cc57806378e97925146101f65780638456cb591461022057610108565b80631c0a5c101461010c5780633197cbb61461013657806338ef9380146101605780633f4ba83a1461018a575b5f5ffd5b348015610117575f5ffd5b506101206103a0565b60405161012d9190610acf565b60405180910390f35b348015610141575f5ffd5b5061014a6103a6565b6040516101579190610acf565b60405180910390f35b34801561016b575f5ffd5b506101746103ac565b6040516101819190610acf565b60405180910390f35b348015610195575f5ffd5b5061019e6103b2565b005b3480156101ab575f5ffd5b506101b461043b565b005b3480156101c1575f5ffd5b506101ca610583565b005b3480156101d7575f5ffd5b506101e06106be565b6040516101ed9190610b02565b60405180910390f35b348015610201575f5ffd5b5061020a6106d0565b6040516102179190610acf565b60405180910390f35b34801561022b575f5ffd5b506102346106d6565b005b348015610241575f5ffd5b5061024a610761565b6040516102579190610b02565b60405180910390f35b34801561026b575f5ffd5b50610274610773565b6040516102819190610b5a565b60405180910390f35b348015610295575f5ffd5b5061029e610797565b6040516102ab9190610acf565b60405180910390f35b3480156102bf575f5ffd5b506102c861079d565b6040516102d59190610b02565b60405180910390f35b6102e66107b0565b005b3480156102f3575f5ffd5b506102fc610890565b6040516103099190610acf565b60405180910390f35b34801561031d575f5ffd5b5061033860048036038101906103339190610ba1565b610896565b6040516103459190610acf565b60405180910390f35b348015610359575f5ffd5b50610374600480360381019061036f9190610ba1565b6108ab565b005b348015610381575f5ffd5b5061038a61091b565b6040516103979190610c27565b60405180910390f35b60065481565b60025481565b60075481565b5f5f9054906101000a900473ffffffffffffffffffffffffffffffffffffffff1673ffffffffffffffffffffffffffffffffffffffff163373ffffffffffffffffffffffffffffffffffffffff1614610409575f5ffd5b5f60149054906101000a900460ff16610420575f5ffd5b5f5f60146101000a81548160ff021916908315150217905550565b5f5f9054906101000a900473ffffffffffffffffffffffffffffffffffffffff1673ffffffffffffffffffffffffffffffffffffffff163373ffffffffffffffffffffffffffffffffffffffff1614610492575f5ffd5b60085f9054906101000a900460ff16156104aa575f5ffd5b5f600190505f60045460065410159050811561057f57801561054857600860029054906101000a900473ffffffffffffffffffffffffffffffffffffffff1673ffffffffffffffffffffffffffffffffffffffff166386d1a69f6040518163ffffffff1660e01b81526004015f604051808303815f87803b15801561052d575f5ffd5b505af115801561053f573d5f5f3e3d5ffd5b50505050610564565b6001600860016101000a81548160ff0219169083151502179055505b600160085f6101000a81548160ff0219169083151502179055505b5050565b600860019054906101000a900460ff1661059b575f5ffd5b5f3390505f60055f8373ffffffffffffffffffffffffffffffffffffffff1673ffffffffffffffffffffffffffffffffffffffff1681526020019081526020015f205490505f81036105eb575f5ffd5b5f60055f8473ffffffffffffffffffffffffffffffffffffffff1673ffffffffffffffffffffffffffffffffffffffff1681526020019081526020015f20819055508060075f82825461063e9190610c6d565b925050819055507fbb28353e4598c3b9199101a66e0989549b659a59a54d2c27fbb183f1932c8e6d3382604051610676929190610ca0565b60405180910390a18173ffffffffffffffffffffffffffffffffffffffff166108fc8290811502906040515f60405180830381858888f193505050506106ba575f5ffd5b5050565b5f60149054906101000a900460ff1681565b60015481565b5f5f9054906101000a900473ffffffffffffffffffffffffffffffffffffffff1673ffffffffffffffffffffffffffffffffffffffff163373ffffffffffffffffffffffffffffffffffffffff161461072d575f5ffd5b5f60149054906101000a900460ff1615610745575f5ffd5b60015f60146101000a81548160ff021916908315150217905550565b60085f9054906101000a900460ff1681565b5f5f9054906101000a900473ffffffffffffffffffffffffffffffffffffffff1681565b60045481565b600860019054906101000a900460ff1681565b6107b934610941565b6107c1575f5ffd5b5f3390505f3490508060055f8473ffffffffffffffffffffffffffffffffffffffff1673ffffffffffffffffffffffffffffffffffffffff1681526020019081526020015f205f8282546108159190610c6d565b925050819055508060065f82825461082d9190610c6d565b9250508190555061083e8282610a06565b8173ffffffffffffffffffffffffffffffffffffffff167fc74590e3281392e897f5c0f45530951cfe0db0e86c76d65af861e80b925871a4826040516108849190610acf565b60405180910390a25050565b60035481565b6005602052805f5260405f205f915090505481565b5f5f9054906101000a900473ffffffffffffffffffffffffffffffffffffffff1673ffffffffffffffffffffffffffffffffffffffff163373ffffffffffffffffffffffffffffffffffffffff1614610902575f5ffd5b8073ffffffffffffffffffffffffffffffffffffffff16ff5b600860029054906101000a900473ffffffffffffffffffffffffffffffffffffffff1681565b5f5f5f83141590505f600190508180156109585750805b80156109fd575060095f9054906101000a900473ffffffffffffffffffffffffffffffffffffffff1673ffffffffffffffffffffffffffffffffffffffff166306b9c583856006546040518363ffffffff1660e01b81526004016109bd929190610cc7565b602060405180830381865afa1580156109d8573d5f5f3e3d5ffd5b505050506040513d601f19601f820116820180604052508101906109fc9190610d18565b5b92505050919050565b5f610a1082610aa1565b9050600860029054906101000a900473ffffffffffffffffffffffffffffffffffffffff1673ffffffffffffffffffffffffffffffffffffffff166340c10f1984836040518363ffffffff1660e01b8152600401610a6f929190610ca0565b5f604051808303815f87803b158015610a86575f5ffd5b505af1158015610a98573d5f5f3e3d5ffd5b50505050505050565b5f60035482610ab09190610d70565b9050919050565b5f819050919050565b610ac981610ab7565b82525050565b5f602082019050610ae25f830184610ac0565b92915050565b5f8115159050919050565b610afc81610ae8565b82525050565b5f602082019050610b155f830184610af3565b92915050565b5f73ffffffffffffffffffffffffffffffffffffffff82169050919050565b5f610b4482610b1b565b9050919050565b610b5481610b3a565b82525050565b5f602082019050610b6d5f830184610b4b565b92915050565b5f5ffd5b610b8081610b3a565b8114610b8a575f5ffd5b50565b5f81359050610b9b81610b77565b92915050565b5f60208284031215610bb657610bb5610b73565b5b5f610bc384828501610b8d565b91505092915050565b5f819050919050565b5f610bef610bea610be584610b1b565b610bcc565b610b1b565b9050919050565b5f610c0082610bd5565b9050919050565b5f610c1182610bf6565b9050919050565b610c2181610c07565b82525050565b5f602082019050610c3a5f830184610c18565b92915050565b7f4e487b71000000000000000000000000000000000000000000000000000000005f52601160045260245ffd5b5f610c7782610ab7565b9150610c8283610ab7565b9250828201905080821115610c9a57610c99610c40565b5b92915050565b5f604082019050610cb35f830185610b4b565b610cc06020830184610ac0565b9392505050565b5f604082019050610cda5f830185610ac0565b610ce76020830184610ac0565b9392505050565b610cf781610ae8565b8114610d01575f5ffd5b50565b5f81519050610d1281610cee565b92915050565b5f60208284031215610d2d57610d2c610b73565b5b5f610d3a84828501610d04565b91505092915050565b7f4e487b71000000000000000000000000000000000000000000000000000000005f52601260045260245ffd5b5f610d7a82610ab7565b9150610d8583610ab7565b925082610d9557610d94610d43565b5b82820490509291505056fea26469706673582212208d8b38d88d4cfa6d3bc597899df95bb57bca13dadbd07fb308e442993fe04dbe64736f6c634300081e003360806040525f60055f6101000a81548160ff0219169083151502179055505f600560016101000a81548160ff021916908315150217905550348015610042575f5ffd5b506040516115d83803806115d8833981810160405281019061006491906102b4565b80335f5f6101000a81548173ffffffffffffffffffffffffffffffffffffffff021916908373ffffffffffffffffffffffffffffffffffffffff160217905550335f5f6101000a81548173ffffffffffffffffffffffffffffffffffffffff021916908373ffffffffffffffffffffffffffffffffffffffff1602179055508060015f8282546100f4919061030c565b9250508190555061012b5f5f9054906101000a900473ffffffffffffffffffffffffffffffffffffffff168261013260201b60201c565b5050610367565b5f5f9054906101000a900473ffffffffffffffffffffffffffffffffffffffff1673ffffffffffffffffffffffffffffffffffffffff163373ffffffffffffffffffffffffffffffffffffffff1614610189575f5ffd5b8060025f8473ffffffffffffffffffffffffffffffffffffffff1673ffffffffffffffffffffffffffffffffffffffff1681526020019081526020015f205f8282546101d5919061030c565b925050819055508060015f8282546101ed919061030c565b925050819055508173ffffffffffffffffffffffffffffffffffffffff165f5f9054906101000a900473ffffffffffffffffffffffffffffffffffffffff1673ffffffffffffffffffffffffffffffffffffffff167fddf252ad1be2c89b69c2b068fc378daa952ba7f163c4a11628f55a4df523b3ef83604051610271919061034e565b60405180910390a35050565b5f5ffd5b5f819050919050565b61029381610281565b811461029d575f5ffd5b50565b5f815190506102ae8161028a565b92915050565b5f602082840312156102c9576102c861027d565b5b5f6102d6848285016102a0565b91505092915050565b7f4e487b71000000000000000000000000000000000000000000000000000000005f52601160045260245ffd5b5f61031682610281565b915061032183610281565b9250828201905080821115610339576103386102df565b5b92915050565b61034881610281565b82525050565b5f6020820190506103615f83018461033f565b92915050565b611264806103745f395ff3fe608060405234801561000f575f5ffd5b5060043610610109575f3560e01c806386d1a69f116100a0578063b414d4b61161006f578063b414d4b61461027f578063dd62ed3e146102af578063e724529c146102df578063f5074f41146102fb578063fabde80c1461031757610109565b806386d1a69f146102095780638da5cb5b146102135780639613252114610231578063a9059cbb1461024f57610109565b806340c10f19116100dc57806340c10f19146101955780635c975abb146101b157806370a08231146101cf5780638456cb59146101ff57610109565b8063095ea7b31461010d57806318160ddd1461013d57806323b872dd1461015b5780633f4ba83a1461018b575b5f5ffd5b61012760048036038101906101229190610f92565b610347565b6040516101349190610fea565b60405180910390f35b610145610434565b6040516101529190611012565b60405180910390f35b6101756004803603810190610170919061102b565b61043d565b6040516101829190610fea565b60405180910390f35b61019361046a565b005b6101af60048036038101906101aa9190610f92565b6104f3565b005b6101b961063e565b6040516101c69190610fea565b60405180910390f35b6101e960048036038101906101e4919061107b565b610650565b6040516101f69190611012565b60405180910390f35b610207610696565b005b610211610721565b005b61021b610795565b60405161022891906110b5565b60405180910390f35b6102396107b9565b6040516102469190610fea565b60405180910390f35b61026960048036038101906102649190610f92565b6107cc565b6040516102769190610fea565b60405180910390f35b6102996004803603810190610294919061107b565b6109bc565b6040516102a69190610fea565b60405180910390f35b6102c960048036038101906102c491906110ce565b6109d9565b6040516102d69190611012565b60405180910390f35b6102f960048036038101906102f49190611136565b610a5b565b005b6103156004803603810190610310919061107b565b610b43565b005b610331600480360381019061032c919061107b565b610bb3565b60405161033e9190611012565b60405180910390f35b5f8160035f3373ffffffffffffffffffffffffffffffffffffffff1673ffffffffffffffffffffffffffffffffffffffff1681526020019081526020015f205f8573ffffffffffffffffffffffffffffffffffffffff1673ffffffffffffffffffffffffffffffffffffffff1681526020019081526020015f20819055508273ffffffffffffffffffffffffffffffffffffffff163373ffffffffffffffffffffffffffffffffffffffff167f8c5be1e5ebec7d5bd14f71427d1e84f3dd0314c0f7b2291e5b200ac8c7c3b925846040516104229190611012565b60405180910390a36001905092915050565b5f600154905090565b5f600560019054906101000a900460ff16610456575f5ffd5b610461848484610bc8565b90509392505050565b5f5f9054906101000a900473ffffffffffffffffffffffffffffffffffffffff1673ffffffffffffffffffffffffffffffffffffffff163373ffffffffffffffffffffffffffffffffffffffff16146104c1575f5ffd5b60055f9054906101000a900460ff166104d8575f5ffd5b5f60055f6101000a81548160ff021916908315150217905550565b5f5f9054906101000a900473ffffffffffffffffffffffffffffffffffffffff1673ffffffffffffffffffffffffffffffffffffffff163373ffffffffffffffffffffffffffffffffffffffff161461054a575f5ffd5b8060025f8473ffffffffffffffffffffffffffffffffffffffff1673ffffffffffffffffffffffffffffffffffffffff1681526020019081526020015f205f82825461059691906111a1565b925050819055508060015f8282546105ae91906111a1565b925050819055508173ffffffffffffffffffffffffffffffffffffffff165f5f9054906101000a900473ffffffffffffffffffffffffffffffffffffffff1673ffffffffffffffffffffffffffffffffffffffff167fddf252ad1be2c89b69c2b068fc378daa952ba7f163c4a11628f55a4df523b3ef836040516106329190611012565b60405180910390a35050565b60055f9054906101000a900460ff1681565b5f60025f8373ffffffffffffffffffffffffffffffffffffffff1673ffffffffffffffffffffffffffffffffffffffff1681526020019081526020015f20549050919050565b5f5f9054906101000a900473ffffffffffffffffffffffffffffffffffffffff1673ffffffffffffffffffffffffffffffffffffffff163373ffffffffffffffffffffffffffffffffffffffff16146106ed575f5ffd5b60055f9054906101000a900460ff1615610705575f5ffd5b600160055f6101000a81548160ff021916908315150217905550565b5f5f9054906101000a900473ffffffffffffffffffffffffffffffffffffffff1673ffffffffffffffffffffffffffffffffffffffff163373ffffffffffffffffffffffffffffffffffffffff1614610778575f5ffd5b6001600560016101000a81548160ff021916908315150217905550565b5f5f9054906101000a900473ffffffffffffffffffffffffffffffffffffffff1681565b600560019054906101000a900460ff1681565b5f8160025f3373ffffffffffffffffffffffffffffffffffffffff1673ffffffffffffffffffffffffffffffffffffffff1681526020019081526020015f20541015610816575f5ffd5b60025f8473ffffffffffffffffffffffffffffffffffffffff1673ffffffffffffffffffffffffffffffffffffffff1681526020019081526020015f20548260025f8673ffffffffffffffffffffffffffffffffffffffff1673ffffffffffffffffffffffffffffffffffffffff1681526020019081526020015f205461089d91906111a1565b10156108a7575f5ffd5b8160025f3373ffffffffffffffffffffffffffffffffffffffff1673ffffffffffffffffffffffffffffffffffffffff1681526020019081526020015f205f8282546108f391906111d4565b925050819055508160025f8573ffffffffffffffffffffffffffffffffffffffff1673ffffffffffffffffffffffffffffffffffffffff1681526020019081526020015f205f82825461094691906111a1565b925050819055508273ffffffffffffffffffffffffffffffffffffffff163373ffffffffffffffffffffffffffffffffffffffff167fddf252ad1be2c89b69c2b068fc378daa952ba7f163c4a11628f55a4df523b3ef846040516109aa9190611012565b60405180910390a36001905092915050565b6004602052805f5260405f205f915054906101000a900460ff1681565b5f60035f8473ffffffffffffffffffffffffffffffffffffffff1673ffffffffffffffffffffffffffffffffffffffff1681526020019081526020015f205f8373ffffffffffffffffffffffffffffffffffffffff1673ffffffffffffffffffffffffffffffffffffffff1681526020019081526020015f2054905092915050565b5f5f9054906101000a900473ffffffffffffffffffffffffffffffffffffffff1673ffffffffffffffffffffffffffffffffffffffff163373ffffffffffffffffffffffffffffffffffffffff1614610ab2575f5ffd5b8060045f8473ffffffffffffffffffffffffffffffffffffffff1673ffffffffffffffffffffffffffffffffffffffff1681526020019081526020015f205f6101000a81548160ff0219169083151502179055507f67a17b8db8ff8fa7cff69c2328bf8a35f9be2c88abeea30be900fc28eece28ed8282604051610b37929190611207565b60405180910390a15050565b5f5f9054906101000a900473ffffffffffffffffffffffffffffffffffffffff1673ffffffffffffffffffffffffffffffffffffffff163373ffffffffffffffffffffffffffffffffffffffff1614610b9a575f5ffd5b8073ffffffffffffffffffffffffffffffffffffffff16ff5b6002602052805f5260405f205f915090505481565b5f5f73ffffffffffffffffffffffffffffffffffffffff168373ffffffffffffffffffffffffffffffffffffffff1603610c00575f5ffd5b8160025f8673ffffffffffffffffffffffffffffffffffffffff1673ffffffffffffffffffffffffffffffffffffffff1681526020019081526020015f205411610c48575f5ffd5b60025f8473ffffffffffffffffffffffffffffffffffffffff1673ffffffffffffffffffffffffffffffffffffffff1681526020019081526020015f20548260025f8673ffffffffffffffffffffffffffffffffffffffff1673ffffffffffffffffffffffffffffffffffffffff1681526020019081526020015f2054610ccf91906111a1565b1015610cd9575f5ffd5b60035f8573ffffffffffffffffffffffffffffffffffffffff1673ffffffffffffffffffffffffffffffffffffffff1681526020019081526020015f205f3373ffffffffffffffffffffffffffffffffffffffff1673ffffffffffffffffffffffffffffffffffffffff1681526020019081526020015f2054821115610d5d575f5ffd5b8160025f8673ffffffffffffffffffffffffffffffffffffffff1673ffffffffffffffffffffffffffffffffffffffff1681526020019081526020015f205f828254610da991906111d4565b925050819055508160025f8573ffffffffffffffffffffffffffffffffffffffff1673ffffffffffffffffffffffffffffffffffffffff1681526020019081526020015f205f828254610dfc91906111a1565b925050819055508160035f8673ffffffffffffffffffffffffffffffffffffffff1673ffffffffffffffffffffffffffffffffffffffff1681526020019081526020015f205f3373ffffffffffffffffffffffffffffffffffffffff1673ffffffffffffffffffffffffffffffffffffffff1681526020019081526020015f205f828254610e8a91906111d4565b925050819055508273ffffffffffffffffffffffffffffffffffffffff168473ffffffffffffffffffffffffffffffffffffffff167fddf252ad1be2c89b69c2b068fc378daa952ba7f163c4a11628f55a4df523b3ef84604051610eee9190611012565b60405180910390a3600190509392505050565b5f5ffd5b5f73ffffffffffffffffffffffffffffffffffffffff82169050919050565b5f610f2e82610f05565b9050919050565b610f3e81610f24565b8114610f48575f5ffd5b50565b5f81359050610f5981610f35565b92915050565b5f819050919050565b610f7181610f5f565b8114610f7b575f5ffd5b50565b5f81359050610f8c81610f68565b92915050565b5f5f60408385031215610fa857610fa7610f01565b5b5f610fb585828601610f4b565b9250506020610fc685828601610f7e565b9150509250929050565b5f8115159050919050565b610fe481610fd0565b82525050565b5f602082019050610ffd5f830184610fdb565b92915050565b61100c81610f5f565b82525050565b5f6020820190506110255f830184611003565b92915050565b5f5f5f6060848603121561104257611041610f01565b5b5f61104f86828701610f4b565b935050602061106086828701610f4b565b925050604061107186828701610f7e565b9150509250925092565b5f602082840312156110905761108f610f01565b5b5f61109d84828501610f4b565b91505092915050565b6110af81610f24565b82525050565b5f6020820190506110c85f8301846110a6565b92915050565b5f5f604083850312156110e4576110e3610f01565b5b5f6110f185828601610f4b565b925050602061110285828601610f4b565b9150509250929050565b61111581610fd0565b811461111f575f5ffd5b50565b5f813590506111308161110c565b92915050565b5f5f6040838503121561114c5761114b610f01565b5b5f61115985828601610f4b565b925050602061116a85828601611122565b9150509250929050565b7f4e487b71000000000000000000000000000000000000000000000000000000005f52601160045260245ffd5b5f6111ab82610f5f565b91506111b683610f5f565b92508282019050808211156111ce576111cd611174565b5b92915050565b5f6111de82610f5f565b91506111e983610f5f565b925082820390508181111561120157611200611174565b5b92915050565b5f60408201905061121a5f8301856110a6565b6112276020830184610fdb565b939250505056fea26469706673582212203dcde69d2addac5ca18840c9390dd07f06561f3c3921dba6ddfad3a87c9203b264736f6c634300081e00336080604052348015600e575f5ffd5b506040516102603803806102608339818101604052810190602e91906075565b5f81116038575f5ffd5b805f8190555050609b565b5f5ffd5b5f819050919050565b6057816047565b81146060575f5ffd5b50565b5f81519050606f816050565b92915050565b5f6020828403121560875760866043565b5b5f6092848285016063565b91505092915050565b6101b8806100a85f395ff3fe608060405234801561000f575f5ffd5b5060043610610029575f3560e01c806306b9c5831461002d575b5f5ffd5b610047600480360381019061004291906100b1565b61005d565b6040516100549190610109565b60405180910390f35b5f5f5f54848461006d919061014f565b1090508091505092915050565b5f5ffd5b5f819050919050565b6100908161007e565b811461009a575f5ffd5b50565b5f813590506100ab81610087565b92915050565b5f5f604083850312156100c7576100c661007a565b5b5f6100d48582860161009d565b92505060206100e58582860161009d565b9150509250929050565b5f8115159050919050565b610103816100ef565b82525050565b5f60208201905061011c5f8301846100fa565b92915050565b7f4e487b71000000000000000000000000000000000000000000000000000000005f52601160045260245ffd5b5f6101598261007e565b91506101648361007e565b925082820190508082111561017c5761017b610122565b5b9291505056fea26469706673582212200236afa4df14274cdcae83bba2d364a3fc83b2c2df84d111cd2fdd41ce07162364736f6c634300081e0033",
			"opcodes": "PUSH1 0x80 PUSH1 0x40 MSTORE PUSH0 PUSH0 PUSH1 0x14 PUSH2 0x100 EXP DUP2 SLOAD DUP2 PUSH1 0xFF MUL NOT AND SWAP1 DUP4 ISZERO ISZERO MUL OR SWAP1 SSTORE POP PUSH1 0x40 MLOAD PUSH2 0x2A47 CODESIZE SUB DUP1 PUSH2 0x2A47 DUP4 CODECOPY DUP2 DUP2 ADD PUSH1 0x40 MSTORE DUP2 ADD SWAP1 PUSH2 0x3E SWAP2 SWAP1 PUSH2 0x2AD JUMP JUMPDEST DUP4 DUP4 DUP4 DUP4 DUP4 DUP4 DUP4 DUP4 CALLER PUSH0 PUSH0 PUSH2 0x100 EXP DUP2 SLOAD DUP2 PUSH20 0xFFFFFFFFFFFFFFFFFFFFFFFFFFFFFFFFFFFFFFFF MUL NOT AND SWAP1 DUP4 PUSH20 0xFFFFFFFFFFFFFFFFFFFFFFFFFFFFFFFFFFFFFFFF AND MUL OR SWAP1 SSTORE POP TIMESTAMP DUP5 LT ISZERO PUSH2 0x91 JUMPI PUSH0 PUSH0 REVERT JUMPDEST DUP4 DUP4 LT ISZERO PUSH2 0x9D JUMPI PUSH0 PUSH0 REVERT JUMPDEST PUSH0 DUP3 SUB PUSH2 0xA8 JUMPI PUSH0 PUSH0 REVERT JUMPDEST PUSH0 DUP2 SUB PUSH2 0xB3 JUMPI PUSH0 PUSH0 REVERT JUMPDEST DUP4 PUSH1 0x1 DUP2 SWAP1 SSTORE POP DUP3 PUSH1 0x2 DUP2 SWAP1 SSTORE POP DUP2 PUSH1 0x3 DUP2 SWAP1 SSTORE POP PUSH8 0xDE0B6B3A7640000 DUP2 PUSH2 0xDC SWAP2 SWAP1 PUSH2 0x33E JUMP JUMPDEST PUSH1 0x4 DUP2 SWAP1 SSTORE POP PUSH0 PUSH1 0x40 MLOAD PUSH2 0xEF SWAP1 PUSH2 0x25C JUMP JUMPDEST PUSH2 0xF9 SWAP2 SWAP1 PUSH2 0x3C1 JUMP JUMPDEST PUSH1 0x40 MLOAD DUP1 SWAP2 SUB SWAP1 PUSH0 CREATE DUP1 ISZERO DUP1 ISZERO PUSH2 0x112 JUMPI RETURNDATASIZE PUSH0 PUSH0 RETURNDATACOPY RETURNDATASIZE PUSH0 REVERT JUMPDEST POP PUSH1 0x8 PUSH1 0x2 PUSH2 0x100 EXP DUP2 SLOAD DUP2 PUSH20 0xFFFFFFFFFFFFFFFFFFFFFFFFFFFFFFFFFFFFFFFF MUL NOT AND SWAP1 DUP4 PUSH20 0xFFFFFFFFFFFFFFFFFFFFFFFFFFFFFFFFFFFFFFFF AND MUL OR SWAP1 SSTORE POP PUSH0 PUSH1 0x8 PUSH0 PUSH2 0x100 EXP DUP2 SLOAD DUP2 PUSH1 0xFF MUL NOT AND SWAP1 DUP4 ISZERO ISZERO MUL OR SWAP1 SSTORE POP PUSH0 PUSH1 0x8 PUSH1 0x1 PUSH2 0x100 EXP DUP2 SLOAD DUP2 PUSH1 0xFF MUL NOT AND SWAP1 DUP4 ISZERO ISZERO MUL OR SWAP1 SSTORE POP CALLER PUSH0 PUSH0 PUSH2 0x100 EXP DUP2 SLOAD DUP2 PUSH20 0xFFFFFFFFFFFFFFFFFFFFFFFFFFFFFFFFFFFFFFFF MUL NOT AND SWAP1 DUP4 PUSH20 0xFFFFFFFFFFFFFFFFFFFFFFFFFFFFFFFFFFFFFFFF AND MUL OR SWAP1 SSTORE POP PUSH2 0x1D3 PUSH2 0x223 PUSH1 0x20 SHL PUSH1 0x20 SHR JUMP JUMPDEST PUSH1 0x9 PUSH0 PUSH2 0x100 EXP DUP2 SLOAD DUP2 PUSH20 0xFFFFFFFFFFFFFFFFFFFFFFFFFFFFFFFFFFFFFFFF MUL NOT AND SWAP1 DUP4 PUSH20 0xFFFFFFFFFFFFFFFFFFFFFFFFFFFFFFFFFFFFFFFF AND MUL OR SWAP1 SSTORE POP POP POP POP POP POP POP POP POP POP POP POP POP PUSH2 0x42C JUMP JUMPDEST PUSH0 PUSH2 0x2710 PUSH1 0x40 MLOAD PUSH2 0x233 SWAP1 PUSH2 0x269 JUMP JUMPDEST PUSH2 0x23D SWAP2 SWAP1 PUSH2 0x413 JUMP JUMPDEST PUSH1 0x40 MLOAD DUP1 SWAP2 SUB SWAP1 PUSH0 CREATE DUP1 ISZERO DUP1 ISZERO PUSH2 0x256 JUMPI RETURNDATASIZE PUSH0 PUSH0 RETURNDATACOPY RETURNDATASIZE PUSH0 REVERT JUMPDEST POP SWAP1 POP SWAP1 JUMP JUMPDEST PUSH2 0x15D8 DUP1 PUSH2 0x120F DUP4 CODECOPY ADD SWAP1 JUMP JUMPDEST PUSH2 0x260 DUP1 PUSH2 0x27E7 DUP4 CODECOPY ADD SWAP1 JUMP JUMPDEST PUSH0 PUSH0 REVERT JUMPDEST PUSH0 DUP2 SWAP1 POP SWAP2 SWAP1 POP JUMP JUMPDEST PUSH2 0x28C DUP2 PUSH2 0x27A JUMP JUMPDEST DUP2 EQ PUSH2 0x296 JUMPI PUSH0 PUSH0 REVERT JUMPDEST POP JUMP JUMPDEST PUSH0 DUP2 MLOAD SWAP1 POP PUSH2 0x2A7 DUP2 PUSH2 0x283 JUMP JUMPDEST SWAP3 SWAP2 POP POP JUMP JUMPDEST PUSH0 PUSH0 PUSH0 PUSH0 PUSH1 0x80 DUP6 DUP8 SUB SLT ISZERO PUSH2 0x2C5 JUMPI PUSH2 0x2C4 PUSH2 0x276 JUMP JUMPDEST JUMPDEST PUSH0 PUSH2 0x2D2 DUP8 DUP3 DUP9 ADD PUSH2 0x299 JUMP JUMPDEST SWAP5 POP POP PUSH1 0x20 PUSH2 0x2E3 DUP8 DUP3 DUP9 ADD PUSH2 0x299 JUMP JUMPDEST SWAP4 POP POP PUSH1 0x40 PUSH2 0x2F4 DUP8 DUP3 DUP9 ADD PUSH2 0x299 JUMP JUMPDEST SWAP3 POP POP PUSH1 0x60 PUSH2 0x305 DUP8 DUP3 DUP9 ADD PUSH2 0x299 JUMP JUMPDEST SWAP2 POP POP SWAP3 SWAP6 SWAP2 SWAP5 POP SWAP3 POP JUMP JUMPDEST PUSH32 0x4E487B7100000000000000000000000000000000000000000000000000000000 PUSH0 MSTORE PUSH1 0x11 PUSH1 0x4 MSTORE PUSH1 0x24 PUSH0 REVERT JUMPDEST PUSH0 PUSH2 0x348 DUP3 PUSH2 0x27A JUMP JUMPDEST SWAP2 POP PUSH2 0x353 DUP4 PUSH2 0x27A JUMP JUMPDEST SWAP3 POP DUP3 DUP3 MUL PUSH2 0x361 DUP2 PUSH2 0x27A JUMP JUMPDEST SWAP2 POP DUP3 DUP3 DIV DUP5 EQ DUP4 ISZERO OR PUSH2 0x378 JUMPI PUSH2 0x377 PUSH2 0x311 JUMP JUMPDEST JUMPDEST POP SWAP3 SWAP2 POP POP JUMP JUMPDEST PUSH0 DUP2 SWAP1 POP SWAP2 SWAP1 POP JUMP JUMPDEST PUSH0 DUP2 SWAP1 POP SWAP2 SWAP1 POP JUMP JUMPDEST PUSH0 PUSH2 0x3AB PUSH2 0x3A6 PUSH2 0x3A1 DUP5 PUSH2 0x37F JUMP JUMPDEST PUSH2 0x388 JUMP JUMPDEST PUSH2 0x27A JUMP JUMPDEST SWAP1 POP SWAP2 SWAP1 POP JUMP JUMPDEST PUSH2 0x3BB DUP2 PUSH2 0x391 JUMP JUMPDEST DUP3 MSTORE POP POP JUMP JUMPDEST PUSH0 PUSH1 0x20 DUP3 ADD SWAP1 POP PUSH2 0x3D4 PUSH0 DUP4 ADD DUP5 PUSH2 0x3B2 JUMP JUMPDEST SWAP3 SWAP2 POP POP JUMP JUMPDEST PUSH0 DUP2 SWAP1 POP SWAP2 SWAP1 POP JUMP JUMPDEST PUSH0 PUSH2 0x3FD PUSH2 0x3F8 PUSH2 0x3F3 DUP5 PUSH2 0x3DA JUMP JUMPDEST PUSH2 0x388 JUMP JUMPDEST PUSH2 0x27A JUMP JUMPDEST SWAP1 POP SWAP2 SWAP1 POP JUMP JUMPDEST PUSH2 0x40D DUP2 PUSH2 0x3E3 JUMP JUMPDEST DUP3 MSTORE POP POP JUMP JUMPDEST PUSH0 PUSH1 0x20 DUP3 ADD SWAP1 POP PUSH2 0x426 PUSH0 DUP4 ADD DUP5 PUSH2 0x404 JUMP JUMPDEST SWAP3 SWAP2 POP POP JUMP JUMPDEST PUSH2 0xDD6 DUP1 PUSH2 0x439 PUSH0 CODECOPY PUSH0 RETURN INVALID PUSH1 0x80 PUSH1 0x40 MSTORE PUSH1 0x4 CALLDATASIZE LT PUSH2 0x108 JUMPI PUSH0 CALLDATALOAD PUSH1 0xE0 SHR DUP1 PUSH4 0x8D4E4083 GT PUSH2 0x94 JUMPI DUP1 PUSH4 0xE8B5E51F GT PUSH2 0x63 JUMPI DUP1 PUSH4 0xE8B5E51F EQ PUSH2 0x2DE JUMPI DUP1 PUSH4 0xEE56CF41 EQ PUSH2 0x2E8 JUMPI DUP1 PUSH4 0xEFF1A844 EQ PUSH2 0x312 JUMPI DUP1 PUSH4 0xF5074F41 EQ PUSH2 0x34E JUMPI DUP1 PUSH4 0xFA65DFAC EQ PUSH2 0x376 JUMPI PUSH2 0x108 JUMP JUMPDEST DUP1 PUSH4 0x8D4E4083 EQ PUSH2 0x236 JUMPI DUP1 PUSH4 0x8DA5CB5B EQ PUSH2 0x260 JUMPI DUP1 PUSH4 0xBAB34F43 EQ PUSH2 0x28A JUMPI DUP1 PUSH4 0xCB6F16D4 EQ PUSH2 0x2B4 JUMPI PUSH2 0x108 JUMP JUMPDEST DUP1 PUSH4 0x4BB278F3 GT PUSH2 0xDB JUMPI DUP1 PUSH4 0x4BB278F3 EQ PUSH2 0x1A0 JUMPI DUP1 PUSH4 0x590E1AE3 EQ PUSH2 0x1B6 JUMPI DUP1 PUSH4 0x5C975ABB EQ PUSH2 0x1CC JUMPI DUP1 PUSH4 0x78E97925 EQ PUSH2 0x1F6 JUMPI DUP1 PUSH4 0x8456CB59 EQ PUSH2 0x220 JUMPI PUSH2 0x108 JUMP JUMPDEST DUP1 PUSH4 0x1C0A5C10 EQ PUSH2 0x10C JUMPI DUP1 PUSH4 0x3197CBB6 EQ PUSH2 0x136 JUMPI DUP1 PUSH4 0x38EF9380 EQ PUSH2 0x160 JUMPI DUP1 PUSH4 0x3F4BA83A EQ PUSH2 0x18A JUMPI JUMPDEST PUSH0 PUSH0 REVERT JUMPDEST CALLVALUE DUP1 ISZERO PUSH2 0x117 JUMPI PUSH0 PUSH0 REVERT JUMPDEST POP PUSH2 0x120 PUSH2 0x3A0 JUMP JUMPDEST PUSH1 0x40 MLOAD PUSH2 0x12D SWAP2 SWAP1 PUSH2 0xACF JUMP JUMPDEST PUSH1 0x40 MLOAD DUP1 SWAP2 SUB SWAP1 RETURN JUMPDEST CALLVALUE DUP1 ISZERO PUSH2 0x141 JUMPI PUSH0 PUSH0 REVERT JUMPDEST POP PUSH2 0x14A PUSH2 0x3A6 JUMP JUMPDEST PUSH1 0x40 MLOAD PUSH2 0x157 SWAP2 SWAP1 PUSH2 0xACF JUMP JUMPDEST PUSH1 0x40 MLOAD DUP1 SWAP2 SUB SWAP1 RETURN JUMPDEST CALLVALUE DUP1 ISZERO PUSH2 0x16B JUMPI PUSH0 PUSH0 REVERT JUMPDEST POP PUSH2 0x174 PUSH2 0x3AC JUMP JUMPDEST PUSH1 0x40 MLOAD PUSH2 0x181 SWAP2 SWAP1 PUSH2 0xACF JUMP JUMPDEST PUSH1 0x40 MLOAD DUP1 SWAP2 SUB SWAP1 RETURN JUMPDEST CALLVALUE DUP1 ISZERO PUSH2 0x195 JUMPI PUSH0 PUSH0 REVERT JUMPDEST POP PUSH2 0x19E PUSH2 0x3B2 JUMP JUMPDEST STOP JUMPDEST CALLVALUE DUP1 ISZERO PUSH2 0x1AB JUMPI PUSH0 PUSH0 REVERT JUMPDEST POP PUSH2 0x1B4 PUSH2 0x43B JUMP JUMPDEST STOP JUMPDEST CALLVALUE DUP1 ISZERO PUSH2 0x1C1 JUMPI PUSH0 PUSH0 REVERT JUMPDEST POP PUSH2 0x1CA PUSH2 0x583 JUMP JUMPDEST STOP JUMPDEST CALLVALUE DUP1 ISZERO PUSH2 0x1D7 JUMPI PUSH0 PUSH0 REVERT JUMPDEST POP PUSH2 0x1E0 PUSH2 0x6BE JUMP JUMPDEST PUSH1 0x40 MLOAD PUSH2 0x1ED SWAP2 SWAP1 PUSH2 0xB02 JUMP JUMPDEST PUSH1 0x40 MLOAD DUP1 SWAP2 SUB SWAP1 RETURN JUMPDEST CALLVALUE DUP1 ISZERO PUSH2 0x201 JUMPI PUSH0 PUSH0 REVERT JUMPDEST POP PUSH2 0x20A PUSH2 0x6D0 JUMP JUMPDEST PUSH1 0x40 MLOAD PUSH2 0x217 SWAP2 SWAP1 PUSH2 0xACF JUMP JUMPDEST PUSH1 0x40 MLOAD DUP1 SWAP2 SUB SWAP1 RETURN JUMPDEST CALLVALUE DUP1 ISZERO PUSH2 0x22B JUMPI PUSH0 PUSH0 REVERT JUMPDEST POP PUSH2 0x234 PUSH2 0x6D6 JUMP JUMPDEST STOP JUMPDEST CALLVALUE DUP1 ISZERO PUSH2 0x241 JUMPI PUSH0 PUSH0 REVERT JUMPDEST POP PUSH2 0x24A PUSH2 0x761 JUMP JUMPDEST PUSH1 0x40 MLOAD PUSH2 0x257 SWAP2 SWAP1 PUSH2 0xB02 JUMP JUMPDEST PUSH1 0x40 MLOAD DUP1 SWAP2 SUB SWAP1 RETURN JUMPDEST CALLVALUE DUP1 ISZERO PUSH2 0x26B JUMPI PUSH0 PUSH0 REVERT JUMPDEST POP PUSH2 0x274 PUSH2 0x773 JUMP JUMPDEST PUSH1 0x40 MLOAD PUSH2 0x281 SWAP2 SWAP1 PUSH2 0xB5A JUMP JUMPDEST PUSH1 0x40 MLOAD DUP1 SWAP2 SUB SWAP1 RETURN JUMPDEST CALLVALUE DUP1 ISZERO PUSH2 0x295 JUMPI PUSH0 PUSH0 REVERT JUMPDEST POP PUSH2 0x29E PUSH2 0x797 JUMP JUMPDEST PUSH1 0x40 MLOAD PUSH2 0x2AB SWAP2 SWAP1 PUSH2 0xACF JUMP JUMPDEST PUSH1 0x40 MLOAD DUP1 SWAP2 SUB SWAP1 RETURN JUMPDEST CALLVALUE DUP1 ISZERO PUSH2 0x2BF JUMPI PUSH0 PUSH0 REVERT JUMPDEST POP PUSH2 0x2C8 PUSH2 0x79D JUMP JUMPDEST PUSH1 0x40 MLOAD PUSH2 0x2D5 SWAP2 SWAP1 PUSH2 0xB02 JUMP JUMPDEST PUSH1 0x40 MLOAD DUP1 SWAP2 SUB SWAP1 RETURN JUMPDEST PUSH2 0x2E6 PUSH2 0x7B0 JUMP JUMPDEST STOP JUMPDEST CALLVALUE DUP1 ISZERO PUSH2 0x2F3 JUMPI PUSH0 PUSH0 REVERT JUMPDEST POP PUSH2 0x2FC PUSH2 0x890 JUMP JUMPDEST PUSH1 0x40 MLOAD PUSH2 0x309 SWAP2 SWAP1 PUSH2 0xACF JUMP JUMPDEST PUSH1 0x40 MLOAD DUP1 SWAP2 SUB SWAP1 RETURN JUMPDEST CALLVALUE DUP1 ISZERO PUSH2 0x31D JUMPI PUSH0 PUSH0 REVERT JUMPDEST POP PUSH2 0x338 PUSH1 0x4 DUP1 CALLDATASIZE SUB DUP2 ADD SWAP1 PUSH2 0x333 SWAP2 SWAP1 PUSH2 0xBA1 JUMP JUMPDEST PUSH2 0x896 JUMP JUMPDEST PUSH1 0x40 MLOAD PUSH2 0x345 SWAP2 SWAP1 PUSH2 0xACF JUMP JUMPDEST PUSH1 0x40 MLOAD DUP1 SWAP2 SUB SWAP1 RETURN JUMPDEST CALLVALUE DUP1 ISZERO PUSH2 0x359 JUMPI PUSH0 PUSH0 REVERT JUMPDEST POP PUSH2 0x374 PUSH1 0x4 DUP1 CALLDATASIZE SUB DUP2 ADD SWAP1 PUSH2 0x36F SWAP2 SWAP1 PUSH2 0xBA1 JUMP JUMPDEST PUSH2 0x8AB JUMP JUMPDEST STOP JUMPDEST CALLVALUE DUP1 ISZERO PUSH2 0x381 JUMPI PUSH0 PUSH0 REVERT JUMPDEST POP PUSH2 0x38A PUSH2 0x91B JUMP JUMPDEST PUSH1 0x40 MLOAD PUSH2 0x397 SWAP2 SWAP1 PUSH2 0xC27 JUMP JUMPDEST PUSH1 0x40 MLOAD DUP1 SWAP2 SUB SWAP1 RETURN JUMPDEST PUSH1 0x6 SLOAD DUP2 JUMP JUMPDEST PUSH1 0x2 SLOAD DUP2 JUMP JUMPDEST PUSH1 0x7 SLOAD DUP2 JUMP JUMPDEST PUSH0 PUSH0 SWAP1 SLOAD SWAP1 PUSH2 0x100 EXP SWAP1 DIV PUSH20 0xFFFFFFFFFFFFFFFFFFFFFFFFFFFFFFFFFFFFFFFF AND PUSH20 0xFFFFFFFFFFFFFFFFFFFFFFFFFFFFFFFFFFFFFFFF AND CALLER PUSH20 0xFFFFFFFFFFFFFFFFFFFFFFFFFFFFFFFFFFFFFFFF AND EQ PUSH2 0x409 JUMPI PUSH0 PUSH0 REVERT JUMPDEST PUSH0 PUSH1 0x14 SWAP1 SLOAD SWAP1 PUSH2 0x100 EXP SWAP1 DIV PUSH1 0xFF AND PUSH2 0x420 JUMPI PUSH0 PUSH0 REVERT JUMPDEST PUSH0 PUSH0 PUSH1 0x14 PUSH2 0x100 EXP DUP2 SLOAD DUP2 PUSH1 0xFF MUL NOT AND SWAP1 DUP4 ISZERO ISZERO MUL OR SWAP1 SSTORE POP JUMP JUMPDEST PUSH0 PUSH0 SWAP1 SLOAD SWAP1 PUSH2 0x100 EXP SWAP1 DIV PUSH20 0xFFFFFFFFFFFFFFFFFFFFFFFFFFFFFFFFFFFFFFFF AND PUSH20 0xFFFFFFFFFFFFFFFFFFFFFFFFFFFFFFFFFFFFFFFF AND CALLER PUSH20 0xFFFFFFFFFFFFFFFFFFFFFFFFFFFFFFFFFFFFFFFF AND EQ PUSH2 0x492 JUMPI PUSH0 PUSH0 REVERT JUMPDEST PUSH1 0x8 PUSH0 SWAP1 SLOAD SWAP1 PUSH2 0x100 EXP SWAP1 DIV PUSH1 0xFF AND ISZERO PUSH2 0x4AA JUMPI PUSH0 PUSH0 REVERT JUMPDEST PUSH0 PUSH1 0x1 SWAP1 POP PUSH0 PUSH1 0x4 SLOAD PUSH1 0x6 SLOAD LT ISZERO SWAP1 POP DUP2 ISZERO PUSH2 0x57F JUMPI DUP1 ISZERO PUSH2 0x548 JUMPI PUSH1 0x8 PUSH1 0x2 SWAP1 SLOAD SWAP1 PUSH2 0x100 EXP SWAP1 DIV PUSH20 0xFFFFFFFFFFFFFFFFFFFFFFFFFFFFFFFFFFFFFFFF AND PUSH20 0xFFFFFFFFFFFFFFFFFFFFFFFFFFFFFFFFFFFFFFFF AND PUSH4 0x86D1A69F PUSH1 0x40 MLOAD DUP2 PUSH4 0xFFFFFFFF AND PUSH1 0xE0 SHL DUP2 MSTORE PUSH1 0x4 ADD PUSH0 PUSH1 0x40 MLOAD DUP1 DUP4 SUB DUP2 PUSH0 DUP8 DUP1 EXTCODESIZE ISZERO DUP1 ISZERO PUSH2 0x52D JUMPI PUSH0 PUSH0 REVERT JUMPDEST POP GAS CALL ISZERO DUP1 ISZERO PUSH2 0x53F JUMPI RETURNDATASIZE PUSH0 PUSH0 RETURNDATACOPY RETURNDATASIZE PUSH0 REVERT JUMPDEST POP POP POP POP PUSH2 0x564 JUMP JUMPDEST PUSH1 0x1 PUSH1 0x8 PUSH1 0x1 PUSH2 0x100 EXP DUP2 SLOAD DUP2 PUSH1 0xFF MUL NOT AND SWAP1 DUP4 ISZERO ISZERO MUL OR SWAP1 SSTORE POP JUMPDEST PUSH1 0x1 PUSH1 0x8 PUSH0 PUSH2 0x100 EXP DUP2 SLOAD DUP2 PUSH1 0xFF MUL NOT AND SWAP1 DUP4 ISZERO ISZERO MUL OR SWAP1 SSTORE POP JUMPDEST POP POP JUMP JUMPDEST PUSH1 0x8 PUSH1 0x1 SWAP1 SLOAD SWAP1 PUSH2 0x100 EXP SWAP1 DIV PUSH1 0xFF AND PUSH2 0x59B JUMPI PUSH0 PUSH0 REVERT JUMPDEST PUSH0 CALLER SWAP1 POP PUSH0 PUSH1 0x5 PUSH0 DUP4 PUSH20 0xFFFFFFFFFFFFFFFFFFFFFFFFFFFFFFFFFFFFFFFF AND PUSH20 0xFFFFFFFFFFFFFFFFFFFFFFFFFFFFFFFFFFFFFFFF AND DUP2 MSTORE PUSH1 0x20 ADD SWAP1 DUP2 MSTORE PUSH1 0x20 ADD PUSH0 KECCAK256 SLOAD SWAP1 POP PUSH0 DUP2 SUB PUSH2 0x5EB JUMPI PUSH0 PUSH0 REVERT JUMPDEST PUSH0 PUSH1 0x5 PUSH0 DUP5 PUSH20 0xFFFFFFFFFFFFFFFFFFFFFFFFFFFFFFFFFFFFFFFF AND PUSH20 0xFFFFFFFFFFFFFFFFFFFFFFFFFFFFFFFFFFFFFFFF AND DUP2 MSTORE PUSH1 0x20 ADD SWAP1 DUP2 MSTORE PUSH1 0x20 ADD PUSH0 KECCAK256 DUP2 SWAP1 SSTORE POP DUP1 PUSH1 0x7 PUSH0 DUP3 DUP3 SLOAD PUSH2 0x63E SWAP2 SWAP1 PUSH2 0xC6D JUMP JUMPDEST SWAP3 POP POP DUP2 SWAP1 SSTORE POP PUSH32 0xBB28353E4598C3B9199101A66E0989549B659A59A54D2C27FBB183F1932C8E6D CALLER DUP3 PUSH1 0x40 MLOAD PUSH2 0x676 SWAP3 SWAP2 SWAP1 PUSH2 0xCA0 JUMP JUMPDEST PUSH1 0x40 MLOAD DUP1 SWAP2 SUB SWAP1 LOG1 DUP2 PUSH20 0xFFFFFFFFFFFFFFFFFFFFFFFFFFFFFFFFFFFFFFFF AND PUSH2 0x8FC DUP3 SWAP1 DUP2 ISZERO MUL SWAP1 PUSH1 0x40 MLOAD PUSH0 PUSH1 0x40 MLOAD DUP1 DUP4 SUB DUP2 DUP6 DUP9 DUP9 CALL SWAP4 POP POP POP POP PUSH2 0x6BA JUMPI PUSH0 PUSH0 REVERT JUMPDEST POP POP JUMP JUMPDEST PUSH0 PUSH1 0x14 SWAP1 SLOAD SWAP1 PUSH2 0x100 EXP SWAP1 DIV PUSH1 0xFF AND DUP2 JUMP JUMPDEST PUSH1 0x1 SLOAD DUP2 JUMP JUMPDEST PUSH0 PUSH0 SWAP1 SLOAD SWAP1 PUSH2 0x100 EXP SWAP1 DIV PUSH20 0xFFFFFFFFFFFFFFFFFFFFFFFFFFFFFFFFFFFFFFFF AND PUSH20 0xFFFFFFFFFFFFFFFFFFFFFFFFFFFFFFFFFFFFFFFF AND CALLER PUSH20 0xFFFFFFFFFFFFFFFFFFFFFFFFFFFFFFFFFFFFFFFF AND EQ PUSH2 0x72D JUMPI PUSH0 PUSH0 REVERT JUMPDEST PUSH0 PUSH1 0x14 SWAP1 SLOAD SWAP1 PUSH2 0x100 EXP SWAP1 DIV PUSH1 0xFF AND ISZERO PUSH2 0x745 JUMPI PUSH0 PUSH0 REVERT JUMPDEST PUSH1 0x1 PUSH0 PUSH1 0x14 PUSH2 0x100 EXP DUP2 SLOAD DUP2 PUSH1 0xFF MUL NOT AND SWAP1 DUP4 ISZERO ISZERO MUL OR SWAP1 SSTORE POP JUMP JUMPDEST PUSH1 0x8 PUSH0 SWAP1 SLOAD SWAP1 PUSH2 0x100 EXP SWAP1 DIV PUSH1 0xFF AND DUP2 JUMP JUMPDEST PUSH0 PUSH0 SWAP1 SLOAD SWAP1 PUSH2 0x100 EXP SWAP1 DIV PUSH20 0xFFFFFFFFFFFFFFFFFFFFFFFFFFFFFFFFFFFFFFFF AND DUP2 JUMP JUMPDEST PUSH1 0x4 SLOAD DUP2 JUMP JUMPDEST PUSH1 0x8 PUSH1 0x1 SWAP1 SLOAD SWAP1 PUSH2 0x100 EXP SWAP1 DIV PUSH1 0xFF AND DUP2 JUMP JUMPDEST PUSH2 0x7B9 CALLVALUE PUSH2 0x941 JUMP JUMPDEST PUSH2 0x7C1 JUMPI PUSH0 PUSH0 REVERT JUMPDEST PUSH0 CALLER SWAP1 POP PUSH0 CALLVALUE SWAP1 POP DUP1 PUSH1 0x5 PUSH0 DUP5 PUSH20 0xFFFFFFFFFFFFFFFFFFFFFFFFFFFFFFFFFFFFFFFF AND PUSH20 0xFFFFFFFFFFFFFFFFFFFFFFFFFFFFFFFFFFFFFFFF AND DUP2 MSTORE PUSH1 0x20 ADD SWAP1 DUP2 MSTORE PUSH1 0x20 ADD PUSH0 KECCAK256 PUSH0 DUP3 DUP3 SLOAD PUSH2 0x815 SWAP2 SWAP1 PUSH2 0xC6D JUMP JUMPDEST SWAP3 POP POP DUP2 SWAP1 SSTORE POP DUP1 PUSH1 0x6 PUSH0 DUP3 DUP3 SLOAD PUSH2 0x82D SWAP2 SWAP1 PUSH2 0xC6D JUMP JUMPDEST SWAP3 POP POP DUP2 SWAP1 SSTORE POP PUSH2 0x83E DUP3 DUP3 PUSH2 0xA06 JUMP JUMPDEST DUP2 PUSH20 0xFFFFFFFFFFFFFFFFFFFFFFFFFFFFFFFFFFFFFFFF AND PUSH32 0xC74590E3281392E897F5C0F45530951CFE0DB0E86C76D65AF861E80B925871A4 DUP3 PUSH1 0x40 MLOAD PUSH2 0x884 SWAP2 SWAP1 PUSH2 0xACF JUMP JUMPDEST PUSH1 0x40 MLOAD DUP1 SWAP2 SUB SWAP1 LOG2 POP POP JUMP JUMPDEST PUSH1 0x3 SLOAD DUP2 JUMP JUMPDEST PUSH1 0x5 PUSH1 0x20 MSTORE DUP1 PUSH0 MSTORE PUSH1 0x40 PUSH0 KECCAK256 PUSH0 SWAP2 POP SWAP1 POP SLOAD DUP2 JUMP JUMPDEST PUSH0 PUSH0 SWAP1 SLOAD SWAP1 PUSH2 0x100 EXP SWAP1 DIV PUSH20 0xFFFFFFFFFFFFFFFFFFFFFFFFFFFFFFFFFFFFFFFF AND PUSH20 0xFFFFFFFFFFFFFFFFFFFFFFFFFFFFFFFFFFFFFFFF AND CALLER PUSH20 0xFFFFFFFFFFFFFFFFFFFFFFFFFFFFFFFFFFFFFFFF AND EQ PUSH2 0x902 JUMPI PUSH0 PUSH0 REVERT JUMPDEST DUP1 PUSH20 0xFFFFFFFFFFFFFFFFFFFFFFFFFFFFFFFFFFFFFFFF AND SELFDESTRUCT JUMPDEST PUSH1 0x8 PUSH1 0x2 SWAP1 SLOAD SWAP1 PUSH2 0x100 EXP SWAP1 DIV PUSH20 0xFFFFFFFFFFFFFFFFFFFFFFFFFFFFFFFFFFFFFFFF AND DUP2 JUMP JUMPDEST PUSH0 PUSH0 PUSH0 DUP4 EQ ISZERO SWAP1 POP PUSH0 PUSH1 0x1 SWAP1 POP DUP2 DUP1 ISZERO PUSH2 0x958 JUMPI POP DUP1 JUMPDEST DUP1 ISZERO PUSH2 0x9FD JUMPI POP PUSH1 0x9 PUSH0 SWAP1 SLOAD SWAP1 PUSH2 0x100 EXP SWAP1 DIV PUSH20 0xFFFFFFFFFFFFFFFFFFFFFFFFFFFFFFFFFFFFFFFF AND PUSH20 0xFFFFFFFFFFFFFFFFFFFFFFFFFFFFFFFFFFFFFFFF AND PUSH4 0x6B9C583 DUP6 PUSH1 0x6 SLOAD PUSH1 0x40 MLOAD DUP4 PUSH4 0xFFFFFFFF AND PUSH1 0xE0 SHL DUP2 MSTORE PUSH1 0x4 ADD PUSH2 0x9BD SWAP3 SWAP2 SWAP1 PUSH2 0xCC7 JUMP JUMPDEST PUSH1 0x20 PUSH1 0x40 MLOAD DUP1 DUP4 SUB DUP2 DUP7 GAS STATICCALL ISZERO DUP1 ISZERO PUSH2 0x9D8 JUMPI RETURNDATASIZE PUSH0 PUSH0 RETURNDATACOPY RETURNDATASIZE PUSH0 REVERT JUMPDEST POP POP POP POP PUSH1 0x40 MLOAD RETURNDATASIZE PUSH1 0x1F NOT PUSH1 0x1F DUP3 ADD AND DUP3 ADD DUP1 PUSH1 0x40 MSTORE POP DUP2 ADD SWAP1 PUSH2 0x9FC SWAP2 SWAP1 PUSH2 0xD18 JUMP JUMPDEST JUMPDEST SWAP3 POP POP POP SWAP2 SWAP1 POP JUMP JUMPDEST PUSH0 PUSH2 0xA10 DUP3 PUSH2 0xAA1 JUMP JUMPDEST SWAP1 POP PUSH1 0x8 PUSH1 0x2 SWAP1 SLOAD SWAP1 PUSH2 0x100 EXP SWAP1 DIV PUSH20 0xFFFFFFFFFFFFFFFFFFFFFFFFFFFFFFFFFFFFFFFF AND PUSH20 0xFFFFFFFFFFFFFFFFFFFFFFFFFFFFFFFFFFFFFFFF AND PUSH4 0x40C10F19 DUP5 DUP4 PUSH1 0x40 MLOAD DUP4 PUSH4 0xFFFFFFFF AND PUSH1 0xE0 SHL DUP2 MSTORE PUSH1 0x4 ADD PUSH2 0xA6F SWAP3 SWAP2 SWAP1 PUSH2 0xCA0 JUMP JUMPDEST PUSH0 PUSH1 0x40 MLOAD DUP1 DUP4 SUB DUP2 PUSH0 DUP8 DUP1 EXTCODESIZE ISZERO DUP1 ISZERO PUSH2 0xA86 JUMPI PUSH0 PUSH0 REVERT JUMPDEST POP GAS CALL ISZERO DUP1 ISZERO PUSH2 0xA98 JUMPI RETURNDATASIZE PUSH0 PUSH0 RETURNDATACOPY RETURNDATASIZE PUSH0 REVERT JUMPDEST POP POP POP POP POP POP POP JUMP JUMPDEST PUSH0 PUSH1 0x3 SLOAD DUP3 PUSH2 0xAB0 SWAP2 SWAP1 PUSH2 0xD70 JUMP JUMPDEST SWAP1 POP SWAP2 SWAP1 POP JUMP JUMPDEST PUSH0 DUP2 SWAP1 POP SWAP2 SWAP1 POP JUMP JUMPDEST PUSH2 0xAC9 DUP2 PUSH2 0xAB7 JUMP JUMPDEST DUP3 MSTORE POP POP JUMP JUMPDEST PUSH0 PUSH1 0x20 DUP3 ADD SWAP1 POP PUSH2 0xAE2 PUSH0 DUP4 ADD DUP5 PUSH2 0xAC0 JUMP JUMPDEST SWAP3 SWAP2 POP POP JUMP JUMPDEST PUSH0 DUP2 ISZERO ISZERO SWAP1 POP SWAP2 SWAP1 POP JUMP JUMPDEST PUSH2 0xAFC DUP2 PUSH2 0xAE8 JUMP JUMPDEST DUP3 MSTORE POP POP JUMP JUMPDEST PUSH0 PUSH1 0x20 DUP3 ADD SWAP1 POP PUSH2 0xB15 PUSH0 DUP4 ADD DUP5 PUSH2 0xAF3 JUMP JUMPDEST SWAP3 SWAP2 POP POP JUMP JUMPDEST PUSH0 PUSH20 0xFFFFFFFFFFFFFFFFFFFFFFFFFFFFFFFFFFFFFFFF DUP3 AND SWAP1 POP SWAP2 SWAP1 POP JUMP JUMPDEST PUSH0 PUSH2 0xB44 DUP3 PUSH2 0xB1B JUMP JUMPDEST SWAP1 POP SWAP2 SWAP1 POP JUMP JUMPDEST PUSH2 0xB54 DUP2 PUSH2 0xB3A JUMP JUMPDEST DUP3 MSTORE POP POP JUMP JUMPDEST PUSH0 PUSH1 0x20 DUP3 ADD SWAP1 POP PUSH2 0xB6D PUSH0 DUP4 ADD DUP5 PUSH2 0xB4B JUMP JUMPDEST SWAP3 SWAP2 POP POP JUMP JUMPDEST PUSH0 PUSH0 REVERT JUMPDEST PUSH2 0xB80 DUP2 PUSH2 0xB3A JUMP JUMPDEST DUP2 EQ PUSH2 0xB8A JUMPI PUSH0 PUSH0 REVERT JUMPDEST POP JUMP JUMPDEST PUSH0 DUP2 CALLDATALOAD SWAP1 POP PUSH2 0xB9B DUP2 PUSH2 0xB77 JUMP JUMPDEST SWAP3 SWAP2 POP POP JUMP JUMPDEST PUSH0 PUSH1 0x20 DUP3 DUP5 SUB SLT ISZERO PUSH2 0xBB6 JUMPI PUSH2 0xBB5 PUSH2 0xB73 JUMP JUMPDEST JUMPDEST PUSH0 PUSH2 0xBC3 DUP5 DUP3 DUP6 ADD PUSH2 0xB8D JUMP JUMPDEST SWAP2 POP POP SWAP3 SWAP2 POP POP JUMP JUMPDEST PUSH0 DUP2 SWAP1 POP SWAP2 SWAP1 POP JUMP JUMPDEST PUSH0 PUSH2 0xBEF PUSH2 0xBEA PUSH2 0xBE5 DUP5 PUSH2 0xB1B JUMP JUMPDEST PUSH2 0xBCC JUMP JUMPDEST PUSH2 0xB1B JUMP JUMPDEST SWAP1 POP SWAP2 SWAP1 POP JUMP JUMPDEST PUSH0 PUSH2 0xC00 DUP3 PUSH2 0xBD5 JUMP JUMPDEST SWAP1 POP SWAP2 SWAP1 POP JUMP JUMPDEST PUSH0 PUSH2 0xC11 DUP3 PUSH2 0xBF6 JUMP JUMPDEST SWAP1 POP SWAP2 SWAP1 POP JUMP JUMPDEST PUSH2 0xC21 DUP2 PUSH2 0xC07 JUMP JUMPDEST DUP3 MSTORE POP POP JUMP JUMPDEST PUSH0 PUSH1 0x20 DUP3 ADD SWAP1 POP PUSH2 0xC3A PUSH0 DUP4 ADD DUP5 PUSH2 0xC18 JUMP JUMPDEST SWAP3 SWAP2 POP POP JUMP JUMPDEST PUSH32 0x4E487B7100000000000000000000000000000000000000000000000000000000 PUSH0 MSTORE PUSH1 0x11 PUSH1 0x4 MSTORE PUSH1 0x24 PUSH0 REVERT JUMPDEST PUSH0 PUSH2 0xC77 DUP3 PUSH2 0xAB7 JUMP JUMPDEST SWAP2 POP PUSH2 0xC82 DUP4 PUSH2 0xAB7 JUMP JUMPDEST SWAP3 POP DUP3 DUP3 ADD SWAP1 POP DUP1 DUP3 GT ISZERO PUSH2 0xC9A JUMPI PUSH2 0xC99 PUSH2 0xC40 JUMP JUMPDEST JUMPDEST SWAP3 SWAP2 POP POP JUMP JUMPDEST PUSH0 PUSH1 0x40 DUP3 ADD SWAP1 POP PUSH2 0xCB3 PUSH0 DUP4 ADD DUP6 PUSH2 0xB4B JUMP JUMPDEST PUSH2 0xCC0 PUSH1 0x20 DUP4 ADD DUP5 PUSH2 0xAC0 JUMP JUMPDEST SWAP4 SWAP3 POP POP POP JUMP JUMPDEST PUSH0 PUSH1 0x40 DUP3 ADD SWAP1 POP PUSH2 0xCDA PUSH0 DUP4 ADD DUP6 PUSH2 0xAC0 JUMP JUMPDEST PUSH2 0xCE7 PUSH1 0x20 DUP4 ADD DUP5 PUSH2 0xAC0 JUMP JUMPDEST SWAP4 SWAP3 POP POP POP JUMP JUMPDEST PUSH2 0xCF7 DUP2 PUSH2 0xAE8 JUMP JUMPDEST DUP2 EQ PUSH2 0xD01 JUMPI PUSH0 PUSH0 REVERT JUMPDEST POP JUMP JUMPDEST PUSH0 DUP2 MLOAD SWAP1 POP PUSH2 0xD12 DUP2 PUSH2 0xCEE JUMP JUMPDEST SWAP3 SWAP2 POP POP JUMP JUMPDEST PUSH0 PUSH1 0x20 DUP3 DUP5 SUB SLT ISZERO PUSH2 0xD2D JUMPI PUSH2 0xD2C PUSH2 0xB73 JUMP JUMPDEST JUMPDEST PUSH0 PUSH2 0xD3A DUP5 DUP3 DUP6 ADD PUSH2 0xD04 JUMP JUMPDEST SWAP2 POP POP SWAP3 SWAP2 POP POP JUMP JUMPDEST PUSH32 0x4E487B7100000000000000000000000000000000000000000000000000000000 PUSH0 MSTORE PUSH1 0x12 PUSH1 0x4 MSTORE PUSH1 0x24 PUSH0 REVERT JUMPDEST PUSH0 PUSH2 0xD7A DUP3 PUSH2 0xAB7 JUMP JUMPDEST SWAP2 POP PUSH2 0xD85 DUP4 PUSH2 0xAB7 JUMP JUMPDEST SWAP3 POP DUP3 PUSH2 0xD95 JUMPI PUSH2 0xD94 PUSH2 0xD43 JUMP JUMPDEST JUMPDEST DUP3 DUP3 DIV SWAP1 POP SWAP3 SWAP2 POP POP JUMP INVALID LOG2 PUSH5 0x6970667358 0x22 SLT KECCAK256 DUP14 DUP12 CODESIZE 0xD8 DUP14 0x4C STATICCALL PUSH14 0x3BC597899DF95BB57BCA13DADBD0 PUSH32 0xB308E442993FE04DBE64736F6C634300081E003360806040525F60055F610100 EXP DUP2 SLOAD DUP2 PUSH1 0xFF MUL NOT AND SWAP1 DUP4 ISZERO ISZERO MUL OR SWAP1 SSTORE POP PUSH0 PUSH1 0x5 PUSH1 0x1 PUSH2 0x100 EXP DUP2 SLOAD DUP2 PUSH1 0xFF MUL NOT AND SWAP1 DUP4 ISZERO ISZERO MUL OR SWAP1 SSTORE POP CALLVALUE DUP1 ISZERO PUSH2 0x42 JUMPI PUSH0 PUSH0 REVERT JUMPDEST POP PUSH1 0x40 MLOAD PUSH2 0x15D8 CODESIZE SUB DUP1 PUSH2 0x15D8 DUP4 CODECOPY DUP2 DUP2 ADD PUSH1 0x40 MSTORE DUP2 ADD SWAP1 PUSH2 0x64 SWAP2 SWAP1 PUSH2 0x2B4 JUMP JUMPDEST DUP1 CALLER PUSH0 PUSH0 PUSH2 0x100 EXP DUP2 SLOAD DUP2 PUSH20 0xFFFFFFFFFFFFFFFFFFFFFFFFFFFFFFFFFFFFFFFF MUL NOT AND SWAP1 DUP4 PUSH20 0xFFFFFFFFFFFFFFFFFFFFFFFFFFFFFFFFFFFFFFFF AND MUL OR SWAP1 SSTORE POP CALLER PUSH0 PUSH0 PUSH2 0x100 EXP DUP2 SLOAD DUP2 PUSH20 0xFFFFFFFFFFFFFFFFFFFFFFFFFFFFFFFFFFFFFFFF MUL NOT AND SWAP1 DUP4 PUSH20 0xFFFFFFFFFFFFFFFFFFFFFFFFFFFFFFFFFFFFFFFF AND MUL OR SWAP1 SSTORE POP DUP1 PUSH1 0x1 PUSH0 DUP3 DUP3 SLOAD PUSH2 0xF4 SWAP2 SWAP1 PUSH2 0x30C JUMP JUMPDEST SWAP3 POP POP DUP2 SWAP1 SSTORE POP PUSH2 0x12B PUSH0 PUSH0 SWAP1 SLOAD SWAP1 PUSH2 0x100 EXP SWAP1 DIV PUSH20 0xFFFFFFFFFFFFFFFFFFFFFFFFFFFFFFFFFFFFFFFF AND DUP3 PUSH2 0x132 PUSH1 0x20 SHL PUSH1 0x20 SHR JUMP JUMPDEST POP POP PUSH2 0x367 JUMP JUMPDEST PUSH0 PUSH0 SWAP1 SLOAD SWAP1 PUSH2 0x100 EXP SWAP1 DIV PUSH20 0xFFFFFFFFFFFFFFFFFFFFFFFFFFFFFFFFFFFFFFFF AND PUSH20 0xFFFFFFFFFFFFFFFFFFFFFFFFFFFFFFFFFFFFFFFF AND CALLER PUSH20 0xFFFFFFFFFFFFFFFFFFFFFFFFFFFFFFFFFFFFFFFF AND EQ PUSH2 0x189 JUMPI PUSH0 PUSH0 REVERT JUMPDEST DUP1 PUSH1 0x2 PUSH0 DUP5 PUSH20 0xFFFFFFFFFFFFFFFFFFFFFFFFFFFFFFFFFFFFFFFF AND PUSH20 0xFFFFFFFFFFFFFFFFFFFFFFFFFFFFFFFFFFFFFFFF AND DUP2 MSTORE PUSH1 0x20 ADD SWAP1 DUP2 MSTORE PUSH1 0x20 ADD PUSH0 KECCAK256 PUSH0 DUP3 DUP3 SLOAD PUSH2 0x1D5 SWAP2 SWAP1 PUSH2 0x30C JUMP JUMPDEST SWAP3 POP POP DUP2 SWAP1 SSTORE POP DUP1 PUSH1 0x1 PUSH0 DUP3 DUP3 SLOAD PUSH2 0x1ED SWAP2 SWAP1 PUSH2 0x30C JUMP JUMPDEST SWAP3 POP POP DUP2 SWAP1 SSTORE POP DUP2 PUSH20 0xFFFFFFFFFFFFFFFFFFFFFFFFFFFFFFFFFFFFFFFF AND PUSH0 PUSH0 SWAP1 SLOAD SWAP1 PUSH2 0x100 EXP SWAP1 DIV PUSH20 0xFFFFFFFFFFFFFFFFFFFFFFFFFFFFFFFFFFFFFFFF AND PUSH20 0xFFFFFFFFFFFFFFFFFFFFFFFFFFFFFFFFFFFFFFFF AND PUSH32 0xDDF252AD1BE2C89B69C2B068FC378DAA952BA7F163C4A11628F55A4DF523B3EF DUP4 PUSH1 0x40 MLOAD PUSH2 0x271 SWAP2 SWAP1 PUSH2 0x34E JUMP JUMPDEST PUSH1 0x40 MLOAD DUP1 SWAP2 SUB SWAP1 LOG3 POP POP JUMP JUMPDEST PUSH0 PUSH0 REVERT JUMPDEST PUSH0 DUP2 SWAP1 POP SWAP2 SWAP1 POP JUMP JUMPDEST PUSH2 0x293 DUP2 PUSH2 0x281 JUMP JUMPDEST DUP2 EQ PUSH2 0x29D JUMPI PUSH0 PUSH0 REVERT JUMPDEST POP JUMP JUMPDEST PUSH0 DUP2 MLOAD SWAP1 POP PUSH2 0x2AE DUP2 PUSH2 0x28A JUMP JUMPDEST SWAP3 SWAP2 POP POP JUMP JUMPDEST PUSH0 PUSH1 0x20 DUP3 DUP5 SUB SLT ISZERO PUSH2 0x2C9 JUMPI PUSH2 0x2C8 PUSH2 0x27D JUMP JUMPDEST JUMPDEST PUSH0 PUSH2 0x2D6 DUP5 DUP3 DUP6 ADD PUSH2 0x2A0 JUMP JUMPDEST SWAP2 POP POP SWAP3 SWAP2 POP POP JUMP JUMPDEST PUSH32 0x4E487B7100000000000000000000000000000000000000000000000000000000 PUSH0 MSTORE PUSH1 0x11 PUSH1 0x4 MSTORE PUSH1 0x24 PUSH0 REVERT JUMPDEST PUSH0 PUSH2 0x316 DUP3 PUSH2 0x281 JUMP JUMPDEST SWAP2 POP PUSH2 0x321 DUP4 PUSH2 0x281 JUMP JUMPDEST SWAP3 POP DUP3 DUP3 ADD SWAP1 POP DUP1 DUP3 GT ISZERO PUSH2 0x339 JUMPI PUSH2 0x338 PUSH2 0x2DF JUMP JUMPDEST JUMPDEST SWAP3 SWAP2 POP POP JUMP JUMPDEST PUSH2 0x348 DUP2 PUSH2 0x281 JUMP JUMPDEST DUP3 MSTORE POP POP JUMP JUMPDEST PUSH0 PUSH1 0x20 DUP3 ADD SWAP1 POP PUSH2 0x361 PUSH0 DUP4 ADD DUP5 PUSH2 0x33F JUMP JUMPDEST SWAP3 SWAP2 POP POP JUMP JUMPDEST PUSH2 0x1264 DUP1 PUSH2 0x374 PUSH0 CODECOPY PUSH0 RETURN INVALID PUSH1 0x80 PUSH1 0x40 MSTORE CALLVALUE DUP1 ISZERO PUSH2 0xF JUMPI PUSH0 PUSH0 REVERT JUMPDEST POP PUSH1 0x4 CALLDATASIZE LT PUSH2 0x109 JUMPI PUSH0 CALLDATALOAD PUSH1 0xE0 SHR DUP1 PUSH4 0x86D1A69F GT PUSH2 0xA0 JUMPI DUP1 PUSH4 0xB414D4B6 GT PUSH2 0x6F JUMPI DUP1 PUSH4 0xB414D4B6 EQ PUSH2 0x27F JUMPI DUP1 PUSH4 0xDD62ED3E EQ PUSH2 0x2AF JUMPI DUP1 PUSH4 0xE724529C EQ PUSH2 0x2DF JUMPI DUP1 PUSH4 0xF5074F41 EQ PUSH2 0x2FB JUMPI DUP1 PUSH4 0xFABDE80C EQ PUSH2 0x317 JUMPI PUSH2 0x109 JUMP JUMPDEST DUP1 PUSH4 0x86D1A69F EQ PUSH2 0x209 JUMPI DUP1 PUSH4 0x8DA5CB5B EQ PUSH2 0x213 JUMPI DUP1 PUSH4 0x96132521 EQ PUSH2 0x231 JUMPI DUP1 PUSH4 0xA9059CBB EQ PUSH2 0x24F JUMPI PUSH2 0x109 JUMP JUMPDEST DUP1 PUSH4 0x40C10F19 GT PUSH2 0xDC JUMPI DUP1 PUSH4 0x40C10F19 EQ PUSH2 0x195 JUMPI DUP1 PUSH4 0x5C975ABB EQ PUSH2 0x1B1 JUMPI DUP1 PUSH4 0x70A08231 EQ PUSH2 0x1CF JUMPI DUP1 PUSH4 0x8456CB59 EQ PUSH2 0x1FF JUMPI PUSH2 0x109 JUMP JUMPDEST DUP1 PUSH4 0x95EA7B3 EQ PUSH2 0x10D JUMPI DUP1 PUSH4 0x18160DDD EQ PUSH2 0x13D JUMPI DUP1 PUSH4 0x23B872DD EQ PUSH2 0x15B JUMPI DUP1 PUSH4 0x3F4BA83A EQ PUSH2 0x18B JUMPI JUMPDEST PUSH0 PUSH0 REVERT JUMPDEST PUSH2 0x127 PUSH1 0x4 DUP1 CALLDATASIZE SUB DUP2 ADD SWAP1 PUSH2 0x122 SWAP2 SWAP1 PUSH2 0xF92 JUMP JUMPDEST PUSH2 0x347 JUMP JUMPDEST PUSH1 0x40 MLOAD PUSH2 0x134 SWAP2 SWAP1 PUSH2 0xFEA JUMP JUMPDEST PUSH1 0x40 MLOAD DUP1 SWAP2 SUB SWAP1 RETURN JUMPDEST PUSH2 0x145 PUSH2 0x434 JUMP JUMPDEST PUSH1 0x40 MLOAD PUSH2 0x152 SWAP2 SWAP1 PUSH2 0x1012 JUMP JUMPDEST PUSH1 0x40 MLOAD DUP1 SWAP2 SUB SWAP1 RETURN JUMPDEST PUSH2 0x175 PUSH1 0x4 DUP1 CALLDATASIZE SUB DUP2 ADD SWAP1 PUSH2 0x170 SWAP2 SWAP1 PUSH2 0x102B JUMP JUMPDEST PUSH2 0x43D JUMP JUMPDEST PUSH1 0x40 MLOAD PUSH2 0x182 SWAP2 SWAP1 PUSH2 0xFEA JUMP JUMPDEST PUSH1 0x40 MLOAD DUP1 SWAP2 SUB SWAP1 RETURN JUMPDEST PUSH2 0x193 PUSH2 0x46A JUMP JUMPDEST STOP JUMPDEST PUSH2 0x1AF PUSH1 0x4 DUP1 CALLDATASIZE SUB DUP2 ADD SWAP1 PUSH2 0x1AA SWAP2 SWAP1 PUSH2 0xF92 JUMP JUMPDEST PUSH2 0x4F3 JUMP JUMPDEST STOP JUMPDEST PUSH2 0x1B9 PUSH2 0x63E JUMP JUMPDEST PUSH1 0x40 MLOAD PUSH2 0x1C6 SWAP2 SWAP1 PUSH2 0xFEA JUMP JUMPDEST PUSH1 0x40 MLOAD DUP1 SWAP2 SUB SWAP1 RETURN JUMPDEST PUSH2 0x1E9 PUSH1 0x4 DUP1 CALLDATASIZE SUB DUP2 ADD SWAP1 PUSH2 0x1E4 SWAP2 SWAP1 PUSH2 0x107B JUMP JUMPDEST PUSH2 0x650 JUMP JUMPDEST PUSH1 0x40 MLOAD PUSH2 0x1F6 SWAP2 SWAP1 PUSH2 0x1012 JUMP JUMPDEST PUSH1 0x40 MLOAD DUP1 SWAP2 SUB SWAP1 RETURN JUMPDEST PUSH2 0x207 PUSH2 0x696 JUMP JUMPDEST STOP JUMPDEST PUSH2 0x211 PUSH2 0x721 JUMP JUMPDEST STOP JUMPDEST PUSH2 0x21B PUSH2 0x795 JUMP JUMPDEST PUSH1 0x40 MLOAD PUSH2 0x228 SWAP2 SWAP1 PUSH2 0x10B5 JUMP JUMPDEST PUSH1 0x40 MLOAD DUP1 SWAP2 SUB SWAP1 RETURN JUMPDEST PUSH2 0x239 PUSH2 0x7B9 JUMP JUMPDEST PUSH1 0x40 MLOAD PUSH2 0x246 SWAP2 SWAP1 PUSH2 0xFEA JUMP JUMPDEST PUSH1 0x40 MLOAD DUP1 SWAP2 SUB SWAP1 RETURN JUMPDEST PUSH2 0x269 PUSH1 0x4 DUP1 CALLDATASIZE SUB DUP2 ADD SWAP1 PUSH2 0x264 SWAP2 SWAP1 PUSH2 0xF92 JUMP JUMPDEST PUSH2 0x7CC JUMP JUMPDEST PUSH1 0x40 MLOAD PUSH2 0x276 SWAP2 SWAP1 PUSH2 0xFEA JUMP JUMPDEST PUSH1 0x40 MLOAD DUP1 SWAP2 SUB SWAP1 RETURN JUMPDEST PUSH2 0x299 PUSH1 0x4 DUP1 CALLDATASIZE SUB DUP2 ADD SWAP1 PUSH2 0x294 SWAP2 SWAP1 PUSH2 0x107B JUMP JUMPDEST PUSH2 0x9BC JUMP JUMPDEST PUSH1 0x40 MLOAD PUSH2 0x2A6 SWAP2 SWAP1 PUSH2 0xFEA JUMP JUMPDEST PUSH1 0x40 MLOAD DUP1 SWAP2 SUB SWAP1 RETURN JUMPDEST PUSH2 0x2C9 PUSH1 0x4 DUP1 CALLDATASIZE SUB DUP2 ADD SWAP1 PUSH2 0x2C4 SWAP2 SWAP1 PUSH2 0x10CE JUMP JUMPDEST PUSH2 0x9D9 JUMP JUMPDEST PUSH1 0x40 MLOAD PUSH2 0x2D6 SWAP2 SWAP1 PUSH2 0x1012 JUMP JUMPDEST PUSH1 0x40 MLOAD DUP1 SWAP2 SUB SWAP1 RETURN JUMPDEST PUSH2 0x2F9 PUSH1 0x4 DUP1 CALLDATASIZE SUB DUP2 ADD SWAP1 PUSH2 0x2F4 SWAP2 SWAP1 PUSH2 0x1136 JUMP JUMPDEST PUSH2 0xA5B JUMP JUMPDEST STOP JUMPDEST PUSH2 0x315 PUSH1 0x4 DUP1 CALLDATASIZE SUB DUP2 ADD SWAP1 PUSH2 0x310 SWAP2 SWAP1 PUSH2 0x107B JUMP JUMPDEST PUSH2 0xB43 JUMP JUMPDEST STOP JUMPDEST PUSH2 0x331 PUSH1 0x4 DUP1 CALLDATASIZE SUB DUP2 ADD SWAP1 PUSH2 0x32C SWAP2 SWAP1 PUSH2 0x107B JUMP JUMPDEST PUSH2 0xBB3 JUMP JUMPDEST PUSH1 0x40 MLOAD PUSH2 0x33E SWAP2 SWAP1 PUSH2 0x1012 JUMP JUMPDEST PUSH1 0x40 MLOAD DUP1 SWAP2 SUB SWAP1 RETURN JUMPDEST PUSH0 DUP2 PUSH1 0x3 PUSH0 CALLER PUSH20 0xFFFFFFFFFFFFFFFFFFFFFFFFFFFFFFFFFFFFFFFF AND PUSH20 0xFFFFFFFFFFFFFFFFFFFFFFFFFFFFFFFFFFFFFFFF AND DUP2 MSTORE PUSH1 0x20 ADD SWAP1 DUP2 MSTORE PUSH1 0x20 ADD PUSH0 KECCAK256 PUSH0 DUP6 PUSH20 0xFFFFFFFFFFFFFFFFFFFFFFFFFFFFFFFFFFFFFFFF AND PUSH20 0xFFFFFFFFFFFFFFFFFFFFFFFFFFFFFFFFFFFFFFFF AND DUP2 MSTORE PUSH1 0x20 ADD SWAP1 DUP2 MSTORE PUSH1 0x20 ADD PUSH0 KECCAK256 DUP2 SWAP1 SSTORE POP DUP3 PUSH20 0xFFFFFFFFFFFFFFFFFFFFFFFFFFFFFFFFFFFFFFFF AND CALLER PUSH20 0xFFFFFFFFFFFFFFFFFFFFFFFFFFFFFFFFFFFFFFFF AND PUSH32 0x8C5BE1E5EBEC7D5BD14F71427D1E84F3DD0314C0F7B2291E5B200AC8C7C3B925 DUP5 PUSH1 0x40 MLOAD PUSH2 0x422 SWAP2 SWAP1 PUSH2 0x1012 JUMP JUMPDEST PUSH1 0x40 MLOAD DUP1 SWAP2 SUB SWAP1 LOG3 PUSH1 0x1 SWAP1 POP SWAP3 SWAP2 POP POP JUMP JUMPDEST PUSH0 PUSH1 0x1 SLOAD SWAP1 POP SWAP1 JUMP JUMPDEST PUSH0 PUSH1 0x5 PUSH1 0x1 SWAP1 SLOAD SWAP1 PUSH2 0x100 EXP SWAP1 DIV PUSH1 0xFF AND PUSH2 0x456 JUMPI PUSH0 PUSH0 REVERT JUMPDEST PUSH2 0x461 DUP5 DUP5 DUP5 PUSH2 0xBC8 JUMP JUMPDEST SWAP1 POP SWAP4 SWAP3 POP POP POP JUMP JUMPDEST PUSH0 PUSH0 SWAP1 SLOAD SWAP1 PUSH2 0x100 EXP SWAP1 DIV PUSH20 0xFFFFFFFFFFFFFFFFFFFFFFFFFFFFFFFFFFFFFFFF AND PUSH20 0xFFFFFFFFFFFFFFFFFFFFFFFFFFFFFFFFFFFFFFFF AND CALLER PUSH20 0xFFFFFFFFFFFFFFFFFFFFFFFFFFFFFFFFFFFFFFFF AND EQ PUSH2 0x4C1 JUMPI PUSH0 PUSH0 REVERT JUMPDEST PUSH1 0x5 PUSH0 SWAP1 SLOAD SWAP1 PUSH2 0x100 EXP SWAP1 DIV PUSH1 0xFF AND PUSH2 0x4D8 JUMPI PUSH0 PUSH0 REVERT JUMPDEST PUSH0 PUSH1 0x5 PUSH0 PUSH2 0x100 EXP DUP2 SLOAD DUP2 PUSH1 0xFF MUL NOT AND SWAP1 DUP4 ISZERO ISZERO MUL OR SWAP1 SSTORE POP JUMP JUMPDEST PUSH0 PUSH0 SWAP1 SLOAD SWAP1 PUSH2 0x100 EXP SWAP1 DIV PUSH20 0xFFFFFFFFFFFFFFFFFFFFFFFFFFFFFFFFFFFFFFFF AND PUSH20 0xFFFFFFFFFFFFFFFFFFFFFFFFFFFFFFFFFFFFFFFF AND CALLER PUSH20 0xFFFFFFFFFFFFFFFFFFFFFFFFFFFFFFFFFFFFFFFF AND EQ PUSH2 0x54A JUMPI PUSH0 PUSH0 REVERT JUMPDEST DUP1 PUSH1 0x2 PUSH0 DUP5 PUSH20 0xFFFFFFFFFFFFFFFFFFFFFFFFFFFFFFFFFFFFFFFF AND PUSH20 0xFFFFFFFFFFFFFFFFFFFFFFFFFFFFFFFFFFFFFFFF AND DUP2 MSTORE PUSH1 0x20 ADD SWAP1 DUP2 MSTORE PUSH1 0x20 ADD PUSH0 KECCAK256 PUSH0 DUP3 DUP3 SLOAD PUSH2 0x596 SWAP2 SWAP1 PUSH2 0x11A1 JUMP JUMPDEST SWAP3 POP POP DUP2 SWAP1 SSTORE POP DUP1 PUSH1 0x1 PUSH0 DUP3 DUP3 SLOAD PUSH2 0x5AE SWAP2 SWAP1 PUSH2 0x11A1 JUMP JUMPDEST SWAP3 POP POP DUP2 SWAP1 SSTORE POP DUP2 PUSH20 0xFFFFFFFFFFFFFFFFFFFFFFFFFFFFFFFFFFFFFFFF AND PUSH0 PUSH0 SWAP1 SLOAD SWAP1 PUSH2 0x100 EXP SWAP1 DIV PUSH20 0xFFFFFFFFFFFFFFFFFFFFFFFFFFFFFFFFFFFFFFFF AND PUSH20 0xFFFFFFFFFFFFFFFFFFFFFFFFFFFFFFFFFFFFFFFF AND PUSH32 0xDDF252AD1BE2C89B69C2B068FC378DAA952BA7F163C4A11628F55A4DF523B3EF DUP4 PUSH1 0x40 MLOAD PUSH2 0x632 SWAP2 SWAP1 PUSH2 0x1012 JUMP JUMPDEST PUSH1 0x40 MLOAD DUP1 SWAP2 SUB SWAP1 LOG3 POP POP JUMP JUMPDEST PUSH1 0x5 PUSH0 SWAP1 SLOAD SWAP1 PUSH2 0x100 EXP SWAP1 DIV PUSH1 0xFF AND DUP2 JUMP JUMPDEST PUSH0 PUSH1 0x2 PUSH0 DUP4 PUSH20 0xFFFFFFFFFFFFFFFFFFFFFFFFFFFFFFFFFFFFFFFF AND PUSH20 0xFFFFFFFFFFFFFFFFFFFFFFFFFFFFFFFFFFFFFFFF AND DUP2 MSTORE PUSH1 0x20 ADD SWAP1 DUP2 MSTORE PUSH1 0x20 ADD PUSH0 KECCAK256 SLOAD SWAP1 POP SWAP2 SWAP1 POP JUMP JUMPDEST PUSH0 PUSH0 SWAP1 SLOAD SWAP1 PUSH2 0x100 EXP SWAP1 DIV PUSH20 0xFFFFFFFFFFFFFFFFFFFFFFFFFFFFFFFFFFFFFFFF AND PUSH20 0xFFFFFFFFFFFFFFFFFFFFFFFFFFFFFFFFFFFFFFFF AND CALLER PUSH20 0xFFFFFFFFFFFFFFFFFFFFFFFFFFFFFFFFFFFFFFFF AND EQ PUSH2 0x6ED JUMPI PUSH0 PUSH0 REVERT JUMPDEST PUSH1 0x5 PUSH0 SWAP1 SLOAD SWAP1 PUSH2 0x100 EXP SWAP1 DIV PUSH1 0xFF AND ISZERO PUSH2 0x705 JUMPI PUSH0 PUSH0 REVERT JUMPDEST PUSH1 0x1 PUSH1 0x5 PUSH0 PUSH2 0x100 EXP DUP2 SLOAD DUP2 PUSH1 0xFF MUL NOT AND SWAP1 DUP4 ISZERO ISZERO MUL OR SWAP1 SSTORE POP JUMP JUMPDEST PUSH0 PUSH0 SWAP1 SLOAD SWAP1 PUSH2 0x100 EXP SWAP1 DIV PUSH20 0xFFFFFFFFFFFFFFFFFFFFFFFFFFFFFFFFFFFFFFFF AND PUSH20 0xFFFFFFFFFFFFFFFFFFFFFFFFFFFFFFFFFFFFFFFF AND CALLER PUSH20 0xFFFFFFFFFFFFFFFFFFFFFFFFFFFFFFFFFFFFFFFF AND EQ PUSH2 0x778 JUMPI PUSH0 PUSH0 REVERT JUMPDEST PUSH1 0x1 PUSH1 0x5 PUSH1 0x1 PUSH2 0x100 EXP DUP2 SLOAD DUP2 PUSH1 0xFF MUL NOT AND SWAP1 DUP4 ISZERO ISZERO MUL OR SWAP1 SSTORE POP JUMP JUMPDEST PUSH0 PUSH0 SWAP1 SLOAD SWAP1 PUSH2 0x100 EXP SWAP1 DIV PUSH20 0xFFFFFFFFFFFFFFFFFFFFFFFFFFFFFFFFFFFFFFFF AND DUP2 JUMP JUMPDEST PUSH1 0x5 PUSH1 0x1 SWAP1 SLOAD SWAP1 PUSH2 0x100 EXP SWAP1 DIV PUSH1 0xFF AND DUP2 JUMP JUMPDEST PUSH0 DUP2 PUSH1 0x2 PUSH0 CALLER PUSH20 0xFFFFFFFFFFFFFFFFFFFFFFFFFFFFFFFFFFFFFFFF AND PUSH20 0xFFFFFFFFFFFFFFFFFFFFFFFFFFFFFFFFFFFFFFFF AND DUP2 MSTORE PUSH1 0x20 ADD SWAP1 DUP2 MSTORE PUSH1 0x20 ADD PUSH0 KECCAK256 SLOAD LT ISZERO PUSH2 0x816 JUMPI PUSH0 PUSH0 REVERT JUMPDEST PUSH1 0x2 PUSH0 DUP5 PUSH20 0xFFFFFFFFFFFFFFFFFFFFFFFFFFFFFFFFFFFFFFFF AND PUSH20 0xFFFFFFFFFFFFFFFFFFFFFFFFFFFFFFFFFFFFFFFF AND DUP2 MSTORE PUSH1 0x20 ADD SWAP1 DUP2 MSTORE PUSH1 0x20 ADD PUSH0 KECCAK256 SLOAD DUP3 PUSH1 0x2 PUSH0 DUP7 PUSH20 0xFFFFFFFFFFFFFFFFFFFFFFFFFFFFFFFFFFFFFFFF AND PUSH20 0xFFFFFFFFFFFFFFFFFFFFFFFFFFFFFFFFFFFFFFFF AND DUP2 MSTORE PUSH1 0x20 ADD SWAP1 DUP2 MSTORE PUSH1 0x20 ADD PUSH0 KECCAK256 SLOAD PUSH2 0x89D SWAP2 SWAP1 PUSH2 0x11A1 JUMP JUMPDEST LT ISZERO PUSH2 0x8A7 JUMPI PUSH0 PUSH0 REVERT JUMPDEST DUP2 PUSH1 0x2 PUSH0 CALLER PUSH20 0xFFFFFFFFFFFFFFFFFFFFFFFFFFFFFFFFFFFFFFFF AND PUSH20 0xFFFFFFFFFFFFFFFFFFFFFFFFFFFFFFFFFFFFFFFF AND DUP2 MSTORE PUSH1 0x20 ADD SWAP1 DUP2 MSTORE PUSH1 0x20 ADD PUSH0 KECCAK256 PUSH0 DUP3 DUP3 SLOAD PUSH2 0x8F3 SWAP2 SWAP1 PUSH2 0x11D4 JUMP JUMPDEST SWAP3 POP POP DUP2 SWAP1 SSTORE POP DUP2 PUSH1 0x2 PUSH0 DUP6 PUSH20 0xFFFFFFFFFFFFFFFFFFFFFFFFFFFFFFFFFFFFFFFF AND PUSH20 0xFFFFFFFFFFFFFFFFFFFFFFFFFFFFFFFFFFFFFFFF AND DUP2 MSTORE PUSH1 0x20 ADD SWAP1 DUP2 MSTORE PUSH1 0x20 ADD PUSH0 KECCAK256 PUSH0 DUP3 DUP3 SLOAD PUSH2 0x946 SWAP2 SWAP1 PUSH2 0x11A1 JUMP JUMPDEST SWAP3 POP POP DUP2 SWAP1 SSTORE POP DUP3 PUSH20 0xFFFFFFFFFFFFFFFFFFFFFFFFFFFFFFFFFFFFFFFF AND CALLER PUSH20 0xFFFFFFFFFFFFFFFFFFFFFFFFFFFFFFFFFFFFFFFF AND PUSH32 0xDDF252AD1BE2C89B69C2B068FC378DAA952BA7F163C4A11628F55A4DF523B3EF DUP5 PUSH1 0x40 MLOAD PUSH2 0x9AA SWAP2 SWAP1 PUSH2 0x1012 JUMP JUMPDEST PUSH1 0x40 MLOAD DUP1 SWAP2 SUB SWAP1 LOG3 PUSH1 0x1 SWAP1 POP SWAP3 SWAP2 POP POP JUMP JUMPDEST PUSH1 0x4 PUSH1 0x20 MSTORE DUP1 PUSH0 MSTORE PUSH1 0x40 PUSH0 KECCAK256 PUSH0 SWAP2 POP SLOAD SWAP1 PUSH2 0x100 EXP SWAP1 DIV PUSH1 0xFF AND DUP2 JUMP JUMPDEST PUSH0 PUSH1 0x3 PUSH0 DUP5 PUSH20 0xFFFFFFFFFFFFFFFFFFFFFFFFFFFFFFFFFFFFFFFF AND PUSH20 0xFFFFFFFFFFFFFFFFFFFFFFFFFFFFFFFFFFFFFFFF AND DUP2 MSTORE PUSH1 0x20 ADD SWAP1 DUP2 MSTORE PUSH1 0x20 ADD PUSH0 KECCAK256 PUSH0 DUP4 PUSH20 0xFFFFFFFFFFFFFFFFFFFFFFFFFFFFFFFFFFFFFFFF AND PUSH20 0xFFFFFFFFFFFFFFFFFFFFFFFFFFFFFFFFFFFFFFFF AND DUP2 MSTORE PUSH1 0x20 ADD SWAP1 DUP2 MSTORE PUSH1 0x20 ADD PUSH0 KECCAK256 SLOAD SWAP1 POP SWAP3 SWAP2 POP POP JUMP JUMPDEST PUSH0 PUSH0 SWAP1 SLOAD SWAP1 PUSH2 0x100 EXP SWAP1 DIV PUSH20 0xFFFFFFFFFFFFFFFFFFFFFFFFFFFFFFFFFFFFFFFF AND PUSH20 0xFFFFFFFFFFFFFFFFFFFFFFFFFFFFFFFFFFFFFFFF AND CALLER PUSH20 0xFFFFFFFFFFFFFFFFFFFFFFFFFFFFFFFFFFFFFFFF AND EQ PUSH2 0xAB2 JUMPI PUSH0 PUSH0 REVERT JUMPDEST DUP1 PUSH1 0x4 PUSH0 DUP5 PUSH20 0xFFFFFFFFFFFFFFFFFFFFFFFFFFFFFFFFFFFFFFFF AND PUSH20 0xFFFFFFFFFFFFFFFFFFFFFFFFFFFFFFFFFFFFFFFF AND DUP2 MSTORE PUSH1 0x20 ADD SWAP1 DUP2 MSTORE PUSH1 0x20 ADD PUSH0 KECCAK256 PUSH0 PUSH2 0x100 EXP DUP2 SLOAD DUP2 PUSH1 0xFF MUL NOT AND SWAP1 DUP4 ISZERO ISZERO MUL OR SWAP1 SSTORE POP PUSH32 0x67A17B8DB8FF8FA7CFF69C2328BF8A35F9BE2C88ABEEA30BE900FC28EECE28ED DUP3 DUP3 PUSH1 0x40 MLOAD PUSH2 0xB37 SWAP3 SWAP2 SWAP1 PUSH2 0x1207 JUMP JUMPDEST PUSH1 0x40 MLOAD DUP1 SWAP2 SUB SWAP1 LOG1 POP POP JUMP JUMPDEST PUSH0 PUSH0 SWAP1 SLOAD SWAP1 PUSH2 0x100 EXP SWAP1 DIV PUSH20 0xFFFFFFFFFFFFFFFFFFFFFFFFFFFFFFFFFFFFFFFF AND PUSH20 0xFFFFFFFFFFFFFFFFFFFFFFFFFFFFFFFFFFFFFFFF AND CALLER PUSH20 0xFFFFFFFFFFFFFFFFFFFFFFFFFFFFFFFFFFFFFFFF AND EQ PUSH2 0xB9A JUMPI PUSH0 PUSH0 REVERT JUMPDEST DUP1 PUSH20 0xFFFFFFFFFFFFFFFFFFFFFFFFFFFFFFFFFFFFFFFF AND SELFDESTRUCT JUMPDEST PUSH1 0x2 PUSH1 0x20 MSTORE DUP1 PUSH0 MSTORE PUSH1 0x40 PUSH0 KECCAK256 PUSH0 SWAP2 POP SWAP1 POP SLOAD DUP2 JUMP JUMPDEST PUSH0 PUSH0 PUSH20 0xFFFFFFFFFFFFFFFFFFFFFFFFFFFFFFFFFFFFFFFF AND DUP4 PUSH20 0xFFFFFFFFFFFFFFFFFFFFFFFFFFFFFFFFFFFFFFFF AND SUB PUSH2 0xC00 JUMPI PUSH0 PUSH0 REVERT JUMPDEST DUP2 PUSH1 0x2 PUSH0 DUP7 PUSH20 0xFFFFFFFFFFFFFFFFFFFFFFFFFFFFFFFFFFFFFFFF AND PUSH20 0xFFFFFFFFFFFFFFFFFFFFFFFFFFFFFFFFFFFFFFFF AND DUP2 MSTORE PUSH1 0x20 ADD SWAP1 DUP2 MSTORE PUSH1 0x20 ADD PUSH0 KECCAK256 SLOAD GT PUSH2 0xC48 JUMPI PUSH0 PUSH0 REVERT JUMPDEST PUSH1 0x2 PUSH0 DUP5 PUSH20 0xFFFFFFFFFFFFFFFFFFFFFFFFFFFFFFFFFFFFFFFF AND PUSH20 0xFFFFFFFFFFFFFFFFFFFFFFFFFFFFFFFFFFFFFFFF AND DUP2 MSTORE PUSH1 0x20 ADD SWAP1 DUP2 MSTORE PUSH1 0x20 ADD PUSH0 KECCAK256 SLOAD DUP3 PUSH1 0x2 PUSH0 DUP7 PUSH20 0xFFFFFFFFFFFFFFFFFFFFFFFFFFFFFFFFFFFFFFFF AND PUSH20 0xFFFFFFFFFFFFFFFFFFFFFFFFFFFFFFFFFFFFFFFF AND DUP2 MSTORE PUSH1 0x20 ADD SWAP1 DUP2 MSTORE PUSH1 0x20 ADD PUSH0 KECCAK256 SLOAD PUSH2 0xCCF SWAP2 SWAP1 PUSH2 0x11A1 JUMP JUMPDEST LT ISZERO PUSH2 0xCD9 JUMPI PUSH0 PUSH0 REVERT JUMPDEST PUSH1 0x3 PUSH0 DUP6 PUSH20 0xFFFFFFFFFFFFFFFFFFFFFFFFFFFFFFFFFFFFFFFF AND PUSH20 0xFFFFFFFFFFFFFFFFFFFFFFFFFFFFFFFFFFFFFFFF AND DUP2 MSTORE PUSH1 0x20 ADD SWAP1 DUP2 MSTORE PUSH1 0x20 ADD PUSH0 KECCAK256 PUSH0 CALLER PUSH20 0xFFFFFFFFFFFFFFFFFFFFFFFFFFFFFFFFFFFFFFFF AND PUSH20 0xFFFFFFFFFFFFFFFFFFFFFFFFFFFFFFFFFFFFFFFF AND DUP2 MSTORE PUSH1 0x20 ADD SWAP1 DUP2 MSTORE PUSH1 0x20 ADD PUSH0 KECCAK256 SLOAD DUP3 GT ISZERO PUSH2 0xD5D JUMPI PUSH0 PUSH0 REVERT JUMPDEST DUP2 PUSH1 0x2 PUSH0 DUP7 PUSH20 0xFFFFFFFFFFFFFFFFFFFFFFFFFFFFFFFFFFFFFFFF AND PUSH20 0xFFFFFFFFFFFFFFFFFFFFFFFFFFFFFFFFFFFFFFFF AND DUP2 MSTORE PUSH1 0x20 ADD SWAP1 DUP2 MSTORE PUSH1 0x20 ADD PUSH0 KECCAK256 PUSH0 DUP3 DUP3 SLOAD PUSH2 0xDA9 SWAP2 SWAP1 PUSH2 0x11D4 JUMP JUMPDEST SWAP3 POP POP DUP2 SWAP1 SSTORE POP DUP2 PUSH1 0x2 PUSH0 DUP6 PUSH20 0xFFFFFFFFFFFFFFFFFFFFFFFFFFFFFFFFFFFFFFFF AND PUSH20 0xFFFFFFFFFFFFFFFFFFFFFFFFFFFFFFFFFFFFFFFF AND DUP2 MSTORE PUSH1 0x20 ADD SWAP1 DUP2 MSTORE PUSH1 0x20 ADD PUSH0 KECCAK256 PUSH0 DUP3 DUP3 SLOAD PUSH2 0xDFC SWAP2 SWAP1 PUSH2 0x11A1 JUMP JUMPDEST SWAP3 POP POP DUP2 SWAP1 SSTORE POP DUP2 PUSH1 0x3 PUSH0 DUP7 PUSH20 0xFFFFFFFFFFFFFFFFFFFFFFFFFFFFFFFFFFFFFFFF AND PUSH20 0xFFFFFFFFFFFFFFFFFFFFFFFFFFFFFFFFFFFFFFFF AND DUP2 MSTORE PUSH1 0x20 ADD SWAP1 DUP2 MSTORE PUSH1 0x20 ADD PUSH0 KECCAK256 PUSH0 CALLER PUSH20 0xFFFFFFFFFFFFFFFFFFFFFFFFFFFFFFFFFFFFFFFF AND PUSH20 0xFFFFFFFFFFFFFFFFFFFFFFFFFFFFFFFFFFFFFFFF AND DUP2 MSTORE PUSH1 0x20 ADD SWAP1 DUP2 MSTORE PUSH1 0x20 ADD PUSH0 KECCAK256 PUSH0 DUP3 DUP3 SLOAD PUSH2 0xE8A SWAP2 SWAP1 PUSH2 0x11D4 JUMP JUMPDEST SWAP3 POP POP DUP2 SWAP1 SSTORE POP DUP3 PUSH20 0xFFFFFFFFFFFFFFFFFFFFFFFFFFFFFFFFFFFFFFFF AND DUP5 PUSH20 0xFFFFFFFFFFFFFFFFFFFFFFFFFFFFFFFFFFFFFFFF AND PUSH32 0xDDF252AD1BE2C89B69C2B068FC378DAA952BA7F163C4A11628F55A4DF523B3EF DUP5 PUSH1 0x40 MLOAD PUSH2 0xEEE SWAP2 SWAP1 PUSH2 0x1012 JUMP JUMPDEST PUSH1 0x40 MLOAD DUP1 SWAP2 SUB SWAP1 LOG3 PUSH1 0x1 SWAP1 POP SWAP4 SWAP3 POP POP POP JUMP JUMPDEST PUSH0 PUSH0 REVERT JUMPDEST PUSH0 PUSH20 0xFFFFFFFFFFFFFFFFFFFFFFFFFFFFFFFFFFFFFFFF DUP3 AND SWAP1 POP SWAP2 SWAP1 POP JUMP JUMPDEST PUSH0 PUSH2 0xF2E DUP3 PUSH2 0xF05 JUMP JUMPDEST SWAP1 POP SWAP2 SWAP1 POP JUMP JUMPDEST PUSH2 0xF3E DUP2 PUSH2 0xF24 JUMP JUMPDEST DUP2 EQ PUSH2 0xF48 JUMPI PUSH0 PUSH0 REVERT JUMPDEST POP JUMP JUMPDEST PUSH0 DUP2 CALLDATALOAD SWAP1 POP PUSH2 0xF59 DUP2 PUSH2 0xF35 JUMP JUMPDEST SWAP3 SWAP2 POP POP JUMP JUMPDEST PUSH0 DUP2 SWAP1 POP SWAP2 SWAP1 POP JUMP JUMPDEST PUSH2 0xF71 DUP2 PUSH2 0xF5F JUMP JUMPDEST DUP2 EQ PUSH2 0xF7B JUMPI PUSH0 PUSH0 REVERT JUMPDEST POP JUMP JUMPDEST PUSH0 DUP2 CALLDATALOAD SWAP1 POP PUSH2 0xF8C DUP2 PUSH2 0xF68 JUMP JUMPDEST SWAP3 SWAP2 POP POP JUMP JUMPDEST PUSH0 PUSH0 PUSH1 0x40 DUP4 DUP6 SUB SLT ISZERO PUSH2 0xFA8 JUMPI PUSH2 0xFA7 PUSH2 0xF01 JUMP JUMPDEST JUMPDEST PUSH0 PUSH2 0xFB5 DUP6 DUP3 DUP7 ADD PUSH2 0xF4B JUMP JUMPDEST SWAP3 POP POP PUSH1 0x20 PUSH2 0xFC6 DUP6 DUP3 DUP7 ADD PUSH2 0xF7E JUMP JUMPDEST SWAP2 POP POP SWAP3 POP SWAP3 SWAP1 POP JUMP JUMPDEST PUSH0 DUP2 ISZERO ISZERO SWAP1 POP SWAP2 SWAP1 POP JUMP JUMPDEST PUSH2 0xFE4 DUP2 PUSH2 0xFD0 JUMP JUMPDEST DUP3 MSTORE POP POP JUMP JUMPDEST PUSH0 PUSH1 0x20 DUP3 ADD SWAP1 POP PUSH2 0xFFD PUSH0 DUP4 ADD DUP5 PUSH2 0xFDB JUMP JUMPDEST SWAP3 SWAP2 POP POP JUMP JUMPDEST PUSH2 0x100C DUP2 PUSH2 0xF5F JUMP JUMPDEST DUP3 MSTORE POP POP JUMP JUMPDEST PUSH0 PUSH1 0x20 DUP3 ADD SWAP1 POP PUSH2 0x1025 PUSH0 DUP4 ADD DUP5 PUSH2 0x1003 JUMP JUMPDEST SWAP3 SWAP2 POP POP JUMP JUMPDEST PUSH0 PUSH0 PUSH0 PUSH1 0x60 DUP5 DUP7 SUB SLT ISZERO PUSH2 0x1042 JUMPI PUSH2 0x1041 PUSH2 0xF01 JUMP JUMPDEST JUMPDEST PUSH0 PUSH2 0x104F DUP7 DUP3 DUP8 ADD PUSH2 0xF4B JUMP JUMPDEST SWAP4 POP POP PUSH1 0x20 PUSH2 0x1060 DUP7 DUP3 DUP8 ADD PUSH2 0xF4B JUMP JUMPDEST SWAP3 POP POP PUSH1 0x40 PUSH2 0x1071 DUP7 DUP3 DUP8 ADD PUSH2 0xF7E JUMP JUMPDEST SWAP2 POP POP SWAP3 POP SWAP3 POP SWAP3 JUMP JUMPDEST PUSH0 PUSH1 0x20 DUP3 DUP5 SUB SLT ISZERO PUSH2 0x1090 JUMPI PUSH2 0x108F PUSH2 0xF01 JUMP JUMPDEST JUMPDEST PUSH0 PUSH2 0x109D DUP5 DUP3 DUP6 ADD PUSH2 0xF4B JUMP JUMPDEST SWAP2 POP POP SWAP3 SWAP2 POP POP JUMP JUMPDEST PUSH2 0x10AF DUP2 PUSH2 0xF24 JUMP JUMPDEST DUP3 MSTORE POP POP JUMP JUMPDEST PUSH0 PUSH1 0x20 DUP3 ADD SWAP1 POP PUSH2 0x10C8 PUSH0 DUP4 ADD DUP5 PUSH2 0x10A6 JUMP JUMPDEST SWAP3 SWAP2 POP POP JUMP JUMPDEST PUSH0 PUSH0 PUSH1 0x40 DUP4 DUP6 SUB SLT ISZERO PUSH2 0x10E4 JUMPI PUSH2 0x10E3 PUSH2 0xF01 JUMP JUMPDEST JUMPDEST PUSH0 PUSH2 0x10F1 DUP6 DUP3 DUP7 ADD PUSH2 0xF4B JUMP JUMPDEST SWAP3 POP POP PUSH1 0x20 PUSH2 0x1102 DUP6 DUP3 DUP7 ADD PUSH2 0xF4B JUMP JUMPDEST SWAP2 POP POP SWAP3 POP SWAP3 SWAP1 POP JUMP JUMPDEST PUSH2 0x1115 DUP2 PUSH2 0xFD0 JUMP JUMPDEST DUP2 EQ PUSH2 0x111F JUMPI PUSH0 PUSH0 REVERT JUMPDEST POP JUMP JUMPDEST PUSH0 DUP2 CALLDATALOAD SWAP1 POP PUSH2 0x1130 DUP2 PUSH2 0x110C JUMP JUMPDEST SWAP3 SWAP2 POP POP JUMP JUMPDEST PUSH0 PUSH0 PUSH1 0x40 DUP4 DUP6 SUB SLT ISZERO PUSH2 0x114C JUMPI PUSH2 0x114B PUSH2 0xF01 JUMP JUMPDEST JUMPDEST PUSH0 PUSH2 0x1159 DUP6 DUP3 DUP7 ADD PUSH2 0xF4B JUMP JUMPDEST SWAP3 POP POP PUSH1 0x20 PUSH2 0x116A DUP6 DUP3 DUP7 ADD PUSH2 0x1122 JUMP JUMPDEST SWAP2 POP POP SWAP3 POP SWAP3 SWAP1 POP JUMP JUMPDEST PUSH32 0x4E487B7100000000000000000000000000000000000000000000000000000000 PUSH0 MSTORE PUSH1 0x11 PUSH1 0x4 MSTORE PUSH1 0x24 PUSH0 REVERT JUMPDEST PUSH0 PUSH2 0x11AB DUP3 PUSH2 0xF5F JUMP JUMPDEST SWAP2 POP PUSH2 0x11B6 DUP4 PUSH2 0xF5F JUMP JUMPDEST SWAP3 POP DUP3 DUP3 ADD SWAP1 POP DUP1 DUP3 GT ISZERO PUSH2 0x11CE JUMPI PUSH2 0x11CD PUSH2 0x1174 JUMP JUMPDEST JUMPDEST SWAP3 SWAP2 POP POP JUMP JUMPDEST PUSH0 PUSH2 0x11DE DUP3 PUSH2 0xF5F JUMP JUMPDEST SWAP2 POP PUSH2 0x11E9 DUP4 PUSH2 0xF5F JUMP JUMPDEST SWAP3 POP DUP3 DUP3 SUB SWAP1 POP DUP2 DUP2 GT ISZERO PUSH2 0x1201 JUMPI PUSH2 0x1200 PUSH2 0x1174 JUMP JUMPDEST JUMPDEST SWAP3 SWAP2 POP POP JUMP JUMPDEST PUSH0 PUSH1 0x40 DUP3 ADD SWAP1 POP PUSH2 0x121A PUSH0 DUP4 ADD DUP6 PUSH2 0x10A6 JUMP JUMPDEST PUSH2 0x1227 PUSH1 0x20 DUP4 ADD DUP5 PUSH2 0xFDB JUMP JUMPDEST SWAP4 SWAP3 POP POP POP JUMP INVALID LOG2 PUSH5 0x6970667358 0x22 SLT KECCAK256 RETURNDATASIZE 0xCD DUPN 0x9D 0x2A 0xDD 0xAC TLOAD LOG1 DUP9 BLOCKHASH 0xC9 CODECOPY 0xD 0xD0 PUSH32 0x6561F3C3921DBA6DDFAD3A87C9203B264736F6C634300081E00336080604052 CALLVALUE DUP1 ISZERO PUSH1 0xE JUMPI PUSH0 PUSH0 REVERT JUMPDEST POP PUSH1 0x40 MLOAD PUSH2 0x260 CODESIZE SUB DUP1 PUSH2 0x260 DUP4 CODECOPY DUP2 DUP2 ADD PUSH1 0x40 MSTORE DUP2 ADD SWAP1 PUSH1 0x2E SWAP2 SWAP1 PUSH1 0x75 JUMP JUMPDEST PUSH0 DUP2 GT PUSH1 0x38 JUMPI PUSH0 PUSH0 REVERT JUMPDEST DUP1 PUSH0 DUP2 SWAP1 SSTORE POP POP PUSH1 0x9B JUMP JUMPDEST PUSH0 PUSH0 REVERT JUMPDEST PUSH0 DUP2 SWAP1 POP SWAP2 SWAP1 POP JUMP JUMPDEST PUSH1 0x57 DUP2 PUSH1 0x47 JUMP JUMPDEST DUP2 EQ PUSH1 0x60 JUMPI PUSH0 PUSH0 REVERT JUMPDEST POP JUMP JUMPDEST PUSH0 DUP2 MLOAD SWAP1 POP PUSH1 0x6F DUP2 PUSH1 0x50 JUMP JUMPDEST SWAP3 SWAP2 POP POP JUMP JUMPDEST PUSH0 PUSH1 0x20 DUP3 DUP5 SUB SLT ISZERO PUSH1 0x87 JUMPI PUSH1 0x86 PUSH1 0x43 JUMP JUMPDEST JUMPDEST PUSH0 PUSH1 0x92 DUP5 DUP3 DUP6 ADD PUSH1 0x63 JUMP JUMPDEST SWAP2 POP POP SWAP3 SWAP2 POP POP JUMP JUMPDEST PUSH2 0x1B8 DUP1 PUSH2 0xA8 PUSH0 CODECOPY PUSH0 RETURN INVALID PUSH1 0x80 PUSH1 0x40 MSTORE CALLVALUE DUP1 ISZERO PUSH2 0xF JUMPI PUSH0 PUSH0 REVERT JUMPDEST POP PUSH1 0x4 CALLDATASIZE LT PUSH2 0x29 JUMPI PUSH0 CALLDATALOAD PUSH1 0xE0 SHR DUP1 PUSH4 0x6B9C583 EQ PUSH2 0x2D JUMPI JUMPDEST PUSH0 PUSH0 REVERT JUMPDEST PUSH2 0x47 PUSH1 0x4 DUP1 CALLDATASIZE SUB DUP2 ADD SWAP1 PUSH2 0x42 SWAP2 SWAP1 PUSH2 0xB1 JUMP JUMPDEST PUSH2 0x5D JUMP JUMPDEST PUSH1 0x40 MLOAD PUSH2 0x54 SWAP2 SWAP1 PUSH2 0x109 JUMP JUMPDEST PUSH1 0x40 MLOAD DUP1 SWAP2 SUB SWAP1 RETURN JUMPDEST PUSH0 PUSH0 PUSH0 SLOAD DUP5 DUP5 PUSH2 0x6D SWAP2 SWAP1 PUSH2 0x14F JUMP JUMPDEST LT SWAP1 POP DUP1 SWAP2 POP POP SWAP3 SWAP2 POP POP JUMP JUMPDEST PUSH0 PUSH0 REVERT JUMPDEST PUSH0 DUP2 SWAP1 POP SWAP2 SWAP1 POP JUMP JUMPDEST PUSH2 0x90 DUP2 PUSH2 0x7E JUMP JUMPDEST DUP2 EQ PUSH2 0x9A JUMPI PUSH0 PUSH0 REVERT JUMPDEST POP JUMP JUMPDEST PUSH0 DUP2 CALLDATALOAD SWAP1 POP PUSH2 0xAB DUP2 PUSH2 0x87 JUMP JUMPDEST SWAP3 SWAP2 POP POP JUMP JUMPDEST PUSH0 PUSH0 PUSH1 0x40 DUP4 DUP6 SUB SLT ISZERO PUSH2 0xC7 JUMPI PUSH2 0xC6 PUSH2 0x7A JUMP JUMPDEST JUMPDEST PUSH0 PUSH2 0xD4 DUP6 DUP3 DUP7 ADD PUSH2 0x9D JUMP JUMPDEST SWAP3 POP POP PUSH1 0x20 PUSH2 0xE5 DUP6 DUP3 DUP7 ADD PUSH2 0x9D JUMP JUMPDEST SWAP2 POP POP SWAP3 POP SWAP3 SWAP1 POP JUMP JUMPDEST PUSH0 DUP2 ISZERO ISZERO SWAP1 POP SWAP2 SWAP1 POP JUMP JUMPDEST PUSH2 0x103 DUP2 PUSH2 0xEF JUMP JUMPDEST DUP3 MSTORE POP POP JUMP JUMPDEST PUSH0 PUSH1 0x20 DUP3 ADD SWAP1 POP PUSH2 0x11C PUSH0 DUP4 ADD DUP5 PUSH2 0xFA JUMP JUMPDEST SWAP3 SWAP2 POP POP JUMP JUMPDEST PUSH32 0x4E487B7100000000000000000000000000000000000000000000000000000000 PUSH0 MSTORE PUSH1 0x11 PUSH1 0x4 MSTORE PUSH1 0x24 PUSH0 REVERT JUMPDEST PUSH0 PUSH2 0x159 DUP3 PUSH2 0x7E JUMP JUMPDEST SWAP2 POP PUSH2 0x164 DUP4 PUSH2 0x7E JUMP JUMPDEST SWAP3 POP DUP3 DUP3 ADD SWAP1 POP DUP1 DUP3 GT ISZERO PUSH2 0x17C JUMPI PUSH2 0x17B PUSH2 0x122 JUMP JUMPDEST JUMPDEST SWAP3 SWAP2 POP POP JUMP INVALID LOG2 PUSH5 0x6970667358 0x22 SLT KECCAK256 MUL CALLDATASIZE 0xAF LOG4 0xDF EQ 0x27 0x4C 0xDC 0xAE DUP4 0xBB LOG2 0xD3 PUSH5 0xA3FC83B2C2 0xDF DUP5 DATALOADN 0x11CD 0x2F 0xDD COINBASE 0xCE SMOD AND 0x23 PUSH5 0x736F6C6343 STOP ADDMOD 0x1E STOP CALLER "
		},
		"gasEstimates": {
			"creation": {
				"codeDepositCost": "708400",
				"executionCost": "infinite",
				"totalCost": "infinite"
			},
			"external": {
				"crowdsaleToken()": "infinite",
				"destroyAndSend(address)": "30303",
				"endTime()": "2471",
				"finalize()": "infinite",
				"inventmentAmountOf(address)": "2868",
				"invest()": "infinite",
				"investmentReceived()": "2449",
				"investmentRefunded()": "2493",
				"isFinalized()": "2489",
				"isRefundingAllowed()": "2606",
				"owner()": "2552",
				"pause()": "28943",
				"paused()": "2583",
				"refund()": "infinite",
				"startTime()": "2514",
				"unpause()": "28918",
				"weiInvestmentObjective()": "2492",
				"weiTokenPrice()": "2469"
			},
			"internal": {
				"createFundingLimitStrategy()": "infinite"
			}
		},
		"methodIdentifiers": {
			"crowdsaleToken()": "fa65dfac",
			"destroyAndSend(address)": "f5074f41",
			"endTime()": "3197cbb6",
			"finalize()": "4bb278f3",
			"inventmentAmountOf(address)": "eff1a844",
			"invest()": "e8b5e51f",
			"investmentReceived()": "1c0a5c10",
			"investmentRefunded()": "38ef9380",
			"isFinalized()": "8d4e4083",
			"isRefundingAllowed()": "cb6f16d4",
			"owner()": "8da5cb5b",
			"pause()": "8456cb59",
			"paused()": "5c975abb",
			"refund()": "590e1ae3",
			"startTime()": "78e97925",
			"unpause()": "3f4ba83a",
			"weiInvestmentObjective()": "bab34f43",
			"weiTokenPrice()": "ee56cf41"
		}
	},
	"abi": [
		{
			"inputs": [
				{
					"internalType": "uint256",
					"name": "_startTime",
					"type": "uint256"
				},
				{
					"internalType": "uint256",
					"name": "_endTime",
					"type": "uint256"
				},
				{
					"internalType": "uint256",
					"name": "_weiTokenPrice",
					"type": "uint256"
				},
				{
					"internalType": "uint256",
					"name": "_etherInvestmentObjective",
					"type": "uint256"
				}
			],
			"stateMutability": "payable",
			"type": "constructor"
		},
		{
			"anonymous": false,
			"inputs": [
				{
					"indexed": true,
					"internalType": "address",
					"name": "investor",
					"type": "address"
				},
				{
					"indexed": false,
					"internalType": "uint256",
					"name": "value",
					"type": "uint256"
				}
			],
			"name": "LogInvestment",
			"type": "event"
		},
		{
			"anonymous": false,
			"inputs": [
				{
					"indexed": true,
					"internalType": "address",
					"name": "investor",
					"type": "address"
				},
				{
					"indexed": false,
					"internalType": "uint256",
					"name": "numTokens",
					"type": "uint256"
				}
			],
			"name": "LogTokenAssignment",
			"type": "event"
		},
		{
			"anonymous": false,
			"inputs": [
				{
					"indexed": false,
					"internalType": "address",
					"name": "investor",
					"type": "address"
				},
				{
					"indexed": false,
					"internalType": "uint256",
					"name": "value",
					"type": "uint256"
				}
			],
			"name": "Refund",
			"type": "event"
		},
		{
			"inputs": [],
			"name": "crowdsaleToken",
			"outputs": [
				{
					"internalType": "contract ReleasableSimpleCoin",
					"name": "",
					"type": "address"
				}
			],
			"stateMutability": "view",
			"type": "function"
		},
		{
			"inputs": [
				{
					"internalType": "address",
					"name": "_recipient",
					"type": "address"
				}
			],
			"name": "destroyAndSend",
			"outputs": [],
			"stateMutability": "nonpayable",
			"type": "function"
		},
		{
			"inputs": [],
			"name": "endTime",
			"outputs": [
				{
					"internalType": "uint256",
					"name": "",
					"type": "uint256"
				}
			],
			"stateMutability": "view",
			"type": "function"
		},
		{
			"inputs": [],
			"name": "finalize",
			"outputs": [],
			"stateMutability": "nonpayable",
			"type": "function"
		},
		{
			"inputs": [
				{
					"internalType": "address",
					"name": "",
					"type": "address"
				}
			],
			"name": "inventmentAmountOf",
			"outputs": [
				{
					"internalType": "uint256",
					"name": "",
					"type": "uint256"
				}
			],
			"stateMutability": "view",
			"type": "function"
		},
		{
			"inputs": [],
			"name": "invest",
			"outputs": [],
			"stateMutability": "payable",
			"type": "function"
		},
		{
			"inputs": [],
			"name": "investmentReceived",
			"outputs": [
				{
					"internalType": "uint256",
					"name": "",
					"type": "uint256"
				}
			],
			"stateMutability": "view",
			"type": "function"
		},
		{
			"inputs": [],
			"name": "investmentRefunded",
			"outputs": [
				{
					"internalType": "uint256",
					"name": "",
					"type": "uint256"
				}
			],
			"stateMutability": "view",
			"type": "function"
		},
		{
			"inputs": [],
			"name": "isFinalized",
			"outputs": [
				{
					"internalType": "bool",
					"name": "",
					"type": "bool"
				}
			],
			"stateMutability": "view",
			"type": "function"
		},
		{
			"inputs": [],
			"name": "isRefundingAllowed",
			"outputs": [
				{
					"internalType": "bool",
					"name": "",
					"type": "bool"
				}
			],
			"stateMutability": "view",
			"type": "function"
		},
		{
			"inputs": [],
			"name": "owner",
			"outputs": [
				{
					"internalType": "address",
					"name": "",
					"type": "address"
				}
			],
			"stateMutability": "view",
			"type": "function"
		},
		{
			"inputs": [],
			"name": "pause",
			"outputs": [],
			"stateMutability": "nonpayable",
			"type": "function"
		},
		{
			"inputs": [],
			"name": "paused",
			"outputs": [
				{
					"internalType": "bool",
					"name": "",
					"type": "bool"
				}
			],
			"stateMutability": "view",
			"type": "function"
		},
		{
			"inputs": [],
			"name": "refund",
			"outputs": [],
			"stateMutability": "nonpayable",
			"type": "function"
		},
		{
			"inputs": [],
			"name": "startTime",
			"outputs": [
				{
					"internalType": "uint256",
					"name": "",
					"type": "uint256"
				}
			],
			"stateMutability": "view",
			"type": "function"
		},
		{
			"inputs": [],
			"name": "unpause",
			"outputs": [],
			"stateMutability": "nonpayable",
			"type": "function"
		},
		{
			"inputs": [],
			"name": "weiInvestmentObjective",
			"outputs": [
				{
					"internalType": "uint256",
					"name": "",
					"type": "uint256"
				}
			],
			"stateMutability": "view",
			"type": "function"
		},
		{
			"inputs": [],
			"name": "weiTokenPrice",
			"outputs": [
				{
					"internalType": "uint256",
					"name": "",
					"type": "uint256"
				}
			],
			"stateMutability": "view",
			"type": "function"
		}
	]
}