{
	"data": {
		"bytecode": {
			"linkReferences": {},
			"object": "60806040525f5f60146101000a81548160ff021916908315150217905550604051612890380380612890833981810160405281019061003e91906102ad565b8383838383838383335f5f6101000a81548173ffffffffffffffffffffffffffffffffffffffff021916908373ffffffffffffffffffffffffffffffffffffffff16021790555042841015610091575f5ffd5b8383101561009d575f5ffd5b5f82036100a8575f5ffd5b5f81036100b3575f5ffd5b836001819055508260028190555081600381905550670de0b6b3a7640000816100dc919061033e565b6004819055505f6040516100ef9061025c565b6100f991906103c1565b604051809103905ff080158015610112573d5f5f3e3d5ffd5b50600860026101000a81548173ffffffffffffffffffffffffffffffffffffffff021916908373ffffffffffffffffffffffffffffffffffffffff1602179055505f60085f6101000a81548160ff0219169083151502179055505f600860016101000a81548160ff021916908315150217905550335f5f6101000a81548173ffffffffffffffffffffffffffffffffffffffff021916908373ffffffffffffffffffffffffffffffffffffffff1602179055506101d361022360201b60201c565b60095f6101000a81548173ffffffffffffffffffffffffffffffffffffffff021916908373ffffffffffffffffffffffffffffffffffffffff16021790555050505050505050505050505061042c565b5f61271060405161023390610269565b61023d9190610413565b604051809103905ff080158015610256573d5f5f3e3d5ffd5b50905090565b6114218061120f83390190565b6102608061263083390190565b5f5ffd5b5f819050919050565b61028c8161027a565b8114610296575f5ffd5b50565b5f815190506102a781610283565b92915050565b5f5f5f5f608085870312156102c5576102c4610276565b5b5f6102d287828801610299565b94505060206102e387828801610299565b93505060406102f487828801610299565b925050606061030587828801610299565b91505092959194509250565b7f4e487b71000000000000000000000000000000000000000000000000000000005f52601160045260245ffd5b5f6103488261027a565b91506103538361027a565b92508282026103618161027a565b9150828204841483151761037857610377610311565b5b5092915050565b5f819050919050565b5f819050919050565b5f6103ab6103a66103a18461037f565b610388565b61027a565b9050919050565b6103bb81610391565b82525050565b5f6020820190506103d45f8301846103b2565b92915050565b5f819050919050565b5f6103fd6103f86103f3846103da565b610388565b61027a565b9050919050565b61040d816103e3565b82525050565b5f6020820190506104265f830184610404565b92915050565b610dd6806104395f395ff3fe608060405260043610610108575f3560e01c80638d4e408311610094578063e8b5e51f11610063578063e8b5e51f146102de578063ee56cf41146102e8578063eff1a84414610312578063f5074f411461034e578063fa65dfac1461037657610108565b80638d4e4083146102365780638da5cb5b14610260578063bab34f431461028a578063cb6f16d4146102b457610108565b80634bb278f3116100db5780634bb278f3146101a0578063590e1ae3146101b65780635c975abb146101cc57806378e97925146101f65780638456cb591461022057610108565b80631c0a5c101461010c5780633197cbb61461013657806338ef9380146101605780633f4ba83a1461018a575b5f5ffd5b348015610117575f5ffd5b506101206103a0565b60405161012d9190610acf565b60405180910390f35b348015610141575f5ffd5b5061014a6103a6565b6040516101579190610acf565b60405180910390f35b34801561016b575f5ffd5b506101746103ac565b6040516101819190610acf565b60405180910390f35b348015610195575f5ffd5b5061019e6103b2565b005b3480156101ab575f5ffd5b506101b461043b565b005b3480156101c1575f5ffd5b506101ca610583565b005b3480156101d7575f5ffd5b506101e06106be565b6040516101ed9190610b02565b60405180910390f35b348015610201575f5ffd5b5061020a6106d0565b6040516102179190610acf565b60405180910390f35b34801561022b575f5ffd5b506102346106d6565b005b348015610241575f5ffd5b5061024a610761565b6040516102579190610b02565b60405180910390f35b34801561026b575f5ffd5b50610274610773565b6040516102819190610b5a565b60405180910390f35b348015610295575f5ffd5b5061029e610797565b6040516102ab9190610acf565b60405180910390f35b3480156102bf575f5ffd5b506102c861079d565b6040516102d59190610b02565b60405180910390f35b6102e66107b0565b005b3480156102f3575f5ffd5b506102fc610890565b6040516103099190610acf565b60405180910390f35b34801561031d575f5ffd5b5061033860048036038101906103339190610ba1565b610896565b6040516103459190610acf565b60405180910390f35b348015610359575f5ffd5b50610374600480360381019061036f9190610ba1565b6108ab565b005b348015610381575f5ffd5b5061038a61091b565b6040516103979190610c27565b60405180910390f35b60065481565b60025481565b60075481565b5f5f9054906101000a900473ffffffffffffffffffffffffffffffffffffffff1673ffffffffffffffffffffffffffffffffffffffff163373ffffffffffffffffffffffffffffffffffffffff1614610409575f5ffd5b5f60149054906101000a900460ff16610420575f5ffd5b5f5f60146101000a81548160ff021916908315150217905550565b5f5f9054906101000a900473ffffffffffffffffffffffffffffffffffffffff1673ffffffffffffffffffffffffffffffffffffffff163373ffffffffffffffffffffffffffffffffffffffff1614610492575f5ffd5b60085f9054906101000a900460ff16156104aa575f5ffd5b5f600190505f60045460065410159050811561057f57801561054857600860029054906101000a900473ffffffffffffffffffffffffffffffffffffffff1673ffffffffffffffffffffffffffffffffffffffff166386d1a69f6040518163ffffffff1660e01b81526004015f604051808303815f87803b15801561052d575f5ffd5b505af115801561053f573d5f5f3e3d5ffd5b50505050610564565b6001600860016101000a81548160ff0219169083151502179055505b600160085f6101000a81548160ff0219169083151502179055505b5050565b600860019054906101000a900460ff1661059b575f5ffd5b5f3390505f60055f8373ffffffffffffffffffffffffffffffffffffffff1673ffffffffffffffffffffffffffffffffffffffff1681526020019081526020015f205490505f81036105eb575f5ffd5b5f60055f8473ffffffffffffffffffffffffffffffffffffffff1673ffffffffffffffffffffffffffffffffffffffff1681526020019081526020015f20819055508060075f82825461063e9190610c6d565b925050819055507fbb28353e4598c3b9199101a66e0989549b659a59a54d2c27fbb183f1932c8e6d3382604051610676929190610ca0565b60405180910390a18173ffffffffffffffffffffffffffffffffffffffff166108fc8290811502906040515f60405180830381858888f193505050506106ba575f5ffd5b5050565b5f60149054906101000a900460ff1681565b60015481565b5f5f9054906101000a900473ffffffffffffffffffffffffffffffffffffffff1673ffffffffffffffffffffffffffffffffffffffff163373ffffffffffffffffffffffffffffffffffffffff161461072d575f5ffd5b5f60149054906101000a900460ff1615610745575f5ffd5b60015f60146101000a81548160ff021916908315150217905550565b60085f9054906101000a900460ff1681565b5f5f9054906101000a900473ffffffffffffffffffffffffffffffffffffffff1681565b60045481565b600860019054906101000a900460ff1681565b6107b934610941565b6107c1575f5ffd5b5f3390505f3490508060055f8473ffffffffffffffffffffffffffffffffffffffff1673ffffffffffffffffffffffffffffffffffffffff1681526020019081526020015f205f8282546108159190610c6d565b925050819055508060065f82825461082d9190610c6d565b9250508190555061083e8282610a06565b8173ffffffffffffffffffffffffffffffffffffffff167fc74590e3281392e897f5c0f45530951cfe0db0e86c76d65af861e80b925871a4826040516108849190610acf565b60405180910390a25050565b60035481565b6005602052805f5260405f205f915090505481565b5f5f9054906101000a900473ffffffffffffffffffffffffffffffffffffffff1673ffffffffffffffffffffffffffffffffffffffff163373ffffffffffffffffffffffffffffffffffffffff1614610902575f5ffd5b8073ffffffffffffffffffffffffffffffffffffffff16ff5b600860029054906101000a900473ffffffffffffffffffffffffffffffffffffffff1681565b5f5f5f83141590505f600190508180156109585750805b80156109fd575060095f9054906101000a900473ffffffffffffffffffffffffffffffffffffffff1673ffffffffffffffffffffffffffffffffffffffff166306b9c583856006546040518363ffffffff1660e01b81526004016109bd929190610cc7565b602060405180830381865afa1580156109d8573d5f5f3e3d5ffd5b505050506040513d601f19601f820116820180604052508101906109fc9190610d18565b5b92505050919050565b5f610a1082610aa1565b9050600860029054906101000a900473ffffffffffffffffffffffffffffffffffffffff1673ffffffffffffffffffffffffffffffffffffffff166340c10f1984836040518363ffffffff1660e01b8152600401610a6f929190610ca0565b5f604051808303815f87803b158015610a86575f5ffd5b505af1158015610a98573d5f5f3e3d5ffd5b50505050505050565b5f60035482610ab09190610d70565b9050919050565b5f819050919050565b610ac981610ab7565b82525050565b5f602082019050610ae25f830184610ac0565b92915050565b5f8115159050919050565b610afc81610ae8565b82525050565b5f602082019050610b155f830184610af3565b92915050565b5f73ffffffffffffffffffffffffffffffffffffffff82169050919050565b5f610b4482610b1b565b9050919050565b610b5481610b3a565b82525050565b5f602082019050610b6d5f830184610b4b565b92915050565b5f5ffd5b610b8081610b3a565b8114610b8a575f5ffd5b50565b5f81359050610b9b81610b77565b92915050565b5f60208284031215610bb657610bb5610b73565b5b5f610bc384828501610b8d565b91505092915050565b5f819050919050565b5f610bef610bea610be584610b1b565b610bcc565b610b1b565b9050919050565b5f610c0082610bd5565b9050919050565b5f610c1182610bf6565b9050919050565b610c2181610c07565b82525050565b5f602082019050610c3a5f830184610c18565b92915050565b7f4e487b71000000000000000000000000000000000000000000000000000000005f52601160045260245ffd5b5f610c7782610ab7565b9150610c8283610ab7565b9250828201905080821115610c9a57610c99610c40565b5b92915050565b5f604082019050610cb35f830185610b4b565b610cc06020830184610ac0565b9392505050565b5f604082019050610cda5f830185610ac0565b610ce76020830184610ac0565b9392505050565b610cf781610ae8565b8114610d01575f5ffd5b50565b5f81519050610d1281610cee565b92915050565b5f60208284031215610d2d57610d2c610b73565b5b5f610d3a84828501610d04565b91505092915050565b7f4e487b71000000000000000000000000000000000000000000000000000000005f52601260045260245ffd5b5f610d7a82610ab7565b9150610d8583610ab7565b925082610d9557610d94610d43565b5b82820490509291505056fea2646970667358221220bab05362a1471af61d3ac7f1be038e27d4f2b2dff9c31988e38d4f524081647864736f6c634300081e003360806040525f60045f6101000a81548160ff0219169083151502179055505f600460016101000a81548160ff021916908315150217905550348015610042575f5ffd5b5060405161142138038061142183398181016040528101906100649190610284565b80335f5f6101000a81548173ffffffffffffffffffffffffffffffffffffffff021916908373ffffffffffffffffffffffffffffffffffffffff160217905550335f5f6101000a81548173ffffffffffffffffffffffffffffffffffffffff021916908373ffffffffffffffffffffffffffffffffffffffff1602179055506101135f5f9054906101000a900473ffffffffffffffffffffffffffffffffffffffff168261011a60201b60201c565b5050610337565b5f5f9054906101000a900473ffffffffffffffffffffffffffffffffffffffff1673ffffffffffffffffffffffffffffffffffffffff163373ffffffffffffffffffffffffffffffffffffffff1614610171575f5ffd5b8060015f8473ffffffffffffffffffffffffffffffffffffffff1673ffffffffffffffffffffffffffffffffffffffff1681526020019081526020015f205f8282546101bd91906102dc565b925050819055508173ffffffffffffffffffffffffffffffffffffffff165f5f9054906101000a900473ffffffffffffffffffffffffffffffffffffffff1673ffffffffffffffffffffffffffffffffffffffff167fddf252ad1be2c89b69c2b068fc378daa952ba7f163c4a11628f55a4df523b3ef83604051610241919061031e565b60405180910390a35050565b5f5ffd5b5f819050919050565b61026381610251565b811461026d575f5ffd5b50565b5f8151905061027e8161025a565b92915050565b5f602082840312156102995761029861024d565b5b5f6102a684828501610270565b91505092915050565b7f4e487b71000000000000000000000000000000000000000000000000000000005f52601160045260245ffd5b5f6102e682610251565b91506102f183610251565b9250828201905080821115610309576103086102af565b5b92915050565b61031881610251565b82525050565b5f6020820190506103315f83018461030f565b92915050565b6110dd806103445f395ff3fe608060405234801561000f575f5ffd5b50600436106100f3575f3560e01c80639613252111610095578063dd62ed3e11610064578063dd62ed3e14610237578063e724529c14610267578063f5074f4114610283578063fabde80c1461029f576100f3565b8063961325211461019d578063a9059cbb146101bb578063b414d4b6146101d7578063c1dbd9b214610207576100f3565b80635c975abb116100d15780635c975abb1461014d5780638456cb591461016b57806386d1a69f146101755780638da5cb5b1461017f576100f3565b806323b872dd146100f75780633f4ba83a1461012757806340c10f1914610131575b5f5ffd5b610111600480360381019061010c9190610e0b565b6102cf565b60405161011e9190610e75565b60405180910390f35b61012f6102fc565b005b61014b60048036038101906101469190610e8e565b610385565b005b6101556104b8565b6040516101629190610e75565b60405180910390f35b6101736104ca565b005b61017d610555565b005b6101876105c9565b6040516101949190610edb565b60405180910390f35b6101a56105ed565b6040516101b29190610e75565b60405180910390f35b6101d560048036038101906101d09190610e8e565b610600565b005b6101f160048036038101906101ec9190610ef4565b610626565b6040516101fe9190610e75565b60405180910390f35b610221600480360381019061021c9190610e8e565b610643565b60405161022e9190610e75565b60405180910390f35b610251600480360381019061024c9190610f1f565b6106cb565b60405161025e9190610f6c565b60405180910390f35b610281600480360381019061027c9190610faf565b6106eb565b005b61029d60048036038101906102989190610ef4565b6107d3565b005b6102b960048036038101906102b49190610ef4565b610843565b6040516102c69190610f6c565b60405180910390f35b5f600460019054906101000a900460ff166102e8575f5ffd5b6102f3848484610858565b90509392505050565b5f5f9054906101000a900473ffffffffffffffffffffffffffffffffffffffff1673ffffffffffffffffffffffffffffffffffffffff163373ffffffffffffffffffffffffffffffffffffffff1614610353575f5ffd5b60045f9054906101000a900460ff1661036a575f5ffd5b5f60045f6101000a81548160ff021916908315150217905550565b5f5f9054906101000a900473ffffffffffffffffffffffffffffffffffffffff1673ffffffffffffffffffffffffffffffffffffffff163373ffffffffffffffffffffffffffffffffffffffff16146103dc575f5ffd5b8060015f8473ffffffffffffffffffffffffffffffffffffffff1673ffffffffffffffffffffffffffffffffffffffff1681526020019081526020015f205f828254610428919061101a565b925050819055508173ffffffffffffffffffffffffffffffffffffffff165f5f9054906101000a900473ffffffffffffffffffffffffffffffffffffffff1673ffffffffffffffffffffffffffffffffffffffff167fddf252ad1be2c89b69c2b068fc378daa952ba7f163c4a11628f55a4df523b3ef836040516104ac9190610f6c565b60405180910390a35050565b60045f9054906101000a900460ff1681565b5f5f9054906101000a900473ffffffffffffffffffffffffffffffffffffffff1673ffffffffffffffffffffffffffffffffffffffff163373ffffffffffffffffffffffffffffffffffffffff1614610521575f5ffd5b60045f9054906101000a900460ff1615610539575f5ffd5b600160045f6101000a81548160ff021916908315150217905550565b5f5f9054906101000a900473ffffffffffffffffffffffffffffffffffffffff1673ffffffffffffffffffffffffffffffffffffffff163373ffffffffffffffffffffffffffffffffffffffff16146105ac575f5ffd5b6001600460016101000a81548160ff021916908315150217905550565b5f5f9054906101000a900473ffffffffffffffffffffffffffffffffffffffff1681565b600460019054906101000a900460ff1681565b600460019054906101000a900460ff16610618575f5ffd5b6106228282610b91565b5050565b6003602052805f5260405f205f915054906101000a900460ff1681565b5f8160025f3373ffffffffffffffffffffffffffffffffffffffff1673ffffffffffffffffffffffffffffffffffffffff1681526020019081526020015f205f8573ffffffffffffffffffffffffffffffffffffffff1673ffffffffffffffffffffffffffffffffffffffff1681526020019081526020015f20819055506001905092915050565b6002602052815f5260405f20602052805f5260405f205f91509150505481565b5f5f9054906101000a900473ffffffffffffffffffffffffffffffffffffffff1673ffffffffffffffffffffffffffffffffffffffff163373ffffffffffffffffffffffffffffffffffffffff1614610742575f5ffd5b8060035f8473ffffffffffffffffffffffffffffffffffffffff1673ffffffffffffffffffffffffffffffffffffffff1681526020019081526020015f205f6101000a81548160ff0219169083151502179055507f67a17b8db8ff8fa7cff69c2328bf8a35f9be2c88abeea30be900fc28eece28ed82826040516107c792919061104d565b60405180910390a15050565b5f5f9054906101000a900473ffffffffffffffffffffffffffffffffffffffff1673ffffffffffffffffffffffffffffffffffffffff163373ffffffffffffffffffffffffffffffffffffffff161461082a575f5ffd5b8073ffffffffffffffffffffffffffffffffffffffff16ff5b6001602052805f5260405f205f915090505481565b5f5f73ffffffffffffffffffffffffffffffffffffffff168373ffffffffffffffffffffffffffffffffffffffff1603610890575f5ffd5b8160015f8673ffffffffffffffffffffffffffffffffffffffff1673ffffffffffffffffffffffffffffffffffffffff1681526020019081526020015f2054116108d8575f5ffd5b60015f8473ffffffffffffffffffffffffffffffffffffffff1673ffffffffffffffffffffffffffffffffffffffff1681526020019081526020015f20548260015f8673ffffffffffffffffffffffffffffffffffffffff1673ffffffffffffffffffffffffffffffffffffffff1681526020019081526020015f205461095f919061101a565b1015610969575f5ffd5b60025f8573ffffffffffffffffffffffffffffffffffffffff1673ffffffffffffffffffffffffffffffffffffffff1681526020019081526020015f205f3373ffffffffffffffffffffffffffffffffffffffff1673ffffffffffffffffffffffffffffffffffffffff1681526020019081526020015f20548211156109ed575f5ffd5b8160015f8673ffffffffffffffffffffffffffffffffffffffff1673ffffffffffffffffffffffffffffffffffffffff1681526020019081526020015f205f828254610a399190611074565b925050819055508160015f8573ffffffffffffffffffffffffffffffffffffffff1673ffffffffffffffffffffffffffffffffffffffff1681526020019081526020015f205f828254610a8c919061101a565b925050819055508160025f8673ffffffffffffffffffffffffffffffffffffffff1673ffffffffffffffffffffffffffffffffffffffff1681526020019081526020015f205f3373ffffffffffffffffffffffffffffffffffffffff1673ffffffffffffffffffffffffffffffffffffffff1681526020019081526020015f205f828254610b1a9190611074565b925050819055508273ffffffffffffffffffffffffffffffffffffffff168473ffffffffffffffffffffffffffffffffffffffff167fddf252ad1be2c89b69c2b068fc378daa952ba7f163c4a11628f55a4df523b3ef84604051610b7e9190610f6c565b60405180910390a3600190509392505050565b8060015f3373ffffffffffffffffffffffffffffffffffffffff1673ffffffffffffffffffffffffffffffffffffffff1681526020019081526020015f20541015610bda575f5ffd5b60015f8373ffffffffffffffffffffffffffffffffffffffff1673ffffffffffffffffffffffffffffffffffffffff1681526020019081526020015f20548160015f8573ffffffffffffffffffffffffffffffffffffffff1673ffffffffffffffffffffffffffffffffffffffff1681526020019081526020015f2054610c61919061101a565b1015610c6b575f5ffd5b8060015f3373ffffffffffffffffffffffffffffffffffffffff1673ffffffffffffffffffffffffffffffffffffffff1681526020019081526020015f205f828254610cb79190611074565b925050819055508060015f8473ffffffffffffffffffffffffffffffffffffffff1673ffffffffffffffffffffffffffffffffffffffff1681526020019081526020015f205f828254610d0a919061101a565b925050819055508173ffffffffffffffffffffffffffffffffffffffff163373ffffffffffffffffffffffffffffffffffffffff167fddf252ad1be2c89b69c2b068fc378daa952ba7f163c4a11628f55a4df523b3ef83604051610d6e9190610f6c565b60405180910390a35050565b5f5ffd5b5f73ffffffffffffffffffffffffffffffffffffffff82169050919050565b5f610da782610d7e565b9050919050565b610db781610d9d565b8114610dc1575f5ffd5b50565b5f81359050610dd281610dae565b92915050565b5f819050919050565b610dea81610dd8565b8114610df4575f5ffd5b50565b5f81359050610e0581610de1565b92915050565b5f5f5f60608486031215610e2257610e21610d7a565b5b5f610e2f86828701610dc4565b9350506020610e4086828701610dc4565b9250506040610e5186828701610df7565b9150509250925092565b5f8115159050919050565b610e6f81610e5b565b82525050565b5f602082019050610e885f830184610e66565b92915050565b5f5f60408385031215610ea457610ea3610d7a565b5b5f610eb185828601610dc4565b9250506020610ec285828601610df7565b9150509250929050565b610ed581610d9d565b82525050565b5f602082019050610eee5f830184610ecc565b92915050565b5f60208284031215610f0957610f08610d7a565b5b5f610f1684828501610dc4565b91505092915050565b5f5f60408385031215610f3557610f34610d7a565b5b5f610f4285828601610dc4565b9250506020610f5385828601610dc4565b9150509250929050565b610f6681610dd8565b82525050565b5f602082019050610f7f5f830184610f5d565b92915050565b610f8e81610e5b565b8114610f98575f5ffd5b50565b5f81359050610fa981610f85565b92915050565b5f5f60408385031215610fc557610fc4610d7a565b5b5f610fd285828601610dc4565b9250506020610fe385828601610f9b565b9150509250929050565b7f4e487b71000000000000000000000000000000000000000000000000000000005f52601160045260245ffd5b5f61102482610dd8565b915061102f83610dd8565b925082820190508082111561104757611046610fed565b5b92915050565b5f6040820190506110605f830185610ecc565b61106d6020830184610e66565b9392505050565b5f61107e82610dd8565b915061108983610dd8565b92508282039050818111156110a1576110a0610fed565b5b9291505056fea2646970667358221220db6937ebddad33c3c89b632ab7644a5c94d44bfb4bf5ed13a277eab52868291564736f6c634300081e00336080604052348015600e575f5ffd5b506040516102603803806102608339818101604052810190602e91906075565b5f81116038575f5ffd5b805f8190555050609b565b5f5ffd5b5f819050919050565b6057816047565b81146060575f5ffd5b50565b5f81519050606f816050565b92915050565b5f6020828403121560875760866043565b5b5f6092848285016063565b91505092915050565b6101b8806100a85f395ff3fe608060405234801561000f575f5ffd5b5060043610610029575f3560e01c806306b9c5831461002d575b5f5ffd5b610047600480360381019061004291906100b1565b61005d565b6040516100549190610109565b60405180910390f35b5f5f5f54848461006d919061014f565b1090508091505092915050565b5f5ffd5b5f819050919050565b6100908161007e565b811461009a575f5ffd5b50565b5f813590506100ab81610087565b92915050565b5f5f604083850312156100c7576100c661007a565b5b5f6100d48582860161009d565b92505060206100e58582860161009d565b9150509250929050565b5f8115159050919050565b610103816100ef565b82525050565b5f60208201905061011c5f8301846100fa565b92915050565b7f4e487b71000000000000000000000000000000000000000000000000000000005f52601160045260245ffd5b5f6101598261007e565b91506101648361007e565b925082820190508082111561017c5761017b610122565b5b9291505056fea26469706673582212200236afa4df14274cdcae83bba2d364a3fc83b2c2df84d111cd2fdd41ce07162364736f6c634300081e0033",
			"opcodes": "PUSH1 0x80 PUSH1 0x40 MSTORE PUSH0 PUSH0 PUSH1 0x14 PUSH2 0x100 EXP DUP2 SLOAD DUP2 PUSH1 0xFF MUL NOT AND SWAP1 DUP4 ISZERO ISZERO MUL OR SWAP1 SSTORE POP PUSH1 0x40 MLOAD PUSH2 0x2890 CODESIZE SUB DUP1 PUSH2 0x2890 DUP4 CODECOPY DUP2 DUP2 ADD PUSH1 0x40 MSTORE DUP2 ADD SWAP1 PUSH2 0x3E SWAP2 SWAP1 PUSH2 0x2AD JUMP JUMPDEST DUP4 DUP4 DUP4 DUP4 DUP4 DUP4 DUP4 DUP4 CALLER PUSH0 PUSH0 PUSH2 0x100 EXP DUP2 SLOAD DUP2 PUSH20 0xFFFFFFFFFFFFFFFFFFFFFFFFFFFFFFFFFFFFFFFF MUL NOT AND SWAP1 DUP4 PUSH20 0xFFFFFFFFFFFFFFFFFFFFFFFFFFFFFFFFFFFFFFFF AND MUL OR SWAP1 SSTORE POP TIMESTAMP DUP5 LT ISZERO PUSH2 0x91 JUMPI PUSH0 PUSH0 REVERT JUMPDEST DUP4 DUP4 LT ISZERO PUSH2 0x9D JUMPI PUSH0 PUSH0 REVERT JUMPDEST PUSH0 DUP3 SUB PUSH2 0xA8 JUMPI PUSH0 PUSH0 REVERT JUMPDEST PUSH0 DUP2 SUB PUSH2 0xB3 JUMPI PUSH0 PUSH0 REVERT JUMPDEST DUP4 PUSH1 0x1 DUP2 SWAP1 SSTORE POP DUP3 PUSH1 0x2 DUP2 SWAP1 SSTORE POP DUP2 PUSH1 0x3 DUP2 SWAP1 SSTORE POP PUSH8 0xDE0B6B3A7640000 DUP2 PUSH2 0xDC SWAP2 SWAP1 PUSH2 0x33E JUMP JUMPDEST PUSH1 0x4 DUP2 SWAP1 SSTORE POP PUSH0 PUSH1 0x40 MLOAD PUSH2 0xEF SWAP1 PUSH2 0x25C JUMP JUMPDEST PUSH2 0xF9 SWAP2 SWAP1 PUSH2 0x3C1 JUMP JUMPDEST PUSH1 0x40 MLOAD DUP1 SWAP2 SUB SWAP1 PUSH0 CREATE DUP1 ISZERO DUP1 ISZERO PUSH2 0x112 JUMPI RETURNDATASIZE PUSH0 PUSH0 RETURNDATACOPY RETURNDATASIZE PUSH0 REVERT JUMPDEST POP PUSH1 0x8 PUSH1 0x2 PUSH2 0x100 EXP DUP2 SLOAD DUP2 PUSH20 0xFFFFFFFFFFFFFFFFFFFFFFFFFFFFFFFFFFFFFFFF MUL NOT AND SWAP1 DUP4 PUSH20 0xFFFFFFFFFFFFFFFFFFFFFFFFFFFFFFFFFFFFFFFF AND MUL OR SWAP1 SSTORE POP PUSH0 PUSH1 0x8 PUSH0 PUSH2 0x100 EXP DUP2 SLOAD DUP2 PUSH1 0xFF MUL NOT AND SWAP1 DUP4 ISZERO ISZERO MUL OR SWAP1 SSTORE POP PUSH0 PUSH1 0x8 PUSH1 0x1 PUSH2 0x100 EXP DUP2 SLOAD DUP2 PUSH1 0xFF MUL NOT AND SWAP1 DUP4 ISZERO ISZERO MUL OR SWAP1 SSTORE POP CALLER PUSH0 PUSH0 PUSH2 0x100 EXP DUP2 SLOAD DUP2 PUSH20 0xFFFFFFFFFFFFFFFFFFFFFFFFFFFFFFFFFFFFFFFF MUL NOT AND SWAP1 DUP4 PUSH20 0xFFFFFFFFFFFFFFFFFFFFFFFFFFFFFFFFFFFFFFFF AND MUL OR SWAP1 SSTORE POP PUSH2 0x1D3 PUSH2 0x223 PUSH1 0x20 SHL PUSH1 0x20 SHR JUMP JUMPDEST PUSH1 0x9 PUSH0 PUSH2 0x100 EXP DUP2 SLOAD DUP2 PUSH20 0xFFFFFFFFFFFFFFFFFFFFFFFFFFFFFFFFFFFFFFFF MUL NOT AND SWAP1 DUP4 PUSH20 0xFFFFFFFFFFFFFFFFFFFFFFFFFFFFFFFFFFFFFFFF AND MUL OR SWAP1 SSTORE POP POP POP POP POP POP POP POP POP POP POP POP POP PUSH2 0x42C JUMP JUMPDEST PUSH0 PUSH2 0x2710 PUSH1 0x40 MLOAD PUSH2 0x233 SWAP1 PUSH2 0x269 JUMP JUMPDEST PUSH2 0x23D SWAP2 SWAP1 PUSH2 0x413 JUMP JUMPDEST PUSH1 0x40 MLOAD DUP1 SWAP2 SUB SWAP1 PUSH0 CREATE DUP1 ISZERO DUP1 ISZERO PUSH2 0x256 JUMPI RETURNDATASIZE PUSH0 PUSH0 RETURNDATACOPY RETURNDATASIZE PUSH0 REVERT JUMPDEST POP SWAP1 POP SWAP1 JUMP JUMPDEST PUSH2 0x1421 DUP1 PUSH2 0x120F DUP4 CODECOPY ADD SWAP1 JUMP JUMPDEST PUSH2 0x260 DUP1 PUSH2 0x2630 DUP4 CODECOPY ADD SWAP1 JUMP JUMPDEST PUSH0 PUSH0 REVERT JUMPDEST PUSH0 DUP2 SWAP1 POP SWAP2 SWAP1 POP JUMP JUMPDEST PUSH2 0x28C DUP2 PUSH2 0x27A JUMP JUMPDEST DUP2 EQ PUSH2 0x296 JUMPI PUSH0 PUSH0 REVERT JUMPDEST POP JUMP JUMPDEST PUSH0 DUP2 MLOAD SWAP1 POP PUSH2 0x2A7 DUP2 PUSH2 0x283 JUMP JUMPDEST SWAP3 SWAP2 POP POP JUMP JUMPDEST PUSH0 PUSH0 PUSH0 PUSH0 PUSH1 0x80 DUP6 DUP8 SUB SLT ISZERO PUSH2 0x2C5 JUMPI PUSH2 0x2C4 PUSH2 0x276 JUMP JUMPDEST JUMPDEST PUSH0 PUSH2 0x2D2 DUP8 DUP3 DUP9 ADD PUSH2 0x299 JUMP JUMPDEST SWAP5 POP POP PUSH1 0x20 PUSH2 0x2E3 DUP8 DUP3 DUP9 ADD PUSH2 0x299 JUMP JUMPDEST SWAP4 POP POP PUSH1 0x40 PUSH2 0x2F4 DUP8 DUP3 DUP9 ADD PUSH2 0x299 JUMP JUMPDEST SWAP3 POP POP PUSH1 0x60 PUSH2 0x305 DUP8 DUP3 DUP9 ADD PUSH2 0x299 JUMP JUMPDEST SWAP2 POP POP SWAP3 SWAP6 SWAP2 SWAP5 POP SWAP3 POP JUMP JUMPDEST PUSH32 0x4E487B7100000000000000000000000000000000000000000000000000000000 PUSH0 MSTORE PUSH1 0x11 PUSH1 0x4 MSTORE PUSH1 0x24 PUSH0 REVERT JUMPDEST PUSH0 PUSH2 0x348 DUP3 PUSH2 0x27A JUMP JUMPDEST SWAP2 POP PUSH2 0x353 DUP4 PUSH2 0x27A JUMP JUMPDEST SWAP3 POP DUP3 DUP3 MUL PUSH2 0x361 DUP2 PUSH2 0x27A JUMP JUMPDEST SWAP2 POP DUP3 DUP3 DIV DUP5 EQ DUP4 ISZERO OR PUSH2 0x378 JUMPI PUSH2 0x377 PUSH2 0x311 JUMP JUMPDEST JUMPDEST POP SWAP3 SWAP2 POP POP JUMP JUMPDEST PUSH0 DUP2 SWAP1 POP SWAP2 SWAP1 POP JUMP JUMPDEST PUSH0 DUP2 SWAP1 POP SWAP2 SWAP1 POP JUMP JUMPDEST PUSH0 PUSH2 0x3AB PUSH2 0x3A6 PUSH2 0x3A1 DUP5 PUSH2 0x37F JUMP JUMPDEST PUSH2 0x388 JUMP JUMPDEST PUSH2 0x27A JUMP JUMPDEST SWAP1 POP SWAP2 SWAP1 POP JUMP JUMPDEST PUSH2 0x3BB DUP2 PUSH2 0x391 JUMP JUMPDEST DUP3 MSTORE POP POP JUMP JUMPDEST PUSH0 PUSH1 0x20 DUP3 ADD SWAP1 POP PUSH2 0x3D4 PUSH0 DUP4 ADD DUP5 PUSH2 0x3B2 JUMP JUMPDEST SWAP3 SWAP2 POP POP JUMP JUMPDEST PUSH0 DUP2 SWAP1 POP SWAP2 SWAP1 POP JUMP JUMPDEST PUSH0 PUSH2 0x3FD PUSH2 0x3F8 PUSH2 0x3F3 DUP5 PUSH2 0x3DA JUMP JUMPDEST PUSH2 0x388 JUMP JUMPDEST PUSH2 0x27A JUMP JUMPDEST SWAP1 POP SWAP2 SWAP1 POP JUMP JUMPDEST PUSH2 0x40D DUP2 PUSH2 0x3E3 JUMP JUMPDEST DUP3 MSTORE POP POP JUMP JUMPDEST PUSH0 PUSH1 0x20 DUP3 ADD SWAP1 POP PUSH2 0x426 PUSH0 DUP4 ADD DUP5 PUSH2 0x404 JUMP JUMPDEST SWAP3 SWAP2 POP POP JUMP JUMPDEST PUSH2 0xDD6 DUP1 PUSH2 0x439 PUSH0 CODECOPY PUSH0 RETURN INVALID PUSH1 0x80 PUSH1 0x40 MSTORE PUSH1 0x4 CALLDATASIZE LT PUSH2 0x108 JUMPI PUSH0 CALLDATALOAD PUSH1 0xE0 SHR DUP1 PUSH4 0x8D4E4083 GT PUSH2 0x94 JUMPI DUP1 PUSH4 0xE8B5E51F GT PUSH2 0x63 JUMPI DUP1 PUSH4 0xE8B5E51F EQ PUSH2 0x2DE JUMPI DUP1 PUSH4 0xEE56CF41 EQ PUSH2 0x2E8 JUMPI DUP1 PUSH4 0xEFF1A844 EQ PUSH2 0x312 JUMPI DUP1 PUSH4 0xF5074F41 EQ PUSH2 0x34E JUMPI DUP1 PUSH4 0xFA65DFAC EQ PUSH2 0x376 JUMPI PUSH2 0x108 JUMP JUMPDEST DUP1 PUSH4 0x8D4E4083 EQ PUSH2 0x236 JUMPI DUP1 PUSH4 0x8DA5CB5B EQ PUSH2 0x260 JUMPI DUP1 PUSH4 0xBAB34F43 EQ PUSH2 0x28A JUMPI DUP1 PUSH4 0xCB6F16D4 EQ PUSH2 0x2B4 JUMPI PUSH2 0x108 JUMP JUMPDEST DUP1 PUSH4 0x4BB278F3 GT PUSH2 0xDB JUMPI DUP1 PUSH4 0x4BB278F3 EQ PUSH2 0x1A0 JUMPI DUP1 PUSH4 0x590E1AE3 EQ PUSH2 0x1B6 JUMPI DUP1 PUSH4 0x5C975ABB EQ PUSH2 0x1CC JUMPI DUP1 PUSH4 0x78E97925 EQ PUSH2 0x1F6 JUMPI DUP1 PUSH4 0x8456CB59 EQ PUSH2 0x220 JUMPI PUSH2 0x108 JUMP JUMPDEST DUP1 PUSH4 0x1C0A5C10 EQ PUSH2 0x10C JUMPI DUP1 PUSH4 0x3197CBB6 EQ PUSH2 0x136 JUMPI DUP1 PUSH4 0x38EF9380 EQ PUSH2 0x160 JUMPI DUP1 PUSH4 0x3F4BA83A EQ PUSH2 0x18A JUMPI JUMPDEST PUSH0 PUSH0 REVERT JUMPDEST CALLVALUE DUP1 ISZERO PUSH2 0x117 JUMPI PUSH0 PUSH0 REVERT JUMPDEST POP PUSH2 0x120 PUSH2 0x3A0 JUMP JUMPDEST PUSH1 0x40 MLOAD PUSH2 0x12D SWAP2 SWAP1 PUSH2 0xACF JUMP JUMPDEST PUSH1 0x40 MLOAD DUP1 SWAP2 SUB SWAP1 RETURN JUMPDEST CALLVALUE DUP1 ISZERO PUSH2 0x141 JUMPI PUSH0 PUSH0 REVERT JUMPDEST POP PUSH2 0x14A PUSH2 0x3A6 JUMP JUMPDEST PUSH1 0x40 MLOAD PUSH2 0x157 SWAP2 SWAP1 PUSH2 0xACF JUMP JUMPDEST PUSH1 0x40 MLOAD DUP1 SWAP2 SUB SWAP1 RETURN JUMPDEST CALLVALUE DUP1 ISZERO PUSH2 0x16B JUMPI PUSH0 PUSH0 REVERT JUMPDEST POP PUSH2 0x174 PUSH2 0x3AC JUMP JUMPDEST PUSH1 0x40 MLOAD PUSH2 0x181 SWAP2 SWAP1 PUSH2 0xACF JUMP JUMPDEST PUSH1 0x40 MLOAD DUP1 SWAP2 SUB SWAP1 RETURN JUMPDEST CALLVALUE DUP1 ISZERO PUSH2 0x195 JUMPI PUSH0 PUSH0 REVERT JUMPDEST POP PUSH2 0x19E PUSH2 0x3B2 JUMP JUMPDEST STOP JUMPDEST CALLVALUE DUP1 ISZERO PUSH2 0x1AB JUMPI PUSH0 PUSH0 REVERT JUMPDEST POP PUSH2 0x1B4 PUSH2 0x43B JUMP JUMPDEST STOP JUMPDEST CALLVALUE DUP1 ISZERO PUSH2 0x1C1 JUMPI PUSH0 PUSH0 REVERT JUMPDEST POP PUSH2 0x1CA PUSH2 0x583 JUMP JUMPDEST STOP JUMPDEST CALLVALUE DUP1 ISZERO PUSH2 0x1D7 JUMPI PUSH0 PUSH0 REVERT JUMPDEST POP PUSH2 0x1E0 PUSH2 0x6BE JUMP JUMPDEST PUSH1 0x40 MLOAD PUSH2 0x1ED SWAP2 SWAP1 PUSH2 0xB02 JUMP JUMPDEST PUSH1 0x40 MLOAD DUP1 SWAP2 SUB SWAP1 RETURN JUMPDEST CALLVALUE DUP1 ISZERO PUSH2 0x201 JUMPI PUSH0 PUSH0 REVERT JUMPDEST POP PUSH2 0x20A PUSH2 0x6D0 JUMP JUMPDEST PUSH1 0x40 MLOAD PUSH2 0x217 SWAP2 SWAP1 PUSH2 0xACF JUMP JUMPDEST PUSH1 0x40 MLOAD DUP1 SWAP2 SUB SWAP1 RETURN JUMPDEST CALLVALUE DUP1 ISZERO PUSH2 0x22B JUMPI PUSH0 PUSH0 REVERT JUMPDEST POP PUSH2 0x234 PUSH2 0x6D6 JUMP JUMPDEST STOP JUMPDEST CALLVALUE DUP1 ISZERO PUSH2 0x241 JUMPI PUSH0 PUSH0 REVERT JUMPDEST POP PUSH2 0x24A PUSH2 0x761 JUMP JUMPDEST PUSH1 0x40 MLOAD PUSH2 0x257 SWAP2 SWAP1 PUSH2 0xB02 JUMP JUMPDEST PUSH1 0x40 MLOAD DUP1 SWAP2 SUB SWAP1 RETURN JUMPDEST CALLVALUE DUP1 ISZERO PUSH2 0x26B JUMPI PUSH0 PUSH0 REVERT JUMPDEST POP PUSH2 0x274 PUSH2 0x773 JUMP JUMPDEST PUSH1 0x40 MLOAD PUSH2 0x281 SWAP2 SWAP1 PUSH2 0xB5A JUMP JUMPDEST PUSH1 0x40 MLOAD DUP1 SWAP2 SUB SWAP1 RETURN JUMPDEST CALLVALUE DUP1 ISZERO PUSH2 0x295 JUMPI PUSH0 PUSH0 REVERT JUMPDEST POP PUSH2 0x29E PUSH2 0x797 JUMP JUMPDEST PUSH1 0x40 MLOAD PUSH2 0x2AB SWAP2 SWAP1 PUSH2 0xACF JUMP JUMPDEST PUSH1 0x40 MLOAD DUP1 SWAP2 SUB SWAP1 RETURN JUMPDEST CALLVALUE DUP1 ISZERO PUSH2 0x2BF JUMPI PUSH0 PUSH0 REVERT JUMPDEST POP PUSH2 0x2C8 PUSH2 0x79D JUMP JUMPDEST PUSH1 0x40 MLOAD PUSH2 0x2D5 SWAP2 SWAP1 PUSH2 0xB02 JUMP JUMPDEST PUSH1 0x40 MLOAD DUP1 SWAP2 SUB SWAP1 RETURN JUMPDEST PUSH2 0x2E6 PUSH2 0x7B0 JUMP JUMPDEST STOP JUMPDEST CALLVALUE DUP1 ISZERO PUSH2 0x2F3 JUMPI PUSH0 PUSH0 REVERT JUMPDEST POP PUSH2 0x2FC PUSH2 0x890 JUMP JUMPDEST PUSH1 0x40 MLOAD PUSH2 0x309 SWAP2 SWAP1 PUSH2 0xACF JUMP JUMPDEST PUSH1 0x40 MLOAD DUP1 SWAP2 SUB SWAP1 RETURN JUMPDEST CALLVALUE DUP1 ISZERO PUSH2 0x31D JUMPI PUSH0 PUSH0 REVERT JUMPDEST POP PUSH2 0x338 PUSH1 0x4 DUP1 CALLDATASIZE SUB DUP2 ADD SWAP1 PUSH2 0x333 SWAP2 SWAP1 PUSH2 0xBA1 JUMP JUMPDEST PUSH2 0x896 JUMP JUMPDEST PUSH1 0x40 MLOAD PUSH2 0x345 SWAP2 SWAP1 PUSH2 0xACF JUMP JUMPDEST PUSH1 0x40 MLOAD DUP1 SWAP2 SUB SWAP1 RETURN JUMPDEST CALLVALUE DUP1 ISZERO PUSH2 0x359 JUMPI PUSH0 PUSH0 REVERT JUMPDEST POP PUSH2 0x374 PUSH1 0x4 DUP1 CALLDATASIZE SUB DUP2 ADD SWAP1 PUSH2 0x36F SWAP2 SWAP1 PUSH2 0xBA1 JUMP JUMPDEST PUSH2 0x8AB JUMP JUMPDEST STOP JUMPDEST CALLVALUE DUP1 ISZERO PUSH2 0x381 JUMPI PUSH0 PUSH0 REVERT JUMPDEST POP PUSH2 0x38A PUSH2 0x91B JUMP JUMPDEST PUSH1 0x40 MLOAD PUSH2 0x397 SWAP2 SWAP1 PUSH2 0xC27 JUMP JUMPDEST PUSH1 0x40 MLOAD DUP1 SWAP2 SUB SWAP1 RETURN JUMPDEST PUSH1 0x6 SLOAD DUP2 JUMP JUMPDEST PUSH1 0x2 SLOAD DUP2 JUMP JUMPDEST PUSH1 0x7 SLOAD DUP2 JUMP JUMPDEST PUSH0 PUSH0 SWAP1 SLOAD SWAP1 PUSH2 0x100 EXP SWAP1 DIV PUSH20 0xFFFFFFFFFFFFFFFFFFFFFFFFFFFFFFFFFFFFFFFF AND PUSH20 0xFFFFFFFFFFFFFFFFFFFFFFFFFFFFFFFFFFFFFFFF AND CALLER PUSH20 0xFFFFFFFFFFFFFFFFFFFFFFFFFFFFFFFFFFFFFFFF AND EQ PUSH2 0x409 JUMPI PUSH0 PUSH0 REVERT JUMPDEST PUSH0 PUSH1 0x14 SWAP1 SLOAD SWAP1 PUSH2 0x100 EXP SWAP1 DIV PUSH1 0xFF AND PUSH2 0x420 JUMPI PUSH0 PUSH0 REVERT JUMPDEST PUSH0 PUSH0 PUSH1 0x14 PUSH2 0x100 EXP DUP2 SLOAD DUP2 PUSH1 0xFF MUL NOT AND SWAP1 DUP4 ISZERO ISZERO MUL OR SWAP1 SSTORE POP JUMP JUMPDEST PUSH0 PUSH0 SWAP1 SLOAD SWAP1 PUSH2 0x100 EXP SWAP1 DIV PUSH20 0xFFFFFFFFFFFFFFFFFFFFFFFFFFFFFFFFFFFFFFFF AND PUSH20 0xFFFFFFFFFFFFFFFFFFFFFFFFFFFFFFFFFFFFFFFF AND CALLER PUSH20 0xFFFFFFFFFFFFFFFFFFFFFFFFFFFFFFFFFFFFFFFF AND EQ PUSH2 0x492 JUMPI PUSH0 PUSH0 REVERT JUMPDEST PUSH1 0x8 PUSH0 SWAP1 SLOAD SWAP1 PUSH2 0x100 EXP SWAP1 DIV PUSH1 0xFF AND ISZERO PUSH2 0x4AA JUMPI PUSH0 PUSH0 REVERT JUMPDEST PUSH0 PUSH1 0x1 SWAP1 POP PUSH0 PUSH1 0x4 SLOAD PUSH1 0x6 SLOAD LT ISZERO SWAP1 POP DUP2 ISZERO PUSH2 0x57F JUMPI DUP1 ISZERO PUSH2 0x548 JUMPI PUSH1 0x8 PUSH1 0x2 SWAP1 SLOAD SWAP1 PUSH2 0x100 EXP SWAP1 DIV PUSH20 0xFFFFFFFFFFFFFFFFFFFFFFFFFFFFFFFFFFFFFFFF AND PUSH20 0xFFFFFFFFFFFFFFFFFFFFFFFFFFFFFFFFFFFFFFFF AND PUSH4 0x86D1A69F PUSH1 0x40 MLOAD DUP2 PUSH4 0xFFFFFFFF AND PUSH1 0xE0 SHL DUP2 MSTORE PUSH1 0x4 ADD PUSH0 PUSH1 0x40 MLOAD DUP1 DUP4 SUB DUP2 PUSH0 DUP8 DUP1 EXTCODESIZE ISZERO DUP1 ISZERO PUSH2 0x52D JUMPI PUSH0 PUSH0 REVERT JUMPDEST POP GAS CALL ISZERO DUP1 ISZERO PUSH2 0x53F JUMPI RETURNDATASIZE PUSH0 PUSH0 RETURNDATACOPY RETURNDATASIZE PUSH0 REVERT JUMPDEST POP POP POP POP PUSH2 0x564 JUMP JUMPDEST PUSH1 0x1 PUSH1 0x8 PUSH1 0x1 PUSH2 0x100 EXP DUP2 SLOAD DUP2 PUSH1 0xFF MUL NOT AND SWAP1 DUP4 ISZERO ISZERO MUL OR SWAP1 SSTORE POP JUMPDEST PUSH1 0x1 PUSH1 0x8 PUSH0 PUSH2 0x100 EXP DUP2 SLOAD DUP2 PUSH1 0xFF MUL NOT AND SWAP1 DUP4 ISZERO ISZERO MUL OR SWAP1 SSTORE POP JUMPDEST POP POP JUMP JUMPDEST PUSH1 0x8 PUSH1 0x1 SWAP1 SLOAD SWAP1 PUSH2 0x100 EXP SWAP1 DIV PUSH1 0xFF AND PUSH2 0x59B JUMPI PUSH0 PUSH0 REVERT JUMPDEST PUSH0 CALLER SWAP1 POP PUSH0 PUSH1 0x5 PUSH0 DUP4 PUSH20 0xFFFFFFFFFFFFFFFFFFFFFFFFFFFFFFFFFFFFFFFF AND PUSH20 0xFFFFFFFFFFFFFFFFFFFFFFFFFFFFFFFFFFFFFFFF AND DUP2 MSTORE PUSH1 0x20 ADD SWAP1 DUP2 MSTORE PUSH1 0x20 ADD PUSH0 KECCAK256 SLOAD SWAP1 POP PUSH0 DUP2 SUB PUSH2 0x5EB JUMPI PUSH0 PUSH0 REVERT JUMPDEST PUSH0 PUSH1 0x5 PUSH0 DUP5 PUSH20 0xFFFFFFFFFFFFFFFFFFFFFFFFFFFFFFFFFFFFFFFF AND PUSH20 0xFFFFFFFFFFFFFFFFFFFFFFFFFFFFFFFFFFFFFFFF AND DUP2 MSTORE PUSH1 0x20 ADD SWAP1 DUP2 MSTORE PUSH1 0x20 ADD PUSH0 KECCAK256 DUP2 SWAP1 SSTORE POP DUP1 PUSH1 0x7 PUSH0 DUP3 DUP3 SLOAD PUSH2 0x63E SWAP2 SWAP1 PUSH2 0xC6D JUMP JUMPDEST SWAP3 POP POP DUP2 SWAP1 SSTORE POP PUSH32 0xBB28353E4598C3B9199101A66E0989549B659A59A54D2C27FBB183F1932C8E6D CALLER DUP3 PUSH1 0x40 MLOAD PUSH2 0x676 SWAP3 SWAP2 SWAP1 PUSH2 0xCA0 JUMP JUMPDEST PUSH1 0x40 MLOAD DUP1 SWAP2 SUB SWAP1 LOG1 DUP2 PUSH20 0xFFFFFFFFFFFFFFFFFFFFFFFFFFFFFFFFFFFFFFFF AND PUSH2 0x8FC DUP3 SWAP1 DUP2 ISZERO MUL SWAP1 PUSH1 0x40 MLOAD PUSH0 PUSH1 0x40 MLOAD DUP1 DUP4 SUB DUP2 DUP6 DUP9 DUP9 CALL SWAP4 POP POP POP POP PUSH2 0x6BA JUMPI PUSH0 PUSH0 REVERT JUMPDEST POP POP JUMP JUMPDEST PUSH0 PUSH1 0x14 SWAP1 SLOAD SWAP1 PUSH2 0x100 EXP SWAP1 DIV PUSH1 0xFF AND DUP2 JUMP JUMPDEST PUSH1 0x1 SLOAD DUP2 JUMP JUMPDEST PUSH0 PUSH0 SWAP1 SLOAD SWAP1 PUSH2 0x100 EXP SWAP1 DIV PUSH20 0xFFFFFFFFFFFFFFFFFFFFFFFFFFFFFFFFFFFFFFFF AND PUSH20 0xFFFFFFFFFFFFFFFFFFFFFFFFFFFFFFFFFFFFFFFF AND CALLER PUSH20 0xFFFFFFFFFFFFFFFFFFFFFFFFFFFFFFFFFFFFFFFF AND EQ PUSH2 0x72D JUMPI PUSH0 PUSH0 REVERT JUMPDEST PUSH0 PUSH1 0x14 SWAP1 SLOAD SWAP1 PUSH2 0x100 EXP SWAP1 DIV PUSH1 0xFF AND ISZERO PUSH2 0x745 JUMPI PUSH0 PUSH0 REVERT JUMPDEST PUSH1 0x1 PUSH0 PUSH1 0x14 PUSH2 0x100 EXP DUP2 SLOAD DUP2 PUSH1 0xFF MUL NOT AND SWAP1 DUP4 ISZERO ISZERO MUL OR SWAP1 SSTORE POP JUMP JUMPDEST PUSH1 0x8 PUSH0 SWAP1 SLOAD SWAP1 PUSH2 0x100 EXP SWAP1 DIV PUSH1 0xFF AND DUP2 JUMP JUMPDEST PUSH0 PUSH0 SWAP1 SLOAD SWAP1 PUSH2 0x100 EXP SWAP1 DIV PUSH20 0xFFFFFFFFFFFFFFFFFFFFFFFFFFFFFFFFFFFFFFFF AND DUP2 JUMP JUMPDEST PUSH1 0x4 SLOAD DUP2 JUMP JUMPDEST PUSH1 0x8 PUSH1 0x1 SWAP1 SLOAD SWAP1 PUSH2 0x100 EXP SWAP1 DIV PUSH1 0xFF AND DUP2 JUMP JUMPDEST PUSH2 0x7B9 CALLVALUE PUSH2 0x941 JUMP JUMPDEST PUSH2 0x7C1 JUMPI PUSH0 PUSH0 REVERT JUMPDEST PUSH0 CALLER SWAP1 POP PUSH0 CALLVALUE SWAP1 POP DUP1 PUSH1 0x5 PUSH0 DUP5 PUSH20 0xFFFFFFFFFFFFFFFFFFFFFFFFFFFFFFFFFFFFFFFF AND PUSH20 0xFFFFFFFFFFFFFFFFFFFFFFFFFFFFFFFFFFFFFFFF AND DUP2 MSTORE PUSH1 0x20 ADD SWAP1 DUP2 MSTORE PUSH1 0x20 ADD PUSH0 KECCAK256 PUSH0 DUP3 DUP3 SLOAD PUSH2 0x815 SWAP2 SWAP1 PUSH2 0xC6D JUMP JUMPDEST SWAP3 POP POP DUP2 SWAP1 SSTORE POP DUP1 PUSH1 0x6 PUSH0 DUP3 DUP3 SLOAD PUSH2 0x82D SWAP2 SWAP1 PUSH2 0xC6D JUMP JUMPDEST SWAP3 POP POP DUP2 SWAP1 SSTORE POP PUSH2 0x83E DUP3 DUP3 PUSH2 0xA06 JUMP JUMPDEST DUP2 PUSH20 0xFFFFFFFFFFFFFFFFFFFFFFFFFFFFFFFFFFFFFFFF AND PUSH32 0xC74590E3281392E897F5C0F45530951CFE0DB0E86C76D65AF861E80B925871A4 DUP3 PUSH1 0x40 MLOAD PUSH2 0x884 SWAP2 SWAP1 PUSH2 0xACF JUMP JUMPDEST PUSH1 0x40 MLOAD DUP1 SWAP2 SUB SWAP1 LOG2 POP POP JUMP JUMPDEST PUSH1 0x3 SLOAD DUP2 JUMP JUMPDEST PUSH1 0x5 PUSH1 0x20 MSTORE DUP1 PUSH0 MSTORE PUSH1 0x40 PUSH0 KECCAK256 PUSH0 SWAP2 POP SWAP1 POP SLOAD DUP2 JUMP JUMPDEST PUSH0 PUSH0 SWAP1 SLOAD SWAP1 PUSH2 0x100 EXP SWAP1 DIV PUSH20 0xFFFFFFFFFFFFFFFFFFFFFFFFFFFFFFFFFFFFFFFF AND PUSH20 0xFFFFFFFFFFFFFFFFFFFFFFFFFFFFFFFFFFFFFFFF AND CALLER PUSH20 0xFFFFFFFFFFFFFFFFFFFFFFFFFFFFFFFFFFFFFFFF AND EQ PUSH2 0x902 JUMPI PUSH0 PUSH0 REVERT JUMPDEST DUP1 PUSH20 0xFFFFFFFFFFFFFFFFFFFFFFFFFFFFFFFFFFFFFFFF AND SELFDESTRUCT JUMPDEST PUSH1 0x8 PUSH1 0x2 SWAP1 SLOAD SWAP1 PUSH2 0x100 EXP SWAP1 DIV PUSH20 0xFFFFFFFFFFFFFFFFFFFFFFFFFFFFFFFFFFFFFFFF AND DUP2 JUMP JUMPDEST PUSH0 PUSH0 PUSH0 DUP4 EQ ISZERO SWAP1 POP PUSH0 PUSH1 0x1 SWAP1 POP DUP2 DUP1 ISZERO PUSH2 0x958 JUMPI POP DUP1 JUMPDEST DUP1 ISZERO PUSH2 0x9FD JUMPI POP PUSH1 0x9 PUSH0 SWAP1 SLOAD SWAP1 PUSH2 0x100 EXP SWAP1 DIV PUSH20 0xFFFFFFFFFFFFFFFFFFFFFFFFFFFFFFFFFFFFFFFF AND PUSH20 0xFFFFFFFFFFFFFFFFFFFFFFFFFFFFFFFFFFFFFFFF AND PUSH4 0x6B9C583 DUP6 PUSH1 0x6 SLOAD PUSH1 0x40 MLOAD DUP4 PUSH4 0xFFFFFFFF AND PUSH1 0xE0 SHL DUP2 MSTORE PUSH1 0x4 ADD PUSH2 0x9BD SWAP3 SWAP2 SWAP1 PUSH2 0xCC7 JUMP JUMPDEST PUSH1 0x20 PUSH1 0x40 MLOAD DUP1 DUP4 SUB DUP2 DUP7 GAS STATICCALL ISZERO DUP1 ISZERO PUSH2 0x9D8 JUMPI RETURNDATASIZE PUSH0 PUSH0 RETURNDATACOPY RETURNDATASIZE PUSH0 REVERT JUMPDEST POP POP POP POP PUSH1 0x40 MLOAD RETURNDATASIZE PUSH1 0x1F NOT PUSH1 0x1F DUP3 ADD AND DUP3 ADD DUP1 PUSH1 0x40 MSTORE POP DUP2 ADD SWAP1 PUSH2 0x9FC SWAP2 SWAP1 PUSH2 0xD18 JUMP JUMPDEST JUMPDEST SWAP3 POP POP POP SWAP2 SWAP1 POP JUMP JUMPDEST PUSH0 PUSH2 0xA10 DUP3 PUSH2 0xAA1 JUMP JUMPDEST SWAP1 POP PUSH1 0x8 PUSH1 0x2 SWAP1 SLOAD SWAP1 PUSH2 0x100 EXP SWAP1 DIV PUSH20 0xFFFFFFFFFFFFFFFFFFFFFFFFFFFFFFFFFFFFFFFF AND PUSH20 0xFFFFFFFFFFFFFFFFFFFFFFFFFFFFFFFFFFFFFFFF AND PUSH4 0x40C10F19 DUP5 DUP4 PUSH1 0x40 MLOAD DUP4 PUSH4 0xFFFFFFFF AND PUSH1 0xE0 SHL DUP2 MSTORE PUSH1 0x4 ADD PUSH2 0xA6F SWAP3 SWAP2 SWAP1 PUSH2 0xCA0 JUMP JUMPDEST PUSH0 PUSH1 0x40 MLOAD DUP1 DUP4 SUB DUP2 PUSH0 DUP8 DUP1 EXTCODESIZE ISZERO DUP1 ISZERO PUSH2 0xA86 JUMPI PUSH0 PUSH0 REVERT JUMPDEST POP GAS CALL ISZERO DUP1 ISZERO PUSH2 0xA98 JUMPI RETURNDATASIZE PUSH0 PUSH0 RETURNDATACOPY RETURNDATASIZE PUSH0 REVERT JUMPDEST POP POP POP POP POP POP POP JUMP JUMPDEST PUSH0 PUSH1 0x3 SLOAD DUP3 PUSH2 0xAB0 SWAP2 SWAP1 PUSH2 0xD70 JUMP JUMPDEST SWAP1 POP SWAP2 SWAP1 POP JUMP JUMPDEST PUSH0 DUP2 SWAP1 POP SWAP2 SWAP1 POP JUMP JUMPDEST PUSH2 0xAC9 DUP2 PUSH2 0xAB7 JUMP JUMPDEST DUP3 MSTORE POP POP JUMP JUMPDEST PUSH0 PUSH1 0x20 DUP3 ADD SWAP1 POP PUSH2 0xAE2 PUSH0 DUP4 ADD DUP5 PUSH2 0xAC0 JUMP JUMPDEST SWAP3 SWAP2 POP POP JUMP JUMPDEST PUSH0 DUP2 ISZERO ISZERO SWAP1 POP SWAP2 SWAP1 POP JUMP JUMPDEST PUSH2 0xAFC DUP2 PUSH2 0xAE8 JUMP JUMPDEST DUP3 MSTORE POP POP JUMP JUMPDEST PUSH0 PUSH1 0x20 DUP3 ADD SWAP1 POP PUSH2 0xB15 PUSH0 DUP4 ADD DUP5 PUSH2 0xAF3 JUMP JUMPDEST SWAP3 SWAP2 POP POP JUMP JUMPDEST PUSH0 PUSH20 0xFFFFFFFFFFFFFFFFFFFFFFFFFFFFFFFFFFFFFFFF DUP3 AND SWAP1 POP SWAP2 SWAP1 POP JUMP JUMPDEST PUSH0 PUSH2 0xB44 DUP3 PUSH2 0xB1B JUMP JUMPDEST SWAP1 POP SWAP2 SWAP1 POP JUMP JUMPDEST PUSH2 0xB54 DUP2 PUSH2 0xB3A JUMP JUMPDEST DUP3 MSTORE POP POP JUMP JUMPDEST PUSH0 PUSH1 0x20 DUP3 ADD SWAP1 POP PUSH2 0xB6D PUSH0 DUP4 ADD DUP5 PUSH2 0xB4B JUMP JUMPDEST SWAP3 SWAP2 POP POP JUMP JUMPDEST PUSH0 PUSH0 REVERT JUMPDEST PUSH2 0xB80 DUP2 PUSH2 0xB3A JUMP JUMPDEST DUP2 EQ PUSH2 0xB8A JUMPI PUSH0 PUSH0 REVERT JUMPDEST POP JUMP JUMPDEST PUSH0 DUP2 CALLDATALOAD SWAP1 POP PUSH2 0xB9B DUP2 PUSH2 0xB77 JUMP JUMPDEST SWAP3 SWAP2 POP POP JUMP JUMPDEST PUSH0 PUSH1 0x20 DUP3 DUP5 SUB SLT ISZERO PUSH2 0xBB6 JUMPI PUSH2 0xBB5 PUSH2 0xB73 JUMP JUMPDEST JUMPDEST PUSH0 PUSH2 0xBC3 DUP5 DUP3 DUP6 ADD PUSH2 0xB8D JUMP JUMPDEST SWAP2 POP POP SWAP3 SWAP2 POP POP JUMP JUMPDEST PUSH0 DUP2 SWAP1 POP SWAP2 SWAP1 POP JUMP JUMPDEST PUSH0 PUSH2 0xBEF PUSH2 0xBEA PUSH2 0xBE5 DUP5 PUSH2 0xB1B JUMP JUMPDEST PUSH2 0xBCC JUMP JUMPDEST PUSH2 0xB1B JUMP JUMPDEST SWAP1 POP SWAP2 SWAP1 POP JUMP JUMPDEST PUSH0 PUSH2 0xC00 DUP3 PUSH2 0xBD5 JUMP JUMPDEST SWAP1 POP SWAP2 SWAP1 POP JUMP JUMPDEST PUSH0 PUSH2 0xC11 DUP3 PUSH2 0xBF6 JUMP JUMPDEST SWAP1 POP SWAP2 SWAP1 POP JUMP JUMPDEST PUSH2 0xC21 DUP2 PUSH2 0xC07 JUMP JUMPDEST DUP3 MSTORE POP POP JUMP JUMPDEST PUSH0 PUSH1 0x20 DUP3 ADD SWAP1 POP PUSH2 0xC3A PUSH0 DUP4 ADD DUP5 PUSH2 0xC18 JUMP JUMPDEST SWAP3 SWAP2 POP POP JUMP JUMPDEST PUSH32 0x4E487B7100000000000000000000000000000000000000000000000000000000 PUSH0 MSTORE PUSH1 0x11 PUSH1 0x4 MSTORE PUSH1 0x24 PUSH0 REVERT JUMPDEST PUSH0 PUSH2 0xC77 DUP3 PUSH2 0xAB7 JUMP JUMPDEST SWAP2 POP PUSH2 0xC82 DUP4 PUSH2 0xAB7 JUMP JUMPDEST SWAP3 POP DUP3 DUP3 ADD SWAP1 POP DUP1 DUP3 GT ISZERO PUSH2 0xC9A JUMPI PUSH2 0xC99 PUSH2 0xC40 JUMP JUMPDEST JUMPDEST SWAP3 SWAP2 POP POP JUMP JUMPDEST PUSH0 PUSH1 0x40 DUP3 ADD SWAP1 POP PUSH2 0xCB3 PUSH0 DUP4 ADD DUP6 PUSH2 0xB4B JUMP JUMPDEST PUSH2 0xCC0 PUSH1 0x20 DUP4 ADD DUP5 PUSH2 0xAC0 JUMP JUMPDEST SWAP4 SWAP3 POP POP POP JUMP JUMPDEST PUSH0 PUSH1 0x40 DUP3 ADD SWAP1 POP PUSH2 0xCDA PUSH0 DUP4 ADD DUP6 PUSH2 0xAC0 JUMP JUMPDEST PUSH2 0xCE7 PUSH1 0x20 DUP4 ADD DUP5 PUSH2 0xAC0 JUMP JUMPDEST SWAP4 SWAP3 POP POP POP JUMP JUMPDEST PUSH2 0xCF7 DUP2 PUSH2 0xAE8 JUMP JUMPDEST DUP2 EQ PUSH2 0xD01 JUMPI PUSH0 PUSH0 REVERT JUMPDEST POP JUMP JUMPDEST PUSH0 DUP2 MLOAD SWAP1 POP PUSH2 0xD12 DUP2 PUSH2 0xCEE JUMP JUMPDEST SWAP3 SWAP2 POP POP JUMP JUMPDEST PUSH0 PUSH1 0x20 DUP3 DUP5 SUB SLT ISZERO PUSH2 0xD2D JUMPI PUSH2 0xD2C PUSH2 0xB73 JUMP JUMPDEST JUMPDEST PUSH0 PUSH2 0xD3A DUP5 DUP3 DUP6 ADD PUSH2 0xD04 JUMP JUMPDEST SWAP2 POP POP SWAP3 SWAP2 POP POP JUMP JUMPDEST PUSH32 0x4E487B7100000000000000000000000000000000000000000000000000000000 PUSH0 MSTORE PUSH1 0x12 PUSH1 0x4 MSTORE PUSH1 0x24 PUSH0 REVERT JUMPDEST PUSH0 PUSH2 0xD7A DUP3 PUSH2 0xAB7 JUMP JUMPDEST SWAP2 POP PUSH2 0xD85 DUP4 PUSH2 0xAB7 JUMP JUMPDEST SWAP3 POP DUP3 PUSH2 0xD95 JUMPI PUSH2 0xD94 PUSH2 0xD43 JUMP JUMPDEST JUMPDEST DUP3 DUP3 DIV SWAP1 POP SWAP3 SWAP2 POP POP JUMP INVALID LOG2 PUSH5 0x6970667358 0x22 SLT KECCAK256 0xBA 0xB0 MSTORE8 PUSH3 0xA1471A 0xF6 SAR GASPRICE 0xC7 CALL 0xBE SUB DUP15 0x27 0xD4 CALLCODE 0xB2 0xDF EXTDELEGATECALL 0xC3 NOT DUP9 CALLF 0x8D4F MSTORE BLOCKHASH DUP2 PUSH5 0x7864736F6C PUSH4 0x4300081E STOP CALLER PUSH1 0x80 PUSH1 0x40 MSTORE PUSH0 PUSH1 0x4 PUSH0 PUSH2 0x100 EXP DUP2 SLOAD DUP2 PUSH1 0xFF MUL NOT AND SWAP1 DUP4 ISZERO ISZERO MUL OR SWAP1 SSTORE POP PUSH0 PUSH1 0x4 PUSH1 0x1 PUSH2 0x100 EXP DUP2 SLOAD DUP2 PUSH1 0xFF MUL NOT AND SWAP1 DUP4 ISZERO ISZERO MUL OR SWAP1 SSTORE POP CALLVALUE DUP1 ISZERO PUSH2 0x42 JUMPI PUSH0 PUSH0 REVERT JUMPDEST POP PUSH1 0x40 MLOAD PUSH2 0x1421 CODESIZE SUB DUP1 PUSH2 0x1421 DUP4 CODECOPY DUP2 DUP2 ADD PUSH1 0x40 MSTORE DUP2 ADD SWAP1 PUSH2 0x64 SWAP2 SWAP1 PUSH2 0x284 JUMP JUMPDEST DUP1 CALLER PUSH0 PUSH0 PUSH2 0x100 EXP DUP2 SLOAD DUP2 PUSH20 0xFFFFFFFFFFFFFFFFFFFFFFFFFFFFFFFFFFFFFFFF MUL NOT AND SWAP1 DUP4 PUSH20 0xFFFFFFFFFFFFFFFFFFFFFFFFFFFFFFFFFFFFFFFF AND MUL OR SWAP1 SSTORE POP CALLER PUSH0 PUSH0 PUSH2 0x100 EXP DUP2 SLOAD DUP2 PUSH20 0xFFFFFFFFFFFFFFFFFFFFFFFFFFFFFFFFFFFFFFFF MUL NOT AND SWAP1 DUP4 PUSH20 0xFFFFFFFFFFFFFFFFFFFFFFFFFFFFFFFFFFFFFFFF AND MUL OR SWAP1 SSTORE POP PUSH2 0x113 PUSH0 PUSH0 SWAP1 SLOAD SWAP1 PUSH2 0x100 EXP SWAP1 DIV PUSH20 0xFFFFFFFFFFFFFFFFFFFFFFFFFFFFFFFFFFFFFFFF AND DUP3 PUSH2 0x11A PUSH1 0x20 SHL PUSH1 0x20 SHR JUMP JUMPDEST POP POP PUSH2 0x337 JUMP JUMPDEST PUSH0 PUSH0 SWAP1 SLOAD SWAP1 PUSH2 0x100 EXP SWAP1 DIV PUSH20 0xFFFFFFFFFFFFFFFFFFFFFFFFFFFFFFFFFFFFFFFF AND PUSH20 0xFFFFFFFFFFFFFFFFFFFFFFFFFFFFFFFFFFFFFFFF AND CALLER PUSH20 0xFFFFFFFFFFFFFFFFFFFFFFFFFFFFFFFFFFFFFFFF AND EQ PUSH2 0x171 JUMPI PUSH0 PUSH0 REVERT JUMPDEST DUP1 PUSH1 0x1 PUSH0 DUP5 PUSH20 0xFFFFFFFFFFFFFFFFFFFFFFFFFFFFFFFFFFFFFFFF AND PUSH20 0xFFFFFFFFFFFFFFFFFFFFFFFFFFFFFFFFFFFFFFFF AND DUP2 MSTORE PUSH1 0x20 ADD SWAP1 DUP2 MSTORE PUSH1 0x20 ADD PUSH0 KECCAK256 PUSH0 DUP3 DUP3 SLOAD PUSH2 0x1BD SWAP2 SWAP1 PUSH2 0x2DC JUMP JUMPDEST SWAP3 POP POP DUP2 SWAP1 SSTORE POP DUP2 PUSH20 0xFFFFFFFFFFFFFFFFFFFFFFFFFFFFFFFFFFFFFFFF AND PUSH0 PUSH0 SWAP1 SLOAD SWAP1 PUSH2 0x100 EXP SWAP1 DIV PUSH20 0xFFFFFFFFFFFFFFFFFFFFFFFFFFFFFFFFFFFFFFFF AND PUSH20 0xFFFFFFFFFFFFFFFFFFFFFFFFFFFFFFFFFFFFFFFF AND PUSH32 0xDDF252AD1BE2C89B69C2B068FC378DAA952BA7F163C4A11628F55A4DF523B3EF DUP4 PUSH1 0x40 MLOAD PUSH2 0x241 SWAP2 SWAP1 PUSH2 0x31E JUMP JUMPDEST PUSH1 0x40 MLOAD DUP1 SWAP2 SUB SWAP1 LOG3 POP POP JUMP JUMPDEST PUSH0 PUSH0 REVERT JUMPDEST PUSH0 DUP2 SWAP1 POP SWAP2 SWAP1 POP JUMP JUMPDEST PUSH2 0x263 DUP2 PUSH2 0x251 JUMP JUMPDEST DUP2 EQ PUSH2 0x26D JUMPI PUSH0 PUSH0 REVERT JUMPDEST POP JUMP JUMPDEST PUSH0 DUP2 MLOAD SWAP1 POP PUSH2 0x27E DUP2 PUSH2 0x25A JUMP JUMPDEST SWAP3 SWAP2 POP POP JUMP JUMPDEST PUSH0 PUSH1 0x20 DUP3 DUP5 SUB SLT ISZERO PUSH2 0x299 JUMPI PUSH2 0x298 PUSH2 0x24D JUMP JUMPDEST JUMPDEST PUSH0 PUSH2 0x2A6 DUP5 DUP3 DUP6 ADD PUSH2 0x270 JUMP JUMPDEST SWAP2 POP POP SWAP3 SWAP2 POP POP JUMP JUMPDEST PUSH32 0x4E487B7100000000000000000000000000000000000000000000000000000000 PUSH0 MSTORE PUSH1 0x11 PUSH1 0x4 MSTORE PUSH1 0x24 PUSH0 REVERT JUMPDEST PUSH0 PUSH2 0x2E6 DUP3 PUSH2 0x251 JUMP JUMPDEST SWAP2 POP PUSH2 0x2F1 DUP4 PUSH2 0x251 JUMP JUMPDEST SWAP3 POP DUP3 DUP3 ADD SWAP1 POP DUP1 DUP3 GT ISZERO PUSH2 0x309 JUMPI PUSH2 0x308 PUSH2 0x2AF JUMP JUMPDEST JUMPDEST SWAP3 SWAP2 POP POP JUMP JUMPDEST PUSH2 0x318 DUP2 PUSH2 0x251 JUMP JUMPDEST DUP3 MSTORE POP POP JUMP JUMPDEST PUSH0 PUSH1 0x20 DUP3 ADD SWAP1 POP PUSH2 0x331 PUSH0 DUP4 ADD DUP5 PUSH2 0x30F JUMP JUMPDEST SWAP3 SWAP2 POP POP JUMP JUMPDEST PUSH2 0x10DD DUP1 PUSH2 0x344 PUSH0 CODECOPY PUSH0 RETURN INVALID PUSH1 0x80 PUSH1 0x40 MSTORE CALLVALUE DUP1 ISZERO PUSH2 0xF JUMPI PUSH0 PUSH0 REVERT JUMPDEST POP PUSH1 0x4 CALLDATASIZE LT PUSH2 0xF3 JUMPI PUSH0 CALLDATALOAD PUSH1 0xE0 SHR DUP1 PUSH4 0x96132521 GT PUSH2 0x95 JUMPI DUP1 PUSH4 0xDD62ED3E GT PUSH2 0x64 JUMPI DUP1 PUSH4 0xDD62ED3E EQ PUSH2 0x237 JUMPI DUP1 PUSH4 0xE724529C EQ PUSH2 0x267 JUMPI DUP1 PUSH4 0xF5074F41 EQ PUSH2 0x283 JUMPI DUP1 PUSH4 0xFABDE80C EQ PUSH2 0x29F JUMPI PUSH2 0xF3 JUMP JUMPDEST DUP1 PUSH4 0x96132521 EQ PUSH2 0x19D JUMPI DUP1 PUSH4 0xA9059CBB EQ PUSH2 0x1BB JUMPI DUP1 PUSH4 0xB414D4B6 EQ PUSH2 0x1D7 JUMPI DUP1 PUSH4 0xC1DBD9B2 EQ PUSH2 0x207 JUMPI PUSH2 0xF3 JUMP JUMPDEST DUP1 PUSH4 0x5C975ABB GT PUSH2 0xD1 JUMPI DUP1 PUSH4 0x5C975ABB EQ PUSH2 0x14D JUMPI DUP1 PUSH4 0x8456CB59 EQ PUSH2 0x16B JUMPI DUP1 PUSH4 0x86D1A69F EQ PUSH2 0x175 JUMPI DUP1 PUSH4 0x8DA5CB5B EQ PUSH2 0x17F JUMPI PUSH2 0xF3 JUMP JUMPDEST DUP1 PUSH4 0x23B872DD EQ PUSH2 0xF7 JUMPI DUP1 PUSH4 0x3F4BA83A EQ PUSH2 0x127 JUMPI DUP1 PUSH4 0x40C10F19 EQ PUSH2 0x131 JUMPI JUMPDEST PUSH0 PUSH0 REVERT JUMPDEST PUSH2 0x111 PUSH1 0x4 DUP1 CALLDATASIZE SUB DUP2 ADD SWAP1 PUSH2 0x10C SWAP2 SWAP1 PUSH2 0xE0B JUMP JUMPDEST PUSH2 0x2CF JUMP JUMPDEST PUSH1 0x40 MLOAD PUSH2 0x11E SWAP2 SWAP1 PUSH2 0xE75 JUMP JUMPDEST PUSH1 0x40 MLOAD DUP1 SWAP2 SUB SWAP1 RETURN JUMPDEST PUSH2 0x12F PUSH2 0x2FC JUMP JUMPDEST STOP JUMPDEST PUSH2 0x14B PUSH1 0x4 DUP1 CALLDATASIZE SUB DUP2 ADD SWAP1 PUSH2 0x146 SWAP2 SWAP1 PUSH2 0xE8E JUMP JUMPDEST PUSH2 0x385 JUMP JUMPDEST STOP JUMPDEST PUSH2 0x155 PUSH2 0x4B8 JUMP JUMPDEST PUSH1 0x40 MLOAD PUSH2 0x162 SWAP2 SWAP1 PUSH2 0xE75 JUMP JUMPDEST PUSH1 0x40 MLOAD DUP1 SWAP2 SUB SWAP1 RETURN JUMPDEST PUSH2 0x173 PUSH2 0x4CA JUMP JUMPDEST STOP JUMPDEST PUSH2 0x17D PUSH2 0x555 JUMP JUMPDEST STOP JUMPDEST PUSH2 0x187 PUSH2 0x5C9 JUMP JUMPDEST PUSH1 0x40 MLOAD PUSH2 0x194 SWAP2 SWAP1 PUSH2 0xEDB JUMP JUMPDEST PUSH1 0x40 MLOAD DUP1 SWAP2 SUB SWAP1 RETURN JUMPDEST PUSH2 0x1A5 PUSH2 0x5ED JUMP JUMPDEST PUSH1 0x40 MLOAD PUSH2 0x1B2 SWAP2 SWAP1 PUSH2 0xE75 JUMP JUMPDEST PUSH1 0x40 MLOAD DUP1 SWAP2 SUB SWAP1 RETURN JUMPDEST PUSH2 0x1D5 PUSH1 0x4 DUP1 CALLDATASIZE SUB DUP2 ADD SWAP1 PUSH2 0x1D0 SWAP2 SWAP1 PUSH2 0xE8E JUMP JUMPDEST PUSH2 0x600 JUMP JUMPDEST STOP JUMPDEST PUSH2 0x1F1 PUSH1 0x4 DUP1 CALLDATASIZE SUB DUP2 ADD SWAP1 PUSH2 0x1EC SWAP2 SWAP1 PUSH2 0xEF4 JUMP JUMPDEST PUSH2 0x626 JUMP JUMPDEST PUSH1 0x40 MLOAD PUSH2 0x1FE SWAP2 SWAP1 PUSH2 0xE75 JUMP JUMPDEST PUSH1 0x40 MLOAD DUP1 SWAP2 SUB SWAP1 RETURN JUMPDEST PUSH2 0x221 PUSH1 0x4 DUP1 CALLDATASIZE SUB DUP2 ADD SWAP1 PUSH2 0x21C SWAP2 SWAP1 PUSH2 0xE8E JUMP JUMPDEST PUSH2 0x643 JUMP JUMPDEST PUSH1 0x40 MLOAD PUSH2 0x22E SWAP2 SWAP1 PUSH2 0xE75 JUMP JUMPDEST PUSH1 0x40 MLOAD DUP1 SWAP2 SUB SWAP1 RETURN JUMPDEST PUSH2 0x251 PUSH1 0x4 DUP1 CALLDATASIZE SUB DUP2 ADD SWAP1 PUSH2 0x24C SWAP2 SWAP1 PUSH2 0xF1F JUMP JUMPDEST PUSH2 0x6CB JUMP JUMPDEST PUSH1 0x40 MLOAD PUSH2 0x25E SWAP2 SWAP1 PUSH2 0xF6C JUMP JUMPDEST PUSH1 0x40 MLOAD DUP1 SWAP2 SUB SWAP1 RETURN JUMPDEST PUSH2 0x281 PUSH1 0x4 DUP1 CALLDATASIZE SUB DUP2 ADD SWAP1 PUSH2 0x27C SWAP2 SWAP1 PUSH2 0xFAF JUMP JUMPDEST PUSH2 0x6EB JUMP JUMPDEST STOP JUMPDEST PUSH2 0x29D PUSH1 0x4 DUP1 CALLDATASIZE SUB DUP2 ADD SWAP1 PUSH2 0x298 SWAP2 SWAP1 PUSH2 0xEF4 JUMP JUMPDEST PUSH2 0x7D3 JUMP JUMPDEST STOP JUMPDEST PUSH2 0x2B9 PUSH1 0x4 DUP1 CALLDATASIZE SUB DUP2 ADD SWAP1 PUSH2 0x2B4 SWAP2 SWAP1 PUSH2 0xEF4 JUMP JUMPDEST PUSH2 0x843 JUMP JUMPDEST PUSH1 0x40 MLOAD PUSH2 0x2C6 SWAP2 SWAP1 PUSH2 0xF6C JUMP JUMPDEST PUSH1 0x40 MLOAD DUP1 SWAP2 SUB SWAP1 RETURN JUMPDEST PUSH0 PUSH1 0x4 PUSH1 0x1 SWAP1 SLOAD SWAP1 PUSH2 0x100 EXP SWAP1 DIV PUSH1 0xFF AND PUSH2 0x2E8 JUMPI PUSH0 PUSH0 REVERT JUMPDEST PUSH2 0x2F3 DUP5 DUP5 DUP5 PUSH2 0x858 JUMP JUMPDEST SWAP1 POP SWAP4 SWAP3 POP POP POP JUMP JUMPDEST PUSH0 PUSH0 SWAP1 SLOAD SWAP1 PUSH2 0x100 EXP SWAP1 DIV PUSH20 0xFFFFFFFFFFFFFFFFFFFFFFFFFFFFFFFFFFFFFFFF AND PUSH20 0xFFFFFFFFFFFFFFFFFFFFFFFFFFFFFFFFFFFFFFFF AND CALLER PUSH20 0xFFFFFFFFFFFFFFFFFFFFFFFFFFFFFFFFFFFFFFFF AND EQ PUSH2 0x353 JUMPI PUSH0 PUSH0 REVERT JUMPDEST PUSH1 0x4 PUSH0 SWAP1 SLOAD SWAP1 PUSH2 0x100 EXP SWAP1 DIV PUSH1 0xFF AND PUSH2 0x36A JUMPI PUSH0 PUSH0 REVERT JUMPDEST PUSH0 PUSH1 0x4 PUSH0 PUSH2 0x100 EXP DUP2 SLOAD DUP2 PUSH1 0xFF MUL NOT AND SWAP1 DUP4 ISZERO ISZERO MUL OR SWAP1 SSTORE POP JUMP JUMPDEST PUSH0 PUSH0 SWAP1 SLOAD SWAP1 PUSH2 0x100 EXP SWAP1 DIV PUSH20 0xFFFFFFFFFFFFFFFFFFFFFFFFFFFFFFFFFFFFFFFF AND PUSH20 0xFFFFFFFFFFFFFFFFFFFFFFFFFFFFFFFFFFFFFFFF AND CALLER PUSH20 0xFFFFFFFFFFFFFFFFFFFFFFFFFFFFFFFFFFFFFFFF AND EQ PUSH2 0x3DC JUMPI PUSH0 PUSH0 REVERT JUMPDEST DUP1 PUSH1 0x1 PUSH0 DUP5 PUSH20 0xFFFFFFFFFFFFFFFFFFFFFFFFFFFFFFFFFFFFFFFF AND PUSH20 0xFFFFFFFFFFFFFFFFFFFFFFFFFFFFFFFFFFFFFFFF AND DUP2 MSTORE PUSH1 0x20 ADD SWAP1 DUP2 MSTORE PUSH1 0x20 ADD PUSH0 KECCAK256 PUSH0 DUP3 DUP3 SLOAD PUSH2 0x428 SWAP2 SWAP1 PUSH2 0x101A JUMP JUMPDEST SWAP3 POP POP DUP2 SWAP1 SSTORE POP DUP2 PUSH20 0xFFFFFFFFFFFFFFFFFFFFFFFFFFFFFFFFFFFFFFFF AND PUSH0 PUSH0 SWAP1 SLOAD SWAP1 PUSH2 0x100 EXP SWAP1 DIV PUSH20 0xFFFFFFFFFFFFFFFFFFFFFFFFFFFFFFFFFFFFFFFF AND PUSH20 0xFFFFFFFFFFFFFFFFFFFFFFFFFFFFFFFFFFFFFFFF AND PUSH32 0xDDF252AD1BE2C89B69C2B068FC378DAA952BA7F163C4A11628F55A4DF523B3EF DUP4 PUSH1 0x40 MLOAD PUSH2 0x4AC SWAP2 SWAP1 PUSH2 0xF6C JUMP JUMPDEST PUSH1 0x40 MLOAD DUP1 SWAP2 SUB SWAP1 LOG3 POP POP JUMP JUMPDEST PUSH1 0x4 PUSH0 SWAP1 SLOAD SWAP1 PUSH2 0x100 EXP SWAP1 DIV PUSH1 0xFF AND DUP2 JUMP JUMPDEST PUSH0 PUSH0 SWAP1 SLOAD SWAP1 PUSH2 0x100 EXP SWAP1 DIV PUSH20 0xFFFFFFFFFFFFFFFFFFFFFFFFFFFFFFFFFFFFFFFF AND PUSH20 0xFFFFFFFFFFFFFFFFFFFFFFFFFFFFFFFFFFFFFFFF AND CALLER PUSH20 0xFFFFFFFFFFFFFFFFFFFFFFFFFFFFFFFFFFFFFFFF AND EQ PUSH2 0x521 JUMPI PUSH0 PUSH0 REVERT JUMPDEST PUSH1 0x4 PUSH0 SWAP1 SLOAD SWAP1 PUSH2 0x100 EXP SWAP1 DIV PUSH1 0xFF AND ISZERO PUSH2 0x539 JUMPI PUSH0 PUSH0 REVERT JUMPDEST PUSH1 0x1 PUSH1 0x4 PUSH0 PUSH2 0x100 EXP DUP2 SLOAD DUP2 PUSH1 0xFF MUL NOT AND SWAP1 DUP4 ISZERO ISZERO MUL OR SWAP1 SSTORE POP JUMP JUMPDEST PUSH0 PUSH0 SWAP1 SLOAD SWAP1 PUSH2 0x100 EXP SWAP1 DIV PUSH20 0xFFFFFFFFFFFFFFFFFFFFFFFFFFFFFFFFFFFFFFFF AND PUSH20 0xFFFFFFFFFFFFFFFFFFFFFFFFFFFFFFFFFFFFFFFF AND CALLER PUSH20 0xFFFFFFFFFFFFFFFFFFFFFFFFFFFFFFFFFFFFFFFF AND EQ PUSH2 0x5AC JUMPI PUSH0 PUSH0 REVERT JUMPDEST PUSH1 0x1 PUSH1 0x4 PUSH1 0x1 PUSH2 0x100 EXP DUP2 SLOAD DUP2 PUSH1 0xFF MUL NOT AND SWAP1 DUP4 ISZERO ISZERO MUL OR SWAP1 SSTORE POP JUMP JUMPDEST PUSH0 PUSH0 SWAP1 SLOAD SWAP1 PUSH2 0x100 EXP SWAP1 DIV PUSH20 0xFFFFFFFFFFFFFFFFFFFFFFFFFFFFFFFFFFFFFFFF AND DUP2 JUMP JUMPDEST PUSH1 0x4 PUSH1 0x1 SWAP1 SLOAD SWAP1 PUSH2 0x100 EXP SWAP1 DIV PUSH1 0xFF AND DUP2 JUMP JUMPDEST PUSH1 0x4 PUSH1 0x1 SWAP1 SLOAD SWAP1 PUSH2 0x100 EXP SWAP1 DIV PUSH1 0xFF AND PUSH2 0x618 JUMPI PUSH0 PUSH0 REVERT JUMPDEST PUSH2 0x622 DUP3 DUP3 PUSH2 0xB91 JUMP JUMPDEST POP POP JUMP JUMPDEST PUSH1 0x3 PUSH1 0x20 MSTORE DUP1 PUSH0 MSTORE PUSH1 0x40 PUSH0 KECCAK256 PUSH0 SWAP2 POP SLOAD SWAP1 PUSH2 0x100 EXP SWAP1 DIV PUSH1 0xFF AND DUP2 JUMP JUMPDEST PUSH0 DUP2 PUSH1 0x2 PUSH0 CALLER PUSH20 0xFFFFFFFFFFFFFFFFFFFFFFFFFFFFFFFFFFFFFFFF AND PUSH20 0xFFFFFFFFFFFFFFFFFFFFFFFFFFFFFFFFFFFFFFFF AND DUP2 MSTORE PUSH1 0x20 ADD SWAP1 DUP2 MSTORE PUSH1 0x20 ADD PUSH0 KECCAK256 PUSH0 DUP6 PUSH20 0xFFFFFFFFFFFFFFFFFFFFFFFFFFFFFFFFFFFFFFFF AND PUSH20 0xFFFFFFFFFFFFFFFFFFFFFFFFFFFFFFFFFFFFFFFF AND DUP2 MSTORE PUSH1 0x20 ADD SWAP1 DUP2 MSTORE PUSH1 0x20 ADD PUSH0 KECCAK256 DUP2 SWAP1 SSTORE POP PUSH1 0x1 SWAP1 POP SWAP3 SWAP2 POP POP JUMP JUMPDEST PUSH1 0x2 PUSH1 0x20 MSTORE DUP2 PUSH0 MSTORE PUSH1 0x40 PUSH0 KECCAK256 PUSH1 0x20 MSTORE DUP1 PUSH0 MSTORE PUSH1 0x40 PUSH0 KECCAK256 PUSH0 SWAP2 POP SWAP2 POP POP SLOAD DUP2 JUMP JUMPDEST PUSH0 PUSH0 SWAP1 SLOAD SWAP1 PUSH2 0x100 EXP SWAP1 DIV PUSH20 0xFFFFFFFFFFFFFFFFFFFFFFFFFFFFFFFFFFFFFFFF AND PUSH20 0xFFFFFFFFFFFFFFFFFFFFFFFFFFFFFFFFFFFFFFFF AND CALLER PUSH20 0xFFFFFFFFFFFFFFFFFFFFFFFFFFFFFFFFFFFFFFFF AND EQ PUSH2 0x742 JUMPI PUSH0 PUSH0 REVERT JUMPDEST DUP1 PUSH1 0x3 PUSH0 DUP5 PUSH20 0xFFFFFFFFFFFFFFFFFFFFFFFFFFFFFFFFFFFFFFFF AND PUSH20 0xFFFFFFFFFFFFFFFFFFFFFFFFFFFFFFFFFFFFFFFF AND DUP2 MSTORE PUSH1 0x20 ADD SWAP1 DUP2 MSTORE PUSH1 0x20 ADD PUSH0 KECCAK256 PUSH0 PUSH2 0x100 EXP DUP2 SLOAD DUP2 PUSH1 0xFF MUL NOT AND SWAP1 DUP4 ISZERO ISZERO MUL OR SWAP1 SSTORE POP PUSH32 0x67A17B8DB8FF8FA7CFF69C2328BF8A35F9BE2C88ABEEA30BE900FC28EECE28ED DUP3 DUP3 PUSH1 0x40 MLOAD PUSH2 0x7C7 SWAP3 SWAP2 SWAP1 PUSH2 0x104D JUMP JUMPDEST PUSH1 0x40 MLOAD DUP1 SWAP2 SUB SWAP1 LOG1 POP POP JUMP JUMPDEST PUSH0 PUSH0 SWAP1 SLOAD SWAP1 PUSH2 0x100 EXP SWAP1 DIV PUSH20 0xFFFFFFFFFFFFFFFFFFFFFFFFFFFFFFFFFFFFFFFF AND PUSH20 0xFFFFFFFFFFFFFFFFFFFFFFFFFFFFFFFFFFFFFFFF AND CALLER PUSH20 0xFFFFFFFFFFFFFFFFFFFFFFFFFFFFFFFFFFFFFFFF AND EQ PUSH2 0x82A JUMPI PUSH0 PUSH0 REVERT JUMPDEST DUP1 PUSH20 0xFFFFFFFFFFFFFFFFFFFFFFFFFFFFFFFFFFFFFFFF AND SELFDESTRUCT JUMPDEST PUSH1 0x1 PUSH1 0x20 MSTORE DUP1 PUSH0 MSTORE PUSH1 0x40 PUSH0 KECCAK256 PUSH0 SWAP2 POP SWAP1 POP SLOAD DUP2 JUMP JUMPDEST PUSH0 PUSH0 PUSH20 0xFFFFFFFFFFFFFFFFFFFFFFFFFFFFFFFFFFFFFFFF AND DUP4 PUSH20 0xFFFFFFFFFFFFFFFFFFFFFFFFFFFFFFFFFFFFFFFF AND SUB PUSH2 0x890 JUMPI PUSH0 PUSH0 REVERT JUMPDEST DUP2 PUSH1 0x1 PUSH0 DUP7 PUSH20 0xFFFFFFFFFFFFFFFFFFFFFFFFFFFFFFFFFFFFFFFF AND PUSH20 0xFFFFFFFFFFFFFFFFFFFFFFFFFFFFFFFFFFFFFFFF AND DUP2 MSTORE PUSH1 0x20 ADD SWAP1 DUP2 MSTORE PUSH1 0x20 ADD PUSH0 KECCAK256 SLOAD GT PUSH2 0x8D8 JUMPI PUSH0 PUSH0 REVERT JUMPDEST PUSH1 0x1 PUSH0 DUP5 PUSH20 0xFFFFFFFFFFFFFFFFFFFFFFFFFFFFFFFFFFFFFFFF AND PUSH20 0xFFFFFFFFFFFFFFFFFFFFFFFFFFFFFFFFFFFFFFFF AND DUP2 MSTORE PUSH1 0x20 ADD SWAP1 DUP2 MSTORE PUSH1 0x20 ADD PUSH0 KECCAK256 SLOAD DUP3 PUSH1 0x1 PUSH0 DUP7 PUSH20 0xFFFFFFFFFFFFFFFFFFFFFFFFFFFFFFFFFFFFFFFF AND PUSH20 0xFFFFFFFFFFFFFFFFFFFFFFFFFFFFFFFFFFFFFFFF AND DUP2 MSTORE PUSH1 0x20 ADD SWAP1 DUP2 MSTORE PUSH1 0x20 ADD PUSH0 KECCAK256 SLOAD PUSH2 0x95F SWAP2 SWAP1 PUSH2 0x101A JUMP JUMPDEST LT ISZERO PUSH2 0x969 JUMPI PUSH0 PUSH0 REVERT JUMPDEST PUSH1 0x2 PUSH0 DUP6 PUSH20 0xFFFFFFFFFFFFFFFFFFFFFFFFFFFFFFFFFFFFFFFF AND PUSH20 0xFFFFFFFFFFFFFFFFFFFFFFFFFFFFFFFFFFFFFFFF AND DUP2 MSTORE PUSH1 0x20 ADD SWAP1 DUP2 MSTORE PUSH1 0x20 ADD PUSH0 KECCAK256 PUSH0 CALLER PUSH20 0xFFFFFFFFFFFFFFFFFFFFFFFFFFFFFFFFFFFFFFFF AND PUSH20 0xFFFFFFFFFFFFFFFFFFFFFFFFFFFFFFFFFFFFFFFF AND DUP2 MSTORE PUSH1 0x20 ADD SWAP1 DUP2 MSTORE PUSH1 0x20 ADD PUSH0 KECCAK256 SLOAD DUP3 GT ISZERO PUSH2 0x9ED JUMPI PUSH0 PUSH0 REVERT JUMPDEST DUP2 PUSH1 0x1 PUSH0 DUP7 PUSH20 0xFFFFFFFFFFFFFFFFFFFFFFFFFFFFFFFFFFFFFFFF AND PUSH20 0xFFFFFFFFFFFFFFFFFFFFFFFFFFFFFFFFFFFFFFFF AND DUP2 MSTORE PUSH1 0x20 ADD SWAP1 DUP2 MSTORE PUSH1 0x20 ADD PUSH0 KECCAK256 PUSH0 DUP3 DUP3 SLOAD PUSH2 0xA39 SWAP2 SWAP1 PUSH2 0x1074 JUMP JUMPDEST SWAP3 POP POP DUP2 SWAP1 SSTORE POP DUP2 PUSH1 0x1 PUSH0 DUP6 PUSH20 0xFFFFFFFFFFFFFFFFFFFFFFFFFFFFFFFFFFFFFFFF AND PUSH20 0xFFFFFFFFFFFFFFFFFFFFFFFFFFFFFFFFFFFFFFFF AND DUP2 MSTORE PUSH1 0x20 ADD SWAP1 DUP2 MSTORE PUSH1 0x20 ADD PUSH0 KECCAK256 PUSH0 DUP3 DUP3 SLOAD PUSH2 0xA8C SWAP2 SWAP1 PUSH2 0x101A JUMP JUMPDEST SWAP3 POP POP DUP2 SWAP1 SSTORE POP DUP2 PUSH1 0x2 PUSH0 DUP7 PUSH20 0xFFFFFFFFFFFFFFFFFFFFFFFFFFFFFFFFFFFFFFFF AND PUSH20 0xFFFFFFFFFFFFFFFFFFFFFFFFFFFFFFFFFFFFFFFF AND DUP2 MSTORE PUSH1 0x20 ADD SWAP1 DUP2 MSTORE PUSH1 0x20 ADD PUSH0 KECCAK256 PUSH0 CALLER PUSH20 0xFFFFFFFFFFFFFFFFFFFFFFFFFFFFFFFFFFFFFFFF AND PUSH20 0xFFFFFFFFFFFFFFFFFFFFFFFFFFFFFFFFFFFFFFFF AND DUP2 MSTORE PUSH1 0x20 ADD SWAP1 DUP2 MSTORE PUSH1 0x20 ADD PUSH0 KECCAK256 PUSH0 DUP3 DUP3 SLOAD PUSH2 0xB1A SWAP2 SWAP1 PUSH2 0x1074 JUMP JUMPDEST SWAP3 POP POP DUP2 SWAP1 SSTORE POP DUP3 PUSH20 0xFFFFFFFFFFFFFFFFFFFFFFFFFFFFFFFFFFFFFFFF AND DUP5 PUSH20 0xFFFFFFFFFFFFFFFFFFFFFFFFFFFFFFFFFFFFFFFF AND PUSH32 0xDDF252AD1BE2C89B69C2B068FC378DAA952BA7F163C4A11628F55A4DF523B3EF DUP5 PUSH1 0x40 MLOAD PUSH2 0xB7E SWAP2 SWAP1 PUSH2 0xF6C JUMP JUMPDEST PUSH1 0x40 MLOAD DUP1 SWAP2 SUB SWAP1 LOG3 PUSH1 0x1 SWAP1 POP SWAP4 SWAP3 POP POP POP JUMP JUMPDEST DUP1 PUSH1 0x1 PUSH0 CALLER PUSH20 0xFFFFFFFFFFFFFFFFFFFFFFFFFFFFFFFFFFFFFFFF AND PUSH20 0xFFFFFFFFFFFFFFFFFFFFFFFFFFFFFFFFFFFFFFFF AND DUP2 MSTORE PUSH1 0x20 ADD SWAP1 DUP2 MSTORE PUSH1 0x20 ADD PUSH0 KECCAK256 SLOAD LT ISZERO PUSH2 0xBDA JUMPI PUSH0 PUSH0 REVERT JUMPDEST PUSH1 0x1 PUSH0 DUP4 PUSH20 0xFFFFFFFFFFFFFFFFFFFFFFFFFFFFFFFFFFFFFFFF AND PUSH20 0xFFFFFFFFFFFFFFFFFFFFFFFFFFFFFFFFFFFFFFFF AND DUP2 MSTORE PUSH1 0x20 ADD SWAP1 DUP2 MSTORE PUSH1 0x20 ADD PUSH0 KECCAK256 SLOAD DUP2 PUSH1 0x1 PUSH0 DUP6 PUSH20 0xFFFFFFFFFFFFFFFFFFFFFFFFFFFFFFFFFFFFFFFF AND PUSH20 0xFFFFFFFFFFFFFFFFFFFFFFFFFFFFFFFFFFFFFFFF AND DUP2 MSTORE PUSH1 0x20 ADD SWAP1 DUP2 MSTORE PUSH1 0x20 ADD PUSH0 KECCAK256 SLOAD PUSH2 0xC61 SWAP2 SWAP1 PUSH2 0x101A JUMP JUMPDEST LT ISZERO PUSH2 0xC6B JUMPI PUSH0 PUSH0 REVERT JUMPDEST DUP1 PUSH1 0x1 PUSH0 CALLER PUSH20 0xFFFFFFFFFFFFFFFFFFFFFFFFFFFFFFFFFFFFFFFF AND PUSH20 0xFFFFFFFFFFFFFFFFFFFFFFFFFFFFFFFFFFFFFFFF AND DUP2 MSTORE PUSH1 0x20 ADD SWAP1 DUP2 MSTORE PUSH1 0x20 ADD PUSH0 KECCAK256 PUSH0 DUP3 DUP3 SLOAD PUSH2 0xCB7 SWAP2 SWAP1 PUSH2 0x1074 JUMP JUMPDEST SWAP3 POP POP DUP2 SWAP1 SSTORE POP DUP1 PUSH1 0x1 PUSH0 DUP5 PUSH20 0xFFFFFFFFFFFFFFFFFFFFFFFFFFFFFFFFFFFFFFFF AND PUSH20 0xFFFFFFFFFFFFFFFFFFFFFFFFFFFFFFFFFFFFFFFF AND DUP2 MSTORE PUSH1 0x20 ADD SWAP1 DUP2 MSTORE PUSH1 0x20 ADD PUSH0 KECCAK256 PUSH0 DUP3 DUP3 SLOAD PUSH2 0xD0A SWAP2 SWAP1 PUSH2 0x101A JUMP JUMPDEST SWAP3 POP POP DUP2 SWAP1 SSTORE POP DUP2 PUSH20 0xFFFFFFFFFFFFFFFFFFFFFFFFFFFFFFFFFFFFFFFF AND CALLER PUSH20 0xFFFFFFFFFFFFFFFFFFFFFFFFFFFFFFFFFFFFFFFF AND PUSH32 0xDDF252AD1BE2C89B69C2B068FC378DAA952BA7F163C4A11628F55A4DF523B3EF DUP4 PUSH1 0x40 MLOAD PUSH2 0xD6E SWAP2 SWAP1 PUSH2 0xF6C JUMP JUMPDEST PUSH1 0x40 MLOAD DUP1 SWAP2 SUB SWAP1 LOG3 POP POP JUMP JUMPDEST PUSH0 PUSH0 REVERT JUMPDEST PUSH0 PUSH20 0xFFFFFFFFFFFFFFFFFFFFFFFFFFFFFFFFFFFFFFFF DUP3 AND SWAP1 POP SWAP2 SWAP1 POP JUMP JUMPDEST PUSH0 PUSH2 0xDA7 DUP3 PUSH2 0xD7E JUMP JUMPDEST SWAP1 POP SWAP2 SWAP1 POP JUMP JUMPDEST PUSH2 0xDB7 DUP2 PUSH2 0xD9D JUMP JUMPDEST DUP2 EQ PUSH2 0xDC1 JUMPI PUSH0 PUSH0 REVERT JUMPDEST POP JUMP JUMPDEST PUSH0 DUP2 CALLDATALOAD SWAP1 POP PUSH2 0xDD2 DUP2 PUSH2 0xDAE JUMP JUMPDEST SWAP3 SWAP2 POP POP JUMP JUMPDEST PUSH0 DUP2 SWAP1 POP SWAP2 SWAP1 POP JUMP JUMPDEST PUSH2 0xDEA DUP2 PUSH2 0xDD8 JUMP JUMPDEST DUP2 EQ PUSH2 0xDF4 JUMPI PUSH0 PUSH0 REVERT JUMPDEST POP JUMP JUMPDEST PUSH0 DUP2 CALLDATALOAD SWAP1 POP PUSH2 0xE05 DUP2 PUSH2 0xDE1 JUMP JUMPDEST SWAP3 SWAP2 POP POP JUMP JUMPDEST PUSH0 PUSH0 PUSH0 PUSH1 0x60 DUP5 DUP7 SUB SLT ISZERO PUSH2 0xE22 JUMPI PUSH2 0xE21 PUSH2 0xD7A JUMP JUMPDEST JUMPDEST PUSH0 PUSH2 0xE2F DUP7 DUP3 DUP8 ADD PUSH2 0xDC4 JUMP JUMPDEST SWAP4 POP POP PUSH1 0x20 PUSH2 0xE40 DUP7 DUP3 DUP8 ADD PUSH2 0xDC4 JUMP JUMPDEST SWAP3 POP POP PUSH1 0x40 PUSH2 0xE51 DUP7 DUP3 DUP8 ADD PUSH2 0xDF7 JUMP JUMPDEST SWAP2 POP POP SWAP3 POP SWAP3 POP SWAP3 JUMP JUMPDEST PUSH0 DUP2 ISZERO ISZERO SWAP1 POP SWAP2 SWAP1 POP JUMP JUMPDEST PUSH2 0xE6F DUP2 PUSH2 0xE5B JUMP JUMPDEST DUP3 MSTORE POP POP JUMP JUMPDEST PUSH0 PUSH1 0x20 DUP3 ADD SWAP1 POP PUSH2 0xE88 PUSH0 DUP4 ADD DUP5 PUSH2 0xE66 JUMP JUMPDEST SWAP3 SWAP2 POP POP JUMP JUMPDEST PUSH0 PUSH0 PUSH1 0x40 DUP4 DUP6 SUB SLT ISZERO PUSH2 0xEA4 JUMPI PUSH2 0xEA3 PUSH2 0xD7A JUMP JUMPDEST JUMPDEST PUSH0 PUSH2 0xEB1 DUP6 DUP3 DUP7 ADD PUSH2 0xDC4 JUMP JUMPDEST SWAP3 POP POP PUSH1 0x20 PUSH2 0xEC2 DUP6 DUP3 DUP7 ADD PUSH2 0xDF7 JUMP JUMPDEST SWAP2 POP POP SWAP3 POP SWAP3 SWAP1 POP JUMP JUMPDEST PUSH2 0xED5 DUP2 PUSH2 0xD9D JUMP JUMPDEST DUP3 MSTORE POP POP JUMP JUMPDEST PUSH0 PUSH1 0x20 DUP3 ADD SWAP1 POP PUSH2 0xEEE PUSH0 DUP4 ADD DUP5 PUSH2 0xECC JUMP JUMPDEST SWAP3 SWAP2 POP POP JUMP JUMPDEST PUSH0 PUSH1 0x20 DUP3 DUP5 SUB SLT ISZERO PUSH2 0xF09 JUMPI PUSH2 0xF08 PUSH2 0xD7A JUMP JUMPDEST JUMPDEST PUSH0 PUSH2 0xF16 DUP5 DUP3 DUP6 ADD PUSH2 0xDC4 JUMP JUMPDEST SWAP2 POP POP SWAP3 SWAP2 POP POP JUMP JUMPDEST PUSH0 PUSH0 PUSH1 0x40 DUP4 DUP6 SUB SLT ISZERO PUSH2 0xF35 JUMPI PUSH2 0xF34 PUSH2 0xD7A JUMP JUMPDEST JUMPDEST PUSH0 PUSH2 0xF42 DUP6 DUP3 DUP7 ADD PUSH2 0xDC4 JUMP JUMPDEST SWAP3 POP POP PUSH1 0x20 PUSH2 0xF53 DUP6 DUP3 DUP7 ADD PUSH2 0xDC4 JUMP JUMPDEST SWAP2 POP POP SWAP3 POP SWAP3 SWAP1 POP JUMP JUMPDEST PUSH2 0xF66 DUP2 PUSH2 0xDD8 JUMP JUMPDEST DUP3 MSTORE POP POP JUMP JUMPDEST PUSH0 PUSH1 0x20 DUP3 ADD SWAP1 POP PUSH2 0xF7F PUSH0 DUP4 ADD DUP5 PUSH2 0xF5D JUMP JUMPDEST SWAP3 SWAP2 POP POP JUMP JUMPDEST PUSH2 0xF8E DUP2 PUSH2 0xE5B JUMP JUMPDEST DUP2 EQ PUSH2 0xF98 JUMPI PUSH0 PUSH0 REVERT JUMPDEST POP JUMP JUMPDEST PUSH0 DUP2 CALLDATALOAD SWAP1 POP PUSH2 0xFA9 DUP2 PUSH2 0xF85 JUMP JUMPDEST SWAP3 SWAP2 POP POP JUMP JUMPDEST PUSH0 PUSH0 PUSH1 0x40 DUP4 DUP6 SUB SLT ISZERO PUSH2 0xFC5 JUMPI PUSH2 0xFC4 PUSH2 0xD7A JUMP JUMPDEST JUMPDEST PUSH0 PUSH2 0xFD2 DUP6 DUP3 DUP7 ADD PUSH2 0xDC4 JUMP JUMPDEST SWAP3 POP POP PUSH1 0x20 PUSH2 0xFE3 DUP6 DUP3 DUP7 ADD PUSH2 0xF9B JUMP JUMPDEST SWAP2 POP POP SWAP3 POP SWAP3 SWAP1 POP JUMP JUMPDEST PUSH32 0x4E487B7100000000000000000000000000000000000000000000000000000000 PUSH0 MSTORE PUSH1 0x11 PUSH1 0x4 MSTORE PUSH1 0x24 PUSH0 REVERT JUMPDEST PUSH0 PUSH2 0x1024 DUP3 PUSH2 0xDD8 JUMP JUMPDEST SWAP2 POP PUSH2 0x102F DUP4 PUSH2 0xDD8 JUMP JUMPDEST SWAP3 POP DUP3 DUP3 ADD SWAP1 POP DUP1 DUP3 GT ISZERO PUSH2 0x1047 JUMPI PUSH2 0x1046 PUSH2 0xFED JUMP JUMPDEST JUMPDEST SWAP3 SWAP2 POP POP JUMP JUMPDEST PUSH0 PUSH1 0x40 DUP3 ADD SWAP1 POP PUSH2 0x1060 PUSH0 DUP4 ADD DUP6 PUSH2 0xECC JUMP JUMPDEST PUSH2 0x106D PUSH1 0x20 DUP4 ADD DUP5 PUSH2 0xE66 JUMP JUMPDEST SWAP4 SWAP3 POP POP POP JUMP JUMPDEST PUSH0 PUSH2 0x107E DUP3 PUSH2 0xDD8 JUMP JUMPDEST SWAP2 POP PUSH2 0x1089 DUP4 PUSH2 0xDD8 JUMP JUMPDEST SWAP3 POP DUP3 DUP3 SUB SWAP1 POP DUP2 DUP2 GT ISZERO PUSH2 0x10A1 JUMPI PUSH2 0x10A0 PUSH2 0xFED JUMP JUMPDEST JUMPDEST SWAP3 SWAP2 POP POP JUMP INVALID LOG2 PUSH5 0x6970667358 0x22 SLT KECCAK256 0xDB PUSH10 0x37EBDDAD33C3C89B632A 0xB7 PUSH5 0x4A5C94D44B EXTSTATICCALL 0x4B CREATE2 0xED SGT LOG2 PUSH24 0xEAB52868291564736F6C634300081E003360806040523480 ISZERO PUSH1 0xE JUMPI PUSH0 PUSH0 REVERT JUMPDEST POP PUSH1 0x40 MLOAD PUSH2 0x260 CODESIZE SUB DUP1 PUSH2 0x260 DUP4 CODECOPY DUP2 DUP2 ADD PUSH1 0x40 MSTORE DUP2 ADD SWAP1 PUSH1 0x2E SWAP2 SWAP1 PUSH1 0x75 JUMP JUMPDEST PUSH0 DUP2 GT PUSH1 0x38 JUMPI PUSH0 PUSH0 REVERT JUMPDEST DUP1 PUSH0 DUP2 SWAP1 SSTORE POP POP PUSH1 0x9B JUMP JUMPDEST PUSH0 PUSH0 REVERT JUMPDEST PUSH0 DUP2 SWAP1 POP SWAP2 SWAP1 POP JUMP JUMPDEST PUSH1 0x57 DUP2 PUSH1 0x47 JUMP JUMPDEST DUP2 EQ PUSH1 0x60 JUMPI PUSH0 PUSH0 REVERT JUMPDEST POP JUMP JUMPDEST PUSH0 DUP2 MLOAD SWAP1 POP PUSH1 0x6F DUP2 PUSH1 0x50 JUMP JUMPDEST SWAP3 SWAP2 POP POP JUMP JUMPDEST PUSH0 PUSH1 0x20 DUP3 DUP5 SUB SLT ISZERO PUSH1 0x87 JUMPI PUSH1 0x86 PUSH1 0x43 JUMP JUMPDEST JUMPDEST PUSH0 PUSH1 0x92 DUP5 DUP3 DUP6 ADD PUSH1 0x63 JUMP JUMPDEST SWAP2 POP POP SWAP3 SWAP2 POP POP JUMP JUMPDEST PUSH2 0x1B8 DUP1 PUSH2 0xA8 PUSH0 CODECOPY PUSH0 RETURN INVALID PUSH1 0x80 PUSH1 0x40 MSTORE CALLVALUE DUP1 ISZERO PUSH2 0xF JUMPI PUSH0 PUSH0 REVERT JUMPDEST POP PUSH1 0x4 CALLDATASIZE LT PUSH2 0x29 JUMPI PUSH0 CALLDATALOAD PUSH1 0xE0 SHR DUP1 PUSH4 0x6B9C583 EQ PUSH2 0x2D JUMPI JUMPDEST PUSH0 PUSH0 REVERT JUMPDEST PUSH2 0x47 PUSH1 0x4 DUP1 CALLDATASIZE SUB DUP2 ADD SWAP1 PUSH2 0x42 SWAP2 SWAP1 PUSH2 0xB1 JUMP JUMPDEST PUSH2 0x5D JUMP JUMPDEST PUSH1 0x40 MLOAD PUSH2 0x54 SWAP2 SWAP1 PUSH2 0x109 JUMP JUMPDEST PUSH1 0x40 MLOAD DUP1 SWAP2 SUB SWAP1 RETURN JUMPDEST PUSH0 PUSH0 PUSH0 SLOAD DUP5 DUP5 PUSH2 0x6D SWAP2 SWAP1 PUSH2 0x14F JUMP JUMPDEST LT SWAP1 POP DUP1 SWAP2 POP POP SWAP3 SWAP2 POP POP JUMP JUMPDEST PUSH0 PUSH0 REVERT JUMPDEST PUSH0 DUP2 SWAP1 POP SWAP2 SWAP1 POP JUMP JUMPDEST PUSH2 0x90 DUP2 PUSH2 0x7E JUMP JUMPDEST DUP2 EQ PUSH2 0x9A JUMPI PUSH0 PUSH0 REVERT JUMPDEST POP JUMP JUMPDEST PUSH0 DUP2 CALLDATALOAD SWAP1 POP PUSH2 0xAB DUP2 PUSH2 0x87 JUMP JUMPDEST SWAP3 SWAP2 POP POP JUMP JUMPDEST PUSH0 PUSH0 PUSH1 0x40 DUP4 DUP6 SUB SLT ISZERO PUSH2 0xC7 JUMPI PUSH2 0xC6 PUSH2 0x7A JUMP JUMPDEST JUMPDEST PUSH0 PUSH2 0xD4 DUP6 DUP3 DUP7 ADD PUSH2 0x9D JUMP JUMPDEST SWAP3 POP POP PUSH1 0x20 PUSH2 0xE5 DUP6 DUP3 DUP7 ADD PUSH2 0x9D JUMP JUMPDEST SWAP2 POP POP SWAP3 POP SWAP3 SWAP1 POP JUMP JUMPDEST PUSH0 DUP2 ISZERO ISZERO SWAP1 POP SWAP2 SWAP1 POP JUMP JUMPDEST PUSH2 0x103 DUP2 PUSH2 0xEF JUMP JUMPDEST DUP3 MSTORE POP POP JUMP JUMPDEST PUSH0 PUSH1 0x20 DUP3 ADD SWAP1 POP PUSH2 0x11C PUSH0 DUP4 ADD DUP5 PUSH2 0xFA JUMP JUMPDEST SWAP3 SWAP2 POP POP JUMP JUMPDEST PUSH32 0x4E487B7100000000000000000000000000000000000000000000000000000000 PUSH0 MSTORE PUSH1 0x11 PUSH1 0x4 MSTORE PUSH1 0x24 PUSH0 REVERT JUMPDEST PUSH0 PUSH2 0x159 DUP3 PUSH2 0x7E JUMP JUMPDEST SWAP2 POP PUSH2 0x164 DUP4 PUSH2 0x7E JUMP JUMPDEST SWAP3 POP DUP3 DUP3 ADD SWAP1 POP DUP1 DUP3 GT ISZERO PUSH2 0x17C JUMPI PUSH2 0x17B PUSH2 0x122 JUMP JUMPDEST JUMPDEST SWAP3 SWAP2 POP POP JUMP INVALID LOG2 PUSH5 0x6970667358 0x22 SLT KECCAK256 MUL CALLDATASIZE 0xAF LOG4 0xDF EQ 0x27 0x4C 0xDC 0xAE DUP4 0xBB LOG2 0xD3 PUSH5 0xA3FC83B2C2 0xDF DUP5 DATALOADN 0x11CD 0x2F 0xDD COINBASE 0xCE SMOD AND 0x23 PUSH5 0x736F6C6343 STOP ADDMOD 0x1E STOP CALLER "
		},
		"gasEstimates": {
			"creation": {
				"codeDepositCost": "708400",
				"executionCost": "infinite",
				"totalCost": "infinite"
			},
			"external": {
				"crowdsaleToken()": "infinite",
				"destroyAndSend(address)": "30303",
				"endTime()": "2471",
				"finalize()": "infinite",
				"inventmentAmountOf(address)": "2868",
				"invest()": "infinite",
				"investmentReceived()": "2449",
				"investmentRefunded()": "2493",
				"isFinalized()": "2489",
				"isRefundingAllowed()": "2606",
				"owner()": "2552",
				"pause()": "28943",
				"paused()": "2583",
				"refund()": "infinite",
				"startTime()": "2514",
				"unpause()": "28918",
				"weiInvestmentObjective()": "2492",
				"weiTokenPrice()": "2469"
			},
			"internal": {
				"createFundingLimitStrategy()": "infinite"
			}
		},
		"methodIdentifiers": {
			"crowdsaleToken()": "fa65dfac",
			"destroyAndSend(address)": "f5074f41",
			"endTime()": "3197cbb6",
			"finalize()": "4bb278f3",
			"inventmentAmountOf(address)": "eff1a844",
			"invest()": "e8b5e51f",
			"investmentReceived()": "1c0a5c10",
			"investmentRefunded()": "38ef9380",
			"isFinalized()": "8d4e4083",
			"isRefundingAllowed()": "cb6f16d4",
			"owner()": "8da5cb5b",
			"pause()": "8456cb59",
			"paused()": "5c975abb",
			"refund()": "590e1ae3",
			"startTime()": "78e97925",
			"unpause()": "3f4ba83a",
			"weiInvestmentObjective()": "bab34f43",
			"weiTokenPrice()": "ee56cf41"
		}
	},
	"abi": [
		{
			"inputs": [
				{
					"internalType": "uint256",
					"name": "_startTime",
					"type": "uint256"
				},
				{
					"internalType": "uint256",
					"name": "_endTime",
					"type": "uint256"
				},
				{
					"internalType": "uint256",
					"name": "_weiTokenPrice",
					"type": "uint256"
				},
				{
					"internalType": "uint256",
					"name": "_etherInvestmentObjective",
					"type": "uint256"
				}
			],
			"stateMutability": "payable",
			"type": "constructor"
		},
		{
			"anonymous": false,
			"inputs": [
				{
					"indexed": true,
					"internalType": "address",
					"name": "investor",
					"type": "address"
				},
				{
					"indexed": false,
					"internalType": "uint256",
					"name": "value",
					"type": "uint256"
				}
			],
			"name": "LogInvestment",
			"type": "event"
		},
		{
			"anonymous": false,
			"inputs": [
				{
					"indexed": true,
					"internalType": "address",
					"name": "investor",
					"type": "address"
				},
				{
					"indexed": false,
					"internalType": "uint256",
					"name": "numTokens",
					"type": "uint256"
				}
			],
			"name": "LogTokenAssignment",
			"type": "event"
		},
		{
			"anonymous": false,
			"inputs": [
				{
					"indexed": false,
					"internalType": "address",
					"name": "investor",
					"type": "address"
				},
				{
					"indexed": false,
					"internalType": "uint256",
					"name": "value",
					"type": "uint256"
				}
			],
			"name": "Refund",
			"type": "event"
		},
		{
			"inputs": [],
			"name": "crowdsaleToken",
			"outputs": [
				{
					"internalType": "contract ReleasableSimpleCoin",
					"name": "",
					"type": "address"
				}
			],
			"stateMutability": "view",
			"type": "function"
		},
		{
			"inputs": [
				{
					"internalType": "address",
					"name": "_recipient",
					"type": "address"
				}
			],
			"name": "destroyAndSend",
			"outputs": [],
			"stateMutability": "nonpayable",
			"type": "function"
		},
		{
			"inputs": [],
			"name": "endTime",
			"outputs": [
				{
					"internalType": "uint256",
					"name": "",
					"type": "uint256"
				}
			],
			"stateMutability": "view",
			"type": "function"
		},
		{
			"inputs": [],
			"name": "finalize",
			"outputs": [],
			"stateMutability": "nonpayable",
			"type": "function"
		},
		{
			"inputs": [
				{
					"internalType": "address",
					"name": "",
					"type": "address"
				}
			],
			"name": "inventmentAmountOf",
			"outputs": [
				{
					"internalType": "uint256",
					"name": "",
					"type": "uint256"
				}
			],
			"stateMutability": "view",
			"type": "function"
		},
		{
			"inputs": [],
			"name": "invest",
			"outputs": [],
			"stateMutability": "payable",
			"type": "function"
		},
		{
			"inputs": [],
			"name": "investmentReceived",
			"outputs": [
				{
					"internalType": "uint256",
					"name": "",
					"type": "uint256"
				}
			],
			"stateMutability": "view",
			"type": "function"
		},
		{
			"inputs": [],
			"name": "investmentRefunded",
			"outputs": [
				{
					"internalType": "uint256",
					"name": "",
					"type": "uint256"
				}
			],
			"stateMutability": "view",
			"type": "function"
		},
		{
			"inputs": [],
			"name": "isFinalized",
			"outputs": [
				{
					"internalType": "bool",
					"name": "",
					"type": "bool"
				}
			],
			"stateMutability": "view",
			"type": "function"
		},
		{
			"inputs": [],
			"name": "isRefundingAllowed",
			"outputs": [
				{
					"internalType": "bool",
					"name": "",
					"type": "bool"
				}
			],
			"stateMutability": "view",
			"type": "function"
		},
		{
			"inputs": [],
			"name": "owner",
			"outputs": [
				{
					"internalType": "address",
					"name": "",
					"type": "address"
				}
			],
			"stateMutability": "view",
			"type": "function"
		},
		{
			"inputs": [],
			"name": "pause",
			"outputs": [],
			"stateMutability": "nonpayable",
			"type": "function"
		},
		{
			"inputs": [],
			"name": "paused",
			"outputs": [
				{
					"internalType": "bool",
					"name": "",
					"type": "bool"
				}
			],
			"stateMutability": "view",
			"type": "function"
		},
		{
			"inputs": [],
			"name": "refund",
			"outputs": [],
			"stateMutability": "nonpayable",
			"type": "function"
		},
		{
			"inputs": [],
			"name": "startTime",
			"outputs": [
				{
					"internalType": "uint256",
					"name": "",
					"type": "uint256"
				}
			],
			"stateMutability": "view",
			"type": "function"
		},
		{
			"inputs": [],
			"name": "unpause",
			"outputs": [],
			"stateMutability": "nonpayable",
			"type": "function"
		},
		{
			"inputs": [],
			"name": "weiInvestmentObjective",
			"outputs": [
				{
					"internalType": "uint256",
					"name": "",
					"type": "uint256"
				}
			],
			"stateMutability": "view",
			"type": "function"
		},
		{
			"inputs": [],
			"name": "weiTokenPrice",
			"outputs": [
				{
					"internalType": "uint256",
					"name": "",
					"type": "uint256"
				}
			],
			"stateMutability": "view",
			"type": "function"
		}
	]
}