{
	"data": {
		"bytecode": {
			"linkReferences": {},
			"object": "60806040526040516122673803806122678339818101604052810190610025919061032f565b8282600183335f5f6101000a81548173ffffffffffffffffffffffffffffffffffffffff021916908373ffffffffffffffffffffffffffffffffffffffff16021790555042841015610075575f5ffd5b83831015610081575f5ffd5b5f820361008c575f5ffd5b5f8103610097575f5ffd5b836001819055508260028190555081600381905550670de0b6b3a7640000816100c091906103ac565b6004819055505f6040516100d3906102eb565b6100dd919061042f565b604051809103905ff0801580156100f6573d5f5f3e3d5ffd5b50600860026101000a81548173ffffffffffffffffffffffffffffffffffffffff021916908373ffffffffffffffffffffffffffffffffffffffff1602179055505f60085f6101000a81548160ff0219169083151502179055505f600860016101000a81548160ff021916908315150217905550335f5f6101000a81548173ffffffffffffffffffffffffffffffffffffffff021916908373ffffffffffffffffffffffffffffffffffffffff1602179055505050505060405180604001604052806729a2241af62c0000815260200166071afd498d000081525060095f5f81526020019081526020015f205f820151815f0155602082015181600101559050506040518060400160405280674563918244f400008152602001660aa87bee53800081525060095f600181526020019081526020015f205f820151815f0155602082015181600101559050506040518060400160405280678ac7230489e800008152602001660e35fa931a000081525060095f600281526020019081526020015f205f820151815f01556020820151816001015590505060405180604001604052806b033b2e3c9fd0803ce800000081526020016611c37937e0800081525060095f600381526020019081526020015f205f820151815f0155602082015181600101559050505f600a81905550505050610448565b6111d38061109483390190565b5f5ffd5b5f819050919050565b61030e816102fc565b8114610318575f5ffd5b50565b5f8151905061032981610305565b92915050565b5f5f5f60608486031215610346576103456102f8565b5b5f6103538682870161031b565b93505060206103648682870161031b565b92505060406103758682870161031b565b9150509250925092565b7f4e487b71000000000000000000000000000000000000000000000000000000005f52601160045260245ffd5b5f6103b6826102fc565b91506103c1836102fc565b92508282026103cf816102fc565b915082820484148315176103e6576103e561037f565b5b5092915050565b5f819050919050565b5f819050919050565b5f61041961041461040f846103ed565b6103f6565b6102fc565b9050919050565b610429816103ff565b82525050565b5f6020820190506104425f830184610420565b92915050565b610c3f806104555f395ff3fe6080604052600436106100f2575f3560e01c8063bab34f4311610089578063e8b5e51f11610058578063e8b5e51f146102d9578063ee56cf41146102e3578063eff1a8441461030d578063fa65dfac14610349576100f2565b8063bab34f431461021e578063cb6f16d414610248578063da406ff614610272578063e404d2d41461029c576100f2565b8063590e1ae3116100c5578063590e1ae31461018a57806378e97925146101a05780638d4e4083146101ca5780638da5cb5b146101f4576100f2565b80631c0a5c10146100f65780633197cbb61461012057806338ef93801461014a5780634bb278f314610174575b5f5ffd5b348015610101575f5ffd5b5061010a610373565b60405161011791906108f1565b60405180910390f35b34801561012b575f5ffd5b50610134610379565b60405161014191906108f1565b60405180910390f35b348015610155575f5ffd5b5061015e61037f565b60405161016b91906108f1565b60405180910390f35b34801561017f575f5ffd5b50610188610385565b005b348015610195575f5ffd5b5061019e6104cd565b005b3480156101ab575f5ffd5b506101b4610608565b6040516101c191906108f1565b60405180910390f35b3480156101d5575f5ffd5b506101de61060e565b6040516101eb9190610924565b60405180910390f35b3480156101ff575f5ffd5b50610208610620565b604051610215919061097c565b60405180910390f35b348015610229575f5ffd5b50610232610644565b60405161023f91906108f1565b60405180910390f35b348015610253575f5ffd5b5061025c61064a565b6040516102699190610924565b60405180910390f35b34801561027d575f5ffd5b5061028661065d565b60405161029391906108f1565b60405180910390f35b3480156102a7575f5ffd5b506102c260048036038101906102bd91906109c3565b610663565b6040516102d09291906109ee565b60405180910390f35b6102e1610683565b005b3480156102ee575f5ffd5b506102f7610763565b60405161030491906108f1565b60405180910390f35b348015610318575f5ffd5b50610333600480360381019061032e9190610a3f565b610769565b60405161034091906108f1565b60405180910390f35b348015610354575f5ffd5b5061035d61077e565b60405161036a9190610ac5565b60405180910390f35b60065481565b60025481565b60075481565b5f5f9054906101000a900473ffffffffffffffffffffffffffffffffffffffff1673ffffffffffffffffffffffffffffffffffffffff163373ffffffffffffffffffffffffffffffffffffffff16146103dc575f5ffd5b60085f9054906101000a900460ff16156103f4575f5ffd5b5f600190505f6004546006541015905081156104c957801561049257600860029054906101000a900473ffffffffffffffffffffffffffffffffffffffff1673ffffffffffffffffffffffffffffffffffffffff166386d1a69f6040518163ffffffff1660e01b81526004015f604051808303815f87803b158015610477575f5ffd5b505af1158015610489573d5f5f3e3d5ffd5b505050506104ae565b6001600860016101000a81548160ff0219169083151502179055505b600160085f6101000a81548160ff0219169083151502179055505b5050565b600860019054906101000a900460ff166104e5575f5ffd5b5f3390505f60055f8373ffffffffffffffffffffffffffffffffffffffff1673ffffffffffffffffffffffffffffffffffffffff1681526020019081526020015f205490505f8103610535575f5ffd5b5f60055f8473ffffffffffffffffffffffffffffffffffffffff1673ffffffffffffffffffffffffffffffffffffffff1681526020019081526020015f20819055508060075f8282546105889190610b0b565b925050819055507fbb28353e4598c3b9199101a66e0989549b659a59a54d2c27fbb183f1932c8e6d33826040516105c0929190610b3e565b60405180910390a18173ffffffffffffffffffffffffffffffffffffffff166108fc8290811502906040515f60405180830381858888f19350505050610604575f5ffd5b5050565b60015481565b60085f9054906101000a900460ff1681565b5f5f9054906101000a900473ffffffffffffffffffffffffffffffffffffffff1681565b60045481565b600860019054906101000a900460ff1681565b600a5481565b6009602052805f5260405f205f91509050805f0154908060010154905082565b61068c346107a4565b610694575f5ffd5b5f3390505f3490508060055f8473ffffffffffffffffffffffffffffffffffffffff1673ffffffffffffffffffffffffffffffffffffffff1681526020019081526020015f205f8282546106e89190610b0b565b925050819055508060065f8282546107009190610b0b565b9250508190555061071182826107c4565b8173ffffffffffffffffffffffffffffffffffffffff167fc74590e3281392e897f5c0f45530951cfe0db0e86c76d65af861e80b925871a48260405161075791906108f1565b60405180910390a25050565b60035481565b6005602052805f5260405f205f915090505481565b600860029054906101000a900473ffffffffffffffffffffffffffffffffffffffff1681565b5f5f5f83141590505f600190508180156107bb5750805b92505050919050565b5f6107ce8261085f565b9050600860029054906101000a900473ffffffffffffffffffffffffffffffffffffffff1673ffffffffffffffffffffffffffffffffffffffff166340c10f1984836040518363ffffffff1660e01b815260040161082d929190610b3e565b5f604051808303815f87803b158015610844575f5ffd5b505af1158015610856573d5f5f3e3d5ffd5b50505050505050565b5f61086861087d565b600354826108769190610b92565b9050919050565b5f600a5490505b60065460095f8381526020019081526020015f205f015410156108b257806108ab90610bc2565b9050610884565b80600a8190555060095f600a5481526020019081526020015f206001015460038190555050565b5f819050919050565b6108eb816108d9565b82525050565b5f6020820190506109045f8301846108e2565b92915050565b5f8115159050919050565b61091e8161090a565b82525050565b5f6020820190506109375f830184610915565b92915050565b5f73ffffffffffffffffffffffffffffffffffffffff82169050919050565b5f6109668261093d565b9050919050565b6109768161095c565b82525050565b5f60208201905061098f5f83018461096d565b92915050565b5f5ffd5b6109a2816108d9565b81146109ac575f5ffd5b50565b5f813590506109bd81610999565b92915050565b5f602082840312156109d8576109d7610995565b5b5f6109e5848285016109af565b91505092915050565b5f604082019050610a015f8301856108e2565b610a0e60208301846108e2565b9392505050565b610a1e8161095c565b8114610a28575f5ffd5b50565b5f81359050610a3981610a15565b92915050565b5f60208284031215610a5457610a53610995565b5b5f610a6184828501610a2b565b91505092915050565b5f819050919050565b5f610a8d610a88610a838461093d565b610a6a565b61093d565b9050919050565b5f610a9e82610a73565b9050919050565b5f610aaf82610a94565b9050919050565b610abf81610aa5565b82525050565b5f602082019050610ad85f830184610ab6565b92915050565b7f4e487b71000000000000000000000000000000000000000000000000000000005f52601160045260245ffd5b5f610b15826108d9565b9150610b20836108d9565b9250828201905080821115610b3857610b37610ade565b5b92915050565b5f604082019050610b515f83018561096d565b610b5e60208301846108e2565b9392505050565b7f4e487b71000000000000000000000000000000000000000000000000000000005f52601260045260245ffd5b5f610b9c826108d9565b9150610ba7836108d9565b925082610bb757610bb6610b65565b5b828204905092915050565b5f610bcc826108d9565b91507fffffffffffffffffffffffffffffffffffffffffffffffffffffffffffffffff8203610bfe57610bfd610ade565b5b60018201905091905056fea26469706673582212201158de919fca02e3705d56d8d5e51a3a24f7adc8d2c12a47e5ee4cc6ce5dfcc364736f6c634300081e003360806040525f60045f6101000a81548160ff021916908315150217905550348015610028575f5ffd5b506040516111d33803806111d3833981810160405281019061004a919061026a565b80335f5f6101000a81548173ffffffffffffffffffffffffffffffffffffffff021916908373ffffffffffffffffffffffffffffffffffffffff160217905550335f5f6101000a81548173ffffffffffffffffffffffffffffffffffffffff021916908373ffffffffffffffffffffffffffffffffffffffff1602179055506100f95f5f9054906101000a900473ffffffffffffffffffffffffffffffffffffffff168261010060201b60201c565b505061031d565b5f5f9054906101000a900473ffffffffffffffffffffffffffffffffffffffff1673ffffffffffffffffffffffffffffffffffffffff163373ffffffffffffffffffffffffffffffffffffffff1614610157575f5ffd5b8060015f8473ffffffffffffffffffffffffffffffffffffffff1673ffffffffffffffffffffffffffffffffffffffff1681526020019081526020015f205f8282546101a391906102c2565b925050819055508173ffffffffffffffffffffffffffffffffffffffff165f5f9054906101000a900473ffffffffffffffffffffffffffffffffffffffff1673ffffffffffffffffffffffffffffffffffffffff167fddf252ad1be2c89b69c2b068fc378daa952ba7f163c4a11628f55a4df523b3ef836040516102279190610304565b60405180910390a35050565b5f5ffd5b5f819050919050565b61024981610237565b8114610253575f5ffd5b50565b5f8151905061026481610240565b92915050565b5f6020828403121561027f5761027e610233565b5b5f61028c84828501610256565b91505092915050565b7f4e487b71000000000000000000000000000000000000000000000000000000005f52601160045260245ffd5b5f6102cc82610237565b91506102d783610237565b92508282019050808211156102ef576102ee610295565b5b92915050565b6102fe81610237565b82525050565b5f6020820190506103175f8301846102f5565b92915050565b610ea98061032a5f395ff3fe608060405234801561000f575f5ffd5b50600436106100a7575f3560e01c8063a9059cbb1161006f578063a9059cbb1461013d578063b414d4b614610159578063c1dbd9b214610189578063dd62ed3e146101b9578063e724529c146101e9578063fabde80c14610205576100a7565b806323b872dd146100ab57806340c10f19146100db57806386d1a69f146100f75780638da5cb5b14610101578063961325211461011f575b5f5ffd5b6100c560048036038101906100c09190610bd7565b610235565b6040516100d29190610c41565b60405180910390f35b6100f560048036038101906100f09190610c5a565b610261565b005b6100ff610394565b005b610109610407565b6040516101169190610ca7565b60405180910390f35b61012761042b565b6040516101349190610c41565b60405180910390f35b61015760048036038101906101529190610c5a565b61043d565b005b610173600480360381019061016e9190610cc0565b610462565b6040516101809190610c41565b60405180910390f35b6101a3600480360381019061019e9190610c5a565b61047f565b6040516101b09190610c41565b60405180910390f35b6101d360048036038101906101ce9190610ceb565b610507565b6040516101e09190610d38565b60405180910390f35b61020360048036038101906101fe9190610d7b565b610527565b005b61021f600480360381019061021a9190610cc0565b61060f565b60405161022c9190610d38565b60405180910390f35b5f60045f9054906101000a900460ff1661024d575f5ffd5b610258848484610624565b90509392505050565b5f5f9054906101000a900473ffffffffffffffffffffffffffffffffffffffff1673ffffffffffffffffffffffffffffffffffffffff163373ffffffffffffffffffffffffffffffffffffffff16146102b8575f5ffd5b8060015f8473ffffffffffffffffffffffffffffffffffffffff1673ffffffffffffffffffffffffffffffffffffffff1681526020019081526020015f205f8282546103049190610de6565b925050819055508173ffffffffffffffffffffffffffffffffffffffff165f5f9054906101000a900473ffffffffffffffffffffffffffffffffffffffff1673ffffffffffffffffffffffffffffffffffffffff167fddf252ad1be2c89b69c2b068fc378daa952ba7f163c4a11628f55a4df523b3ef836040516103889190610d38565b60405180910390a35050565b5f5f9054906101000a900473ffffffffffffffffffffffffffffffffffffffff1673ffffffffffffffffffffffffffffffffffffffff163373ffffffffffffffffffffffffffffffffffffffff16146103eb575f5ffd5b600160045f6101000a81548160ff021916908315150217905550565b5f5f9054906101000a900473ffffffffffffffffffffffffffffffffffffffff1681565b60045f9054906101000a900460ff1681565b60045f9054906101000a900460ff16610454575f5ffd5b61045e828261095d565b5050565b6003602052805f5260405f205f915054906101000a900460ff1681565b5f8160025f3373ffffffffffffffffffffffffffffffffffffffff1673ffffffffffffffffffffffffffffffffffffffff1681526020019081526020015f205f8573ffffffffffffffffffffffffffffffffffffffff1673ffffffffffffffffffffffffffffffffffffffff1681526020019081526020015f20819055506001905092915050565b6002602052815f5260405f20602052805f5260405f205f91509150505481565b5f5f9054906101000a900473ffffffffffffffffffffffffffffffffffffffff1673ffffffffffffffffffffffffffffffffffffffff163373ffffffffffffffffffffffffffffffffffffffff161461057e575f5ffd5b8060035f8473ffffffffffffffffffffffffffffffffffffffff1673ffffffffffffffffffffffffffffffffffffffff1681526020019081526020015f205f6101000a81548160ff0219169083151502179055507f67a17b8db8ff8fa7cff69c2328bf8a35f9be2c88abeea30be900fc28eece28ed8282604051610603929190610e19565b60405180910390a15050565b6001602052805f5260405f205f915090505481565b5f5f73ffffffffffffffffffffffffffffffffffffffff168373ffffffffffffffffffffffffffffffffffffffff160361065c575f5ffd5b8160015f8673ffffffffffffffffffffffffffffffffffffffff1673ffffffffffffffffffffffffffffffffffffffff1681526020019081526020015f2054116106a4575f5ffd5b60015f8473ffffffffffffffffffffffffffffffffffffffff1673ffffffffffffffffffffffffffffffffffffffff1681526020019081526020015f20548260015f8673ffffffffffffffffffffffffffffffffffffffff1673ffffffffffffffffffffffffffffffffffffffff1681526020019081526020015f205461072b9190610de6565b1015610735575f5ffd5b60025f8573ffffffffffffffffffffffffffffffffffffffff1673ffffffffffffffffffffffffffffffffffffffff1681526020019081526020015f205f3373ffffffffffffffffffffffffffffffffffffffff1673ffffffffffffffffffffffffffffffffffffffff1681526020019081526020015f20548211156107b9575f5ffd5b8160015f8673ffffffffffffffffffffffffffffffffffffffff1673ffffffffffffffffffffffffffffffffffffffff1681526020019081526020015f205f8282546108059190610e40565b925050819055508160015f8573ffffffffffffffffffffffffffffffffffffffff1673ffffffffffffffffffffffffffffffffffffffff1681526020019081526020015f205f8282546108589190610de6565b925050819055508160025f8673ffffffffffffffffffffffffffffffffffffffff1673ffffffffffffffffffffffffffffffffffffffff1681526020019081526020015f205f3373ffffffffffffffffffffffffffffffffffffffff1673ffffffffffffffffffffffffffffffffffffffff1681526020019081526020015f205f8282546108e69190610e40565b925050819055508273ffffffffffffffffffffffffffffffffffffffff168473ffffffffffffffffffffffffffffffffffffffff167fddf252ad1be2c89b69c2b068fc378daa952ba7f163c4a11628f55a4df523b3ef8460405161094a9190610d38565b60405180910390a3600190509392505050565b8060015f3373ffffffffffffffffffffffffffffffffffffffff1673ffffffffffffffffffffffffffffffffffffffff1681526020019081526020015f205410156109a6575f5ffd5b60015f8373ffffffffffffffffffffffffffffffffffffffff1673ffffffffffffffffffffffffffffffffffffffff1681526020019081526020015f20548160015f8573ffffffffffffffffffffffffffffffffffffffff1673ffffffffffffffffffffffffffffffffffffffff1681526020019081526020015f2054610a2d9190610de6565b1015610a37575f5ffd5b8060015f3373ffffffffffffffffffffffffffffffffffffffff1673ffffffffffffffffffffffffffffffffffffffff1681526020019081526020015f205f828254610a839190610e40565b925050819055508060015f8473ffffffffffffffffffffffffffffffffffffffff1673ffffffffffffffffffffffffffffffffffffffff1681526020019081526020015f205f828254610ad69190610de6565b925050819055508173ffffffffffffffffffffffffffffffffffffffff163373ffffffffffffffffffffffffffffffffffffffff167fddf252ad1be2c89b69c2b068fc378daa952ba7f163c4a11628f55a4df523b3ef83604051610b3a9190610d38565b60405180910390a35050565b5f5ffd5b5f73ffffffffffffffffffffffffffffffffffffffff82169050919050565b5f610b7382610b4a565b9050919050565b610b8381610b69565b8114610b8d575f5ffd5b50565b5f81359050610b9e81610b7a565b92915050565b5f819050919050565b610bb681610ba4565b8114610bc0575f5ffd5b50565b5f81359050610bd181610bad565b92915050565b5f5f5f60608486031215610bee57610bed610b46565b5b5f610bfb86828701610b90565b9350506020610c0c86828701610b90565b9250506040610c1d86828701610bc3565b9150509250925092565b5f8115159050919050565b610c3b81610c27565b82525050565b5f602082019050610c545f830184610c32565b92915050565b5f5f60408385031215610c7057610c6f610b46565b5b5f610c7d85828601610b90565b9250506020610c8e85828601610bc3565b9150509250929050565b610ca181610b69565b82525050565b5f602082019050610cba5f830184610c98565b92915050565b5f60208284031215610cd557610cd4610b46565b5b5f610ce284828501610b90565b91505092915050565b5f5f60408385031215610d0157610d00610b46565b5b5f610d0e85828601610b90565b9250506020610d1f85828601610b90565b9150509250929050565b610d3281610ba4565b82525050565b5f602082019050610d4b5f830184610d29565b92915050565b610d5a81610c27565b8114610d64575f5ffd5b50565b5f81359050610d7581610d51565b92915050565b5f5f60408385031215610d9157610d90610b46565b5b5f610d9e85828601610b90565b9250506020610daf85828601610d67565b9150509250929050565b7f4e487b71000000000000000000000000000000000000000000000000000000005f52601160045260245ffd5b5f610df082610ba4565b9150610dfb83610ba4565b9250828201905080821115610e1357610e12610db9565b5b92915050565b5f604082019050610e2c5f830185610c98565b610e396020830184610c32565b9392505050565b5f610e4a82610ba4565b9150610e5583610ba4565b9250828203905081811115610e6d57610e6c610db9565b5b9291505056fea26469706673582212200e757897bd76fa0bc454b58d2f808c128917d72d3c1cef8efcd1dd4906ba94ff64736f6c634300081e0033",
			"opcodes": "PUSH1 0x80 PUSH1 0x40 MSTORE PUSH1 0x40 MLOAD PUSH2 0x2267 CODESIZE SUB DUP1 PUSH2 0x2267 DUP4 CODECOPY DUP2 DUP2 ADD PUSH1 0x40 MSTORE DUP2 ADD SWAP1 PUSH2 0x25 SWAP2 SWAP1 PUSH2 0x32F JUMP JUMPDEST DUP3 DUP3 PUSH1 0x1 DUP4 CALLER PUSH0 PUSH0 PUSH2 0x100 EXP DUP2 SLOAD DUP2 PUSH20 0xFFFFFFFFFFFFFFFFFFFFFFFFFFFFFFFFFFFFFFFF MUL NOT AND SWAP1 DUP4 PUSH20 0xFFFFFFFFFFFFFFFFFFFFFFFFFFFFFFFFFFFFFFFF AND MUL OR SWAP1 SSTORE POP TIMESTAMP DUP5 LT ISZERO PUSH2 0x75 JUMPI PUSH0 PUSH0 REVERT JUMPDEST DUP4 DUP4 LT ISZERO PUSH2 0x81 JUMPI PUSH0 PUSH0 REVERT JUMPDEST PUSH0 DUP3 SUB PUSH2 0x8C JUMPI PUSH0 PUSH0 REVERT JUMPDEST PUSH0 DUP2 SUB PUSH2 0x97 JUMPI PUSH0 PUSH0 REVERT JUMPDEST DUP4 PUSH1 0x1 DUP2 SWAP1 SSTORE POP DUP3 PUSH1 0x2 DUP2 SWAP1 SSTORE POP DUP2 PUSH1 0x3 DUP2 SWAP1 SSTORE POP PUSH8 0xDE0B6B3A7640000 DUP2 PUSH2 0xC0 SWAP2 SWAP1 PUSH2 0x3AC JUMP JUMPDEST PUSH1 0x4 DUP2 SWAP1 SSTORE POP PUSH0 PUSH1 0x40 MLOAD PUSH2 0xD3 SWAP1 PUSH2 0x2EB JUMP JUMPDEST PUSH2 0xDD SWAP2 SWAP1 PUSH2 0x42F JUMP JUMPDEST PUSH1 0x40 MLOAD DUP1 SWAP2 SUB SWAP1 PUSH0 CREATE DUP1 ISZERO DUP1 ISZERO PUSH2 0xF6 JUMPI RETURNDATASIZE PUSH0 PUSH0 RETURNDATACOPY RETURNDATASIZE PUSH0 REVERT JUMPDEST POP PUSH1 0x8 PUSH1 0x2 PUSH2 0x100 EXP DUP2 SLOAD DUP2 PUSH20 0xFFFFFFFFFFFFFFFFFFFFFFFFFFFFFFFFFFFFFFFF MUL NOT AND SWAP1 DUP4 PUSH20 0xFFFFFFFFFFFFFFFFFFFFFFFFFFFFFFFFFFFFFFFF AND MUL OR SWAP1 SSTORE POP PUSH0 PUSH1 0x8 PUSH0 PUSH2 0x100 EXP DUP2 SLOAD DUP2 PUSH1 0xFF MUL NOT AND SWAP1 DUP4 ISZERO ISZERO MUL OR SWAP1 SSTORE POP PUSH0 PUSH1 0x8 PUSH1 0x1 PUSH2 0x100 EXP DUP2 SLOAD DUP2 PUSH1 0xFF MUL NOT AND SWAP1 DUP4 ISZERO ISZERO MUL OR SWAP1 SSTORE POP CALLER PUSH0 PUSH0 PUSH2 0x100 EXP DUP2 SLOAD DUP2 PUSH20 0xFFFFFFFFFFFFFFFFFFFFFFFFFFFFFFFFFFFFFFFF MUL NOT AND SWAP1 DUP4 PUSH20 0xFFFFFFFFFFFFFFFFFFFFFFFFFFFFFFFFFFFFFFFF AND MUL OR SWAP1 SSTORE POP POP POP POP POP PUSH1 0x40 MLOAD DUP1 PUSH1 0x40 ADD PUSH1 0x40 MSTORE DUP1 PUSH8 0x29A2241AF62C0000 DUP2 MSTORE PUSH1 0x20 ADD PUSH7 0x71AFD498D0000 DUP2 MSTORE POP PUSH1 0x9 PUSH0 PUSH0 DUP2 MSTORE PUSH1 0x20 ADD SWAP1 DUP2 MSTORE PUSH1 0x20 ADD PUSH0 KECCAK256 PUSH0 DUP3 ADD MLOAD DUP2 PUSH0 ADD SSTORE PUSH1 0x20 DUP3 ADD MLOAD DUP2 PUSH1 0x1 ADD SSTORE SWAP1 POP POP PUSH1 0x40 MLOAD DUP1 PUSH1 0x40 ADD PUSH1 0x40 MSTORE DUP1 PUSH8 0x4563918244F40000 DUP2 MSTORE PUSH1 0x20 ADD PUSH7 0xAA87BEE538000 DUP2 MSTORE POP PUSH1 0x9 PUSH0 PUSH1 0x1 DUP2 MSTORE PUSH1 0x20 ADD SWAP1 DUP2 MSTORE PUSH1 0x20 ADD PUSH0 KECCAK256 PUSH0 DUP3 ADD MLOAD DUP2 PUSH0 ADD SSTORE PUSH1 0x20 DUP3 ADD MLOAD DUP2 PUSH1 0x1 ADD SSTORE SWAP1 POP POP PUSH1 0x40 MLOAD DUP1 PUSH1 0x40 ADD PUSH1 0x40 MSTORE DUP1 PUSH8 0x8AC7230489E80000 DUP2 MSTORE PUSH1 0x20 ADD PUSH7 0xE35FA931A0000 DUP2 MSTORE POP PUSH1 0x9 PUSH0 PUSH1 0x2 DUP2 MSTORE PUSH1 0x20 ADD SWAP1 DUP2 MSTORE PUSH1 0x20 ADD PUSH0 KECCAK256 PUSH0 DUP3 ADD MLOAD DUP2 PUSH0 ADD SSTORE PUSH1 0x20 DUP3 ADD MLOAD DUP2 PUSH1 0x1 ADD SSTORE SWAP1 POP POP PUSH1 0x40 MLOAD DUP1 PUSH1 0x40 ADD PUSH1 0x40 MSTORE DUP1 PUSH12 0x33B2E3C9FD0803CE8000000 DUP2 MSTORE PUSH1 0x20 ADD PUSH7 0x11C37937E08000 DUP2 MSTORE POP PUSH1 0x9 PUSH0 PUSH1 0x3 DUP2 MSTORE PUSH1 0x20 ADD SWAP1 DUP2 MSTORE PUSH1 0x20 ADD PUSH0 KECCAK256 PUSH0 DUP3 ADD MLOAD DUP2 PUSH0 ADD SSTORE PUSH1 0x20 DUP3 ADD MLOAD DUP2 PUSH1 0x1 ADD SSTORE SWAP1 POP POP PUSH0 PUSH1 0xA DUP2 SWAP1 SSTORE POP POP POP POP PUSH2 0x448 JUMP JUMPDEST PUSH2 0x11D3 DUP1 PUSH2 0x1094 DUP4 CODECOPY ADD SWAP1 JUMP JUMPDEST PUSH0 PUSH0 REVERT JUMPDEST PUSH0 DUP2 SWAP1 POP SWAP2 SWAP1 POP JUMP JUMPDEST PUSH2 0x30E DUP2 PUSH2 0x2FC JUMP JUMPDEST DUP2 EQ PUSH2 0x318 JUMPI PUSH0 PUSH0 REVERT JUMPDEST POP JUMP JUMPDEST PUSH0 DUP2 MLOAD SWAP1 POP PUSH2 0x329 DUP2 PUSH2 0x305 JUMP JUMPDEST SWAP3 SWAP2 POP POP JUMP JUMPDEST PUSH0 PUSH0 PUSH0 PUSH1 0x60 DUP5 DUP7 SUB SLT ISZERO PUSH2 0x346 JUMPI PUSH2 0x345 PUSH2 0x2F8 JUMP JUMPDEST JUMPDEST PUSH0 PUSH2 0x353 DUP7 DUP3 DUP8 ADD PUSH2 0x31B JUMP JUMPDEST SWAP4 POP POP PUSH1 0x20 PUSH2 0x364 DUP7 DUP3 DUP8 ADD PUSH2 0x31B JUMP JUMPDEST SWAP3 POP POP PUSH1 0x40 PUSH2 0x375 DUP7 DUP3 DUP8 ADD PUSH2 0x31B JUMP JUMPDEST SWAP2 POP POP SWAP3 POP SWAP3 POP SWAP3 JUMP JUMPDEST PUSH32 0x4E487B7100000000000000000000000000000000000000000000000000000000 PUSH0 MSTORE PUSH1 0x11 PUSH1 0x4 MSTORE PUSH1 0x24 PUSH0 REVERT JUMPDEST PUSH0 PUSH2 0x3B6 DUP3 PUSH2 0x2FC JUMP JUMPDEST SWAP2 POP PUSH2 0x3C1 DUP4 PUSH2 0x2FC JUMP JUMPDEST SWAP3 POP DUP3 DUP3 MUL PUSH2 0x3CF DUP2 PUSH2 0x2FC JUMP JUMPDEST SWAP2 POP DUP3 DUP3 DIV DUP5 EQ DUP4 ISZERO OR PUSH2 0x3E6 JUMPI PUSH2 0x3E5 PUSH2 0x37F JUMP JUMPDEST JUMPDEST POP SWAP3 SWAP2 POP POP JUMP JUMPDEST PUSH0 DUP2 SWAP1 POP SWAP2 SWAP1 POP JUMP JUMPDEST PUSH0 DUP2 SWAP1 POP SWAP2 SWAP1 POP JUMP JUMPDEST PUSH0 PUSH2 0x419 PUSH2 0x414 PUSH2 0x40F DUP5 PUSH2 0x3ED JUMP JUMPDEST PUSH2 0x3F6 JUMP JUMPDEST PUSH2 0x2FC JUMP JUMPDEST SWAP1 POP SWAP2 SWAP1 POP JUMP JUMPDEST PUSH2 0x429 DUP2 PUSH2 0x3FF JUMP JUMPDEST DUP3 MSTORE POP POP JUMP JUMPDEST PUSH0 PUSH1 0x20 DUP3 ADD SWAP1 POP PUSH2 0x442 PUSH0 DUP4 ADD DUP5 PUSH2 0x420 JUMP JUMPDEST SWAP3 SWAP2 POP POP JUMP JUMPDEST PUSH2 0xC3F DUP1 PUSH2 0x455 PUSH0 CODECOPY PUSH0 RETURN INVALID PUSH1 0x80 PUSH1 0x40 MSTORE PUSH1 0x4 CALLDATASIZE LT PUSH2 0xF2 JUMPI PUSH0 CALLDATALOAD PUSH1 0xE0 SHR DUP1 PUSH4 0xBAB34F43 GT PUSH2 0x89 JUMPI DUP1 PUSH4 0xE8B5E51F GT PUSH2 0x58 JUMPI DUP1 PUSH4 0xE8B5E51F EQ PUSH2 0x2D9 JUMPI DUP1 PUSH4 0xEE56CF41 EQ PUSH2 0x2E3 JUMPI DUP1 PUSH4 0xEFF1A844 EQ PUSH2 0x30D JUMPI DUP1 PUSH4 0xFA65DFAC EQ PUSH2 0x349 JUMPI PUSH2 0xF2 JUMP JUMPDEST DUP1 PUSH4 0xBAB34F43 EQ PUSH2 0x21E JUMPI DUP1 PUSH4 0xCB6F16D4 EQ PUSH2 0x248 JUMPI DUP1 PUSH4 0xDA406FF6 EQ PUSH2 0x272 JUMPI DUP1 PUSH4 0xE404D2D4 EQ PUSH2 0x29C JUMPI PUSH2 0xF2 JUMP JUMPDEST DUP1 PUSH4 0x590E1AE3 GT PUSH2 0xC5 JUMPI DUP1 PUSH4 0x590E1AE3 EQ PUSH2 0x18A JUMPI DUP1 PUSH4 0x78E97925 EQ PUSH2 0x1A0 JUMPI DUP1 PUSH4 0x8D4E4083 EQ PUSH2 0x1CA JUMPI DUP1 PUSH4 0x8DA5CB5B EQ PUSH2 0x1F4 JUMPI PUSH2 0xF2 JUMP JUMPDEST DUP1 PUSH4 0x1C0A5C10 EQ PUSH2 0xF6 JUMPI DUP1 PUSH4 0x3197CBB6 EQ PUSH2 0x120 JUMPI DUP1 PUSH4 0x38EF9380 EQ PUSH2 0x14A JUMPI DUP1 PUSH4 0x4BB278F3 EQ PUSH2 0x174 JUMPI JUMPDEST PUSH0 PUSH0 REVERT JUMPDEST CALLVALUE DUP1 ISZERO PUSH2 0x101 JUMPI PUSH0 PUSH0 REVERT JUMPDEST POP PUSH2 0x10A PUSH2 0x373 JUMP JUMPDEST PUSH1 0x40 MLOAD PUSH2 0x117 SWAP2 SWAP1 PUSH2 0x8F1 JUMP JUMPDEST PUSH1 0x40 MLOAD DUP1 SWAP2 SUB SWAP1 RETURN JUMPDEST CALLVALUE DUP1 ISZERO PUSH2 0x12B JUMPI PUSH0 PUSH0 REVERT JUMPDEST POP PUSH2 0x134 PUSH2 0x379 JUMP JUMPDEST PUSH1 0x40 MLOAD PUSH2 0x141 SWAP2 SWAP1 PUSH2 0x8F1 JUMP JUMPDEST PUSH1 0x40 MLOAD DUP1 SWAP2 SUB SWAP1 RETURN JUMPDEST CALLVALUE DUP1 ISZERO PUSH2 0x155 JUMPI PUSH0 PUSH0 REVERT JUMPDEST POP PUSH2 0x15E PUSH2 0x37F JUMP JUMPDEST PUSH1 0x40 MLOAD PUSH2 0x16B SWAP2 SWAP1 PUSH2 0x8F1 JUMP JUMPDEST PUSH1 0x40 MLOAD DUP1 SWAP2 SUB SWAP1 RETURN JUMPDEST CALLVALUE DUP1 ISZERO PUSH2 0x17F JUMPI PUSH0 PUSH0 REVERT JUMPDEST POP PUSH2 0x188 PUSH2 0x385 JUMP JUMPDEST STOP JUMPDEST CALLVALUE DUP1 ISZERO PUSH2 0x195 JUMPI PUSH0 PUSH0 REVERT JUMPDEST POP PUSH2 0x19E PUSH2 0x4CD JUMP JUMPDEST STOP JUMPDEST CALLVALUE DUP1 ISZERO PUSH2 0x1AB JUMPI PUSH0 PUSH0 REVERT JUMPDEST POP PUSH2 0x1B4 PUSH2 0x608 JUMP JUMPDEST PUSH1 0x40 MLOAD PUSH2 0x1C1 SWAP2 SWAP1 PUSH2 0x8F1 JUMP JUMPDEST PUSH1 0x40 MLOAD DUP1 SWAP2 SUB SWAP1 RETURN JUMPDEST CALLVALUE DUP1 ISZERO PUSH2 0x1D5 JUMPI PUSH0 PUSH0 REVERT JUMPDEST POP PUSH2 0x1DE PUSH2 0x60E JUMP JUMPDEST PUSH1 0x40 MLOAD PUSH2 0x1EB SWAP2 SWAP1 PUSH2 0x924 JUMP JUMPDEST PUSH1 0x40 MLOAD DUP1 SWAP2 SUB SWAP1 RETURN JUMPDEST CALLVALUE DUP1 ISZERO PUSH2 0x1FF JUMPI PUSH0 PUSH0 REVERT JUMPDEST POP PUSH2 0x208 PUSH2 0x620 JUMP JUMPDEST PUSH1 0x40 MLOAD PUSH2 0x215 SWAP2 SWAP1 PUSH2 0x97C JUMP JUMPDEST PUSH1 0x40 MLOAD DUP1 SWAP2 SUB SWAP1 RETURN JUMPDEST CALLVALUE DUP1 ISZERO PUSH2 0x229 JUMPI PUSH0 PUSH0 REVERT JUMPDEST POP PUSH2 0x232 PUSH2 0x644 JUMP JUMPDEST PUSH1 0x40 MLOAD PUSH2 0x23F SWAP2 SWAP1 PUSH2 0x8F1 JUMP JUMPDEST PUSH1 0x40 MLOAD DUP1 SWAP2 SUB SWAP1 RETURN JUMPDEST CALLVALUE DUP1 ISZERO PUSH2 0x253 JUMPI PUSH0 PUSH0 REVERT JUMPDEST POP PUSH2 0x25C PUSH2 0x64A JUMP JUMPDEST PUSH1 0x40 MLOAD PUSH2 0x269 SWAP2 SWAP1 PUSH2 0x924 JUMP JUMPDEST PUSH1 0x40 MLOAD DUP1 SWAP2 SUB SWAP1 RETURN JUMPDEST CALLVALUE DUP1 ISZERO PUSH2 0x27D JUMPI PUSH0 PUSH0 REVERT JUMPDEST POP PUSH2 0x286 PUSH2 0x65D JUMP JUMPDEST PUSH1 0x40 MLOAD PUSH2 0x293 SWAP2 SWAP1 PUSH2 0x8F1 JUMP JUMPDEST PUSH1 0x40 MLOAD DUP1 SWAP2 SUB SWAP1 RETURN JUMPDEST CALLVALUE DUP1 ISZERO PUSH2 0x2A7 JUMPI PUSH0 PUSH0 REVERT JUMPDEST POP PUSH2 0x2C2 PUSH1 0x4 DUP1 CALLDATASIZE SUB DUP2 ADD SWAP1 PUSH2 0x2BD SWAP2 SWAP1 PUSH2 0x9C3 JUMP JUMPDEST PUSH2 0x663 JUMP JUMPDEST PUSH1 0x40 MLOAD PUSH2 0x2D0 SWAP3 SWAP2 SWAP1 PUSH2 0x9EE JUMP JUMPDEST PUSH1 0x40 MLOAD DUP1 SWAP2 SUB SWAP1 RETURN JUMPDEST PUSH2 0x2E1 PUSH2 0x683 JUMP JUMPDEST STOP JUMPDEST CALLVALUE DUP1 ISZERO PUSH2 0x2EE JUMPI PUSH0 PUSH0 REVERT JUMPDEST POP PUSH2 0x2F7 PUSH2 0x763 JUMP JUMPDEST PUSH1 0x40 MLOAD PUSH2 0x304 SWAP2 SWAP1 PUSH2 0x8F1 JUMP JUMPDEST PUSH1 0x40 MLOAD DUP1 SWAP2 SUB SWAP1 RETURN JUMPDEST CALLVALUE DUP1 ISZERO PUSH2 0x318 JUMPI PUSH0 PUSH0 REVERT JUMPDEST POP PUSH2 0x333 PUSH1 0x4 DUP1 CALLDATASIZE SUB DUP2 ADD SWAP1 PUSH2 0x32E SWAP2 SWAP1 PUSH2 0xA3F JUMP JUMPDEST PUSH2 0x769 JUMP JUMPDEST PUSH1 0x40 MLOAD PUSH2 0x340 SWAP2 SWAP1 PUSH2 0x8F1 JUMP JUMPDEST PUSH1 0x40 MLOAD DUP1 SWAP2 SUB SWAP1 RETURN JUMPDEST CALLVALUE DUP1 ISZERO PUSH2 0x354 JUMPI PUSH0 PUSH0 REVERT JUMPDEST POP PUSH2 0x35D PUSH2 0x77E JUMP JUMPDEST PUSH1 0x40 MLOAD PUSH2 0x36A SWAP2 SWAP1 PUSH2 0xAC5 JUMP JUMPDEST PUSH1 0x40 MLOAD DUP1 SWAP2 SUB SWAP1 RETURN JUMPDEST PUSH1 0x6 SLOAD DUP2 JUMP JUMPDEST PUSH1 0x2 SLOAD DUP2 JUMP JUMPDEST PUSH1 0x7 SLOAD DUP2 JUMP JUMPDEST PUSH0 PUSH0 SWAP1 SLOAD SWAP1 PUSH2 0x100 EXP SWAP1 DIV PUSH20 0xFFFFFFFFFFFFFFFFFFFFFFFFFFFFFFFFFFFFFFFF AND PUSH20 0xFFFFFFFFFFFFFFFFFFFFFFFFFFFFFFFFFFFFFFFF AND CALLER PUSH20 0xFFFFFFFFFFFFFFFFFFFFFFFFFFFFFFFFFFFFFFFF AND EQ PUSH2 0x3DC JUMPI PUSH0 PUSH0 REVERT JUMPDEST PUSH1 0x8 PUSH0 SWAP1 SLOAD SWAP1 PUSH2 0x100 EXP SWAP1 DIV PUSH1 0xFF AND ISZERO PUSH2 0x3F4 JUMPI PUSH0 PUSH0 REVERT JUMPDEST PUSH0 PUSH1 0x1 SWAP1 POP PUSH0 PUSH1 0x4 SLOAD PUSH1 0x6 SLOAD LT ISZERO SWAP1 POP DUP2 ISZERO PUSH2 0x4C9 JUMPI DUP1 ISZERO PUSH2 0x492 JUMPI PUSH1 0x8 PUSH1 0x2 SWAP1 SLOAD SWAP1 PUSH2 0x100 EXP SWAP1 DIV PUSH20 0xFFFFFFFFFFFFFFFFFFFFFFFFFFFFFFFFFFFFFFFF AND PUSH20 0xFFFFFFFFFFFFFFFFFFFFFFFFFFFFFFFFFFFFFFFF AND PUSH4 0x86D1A69F PUSH1 0x40 MLOAD DUP2 PUSH4 0xFFFFFFFF AND PUSH1 0xE0 SHL DUP2 MSTORE PUSH1 0x4 ADD PUSH0 PUSH1 0x40 MLOAD DUP1 DUP4 SUB DUP2 PUSH0 DUP8 DUP1 EXTCODESIZE ISZERO DUP1 ISZERO PUSH2 0x477 JUMPI PUSH0 PUSH0 REVERT JUMPDEST POP GAS CALL ISZERO DUP1 ISZERO PUSH2 0x489 JUMPI RETURNDATASIZE PUSH0 PUSH0 RETURNDATACOPY RETURNDATASIZE PUSH0 REVERT JUMPDEST POP POP POP POP PUSH2 0x4AE JUMP JUMPDEST PUSH1 0x1 PUSH1 0x8 PUSH1 0x1 PUSH2 0x100 EXP DUP2 SLOAD DUP2 PUSH1 0xFF MUL NOT AND SWAP1 DUP4 ISZERO ISZERO MUL OR SWAP1 SSTORE POP JUMPDEST PUSH1 0x1 PUSH1 0x8 PUSH0 PUSH2 0x100 EXP DUP2 SLOAD DUP2 PUSH1 0xFF MUL NOT AND SWAP1 DUP4 ISZERO ISZERO MUL OR SWAP1 SSTORE POP JUMPDEST POP POP JUMP JUMPDEST PUSH1 0x8 PUSH1 0x1 SWAP1 SLOAD SWAP1 PUSH2 0x100 EXP SWAP1 DIV PUSH1 0xFF AND PUSH2 0x4E5 JUMPI PUSH0 PUSH0 REVERT JUMPDEST PUSH0 CALLER SWAP1 POP PUSH0 PUSH1 0x5 PUSH0 DUP4 PUSH20 0xFFFFFFFFFFFFFFFFFFFFFFFFFFFFFFFFFFFFFFFF AND PUSH20 0xFFFFFFFFFFFFFFFFFFFFFFFFFFFFFFFFFFFFFFFF AND DUP2 MSTORE PUSH1 0x20 ADD SWAP1 DUP2 MSTORE PUSH1 0x20 ADD PUSH0 KECCAK256 SLOAD SWAP1 POP PUSH0 DUP2 SUB PUSH2 0x535 JUMPI PUSH0 PUSH0 REVERT JUMPDEST PUSH0 PUSH1 0x5 PUSH0 DUP5 PUSH20 0xFFFFFFFFFFFFFFFFFFFFFFFFFFFFFFFFFFFFFFFF AND PUSH20 0xFFFFFFFFFFFFFFFFFFFFFFFFFFFFFFFFFFFFFFFF AND DUP2 MSTORE PUSH1 0x20 ADD SWAP1 DUP2 MSTORE PUSH1 0x20 ADD PUSH0 KECCAK256 DUP2 SWAP1 SSTORE POP DUP1 PUSH1 0x7 PUSH0 DUP3 DUP3 SLOAD PUSH2 0x588 SWAP2 SWAP1 PUSH2 0xB0B JUMP JUMPDEST SWAP3 POP POP DUP2 SWAP1 SSTORE POP PUSH32 0xBB28353E4598C3B9199101A66E0989549B659A59A54D2C27FBB183F1932C8E6D CALLER DUP3 PUSH1 0x40 MLOAD PUSH2 0x5C0 SWAP3 SWAP2 SWAP1 PUSH2 0xB3E JUMP JUMPDEST PUSH1 0x40 MLOAD DUP1 SWAP2 SUB SWAP1 LOG1 DUP2 PUSH20 0xFFFFFFFFFFFFFFFFFFFFFFFFFFFFFFFFFFFFFFFF AND PUSH2 0x8FC DUP3 SWAP1 DUP2 ISZERO MUL SWAP1 PUSH1 0x40 MLOAD PUSH0 PUSH1 0x40 MLOAD DUP1 DUP4 SUB DUP2 DUP6 DUP9 DUP9 CALL SWAP4 POP POP POP POP PUSH2 0x604 JUMPI PUSH0 PUSH0 REVERT JUMPDEST POP POP JUMP JUMPDEST PUSH1 0x1 SLOAD DUP2 JUMP JUMPDEST PUSH1 0x8 PUSH0 SWAP1 SLOAD SWAP1 PUSH2 0x100 EXP SWAP1 DIV PUSH1 0xFF AND DUP2 JUMP JUMPDEST PUSH0 PUSH0 SWAP1 SLOAD SWAP1 PUSH2 0x100 EXP SWAP1 DIV PUSH20 0xFFFFFFFFFFFFFFFFFFFFFFFFFFFFFFFFFFFFFFFF AND DUP2 JUMP JUMPDEST PUSH1 0x4 SLOAD DUP2 JUMP JUMPDEST PUSH1 0x8 PUSH1 0x1 SWAP1 SLOAD SWAP1 PUSH2 0x100 EXP SWAP1 DIV PUSH1 0xFF AND DUP2 JUMP JUMPDEST PUSH1 0xA SLOAD DUP2 JUMP JUMPDEST PUSH1 0x9 PUSH1 0x20 MSTORE DUP1 PUSH0 MSTORE PUSH1 0x40 PUSH0 KECCAK256 PUSH0 SWAP2 POP SWAP1 POP DUP1 PUSH0 ADD SLOAD SWAP1 DUP1 PUSH1 0x1 ADD SLOAD SWAP1 POP DUP3 JUMP JUMPDEST PUSH2 0x68C CALLVALUE PUSH2 0x7A4 JUMP JUMPDEST PUSH2 0x694 JUMPI PUSH0 PUSH0 REVERT JUMPDEST PUSH0 CALLER SWAP1 POP PUSH0 CALLVALUE SWAP1 POP DUP1 PUSH1 0x5 PUSH0 DUP5 PUSH20 0xFFFFFFFFFFFFFFFFFFFFFFFFFFFFFFFFFFFFFFFF AND PUSH20 0xFFFFFFFFFFFFFFFFFFFFFFFFFFFFFFFFFFFFFFFF AND DUP2 MSTORE PUSH1 0x20 ADD SWAP1 DUP2 MSTORE PUSH1 0x20 ADD PUSH0 KECCAK256 PUSH0 DUP3 DUP3 SLOAD PUSH2 0x6E8 SWAP2 SWAP1 PUSH2 0xB0B JUMP JUMPDEST SWAP3 POP POP DUP2 SWAP1 SSTORE POP DUP1 PUSH1 0x6 PUSH0 DUP3 DUP3 SLOAD PUSH2 0x700 SWAP2 SWAP1 PUSH2 0xB0B JUMP JUMPDEST SWAP3 POP POP DUP2 SWAP1 SSTORE POP PUSH2 0x711 DUP3 DUP3 PUSH2 0x7C4 JUMP JUMPDEST DUP2 PUSH20 0xFFFFFFFFFFFFFFFFFFFFFFFFFFFFFFFFFFFFFFFF AND PUSH32 0xC74590E3281392E897F5C0F45530951CFE0DB0E86C76D65AF861E80B925871A4 DUP3 PUSH1 0x40 MLOAD PUSH2 0x757 SWAP2 SWAP1 PUSH2 0x8F1 JUMP JUMPDEST PUSH1 0x40 MLOAD DUP1 SWAP2 SUB SWAP1 LOG2 POP POP JUMP JUMPDEST PUSH1 0x3 SLOAD DUP2 JUMP JUMPDEST PUSH1 0x5 PUSH1 0x20 MSTORE DUP1 PUSH0 MSTORE PUSH1 0x40 PUSH0 KECCAK256 PUSH0 SWAP2 POP SWAP1 POP SLOAD DUP2 JUMP JUMPDEST PUSH1 0x8 PUSH1 0x2 SWAP1 SLOAD SWAP1 PUSH2 0x100 EXP SWAP1 DIV PUSH20 0xFFFFFFFFFFFFFFFFFFFFFFFFFFFFFFFFFFFFFFFF AND DUP2 JUMP JUMPDEST PUSH0 PUSH0 PUSH0 DUP4 EQ ISZERO SWAP1 POP PUSH0 PUSH1 0x1 SWAP1 POP DUP2 DUP1 ISZERO PUSH2 0x7BB JUMPI POP DUP1 JUMPDEST SWAP3 POP POP POP SWAP2 SWAP1 POP JUMP JUMPDEST PUSH0 PUSH2 0x7CE DUP3 PUSH2 0x85F JUMP JUMPDEST SWAP1 POP PUSH1 0x8 PUSH1 0x2 SWAP1 SLOAD SWAP1 PUSH2 0x100 EXP SWAP1 DIV PUSH20 0xFFFFFFFFFFFFFFFFFFFFFFFFFFFFFFFFFFFFFFFF AND PUSH20 0xFFFFFFFFFFFFFFFFFFFFFFFFFFFFFFFFFFFFFFFF AND PUSH4 0x40C10F19 DUP5 DUP4 PUSH1 0x40 MLOAD DUP4 PUSH4 0xFFFFFFFF AND PUSH1 0xE0 SHL DUP2 MSTORE PUSH1 0x4 ADD PUSH2 0x82D SWAP3 SWAP2 SWAP1 PUSH2 0xB3E JUMP JUMPDEST PUSH0 PUSH1 0x40 MLOAD DUP1 DUP4 SUB DUP2 PUSH0 DUP8 DUP1 EXTCODESIZE ISZERO DUP1 ISZERO PUSH2 0x844 JUMPI PUSH0 PUSH0 REVERT JUMPDEST POP GAS CALL ISZERO DUP1 ISZERO PUSH2 0x856 JUMPI RETURNDATASIZE PUSH0 PUSH0 RETURNDATACOPY RETURNDATASIZE PUSH0 REVERT JUMPDEST POP POP POP POP POP POP POP JUMP JUMPDEST PUSH0 PUSH2 0x868 PUSH2 0x87D JUMP JUMPDEST PUSH1 0x3 SLOAD DUP3 PUSH2 0x876 SWAP2 SWAP1 PUSH2 0xB92 JUMP JUMPDEST SWAP1 POP SWAP2 SWAP1 POP JUMP JUMPDEST PUSH0 PUSH1 0xA SLOAD SWAP1 POP JUMPDEST PUSH1 0x6 SLOAD PUSH1 0x9 PUSH0 DUP4 DUP2 MSTORE PUSH1 0x20 ADD SWAP1 DUP2 MSTORE PUSH1 0x20 ADD PUSH0 KECCAK256 PUSH0 ADD SLOAD LT ISZERO PUSH2 0x8B2 JUMPI DUP1 PUSH2 0x8AB SWAP1 PUSH2 0xBC2 JUMP JUMPDEST SWAP1 POP PUSH2 0x884 JUMP JUMPDEST DUP1 PUSH1 0xA DUP2 SWAP1 SSTORE POP PUSH1 0x9 PUSH0 PUSH1 0xA SLOAD DUP2 MSTORE PUSH1 0x20 ADD SWAP1 DUP2 MSTORE PUSH1 0x20 ADD PUSH0 KECCAK256 PUSH1 0x1 ADD SLOAD PUSH1 0x3 DUP2 SWAP1 SSTORE POP POP JUMP JUMPDEST PUSH0 DUP2 SWAP1 POP SWAP2 SWAP1 POP JUMP JUMPDEST PUSH2 0x8EB DUP2 PUSH2 0x8D9 JUMP JUMPDEST DUP3 MSTORE POP POP JUMP JUMPDEST PUSH0 PUSH1 0x20 DUP3 ADD SWAP1 POP PUSH2 0x904 PUSH0 DUP4 ADD DUP5 PUSH2 0x8E2 JUMP JUMPDEST SWAP3 SWAP2 POP POP JUMP JUMPDEST PUSH0 DUP2 ISZERO ISZERO SWAP1 POP SWAP2 SWAP1 POP JUMP JUMPDEST PUSH2 0x91E DUP2 PUSH2 0x90A JUMP JUMPDEST DUP3 MSTORE POP POP JUMP JUMPDEST PUSH0 PUSH1 0x20 DUP3 ADD SWAP1 POP PUSH2 0x937 PUSH0 DUP4 ADD DUP5 PUSH2 0x915 JUMP JUMPDEST SWAP3 SWAP2 POP POP JUMP JUMPDEST PUSH0 PUSH20 0xFFFFFFFFFFFFFFFFFFFFFFFFFFFFFFFFFFFFFFFF DUP3 AND SWAP1 POP SWAP2 SWAP1 POP JUMP JUMPDEST PUSH0 PUSH2 0x966 DUP3 PUSH2 0x93D JUMP JUMPDEST SWAP1 POP SWAP2 SWAP1 POP JUMP JUMPDEST PUSH2 0x976 DUP2 PUSH2 0x95C JUMP JUMPDEST DUP3 MSTORE POP POP JUMP JUMPDEST PUSH0 PUSH1 0x20 DUP3 ADD SWAP1 POP PUSH2 0x98F PUSH0 DUP4 ADD DUP5 PUSH2 0x96D JUMP JUMPDEST SWAP3 SWAP2 POP POP JUMP JUMPDEST PUSH0 PUSH0 REVERT JUMPDEST PUSH2 0x9A2 DUP2 PUSH2 0x8D9 JUMP JUMPDEST DUP2 EQ PUSH2 0x9AC JUMPI PUSH0 PUSH0 REVERT JUMPDEST POP JUMP JUMPDEST PUSH0 DUP2 CALLDATALOAD SWAP1 POP PUSH2 0x9BD DUP2 PUSH2 0x999 JUMP JUMPDEST SWAP3 SWAP2 POP POP JUMP JUMPDEST PUSH0 PUSH1 0x20 DUP3 DUP5 SUB SLT ISZERO PUSH2 0x9D8 JUMPI PUSH2 0x9D7 PUSH2 0x995 JUMP JUMPDEST JUMPDEST PUSH0 PUSH2 0x9E5 DUP5 DUP3 DUP6 ADD PUSH2 0x9AF JUMP JUMPDEST SWAP2 POP POP SWAP3 SWAP2 POP POP JUMP JUMPDEST PUSH0 PUSH1 0x40 DUP3 ADD SWAP1 POP PUSH2 0xA01 PUSH0 DUP4 ADD DUP6 PUSH2 0x8E2 JUMP JUMPDEST PUSH2 0xA0E PUSH1 0x20 DUP4 ADD DUP5 PUSH2 0x8E2 JUMP JUMPDEST SWAP4 SWAP3 POP POP POP JUMP JUMPDEST PUSH2 0xA1E DUP2 PUSH2 0x95C JUMP JUMPDEST DUP2 EQ PUSH2 0xA28 JUMPI PUSH0 PUSH0 REVERT JUMPDEST POP JUMP JUMPDEST PUSH0 DUP2 CALLDATALOAD SWAP1 POP PUSH2 0xA39 DUP2 PUSH2 0xA15 JUMP JUMPDEST SWAP3 SWAP2 POP POP JUMP JUMPDEST PUSH0 PUSH1 0x20 DUP3 DUP5 SUB SLT ISZERO PUSH2 0xA54 JUMPI PUSH2 0xA53 PUSH2 0x995 JUMP JUMPDEST JUMPDEST PUSH0 PUSH2 0xA61 DUP5 DUP3 DUP6 ADD PUSH2 0xA2B JUMP JUMPDEST SWAP2 POP POP SWAP3 SWAP2 POP POP JUMP JUMPDEST PUSH0 DUP2 SWAP1 POP SWAP2 SWAP1 POP JUMP JUMPDEST PUSH0 PUSH2 0xA8D PUSH2 0xA88 PUSH2 0xA83 DUP5 PUSH2 0x93D JUMP JUMPDEST PUSH2 0xA6A JUMP JUMPDEST PUSH2 0x93D JUMP JUMPDEST SWAP1 POP SWAP2 SWAP1 POP JUMP JUMPDEST PUSH0 PUSH2 0xA9E DUP3 PUSH2 0xA73 JUMP JUMPDEST SWAP1 POP SWAP2 SWAP1 POP JUMP JUMPDEST PUSH0 PUSH2 0xAAF DUP3 PUSH2 0xA94 JUMP JUMPDEST SWAP1 POP SWAP2 SWAP1 POP JUMP JUMPDEST PUSH2 0xABF DUP2 PUSH2 0xAA5 JUMP JUMPDEST DUP3 MSTORE POP POP JUMP JUMPDEST PUSH0 PUSH1 0x20 DUP3 ADD SWAP1 POP PUSH2 0xAD8 PUSH0 DUP4 ADD DUP5 PUSH2 0xAB6 JUMP JUMPDEST SWAP3 SWAP2 POP POP JUMP JUMPDEST PUSH32 0x4E487B7100000000000000000000000000000000000000000000000000000000 PUSH0 MSTORE PUSH1 0x11 PUSH1 0x4 MSTORE PUSH1 0x24 PUSH0 REVERT JUMPDEST PUSH0 PUSH2 0xB15 DUP3 PUSH2 0x8D9 JUMP JUMPDEST SWAP2 POP PUSH2 0xB20 DUP4 PUSH2 0x8D9 JUMP JUMPDEST SWAP3 POP DUP3 DUP3 ADD SWAP1 POP DUP1 DUP3 GT ISZERO PUSH2 0xB38 JUMPI PUSH2 0xB37 PUSH2 0xADE JUMP JUMPDEST JUMPDEST SWAP3 SWAP2 POP POP JUMP JUMPDEST PUSH0 PUSH1 0x40 DUP3 ADD SWAP1 POP PUSH2 0xB51 PUSH0 DUP4 ADD DUP6 PUSH2 0x96D JUMP JUMPDEST PUSH2 0xB5E PUSH1 0x20 DUP4 ADD DUP5 PUSH2 0x8E2 JUMP JUMPDEST SWAP4 SWAP3 POP POP POP JUMP JUMPDEST PUSH32 0x4E487B7100000000000000000000000000000000000000000000000000000000 PUSH0 MSTORE PUSH1 0x12 PUSH1 0x4 MSTORE PUSH1 0x24 PUSH0 REVERT JUMPDEST PUSH0 PUSH2 0xB9C DUP3 PUSH2 0x8D9 JUMP JUMPDEST SWAP2 POP PUSH2 0xBA7 DUP4 PUSH2 0x8D9 JUMP JUMPDEST SWAP3 POP DUP3 PUSH2 0xBB7 JUMPI PUSH2 0xBB6 PUSH2 0xB65 JUMP JUMPDEST JUMPDEST DUP3 DUP3 DIV SWAP1 POP SWAP3 SWAP2 POP POP JUMP JUMPDEST PUSH0 PUSH2 0xBCC DUP3 PUSH2 0x8D9 JUMP JUMPDEST SWAP2 POP PUSH32 0xFFFFFFFFFFFFFFFFFFFFFFFFFFFFFFFFFFFFFFFFFFFFFFFFFFFFFFFFFFFFFFFF DUP3 SUB PUSH2 0xBFE JUMPI PUSH2 0xBFD PUSH2 0xADE JUMP JUMPDEST JUMPDEST PUSH1 0x1 DUP3 ADD SWAP1 POP SWAP2 SWAP1 POP JUMP INVALID LOG2 PUSH5 0x6970667358 0x22 SLT KECCAK256 GT PC 0xDE SWAP2 SWAP16 0xCA MUL CALLF 0x705D JUMP 0xD8 0xD5 JUMPF 0x1A3A 0x24 0xF7 0xAD 0xC8 0xD2 0xC1 0x2A SELFBALANCE JUMPF 0xEE4C 0xC6 0xCE TSTORE 0xFC 0xC3 PUSH5 0x736F6C6343 STOP ADDMOD 0x1E STOP CALLER PUSH1 0x80 PUSH1 0x40 MSTORE PUSH0 PUSH1 0x4 PUSH0 PUSH2 0x100 EXP DUP2 SLOAD DUP2 PUSH1 0xFF MUL NOT AND SWAP1 DUP4 ISZERO ISZERO MUL OR SWAP1 SSTORE POP CALLVALUE DUP1 ISZERO PUSH2 0x28 JUMPI PUSH0 PUSH0 REVERT JUMPDEST POP PUSH1 0x40 MLOAD PUSH2 0x11D3 CODESIZE SUB DUP1 PUSH2 0x11D3 DUP4 CODECOPY DUP2 DUP2 ADD PUSH1 0x40 MSTORE DUP2 ADD SWAP1 PUSH2 0x4A SWAP2 SWAP1 PUSH2 0x26A JUMP JUMPDEST DUP1 CALLER PUSH0 PUSH0 PUSH2 0x100 EXP DUP2 SLOAD DUP2 PUSH20 0xFFFFFFFFFFFFFFFFFFFFFFFFFFFFFFFFFFFFFFFF MUL NOT AND SWAP1 DUP4 PUSH20 0xFFFFFFFFFFFFFFFFFFFFFFFFFFFFFFFFFFFFFFFF AND MUL OR SWAP1 SSTORE POP CALLER PUSH0 PUSH0 PUSH2 0x100 EXP DUP2 SLOAD DUP2 PUSH20 0xFFFFFFFFFFFFFFFFFFFFFFFFFFFFFFFFFFFFFFFF MUL NOT AND SWAP1 DUP4 PUSH20 0xFFFFFFFFFFFFFFFFFFFFFFFFFFFFFFFFFFFFFFFF AND MUL OR SWAP1 SSTORE POP PUSH2 0xF9 PUSH0 PUSH0 SWAP1 SLOAD SWAP1 PUSH2 0x100 EXP SWAP1 DIV PUSH20 0xFFFFFFFFFFFFFFFFFFFFFFFFFFFFFFFFFFFFFFFF AND DUP3 PUSH2 0x100 PUSH1 0x20 SHL PUSH1 0x20 SHR JUMP JUMPDEST POP POP PUSH2 0x31D JUMP JUMPDEST PUSH0 PUSH0 SWAP1 SLOAD SWAP1 PUSH2 0x100 EXP SWAP1 DIV PUSH20 0xFFFFFFFFFFFFFFFFFFFFFFFFFFFFFFFFFFFFFFFF AND PUSH20 0xFFFFFFFFFFFFFFFFFFFFFFFFFFFFFFFFFFFFFFFF AND CALLER PUSH20 0xFFFFFFFFFFFFFFFFFFFFFFFFFFFFFFFFFFFFFFFF AND EQ PUSH2 0x157 JUMPI PUSH0 PUSH0 REVERT JUMPDEST DUP1 PUSH1 0x1 PUSH0 DUP5 PUSH20 0xFFFFFFFFFFFFFFFFFFFFFFFFFFFFFFFFFFFFFFFF AND PUSH20 0xFFFFFFFFFFFFFFFFFFFFFFFFFFFFFFFFFFFFFFFF AND DUP2 MSTORE PUSH1 0x20 ADD SWAP1 DUP2 MSTORE PUSH1 0x20 ADD PUSH0 KECCAK256 PUSH0 DUP3 DUP3 SLOAD PUSH2 0x1A3 SWAP2 SWAP1 PUSH2 0x2C2 JUMP JUMPDEST SWAP3 POP POP DUP2 SWAP1 SSTORE POP DUP2 PUSH20 0xFFFFFFFFFFFFFFFFFFFFFFFFFFFFFFFFFFFFFFFF AND PUSH0 PUSH0 SWAP1 SLOAD SWAP1 PUSH2 0x100 EXP SWAP1 DIV PUSH20 0xFFFFFFFFFFFFFFFFFFFFFFFFFFFFFFFFFFFFFFFF AND PUSH20 0xFFFFFFFFFFFFFFFFFFFFFFFFFFFFFFFFFFFFFFFF AND PUSH32 0xDDF252AD1BE2C89B69C2B068FC378DAA952BA7F163C4A11628F55A4DF523B3EF DUP4 PUSH1 0x40 MLOAD PUSH2 0x227 SWAP2 SWAP1 PUSH2 0x304 JUMP JUMPDEST PUSH1 0x40 MLOAD DUP1 SWAP2 SUB SWAP1 LOG3 POP POP JUMP JUMPDEST PUSH0 PUSH0 REVERT JUMPDEST PUSH0 DUP2 SWAP1 POP SWAP2 SWAP1 POP JUMP JUMPDEST PUSH2 0x249 DUP2 PUSH2 0x237 JUMP JUMPDEST DUP2 EQ PUSH2 0x253 JUMPI PUSH0 PUSH0 REVERT JUMPDEST POP JUMP JUMPDEST PUSH0 DUP2 MLOAD SWAP1 POP PUSH2 0x264 DUP2 PUSH2 0x240 JUMP JUMPDEST SWAP3 SWAP2 POP POP JUMP JUMPDEST PUSH0 PUSH1 0x20 DUP3 DUP5 SUB SLT ISZERO PUSH2 0x27F JUMPI PUSH2 0x27E PUSH2 0x233 JUMP JUMPDEST JUMPDEST PUSH0 PUSH2 0x28C DUP5 DUP3 DUP6 ADD PUSH2 0x256 JUMP JUMPDEST SWAP2 POP POP SWAP3 SWAP2 POP POP JUMP JUMPDEST PUSH32 0x4E487B7100000000000000000000000000000000000000000000000000000000 PUSH0 MSTORE PUSH1 0x11 PUSH1 0x4 MSTORE PUSH1 0x24 PUSH0 REVERT JUMPDEST PUSH0 PUSH2 0x2CC DUP3 PUSH2 0x237 JUMP JUMPDEST SWAP2 POP PUSH2 0x2D7 DUP4 PUSH2 0x237 JUMP JUMPDEST SWAP3 POP DUP3 DUP3 ADD SWAP1 POP DUP1 DUP3 GT ISZERO PUSH2 0x2EF JUMPI PUSH2 0x2EE PUSH2 0x295 JUMP JUMPDEST JUMPDEST SWAP3 SWAP2 POP POP JUMP JUMPDEST PUSH2 0x2FE DUP2 PUSH2 0x237 JUMP JUMPDEST DUP3 MSTORE POP POP JUMP JUMPDEST PUSH0 PUSH1 0x20 DUP3 ADD SWAP1 POP PUSH2 0x317 PUSH0 DUP4 ADD DUP5 PUSH2 0x2F5 JUMP JUMPDEST SWAP3 SWAP2 POP POP JUMP JUMPDEST PUSH2 0xEA9 DUP1 PUSH2 0x32A PUSH0 CODECOPY PUSH0 RETURN INVALID PUSH1 0x80 PUSH1 0x40 MSTORE CALLVALUE DUP1 ISZERO PUSH2 0xF JUMPI PUSH0 PUSH0 REVERT JUMPDEST POP PUSH1 0x4 CALLDATASIZE LT PUSH2 0xA7 JUMPI PUSH0 CALLDATALOAD PUSH1 0xE0 SHR DUP1 PUSH4 0xA9059CBB GT PUSH2 0x6F JUMPI DUP1 PUSH4 0xA9059CBB EQ PUSH2 0x13D JUMPI DUP1 PUSH4 0xB414D4B6 EQ PUSH2 0x159 JUMPI DUP1 PUSH4 0xC1DBD9B2 EQ PUSH2 0x189 JUMPI DUP1 PUSH4 0xDD62ED3E EQ PUSH2 0x1B9 JUMPI DUP1 PUSH4 0xE724529C EQ PUSH2 0x1E9 JUMPI DUP1 PUSH4 0xFABDE80C EQ PUSH2 0x205 JUMPI PUSH2 0xA7 JUMP JUMPDEST DUP1 PUSH4 0x23B872DD EQ PUSH2 0xAB JUMPI DUP1 PUSH4 0x40C10F19 EQ PUSH2 0xDB JUMPI DUP1 PUSH4 0x86D1A69F EQ PUSH2 0xF7 JUMPI DUP1 PUSH4 0x8DA5CB5B EQ PUSH2 0x101 JUMPI DUP1 PUSH4 0x96132521 EQ PUSH2 0x11F JUMPI JUMPDEST PUSH0 PUSH0 REVERT JUMPDEST PUSH2 0xC5 PUSH1 0x4 DUP1 CALLDATASIZE SUB DUP2 ADD SWAP1 PUSH2 0xC0 SWAP2 SWAP1 PUSH2 0xBD7 JUMP JUMPDEST PUSH2 0x235 JUMP JUMPDEST PUSH1 0x40 MLOAD PUSH2 0xD2 SWAP2 SWAP1 PUSH2 0xC41 JUMP JUMPDEST PUSH1 0x40 MLOAD DUP1 SWAP2 SUB SWAP1 RETURN JUMPDEST PUSH2 0xF5 PUSH1 0x4 DUP1 CALLDATASIZE SUB DUP2 ADD SWAP1 PUSH2 0xF0 SWAP2 SWAP1 PUSH2 0xC5A JUMP JUMPDEST PUSH2 0x261 JUMP JUMPDEST STOP JUMPDEST PUSH2 0xFF PUSH2 0x394 JUMP JUMPDEST STOP JUMPDEST PUSH2 0x109 PUSH2 0x407 JUMP JUMPDEST PUSH1 0x40 MLOAD PUSH2 0x116 SWAP2 SWAP1 PUSH2 0xCA7 JUMP JUMPDEST PUSH1 0x40 MLOAD DUP1 SWAP2 SUB SWAP1 RETURN JUMPDEST PUSH2 0x127 PUSH2 0x42B JUMP JUMPDEST PUSH1 0x40 MLOAD PUSH2 0x134 SWAP2 SWAP1 PUSH2 0xC41 JUMP JUMPDEST PUSH1 0x40 MLOAD DUP1 SWAP2 SUB SWAP1 RETURN JUMPDEST PUSH2 0x157 PUSH1 0x4 DUP1 CALLDATASIZE SUB DUP2 ADD SWAP1 PUSH2 0x152 SWAP2 SWAP1 PUSH2 0xC5A JUMP JUMPDEST PUSH2 0x43D JUMP JUMPDEST STOP JUMPDEST PUSH2 0x173 PUSH1 0x4 DUP1 CALLDATASIZE SUB DUP2 ADD SWAP1 PUSH2 0x16E SWAP2 SWAP1 PUSH2 0xCC0 JUMP JUMPDEST PUSH2 0x462 JUMP JUMPDEST PUSH1 0x40 MLOAD PUSH2 0x180 SWAP2 SWAP1 PUSH2 0xC41 JUMP JUMPDEST PUSH1 0x40 MLOAD DUP1 SWAP2 SUB SWAP1 RETURN JUMPDEST PUSH2 0x1A3 PUSH1 0x4 DUP1 CALLDATASIZE SUB DUP2 ADD SWAP1 PUSH2 0x19E SWAP2 SWAP1 PUSH2 0xC5A JUMP JUMPDEST PUSH2 0x47F JUMP JUMPDEST PUSH1 0x40 MLOAD PUSH2 0x1B0 SWAP2 SWAP1 PUSH2 0xC41 JUMP JUMPDEST PUSH1 0x40 MLOAD DUP1 SWAP2 SUB SWAP1 RETURN JUMPDEST PUSH2 0x1D3 PUSH1 0x4 DUP1 CALLDATASIZE SUB DUP2 ADD SWAP1 PUSH2 0x1CE SWAP2 SWAP1 PUSH2 0xCEB JUMP JUMPDEST PUSH2 0x507 JUMP JUMPDEST PUSH1 0x40 MLOAD PUSH2 0x1E0 SWAP2 SWAP1 PUSH2 0xD38 JUMP JUMPDEST PUSH1 0x40 MLOAD DUP1 SWAP2 SUB SWAP1 RETURN JUMPDEST PUSH2 0x203 PUSH1 0x4 DUP1 CALLDATASIZE SUB DUP2 ADD SWAP1 PUSH2 0x1FE SWAP2 SWAP1 PUSH2 0xD7B JUMP JUMPDEST PUSH2 0x527 JUMP JUMPDEST STOP JUMPDEST PUSH2 0x21F PUSH1 0x4 DUP1 CALLDATASIZE SUB DUP2 ADD SWAP1 PUSH2 0x21A SWAP2 SWAP1 PUSH2 0xCC0 JUMP JUMPDEST PUSH2 0x60F JUMP JUMPDEST PUSH1 0x40 MLOAD PUSH2 0x22C SWAP2 SWAP1 PUSH2 0xD38 JUMP JUMPDEST PUSH1 0x40 MLOAD DUP1 SWAP2 SUB SWAP1 RETURN JUMPDEST PUSH0 PUSH1 0x4 PUSH0 SWAP1 SLOAD SWAP1 PUSH2 0x100 EXP SWAP1 DIV PUSH1 0xFF AND PUSH2 0x24D JUMPI PUSH0 PUSH0 REVERT JUMPDEST PUSH2 0x258 DUP5 DUP5 DUP5 PUSH2 0x624 JUMP JUMPDEST SWAP1 POP SWAP4 SWAP3 POP POP POP JUMP JUMPDEST PUSH0 PUSH0 SWAP1 SLOAD SWAP1 PUSH2 0x100 EXP SWAP1 DIV PUSH20 0xFFFFFFFFFFFFFFFFFFFFFFFFFFFFFFFFFFFFFFFF AND PUSH20 0xFFFFFFFFFFFFFFFFFFFFFFFFFFFFFFFFFFFFFFFF AND CALLER PUSH20 0xFFFFFFFFFFFFFFFFFFFFFFFFFFFFFFFFFFFFFFFF AND EQ PUSH2 0x2B8 JUMPI PUSH0 PUSH0 REVERT JUMPDEST DUP1 PUSH1 0x1 PUSH0 DUP5 PUSH20 0xFFFFFFFFFFFFFFFFFFFFFFFFFFFFFFFFFFFFFFFF AND PUSH20 0xFFFFFFFFFFFFFFFFFFFFFFFFFFFFFFFFFFFFFFFF AND DUP2 MSTORE PUSH1 0x20 ADD SWAP1 DUP2 MSTORE PUSH1 0x20 ADD PUSH0 KECCAK256 PUSH0 DUP3 DUP3 SLOAD PUSH2 0x304 SWAP2 SWAP1 PUSH2 0xDE6 JUMP JUMPDEST SWAP3 POP POP DUP2 SWAP1 SSTORE POP DUP2 PUSH20 0xFFFFFFFFFFFFFFFFFFFFFFFFFFFFFFFFFFFFFFFF AND PUSH0 PUSH0 SWAP1 SLOAD SWAP1 PUSH2 0x100 EXP SWAP1 DIV PUSH20 0xFFFFFFFFFFFFFFFFFFFFFFFFFFFFFFFFFFFFFFFF AND PUSH20 0xFFFFFFFFFFFFFFFFFFFFFFFFFFFFFFFFFFFFFFFF AND PUSH32 0xDDF252AD1BE2C89B69C2B068FC378DAA952BA7F163C4A11628F55A4DF523B3EF DUP4 PUSH1 0x40 MLOAD PUSH2 0x388 SWAP2 SWAP1 PUSH2 0xD38 JUMP JUMPDEST PUSH1 0x40 MLOAD DUP1 SWAP2 SUB SWAP1 LOG3 POP POP JUMP JUMPDEST PUSH0 PUSH0 SWAP1 SLOAD SWAP1 PUSH2 0x100 EXP SWAP1 DIV PUSH20 0xFFFFFFFFFFFFFFFFFFFFFFFFFFFFFFFFFFFFFFFF AND PUSH20 0xFFFFFFFFFFFFFFFFFFFFFFFFFFFFFFFFFFFFFFFF AND CALLER PUSH20 0xFFFFFFFFFFFFFFFFFFFFFFFFFFFFFFFFFFFFFFFF AND EQ PUSH2 0x3EB JUMPI PUSH0 PUSH0 REVERT JUMPDEST PUSH1 0x1 PUSH1 0x4 PUSH0 PUSH2 0x100 EXP DUP2 SLOAD DUP2 PUSH1 0xFF MUL NOT AND SWAP1 DUP4 ISZERO ISZERO MUL OR SWAP1 SSTORE POP JUMP JUMPDEST PUSH0 PUSH0 SWAP1 SLOAD SWAP1 PUSH2 0x100 EXP SWAP1 DIV PUSH20 0xFFFFFFFFFFFFFFFFFFFFFFFFFFFFFFFFFFFFFFFF AND DUP2 JUMP JUMPDEST PUSH1 0x4 PUSH0 SWAP1 SLOAD SWAP1 PUSH2 0x100 EXP SWAP1 DIV PUSH1 0xFF AND DUP2 JUMP JUMPDEST PUSH1 0x4 PUSH0 SWAP1 SLOAD SWAP1 PUSH2 0x100 EXP SWAP1 DIV PUSH1 0xFF AND PUSH2 0x454 JUMPI PUSH0 PUSH0 REVERT JUMPDEST PUSH2 0x45E DUP3 DUP3 PUSH2 0x95D JUMP JUMPDEST POP POP JUMP JUMPDEST PUSH1 0x3 PUSH1 0x20 MSTORE DUP1 PUSH0 MSTORE PUSH1 0x40 PUSH0 KECCAK256 PUSH0 SWAP2 POP SLOAD SWAP1 PUSH2 0x100 EXP SWAP1 DIV PUSH1 0xFF AND DUP2 JUMP JUMPDEST PUSH0 DUP2 PUSH1 0x2 PUSH0 CALLER PUSH20 0xFFFFFFFFFFFFFFFFFFFFFFFFFFFFFFFFFFFFFFFF AND PUSH20 0xFFFFFFFFFFFFFFFFFFFFFFFFFFFFFFFFFFFFFFFF AND DUP2 MSTORE PUSH1 0x20 ADD SWAP1 DUP2 MSTORE PUSH1 0x20 ADD PUSH0 KECCAK256 PUSH0 DUP6 PUSH20 0xFFFFFFFFFFFFFFFFFFFFFFFFFFFFFFFFFFFFFFFF AND PUSH20 0xFFFFFFFFFFFFFFFFFFFFFFFFFFFFFFFFFFFFFFFF AND DUP2 MSTORE PUSH1 0x20 ADD SWAP1 DUP2 MSTORE PUSH1 0x20 ADD PUSH0 KECCAK256 DUP2 SWAP1 SSTORE POP PUSH1 0x1 SWAP1 POP SWAP3 SWAP2 POP POP JUMP JUMPDEST PUSH1 0x2 PUSH1 0x20 MSTORE DUP2 PUSH0 MSTORE PUSH1 0x40 PUSH0 KECCAK256 PUSH1 0x20 MSTORE DUP1 PUSH0 MSTORE PUSH1 0x40 PUSH0 KECCAK256 PUSH0 SWAP2 POP SWAP2 POP POP SLOAD DUP2 JUMP JUMPDEST PUSH0 PUSH0 SWAP1 SLOAD SWAP1 PUSH2 0x100 EXP SWAP1 DIV PUSH20 0xFFFFFFFFFFFFFFFFFFFFFFFFFFFFFFFFFFFFFFFF AND PUSH20 0xFFFFFFFFFFFFFFFFFFFFFFFFFFFFFFFFFFFFFFFF AND CALLER PUSH20 0xFFFFFFFFFFFFFFFFFFFFFFFFFFFFFFFFFFFFFFFF AND EQ PUSH2 0x57E JUMPI PUSH0 PUSH0 REVERT JUMPDEST DUP1 PUSH1 0x3 PUSH0 DUP5 PUSH20 0xFFFFFFFFFFFFFFFFFFFFFFFFFFFFFFFFFFFFFFFF AND PUSH20 0xFFFFFFFFFFFFFFFFFFFFFFFFFFFFFFFFFFFFFFFF AND DUP2 MSTORE PUSH1 0x20 ADD SWAP1 DUP2 MSTORE PUSH1 0x20 ADD PUSH0 KECCAK256 PUSH0 PUSH2 0x100 EXP DUP2 SLOAD DUP2 PUSH1 0xFF MUL NOT AND SWAP1 DUP4 ISZERO ISZERO MUL OR SWAP1 SSTORE POP PUSH32 0x67A17B8DB8FF8FA7CFF69C2328BF8A35F9BE2C88ABEEA30BE900FC28EECE28ED DUP3 DUP3 PUSH1 0x40 MLOAD PUSH2 0x603 SWAP3 SWAP2 SWAP1 PUSH2 0xE19 JUMP JUMPDEST PUSH1 0x40 MLOAD DUP1 SWAP2 SUB SWAP1 LOG1 POP POP JUMP JUMPDEST PUSH1 0x1 PUSH1 0x20 MSTORE DUP1 PUSH0 MSTORE PUSH1 0x40 PUSH0 KECCAK256 PUSH0 SWAP2 POP SWAP1 POP SLOAD DUP2 JUMP JUMPDEST PUSH0 PUSH0 PUSH20 0xFFFFFFFFFFFFFFFFFFFFFFFFFFFFFFFFFFFFFFFF AND DUP4 PUSH20 0xFFFFFFFFFFFFFFFFFFFFFFFFFFFFFFFFFFFFFFFF AND SUB PUSH2 0x65C JUMPI PUSH0 PUSH0 REVERT JUMPDEST DUP2 PUSH1 0x1 PUSH0 DUP7 PUSH20 0xFFFFFFFFFFFFFFFFFFFFFFFFFFFFFFFFFFFFFFFF AND PUSH20 0xFFFFFFFFFFFFFFFFFFFFFFFFFFFFFFFFFFFFFFFF AND DUP2 MSTORE PUSH1 0x20 ADD SWAP1 DUP2 MSTORE PUSH1 0x20 ADD PUSH0 KECCAK256 SLOAD GT PUSH2 0x6A4 JUMPI PUSH0 PUSH0 REVERT JUMPDEST PUSH1 0x1 PUSH0 DUP5 PUSH20 0xFFFFFFFFFFFFFFFFFFFFFFFFFFFFFFFFFFFFFFFF AND PUSH20 0xFFFFFFFFFFFFFFFFFFFFFFFFFFFFFFFFFFFFFFFF AND DUP2 MSTORE PUSH1 0x20 ADD SWAP1 DUP2 MSTORE PUSH1 0x20 ADD PUSH0 KECCAK256 SLOAD DUP3 PUSH1 0x1 PUSH0 DUP7 PUSH20 0xFFFFFFFFFFFFFFFFFFFFFFFFFFFFFFFFFFFFFFFF AND PUSH20 0xFFFFFFFFFFFFFFFFFFFFFFFFFFFFFFFFFFFFFFFF AND DUP2 MSTORE PUSH1 0x20 ADD SWAP1 DUP2 MSTORE PUSH1 0x20 ADD PUSH0 KECCAK256 SLOAD PUSH2 0x72B SWAP2 SWAP1 PUSH2 0xDE6 JUMP JUMPDEST LT ISZERO PUSH2 0x735 JUMPI PUSH0 PUSH0 REVERT JUMPDEST PUSH1 0x2 PUSH0 DUP6 PUSH20 0xFFFFFFFFFFFFFFFFFFFFFFFFFFFFFFFFFFFFFFFF AND PUSH20 0xFFFFFFFFFFFFFFFFFFFFFFFFFFFFFFFFFFFFFFFF AND DUP2 MSTORE PUSH1 0x20 ADD SWAP1 DUP2 MSTORE PUSH1 0x20 ADD PUSH0 KECCAK256 PUSH0 CALLER PUSH20 0xFFFFFFFFFFFFFFFFFFFFFFFFFFFFFFFFFFFFFFFF AND PUSH20 0xFFFFFFFFFFFFFFFFFFFFFFFFFFFFFFFFFFFFFFFF AND DUP2 MSTORE PUSH1 0x20 ADD SWAP1 DUP2 MSTORE PUSH1 0x20 ADD PUSH0 KECCAK256 SLOAD DUP3 GT ISZERO PUSH2 0x7B9 JUMPI PUSH0 PUSH0 REVERT JUMPDEST DUP2 PUSH1 0x1 PUSH0 DUP7 PUSH20 0xFFFFFFFFFFFFFFFFFFFFFFFFFFFFFFFFFFFFFFFF AND PUSH20 0xFFFFFFFFFFFFFFFFFFFFFFFFFFFFFFFFFFFFFFFF AND DUP2 MSTORE PUSH1 0x20 ADD SWAP1 DUP2 MSTORE PUSH1 0x20 ADD PUSH0 KECCAK256 PUSH0 DUP3 DUP3 SLOAD PUSH2 0x805 SWAP2 SWAP1 PUSH2 0xE40 JUMP JUMPDEST SWAP3 POP POP DUP2 SWAP1 SSTORE POP DUP2 PUSH1 0x1 PUSH0 DUP6 PUSH20 0xFFFFFFFFFFFFFFFFFFFFFFFFFFFFFFFFFFFFFFFF AND PUSH20 0xFFFFFFFFFFFFFFFFFFFFFFFFFFFFFFFFFFFFFFFF AND DUP2 MSTORE PUSH1 0x20 ADD SWAP1 DUP2 MSTORE PUSH1 0x20 ADD PUSH0 KECCAK256 PUSH0 DUP3 DUP3 SLOAD PUSH2 0x858 SWAP2 SWAP1 PUSH2 0xDE6 JUMP JUMPDEST SWAP3 POP POP DUP2 SWAP1 SSTORE POP DUP2 PUSH1 0x2 PUSH0 DUP7 PUSH20 0xFFFFFFFFFFFFFFFFFFFFFFFFFFFFFFFFFFFFFFFF AND PUSH20 0xFFFFFFFFFFFFFFFFFFFFFFFFFFFFFFFFFFFFFFFF AND DUP2 MSTORE PUSH1 0x20 ADD SWAP1 DUP2 MSTORE PUSH1 0x20 ADD PUSH0 KECCAK256 PUSH0 CALLER PUSH20 0xFFFFFFFFFFFFFFFFFFFFFFFFFFFFFFFFFFFFFFFF AND PUSH20 0xFFFFFFFFFFFFFFFFFFFFFFFFFFFFFFFFFFFFFFFF AND DUP2 MSTORE PUSH1 0x20 ADD SWAP1 DUP2 MSTORE PUSH1 0x20 ADD PUSH0 KECCAK256 PUSH0 DUP3 DUP3 SLOAD PUSH2 0x8E6 SWAP2 SWAP1 PUSH2 0xE40 JUMP JUMPDEST SWAP3 POP POP DUP2 SWAP1 SSTORE POP DUP3 PUSH20 0xFFFFFFFFFFFFFFFFFFFFFFFFFFFFFFFFFFFFFFFF AND DUP5 PUSH20 0xFFFFFFFFFFFFFFFFFFFFFFFFFFFFFFFFFFFFFFFF AND PUSH32 0xDDF252AD1BE2C89B69C2B068FC378DAA952BA7F163C4A11628F55A4DF523B3EF DUP5 PUSH1 0x40 MLOAD PUSH2 0x94A SWAP2 SWAP1 PUSH2 0xD38 JUMP JUMPDEST PUSH1 0x40 MLOAD DUP1 SWAP2 SUB SWAP1 LOG3 PUSH1 0x1 SWAP1 POP SWAP4 SWAP3 POP POP POP JUMP JUMPDEST DUP1 PUSH1 0x1 PUSH0 CALLER PUSH20 0xFFFFFFFFFFFFFFFFFFFFFFFFFFFFFFFFFFFFFFFF AND PUSH20 0xFFFFFFFFFFFFFFFFFFFFFFFFFFFFFFFFFFFFFFFF AND DUP2 MSTORE PUSH1 0x20 ADD SWAP1 DUP2 MSTORE PUSH1 0x20 ADD PUSH0 KECCAK256 SLOAD LT ISZERO PUSH2 0x9A6 JUMPI PUSH0 PUSH0 REVERT JUMPDEST PUSH1 0x1 PUSH0 DUP4 PUSH20 0xFFFFFFFFFFFFFFFFFFFFFFFFFFFFFFFFFFFFFFFF AND PUSH20 0xFFFFFFFFFFFFFFFFFFFFFFFFFFFFFFFFFFFFFFFF AND DUP2 MSTORE PUSH1 0x20 ADD SWAP1 DUP2 MSTORE PUSH1 0x20 ADD PUSH0 KECCAK256 SLOAD DUP2 PUSH1 0x1 PUSH0 DUP6 PUSH20 0xFFFFFFFFFFFFFFFFFFFFFFFFFFFFFFFFFFFFFFFF AND PUSH20 0xFFFFFFFFFFFFFFFFFFFFFFFFFFFFFFFFFFFFFFFF AND DUP2 MSTORE PUSH1 0x20 ADD SWAP1 DUP2 MSTORE PUSH1 0x20 ADD PUSH0 KECCAK256 SLOAD PUSH2 0xA2D SWAP2 SWAP1 PUSH2 0xDE6 JUMP JUMPDEST LT ISZERO PUSH2 0xA37 JUMPI PUSH0 PUSH0 REVERT JUMPDEST DUP1 PUSH1 0x1 PUSH0 CALLER PUSH20 0xFFFFFFFFFFFFFFFFFFFFFFFFFFFFFFFFFFFFFFFF AND PUSH20 0xFFFFFFFFFFFFFFFFFFFFFFFFFFFFFFFFFFFFFFFF AND DUP2 MSTORE PUSH1 0x20 ADD SWAP1 DUP2 MSTORE PUSH1 0x20 ADD PUSH0 KECCAK256 PUSH0 DUP3 DUP3 SLOAD PUSH2 0xA83 SWAP2 SWAP1 PUSH2 0xE40 JUMP JUMPDEST SWAP3 POP POP DUP2 SWAP1 SSTORE POP DUP1 PUSH1 0x1 PUSH0 DUP5 PUSH20 0xFFFFFFFFFFFFFFFFFFFFFFFFFFFFFFFFFFFFFFFF AND PUSH20 0xFFFFFFFFFFFFFFFFFFFFFFFFFFFFFFFFFFFFFFFF AND DUP2 MSTORE PUSH1 0x20 ADD SWAP1 DUP2 MSTORE PUSH1 0x20 ADD PUSH0 KECCAK256 PUSH0 DUP3 DUP3 SLOAD PUSH2 0xAD6 SWAP2 SWAP1 PUSH2 0xDE6 JUMP JUMPDEST SWAP3 POP POP DUP2 SWAP1 SSTORE POP DUP2 PUSH20 0xFFFFFFFFFFFFFFFFFFFFFFFFFFFFFFFFFFFFFFFF AND CALLER PUSH20 0xFFFFFFFFFFFFFFFFFFFFFFFFFFFFFFFFFFFFFFFF AND PUSH32 0xDDF252AD1BE2C89B69C2B068FC378DAA952BA7F163C4A11628F55A4DF523B3EF DUP4 PUSH1 0x40 MLOAD PUSH2 0xB3A SWAP2 SWAP1 PUSH2 0xD38 JUMP JUMPDEST PUSH1 0x40 MLOAD DUP1 SWAP2 SUB SWAP1 LOG3 POP POP JUMP JUMPDEST PUSH0 PUSH0 REVERT JUMPDEST PUSH0 PUSH20 0xFFFFFFFFFFFFFFFFFFFFFFFFFFFFFFFFFFFFFFFF DUP3 AND SWAP1 POP SWAP2 SWAP1 POP JUMP JUMPDEST PUSH0 PUSH2 0xB73 DUP3 PUSH2 0xB4A JUMP JUMPDEST SWAP1 POP SWAP2 SWAP1 POP JUMP JUMPDEST PUSH2 0xB83 DUP2 PUSH2 0xB69 JUMP JUMPDEST DUP2 EQ PUSH2 0xB8D JUMPI PUSH0 PUSH0 REVERT JUMPDEST POP JUMP JUMPDEST PUSH0 DUP2 CALLDATALOAD SWAP1 POP PUSH2 0xB9E DUP2 PUSH2 0xB7A JUMP JUMPDEST SWAP3 SWAP2 POP POP JUMP JUMPDEST PUSH0 DUP2 SWAP1 POP SWAP2 SWAP1 POP JUMP JUMPDEST PUSH2 0xBB6 DUP2 PUSH2 0xBA4 JUMP JUMPDEST DUP2 EQ PUSH2 0xBC0 JUMPI PUSH0 PUSH0 REVERT JUMPDEST POP JUMP JUMPDEST PUSH0 DUP2 CALLDATALOAD SWAP1 POP PUSH2 0xBD1 DUP2 PUSH2 0xBAD JUMP JUMPDEST SWAP3 SWAP2 POP POP JUMP JUMPDEST PUSH0 PUSH0 PUSH0 PUSH1 0x60 DUP5 DUP7 SUB SLT ISZERO PUSH2 0xBEE JUMPI PUSH2 0xBED PUSH2 0xB46 JUMP JUMPDEST JUMPDEST PUSH0 PUSH2 0xBFB DUP7 DUP3 DUP8 ADD PUSH2 0xB90 JUMP JUMPDEST SWAP4 POP POP PUSH1 0x20 PUSH2 0xC0C DUP7 DUP3 DUP8 ADD PUSH2 0xB90 JUMP JUMPDEST SWAP3 POP POP PUSH1 0x40 PUSH2 0xC1D DUP7 DUP3 DUP8 ADD PUSH2 0xBC3 JUMP JUMPDEST SWAP2 POP POP SWAP3 POP SWAP3 POP SWAP3 JUMP JUMPDEST PUSH0 DUP2 ISZERO ISZERO SWAP1 POP SWAP2 SWAP1 POP JUMP JUMPDEST PUSH2 0xC3B DUP2 PUSH2 0xC27 JUMP JUMPDEST DUP3 MSTORE POP POP JUMP JUMPDEST PUSH0 PUSH1 0x20 DUP3 ADD SWAP1 POP PUSH2 0xC54 PUSH0 DUP4 ADD DUP5 PUSH2 0xC32 JUMP JUMPDEST SWAP3 SWAP2 POP POP JUMP JUMPDEST PUSH0 PUSH0 PUSH1 0x40 DUP4 DUP6 SUB SLT ISZERO PUSH2 0xC70 JUMPI PUSH2 0xC6F PUSH2 0xB46 JUMP JUMPDEST JUMPDEST PUSH0 PUSH2 0xC7D DUP6 DUP3 DUP7 ADD PUSH2 0xB90 JUMP JUMPDEST SWAP3 POP POP PUSH1 0x20 PUSH2 0xC8E DUP6 DUP3 DUP7 ADD PUSH2 0xBC3 JUMP JUMPDEST SWAP2 POP POP SWAP3 POP SWAP3 SWAP1 POP JUMP JUMPDEST PUSH2 0xCA1 DUP2 PUSH2 0xB69 JUMP JUMPDEST DUP3 MSTORE POP POP JUMP JUMPDEST PUSH0 PUSH1 0x20 DUP3 ADD SWAP1 POP PUSH2 0xCBA PUSH0 DUP4 ADD DUP5 PUSH2 0xC98 JUMP JUMPDEST SWAP3 SWAP2 POP POP JUMP JUMPDEST PUSH0 PUSH1 0x20 DUP3 DUP5 SUB SLT ISZERO PUSH2 0xCD5 JUMPI PUSH2 0xCD4 PUSH2 0xB46 JUMP JUMPDEST JUMPDEST PUSH0 PUSH2 0xCE2 DUP5 DUP3 DUP6 ADD PUSH2 0xB90 JUMP JUMPDEST SWAP2 POP POP SWAP3 SWAP2 POP POP JUMP JUMPDEST PUSH0 PUSH0 PUSH1 0x40 DUP4 DUP6 SUB SLT ISZERO PUSH2 0xD01 JUMPI PUSH2 0xD00 PUSH2 0xB46 JUMP JUMPDEST JUMPDEST PUSH0 PUSH2 0xD0E DUP6 DUP3 DUP7 ADD PUSH2 0xB90 JUMP JUMPDEST SWAP3 POP POP PUSH1 0x20 PUSH2 0xD1F DUP6 DUP3 DUP7 ADD PUSH2 0xB90 JUMP JUMPDEST SWAP2 POP POP SWAP3 POP SWAP3 SWAP1 POP JUMP JUMPDEST PUSH2 0xD32 DUP2 PUSH2 0xBA4 JUMP JUMPDEST DUP3 MSTORE POP POP JUMP JUMPDEST PUSH0 PUSH1 0x20 DUP3 ADD SWAP1 POP PUSH2 0xD4B PUSH0 DUP4 ADD DUP5 PUSH2 0xD29 JUMP JUMPDEST SWAP3 SWAP2 POP POP JUMP JUMPDEST PUSH2 0xD5A DUP2 PUSH2 0xC27 JUMP JUMPDEST DUP2 EQ PUSH2 0xD64 JUMPI PUSH0 PUSH0 REVERT JUMPDEST POP JUMP JUMPDEST PUSH0 DUP2 CALLDATALOAD SWAP1 POP PUSH2 0xD75 DUP2 PUSH2 0xD51 JUMP JUMPDEST SWAP3 SWAP2 POP POP JUMP JUMPDEST PUSH0 PUSH0 PUSH1 0x40 DUP4 DUP6 SUB SLT ISZERO PUSH2 0xD91 JUMPI PUSH2 0xD90 PUSH2 0xB46 JUMP JUMPDEST JUMPDEST PUSH0 PUSH2 0xD9E DUP6 DUP3 DUP7 ADD PUSH2 0xB90 JUMP JUMPDEST SWAP3 POP POP PUSH1 0x20 PUSH2 0xDAF DUP6 DUP3 DUP7 ADD PUSH2 0xD67 JUMP JUMPDEST SWAP2 POP POP SWAP3 POP SWAP3 SWAP1 POP JUMP JUMPDEST PUSH32 0x4E487B7100000000000000000000000000000000000000000000000000000000 PUSH0 MSTORE PUSH1 0x11 PUSH1 0x4 MSTORE PUSH1 0x24 PUSH0 REVERT JUMPDEST PUSH0 PUSH2 0xDF0 DUP3 PUSH2 0xBA4 JUMP JUMPDEST SWAP2 POP PUSH2 0xDFB DUP4 PUSH2 0xBA4 JUMP JUMPDEST SWAP3 POP DUP3 DUP3 ADD SWAP1 POP DUP1 DUP3 GT ISZERO PUSH2 0xE13 JUMPI PUSH2 0xE12 PUSH2 0xDB9 JUMP JUMPDEST JUMPDEST SWAP3 SWAP2 POP POP JUMP JUMPDEST PUSH0 PUSH1 0x40 DUP3 ADD SWAP1 POP PUSH2 0xE2C PUSH0 DUP4 ADD DUP6 PUSH2 0xC98 JUMP JUMPDEST PUSH2 0xE39 PUSH1 0x20 DUP4 ADD DUP5 PUSH2 0xC32 JUMP JUMPDEST SWAP4 SWAP3 POP POP POP JUMP JUMPDEST PUSH0 PUSH2 0xE4A DUP3 PUSH2 0xBA4 JUMP JUMPDEST SWAP2 POP PUSH2 0xE55 DUP4 PUSH2 0xBA4 JUMP JUMPDEST SWAP3 POP DUP3 DUP3 SUB SWAP1 POP DUP2 DUP2 GT ISZERO PUSH2 0xE6D JUMPI PUSH2 0xE6C PUSH2 0xDB9 JUMP JUMPDEST JUMPDEST SWAP3 SWAP2 POP POP JUMP INVALID LOG2 PUSH5 0x6970667358 0x22 SLT KECCAK256 0xE PUSH22 0x7897BD76FA0BC454B58D2F808C128917D72D3C1CEF8E 0xFC DATALOADN 0xDD49 MOD 0xBA SWAP5 SELFDESTRUCT PUSH5 0x736F6C6343 STOP ADDMOD 0x1E STOP CALLER "
		},
		"gasEstimates": {
			"creation": {
				"codeDepositCost": "627000",
				"executionCost": "infinite",
				"totalCost": "infinite"
			},
			"external": {
				"crowdsaleToken()": "infinite",
				"currentTrancheLevel()": "2492",
				"endTime()": "2471",
				"finalize()": "infinite",
				"inventmentAmountOf(address)": "2868",
				"invest()": "infinite",
				"investmentReceived()": "2449",
				"investmentRefunded()": "2493",
				"isFinalized()": "2533",
				"isRefundingAllowed()": "2562",
				"owner()": "2596",
				"refund()": "infinite",
				"startTime()": "2470",
				"trancheStructure(uint256)": "infinite",
				"weiInvestmentObjective()": "2448",
				"weiTokenPrice()": "2469"
			},
			"internal": {
				"calculateNumberOfTokens(uint256)": "infinite",
				"updateCurrentTrancheAndPrice()": "infinite"
			}
		},
		"methodIdentifiers": {
			"crowdsaleToken()": "fa65dfac",
			"currentTrancheLevel()": "da406ff6",
			"endTime()": "3197cbb6",
			"finalize()": "4bb278f3",
			"inventmentAmountOf(address)": "eff1a844",
			"invest()": "e8b5e51f",
			"investmentReceived()": "1c0a5c10",
			"investmentRefunded()": "38ef9380",
			"isFinalized()": "8d4e4083",
			"isRefundingAllowed()": "cb6f16d4",
			"owner()": "8da5cb5b",
			"refund()": "590e1ae3",
			"startTime()": "78e97925",
			"trancheStructure(uint256)": "e404d2d4",
			"weiInvestmentObjective()": "bab34f43",
			"weiTokenPrice()": "ee56cf41"
		}
	},
	"abi": [
		{
			"inputs": [
				{
					"internalType": "uint256",
					"name": "_startTime",
					"type": "uint256"
				},
				{
					"internalType": "uint256",
					"name": "_endTime",
					"type": "uint256"
				},
				{
					"internalType": "uint256",
					"name": "_etherInvestmentObjective",
					"type": "uint256"
				}
			],
			"stateMutability": "payable",
			"type": "constructor"
		},
		{
			"anonymous": false,
			"inputs": [
				{
					"indexed": true,
					"internalType": "address",
					"name": "investor",
					"type": "address"
				},
				{
					"indexed": false,
					"internalType": "uint256",
					"name": "value",
					"type": "uint256"
				}
			],
			"name": "LogInvestment",
			"type": "event"
		},
		{
			"anonymous": false,
			"inputs": [
				{
					"indexed": true,
					"internalType": "address",
					"name": "investor",
					"type": "address"
				},
				{
					"indexed": false,
					"internalType": "uint256",
					"name": "numTokens",
					"type": "uint256"
				}
			],
			"name": "LogTokenAssignment",
			"type": "event"
		},
		{
			"anonymous": false,
			"inputs": [
				{
					"indexed": false,
					"internalType": "address",
					"name": "investor",
					"type": "address"
				},
				{
					"indexed": false,
					"internalType": "uint256",
					"name": "value",
					"type": "uint256"
				}
			],
			"name": "Refund",
			"type": "event"
		},
		{
			"inputs": [],
			"name": "crowdsaleToken",
			"outputs": [
				{
					"internalType": "contract ReleasableSimpleCoin",
					"name": "",
					"type": "address"
				}
			],
			"stateMutability": "view",
			"type": "function"
		},
		{
			"inputs": [],
			"name": "currentTrancheLevel",
			"outputs": [
				{
					"internalType": "uint256",
					"name": "",
					"type": "uint256"
				}
			],
			"stateMutability": "view",
			"type": "function"
		},
		{
			"inputs": [],
			"name": "endTime",
			"outputs": [
				{
					"internalType": "uint256",
					"name": "",
					"type": "uint256"
				}
			],
			"stateMutability": "view",
			"type": "function"
		},
		{
			"inputs": [],
			"name": "finalize",
			"outputs": [],
			"stateMutability": "nonpayable",
			"type": "function"
		},
		{
			"inputs": [
				{
					"internalType": "address",
					"name": "",
					"type": "address"
				}
			],
			"name": "inventmentAmountOf",
			"outputs": [
				{
					"internalType": "uint256",
					"name": "",
					"type": "uint256"
				}
			],
			"stateMutability": "view",
			"type": "function"
		},
		{
			"inputs": [],
			"name": "invest",
			"outputs": [],
			"stateMutability": "payable",
			"type": "function"
		},
		{
			"inputs": [],
			"name": "investmentReceived",
			"outputs": [
				{
					"internalType": "uint256",
					"name": "",
					"type": "uint256"
				}
			],
			"stateMutability": "view",
			"type": "function"
		},
		{
			"inputs": [],
			"name": "investmentRefunded",
			"outputs": [
				{
					"internalType": "uint256",
					"name": "",
					"type": "uint256"
				}
			],
			"stateMutability": "view",
			"type": "function"
		},
		{
			"inputs": [],
			"name": "isFinalized",
			"outputs": [
				{
					"internalType": "bool",
					"name": "",
					"type": "bool"
				}
			],
			"stateMutability": "view",
			"type": "function"
		},
		{
			"inputs": [],
			"name": "isRefundingAllowed",
			"outputs": [
				{
					"internalType": "bool",
					"name": "",
					"type": "bool"
				}
			],
			"stateMutability": "view",
			"type": "function"
		},
		{
			"inputs": [],
			"name": "owner",
			"outputs": [
				{
					"internalType": "address",
					"name": "",
					"type": "address"
				}
			],
			"stateMutability": "view",
			"type": "function"
		},
		{
			"inputs": [],
			"name": "refund",
			"outputs": [],
			"stateMutability": "nonpayable",
			"type": "function"
		},
		{
			"inputs": [],
			"name": "startTime",
			"outputs": [
				{
					"internalType": "uint256",
					"name": "",
					"type": "uint256"
				}
			],
			"stateMutability": "view",
			"type": "function"
		},
		{
			"inputs": [
				{
					"internalType": "uint256",
					"name": "",
					"type": "uint256"
				}
			],
			"name": "trancheStructure",
			"outputs": [
				{
					"internalType": "uint256",
					"name": "weiHighLimit",
					"type": "uint256"
				},
				{
					"internalType": "uint256",
					"name": "weiTokenPrice",
					"type": "uint256"
				}
			],
			"stateMutability": "view",
			"type": "function"
		},
		{
			"inputs": [],
			"name": "weiInvestmentObjective",
			"outputs": [
				{
					"internalType": "uint256",
					"name": "",
					"type": "uint256"
				}
			],
			"stateMutability": "view",
			"type": "function"
		},
		{
			"inputs": [],
			"name": "weiTokenPrice",
			"outputs": [
				{
					"internalType": "uint256",
					"name": "",
					"type": "uint256"
				}
			],
			"stateMutability": "view",
			"type": "function"
		}
	]
}